:1000000000800020BD0100002D0E0000F10D000059
:10001000F10D0000F10D0000F10D0000F10D0000E8
:10002000F10D0000F10D0000F10D00002D0E00009B
:100030002D0E0000F10D00002D0E0000E10D00005E
:100040002D0E00002D0E00002D0E00002D0E0000C4
:100050002D0E00002D0E00002D0E00002D0E0000B4
:100060002D0E00002D0E00002D0E00002D0E0000A4
:100070002D0E00002D0E00002D0E00002D0E000094
:100080002D0E00002D0E00002D0E00002D0E000084
:100090002D0E00002D0E00002D0E00002D0E000074
:1000A0002D0E00002D0E00002D0E00002D0E000064
:1000B0002D0E00002D0E00002D0E00002D0E000054
:1000C0002D0E00002D0E00002D0E00002D0E000044
:1000D0002D0E00002D0E00002D0E00002D0E000034
:1000E0002D0E00002D0E00002D0E00002D0E000024
:1000F0002D0E0000052300002D0E0000A528000095
:100100002D0E0000492D00002D0E00002D0E0000C8
:100110002D0E00002D0E00002D0E00002D0E0000F3
:100120002D0E00002D0E00002D0E00002D0E0000E3
:100130002D0E00002D0E00002D0E00002D0E0000D3
:100140002D0E00002D0E00002D0E00002D0E0000C3
:100150002D0E00002D0E00002D0E00002D0E0000B3
:100160002D0E00002D1200002D0E00002D0E00009F
:100170002D0E00002D0E00002D0E00002D0E000093
:100180002D0E00002D0E00002D0E00002D0E000083
:100190002D0E00002D0E00002D0E00002D0E000073
:1001A0002D0E00002D0E00002D0E00002D0E000063
:1001B0002D0E00002D0E00002D0E0000574B4CF2AE
:1001C000205210B51A804DF628121A8000BF00BFC9
:1001D00000F030FE524B4FF010621A60514A9A60A4
:1001E000514ADA60A3F53043203B1A6812F480725A
:1001F00004D14E490A604FF4A8521A604C4B1A7849
:10020000110703D51A7842F008021A70494B4A4C7C
:100210004A482A221A704A4A00239918A14203D256
:10022000195899500433F8E7464B474900228B424E
:1002300002D243F8042BFAE74448454900235A58B0
:100240001A500433B3F5DE7FF9D1424B424A802184
:1002500003F8011B9342FBD1404B3C4A1A60404BD0
:100260000A221A70A3F5805324225A70A0221A7011
:100270009A799207FCD59A79D406FCD4394A9379B5
:1002800003F00C03082B374BF9D103221A714022DB
:100290005A719A799006FCD5324A9179314B4906C8
:1002A000FBD5314A314911600221516020221A7078
:1002B0009A7902F00C020C2AFAD12D4B2D4A1A60C1
:1002C0002D4B2E4A1A6000225A60072243F8042C54
:1002D0002B4AC3F80C2D62B600F06AFE134B1B6864
:1002E000DA0705D5274800F0D7FD274B274A1A60C3
:1002F000274B1B785B0609D5234C244A236893427D
:1003000004D1204800F0C8FD0023236002F0D0FF94
:1003100000F096FD01F0CAFCFEE700BF0E2005408C
:1003200030800440823F04000100002B14D00340C1
:1003300002D0074000E007400C88FF1F8C36000009
:100340006087FF1F0C88FF1F508BFF1F0082FF1F5D
:100350000000000000E400E05FE400E008ED00E0E1
:100360000050064000400640448004400000030165
:1003700004800440C010050014E000E0FF76010096
:100380000000202097631A581CE00340A5C3945A2C
:1003900000F00740FFFFFFFFFFFFFFFFFFFFFFFF32
:1003A000FFFFFFFFFFFFFFFFFFFFFFFFFFFFFFFF5D
:1003B000FFFFFFFFFFFFFFFFFFFFFFFFFFFFFFFF4D
:1003C000FFFFFFFFFFFFFFFFFFFFFFFFFFFFFFFF3D
:1003D000FFFFFFFFFFFFFFFFFFFFFFFFFFFFFFFF2D
:1003E000FFFFFFFFFFFFFFFFFFFFFFFFFFFFFFFF1D
:1003F000FFFFFFFFFFFFFFFFFFFFFFFFFFFFFFFF0D
:10040000FFFFFFFFFFFFFFFFFFFFFFFFFEFFFFFFFD
:1004100010B5054C237833B9044B13B10448AFF33E
:1004200000800123237010BD0C88FF1F0000000016
:100430008C36000008B5064B1BB106480649AFF3E1
:1004400000800648036813B1054B03B1984708BD07
:10045000000000008C3600001088FF1F0C88FF1F72
:10046000000000004069704710B582B00A460023C2
:100470008DF800308DF801308DF802300468246862
:100480008DF804308DF805308DF80630694601ABE3
:10049000A04702B010BD00BF4FF4C870704700BF46
:1004A00010B504460220012100F02AFD0123A361BA
:1004B000014BE36110BD00BFC0F00F40F0B589B043
:1004C000847C0191029203921A788DF816205A7852
:1004D0008DF817209B788DF81830012C39D1294AD6
:1004E0001378013303F00703137003F00105ED01E6
:1004F00013F0020F1CBF45F04005EDB213F0040FDE
:1005000018BF45F020051035EDB20DF1150306AF0B
:1005100000264FF4807E013319461A7822B19EFBE3
:10052000F2F20132D2B200E0324601F8032C02FBB3
:100530000554C4F3072414B901F8066C02E0013C29
:1005400001F8064C12B1013A01F8032CBB42E2D18A
:100550000CE000238DF815308DF814308DF8133031
:100560008DF812308DF811308DF8103003238DF88E
:1005700019300023079303689B6901A9984709B0C4
:10058000F0BD00BF2888FF1FF0B589B0847C0191C1
:10059000029203921A788DF816205A788DF8172057
:1005A0009B788DF81830012C39D1284A1378013303
:1005B00003F00703137003F00105ED0113F0020FC0
:1005C0001CBF45F04005EDB213F0040F18BF45F015
:1005D00020051035EDB20DF1150306AF00264FF4DE
:1005E000807E013319461A7822B19EFBF2F2013265
:1005F000D2B200E0324601F8032C02FB0554C4F3EA
:10060000072414B901F8066C02E0013C01F8064C1D
:1006100012B1013A01F8032CBB42E2D10CE00023F5
:100620008DF815308DF814308DF813308DF81230A8
:100630008DF811308DF8103000238DF819300793A4
:1006400003689B6901A9984709B0F0BD2888FF1F7E
:100650002DE9F04F8BB009900191044600F072FC37
:10066000238CC01A83B2312BF8D9019C207B94F8DB
:100670000DC094F80EE0E17B0291227C0392637C32
:1006800004932668A17CE57C94F814B0647D0694FC
:10069000019C63688C4A146844F0807414608B4A2F
:1006A000146844F001041460002404321460884A81
:1006B0001468146824F001041460029A101A5FFA96
:1006C00080F832781AB182FA58F2D2B200E00022F1
:1006D0000131059101FB02F2C2F3072A72B67D4A8D
:1006E00012687832002B40F3F7809946794B7848AE
:1006F0000727013507950BF1010BCDF820B0029CBF
:10070000C8EB04085FFA88F80399CCEB010C5FFA98
:100710008CFC049CCEEB040E5FFA8EFE72B6196858
:10072000914206D91968891AB1F5935F01D962B669
:10073000D8E0046844F00104056825F00105BB46D3
:1007400019689142FCD31A68783204601AF0800F5D
:1007500005D01968511A2029FBD8056004E01968F2
:10076000511A6829FBD805604FEA4A0A5FFA8AFAEB
:10077000BBF1010BE4D119689142FCD31A687832BD
:1007800004601AF0800F05D01968511A2029FBD88F
:10079000056004E01968511A6829FBD80560717872
:1007A00021B181FA5CF15FFA81FA01E04FF0000AB1
:1007B000079901FB0AFACAF3072ABB461968914256
:1007C000FCD31A68783204601AF0800F05D01968DB
:1007D000511A2029FBD8056004E01968511A6829CC
:1007E000FBD805604FEA4A0A5FFA8AFABBF1010BAF
:1007F000E4D119689142FCD31A68783204601AF087
:10080000800F05D01968511A2029FBD8056004E033
:100810001968511A6829FBD80560B17821B181FAAD
:100820005EF15FFA81FA01E04FF0000A089901FBDE
:100830000AFACAF3072ABB4619689142FCD31A6820
:10084000783204601AF0800F05D01968511A2029F7
:10085000FBD8056004E01968511A6829FBD80560C7
:100860004FEA4A0A5FFA8AFABBF1010BE4D1196830
:100870009142FCD31A68783204601AF0800F05D0D8
:100880001968511A2029FBD8056004E01968511A2B
:100890006829FBD8056006994CB2311909F1FF357A
:1008A000345D24B184FA58F45FFA84FA01E04FF021
:1008B000000A059C0AFB04FACAF3072A62B65DB176
:1008C0000E46A9461BE700BFFCED00E0001000E06B
:1008D000C0F00F40041000E062B6A24B1B68002B72
:1008E00040F0388162B64FF4C863013B7FF4FDAF3E
:1008F00072B60198047B90F80DC090F80EE0C17BB1
:100900000291027C0392437C04930668807C019AE6
:10091000D17C92F814A0537D05935368924A1568D0
:1009200045F080751560914A156845F00105156020
:100930000025043215608E4A1568156825F00105FA
:100940001560029A141B5FFA84F832781AB182FAA1
:1009500058F2D2B200E000220130019000FB02F216
:10096000C2F3072972B67F4A12687832002B40F32F
:10097000EE809B467B4B7E480727013106910AF1AA
:10098000010ACDF81CA0029CC8EB04085FFA88F8A5
:100990000399CCEB010C5FFA8CFC049CCEEB040EAB
:1009A0005FFA8EFE72B61968914206D91968891AE3
:1009B000B1F5935F01D962B6CCE0046844F001045C
:1009C000056825F00105BA4619689142FCD31A68FA
:1009D0007832046019F0800F05D01968511A202967
:1009E000FBD8056004E01968511A6829FBD8056036
:1009F0004FEA49095FFA89F9BAF1010AE4D11968A5
:100A00009142FCD31A687832046019F0800F05D047
:100A10001968511A2029FBD8056004E01968511A99
:100A20006829FBD80560717821B181FA5CF15FFA21
:100A300081F901E04FF00009069901FB09F9C9F3BA
:100A40000729BA4619689142FCD31A6878320460C3
:100A500019F0800F05D01968511A2029FBD80560BC
:100A600004E01968511A6829FBD805604FEA490962
:100A70005FFA89F9BAF1010AE4D119689142FCD30D
:100A80001A687832046019F0800F05D01968511A7D
:100A90002029FBD8056004E01968511A6829FBD8A1
:100AA0000560B17821B181FA5EF15FFA81F901E068
:100AB0004FF00009079901FB09F9C9F30729BA4664
:100AC00019689142FCD31A687832046019F0800FDB
:100AD00005D01968511A2029FBD8056004E019686F
:100AE000511A6829FBD805604FEA49095FFA89F96C
:100AF000BAF1010AE4D119689142FCD31A6878323C
:100B0000046019F0800F05D01968511A2029FBD80C
:100B1000056004E01968511A6829FBD80560059C36
:100B200061B274180BF1FF35715C21B181FA58F193
:100B30005FFA81F901E04FF00009019909FB01F921
:100B4000C9F3072962B615B12646AB461BE762B664
:100B5000044B1B6800F0F6F9099C20840BB0BDE83B
:100B6000F08F00BF041000E0FCED00E0001000E09A
:100B7000C0F00F4008B54FF4FA6000F005FA194BC9
:100B80001B6813F0010F26D1164800F05BF910B373
:100B9000154B00215960FF221A735A739A73DA7346
:100BA0001A745A7401229A74596199600F4B1B6828
:100BB00013B90D4A0D4B1A600D4B1B680BB10A4A55
:100BC0009A60094B0A4A136000221A84094A1A6083
:100BD000044800F03DF9044807490622002300F0CC
:100BE000D7F808BD5088FF1F2C88FF1F7888FF1F8B
:100BF0008888FF1FB03300005488FF1F08B50F4BD3
:100C0000FF21197000225A709A70DA7019715A71A6
:100C10009A71D9711A725A729A72D9721A735A7376
:100C20009973DA731A745974054B1846197800F0E1
:100C300033F84FF47A7000F0A7F908BD5488FF1F0D
:100C40006888FF1FFF22027000224280C2604FF0BE
:100C5000FF328260704700BF30B40C4A13685C1CDE
:100C600014608B4210DB0A4A15684FF47A7101FB5D
:100C700004F4084B1968691AB4FBF1F141800020B3
:100C80000249086012681A6030BC70477C88FF1FF8
:100C90008C88FF1F8488FF1F2DE9F04F83B08046AA
:100CA0008A462E4CD8F804303BB100F04BF923684B
:100CB000C01AD8F804209042F4D300F043F9274B2F
:100CC0001860D8F80C3023B15046D8F8081098476F
:100CD0008246234B1C68002C39D0002694F81290D1
:100CE000B8F80230632B98BFA6742368D3F804C009
:100CF000616862698DF804608DF805608DF80660A2
:100D0000BAF1000F1BD004F10B05334604F10C0BB4
:100D100015F8017FCBEB050E04F10F001EF8000063
:100D200057B148B1013700FB07770AFB07F0000C09
:100D30000DF1040E03F80E000133032BE8D1204619
:100D400001ABE04784F81290A468002CC6D140465D
:100D50001921FFF781FF03B0BDE8F08F8088FF1FE6
:100D60007888FF1F4AB181B1084B93FBF1F14368CA
:100D70008B422CBF43604160704721B1034B93FB12
:100D8000F1F14160704700234360704740420F001B
:100D9000F8B504460F4615461E1EDCBF1646002554
:100DA00003689B68984705EB45052F4467606661BB
:100DB00023685B6920469847014603480122FFF7F4
:100DC000D1FF2046F8BD00BF6888FF1F0020704794
:100DD00008B50248FFF736FF08BD00BF6888FF1F4F
:100DE000024B1A6801321A60704700BF8C88FF1FDF
:100DF00008B50D4C236813F4802F01D000F016FACB
:100E0000236813F4806F01D001F07CFA236813F497
:100E1000006F01D001F046FD236813F4805FE9D034
:100E200001F092FFE6E700BF3480044008B5FFF709
:100E3000DFFF00BF1022014B1A80704700200540E1
:100E4000704700BF0078D0F1010038BF0020704724
:100E500001230370704700BFEFF31383ABB9EFF3C7
:100E60001083ABB9EFF3058323B10F2B05D9094AE2
:100E7000985C03E04FF4807000E00020EFF31183F2
:100E80003BB1834238BF184670474FF0FF30704780
:100E900000207047F0E300E0044B00221A60044990
:100EA0000A60044A106010221A60704714D0034090
:100EB00004D0034000D0034021281ED80F4B53F824
:100EC000303093F8802212F0FF0F08D019B10122C0
:100ED00083F880207047012283F800217047074B78
:100EE00003EBC000436821B11A6842F003021A60A4
:100EF00070471A6822F002021A607047D03300006F
:100F000021281CD80E4B03EBC0035B68012908D1D4
:100F10000B4A52F8302082F880124FF4A2721A6005
:100F20007047074A52F83020002082F8800219B931
:100F30004FF480721A60704740F203121A607047D3
:100F4000D033000072B60C4B1B680C4A12680C4977
:100F5000096862B611F0806F02D0322B88BF01326F
:100F6000C3F5BB33FF330749A1FB03039B094FF4D0
:100F70007A7000FB0230704718E000E08C88FF1F99
:100F800004ED00E0ABAAAAAA38B50546FFF7DAFFE0
:100F9000044665B1FFF7D6FF001BB0F57A7F03D397
:100FA000013D04D004F57A7400F088FEF2E738BD04
:100FB00010B5254B4FF400021A604FF080721A6092
:100FC0004FF000721A604FF080621A604FF00062BA
:100FD0001A6000201D4B18604BF6FF710433196036
:100FE00028231B4A1360083213600832136008324A
:100FF000136008321360083213600832136008323D
:1010000013600922134C226004F5805404342060DC
:10101000043421600434236008342360143C2260CB
:1010200004F5FE24043420600B4801600B490B607A
:1010300008310B600A4B1A6000F062FEFA20FFF7DD
:10104000A3FF00F06BFC10BD08E100E0048003404A
:101050000C8003400080034008800B400C800B4054
:1010600000800B4030B40E4B1B7843F002020D4C55
:1010700004EBC20460600C48007800280CBF882490
:10108000C82444EA0141074D45F8321080F00100C0
:10109000054A107083F00103014A137030BC704799
:1010A000F888FF1F0080FF1F7189FF1F10B4431EC7
:1010B000032B11D872B60A4A52F8230050B1426885
:1010C000074941F82320074A32F813400188611A82
:1010D00022F8131062B600E000205DF8044B704760
:1010E000E888FF1F408BFF1F013803280DD872B618
:1010F000074B53F820302BB1002001305B68002BE8
:10110000FBD100E0002062B670470020704700BFAE
:101110003C89FF1F38B572B601231B491B4C5A1876
:1011200012F8012C12F0080F24D09A0054F8325013
:101130006DB9164B03EBC20108304860144943F8FF
:101140003210144B1A78013A1A7062B638BD42F068
:10115000010254F832506DB90C4B03EBC201083058
:1011600048600D4943F832100A4B1A78013A1A7058
:1011700062B638BD0133052BD1D162B60022054BD2
:101180001A7000F02FFC38BDE03400000080FF1F13
:10119000880040006689FF1FC800400010B4431E4D
:1011A000032B37D8400140F010001C4A104472B69F
:1011B0001B4AD25C032A09D8DFE802F019021B059A
:1011C0000830022216E00830042213E0154A52F8D3
:1011D00023201AB9134A42F8231003E0124A52F8A6
:1011E00023205160104A42F8231062B612E0032215
:1011F00000E005220A4CE25401F10803436000F0CC
:101200000803002B0CBF8823C8230A8843EA024343
:10121000036062B65DF8044B704700BF0080FF1F9B
:10122000A488FF1F3C89FF1F4C89FF1F2DE9F84F41
:10123000A34CDFF8E092DFF8E0A2DFF8E0B2257817
:10124000EDB215F0040F1DD09E4B1B7813F0FF0F6D
:1012500016D09D4B1B7803F0FF022BB1531EDBB25F
:10126000994A137003B900BE984B1B7803F0FF0234
:1012700033B1531EDBB2954A13700BB900F0F2FC88
:101280000423237015F0080F00F0DC8299F8003079
:10129000DBB21D0940F01D828D4D9E0805EBC60393
:1012A0005A6855F83630C3F38303013B0C2B00F228
:1012B0000C82DFE813F0C701C7010A020A020A0222
:1012C0000A020A020A02E4010A020A020A020D00E4
:1012D000804913680B6052684A607F4A45F836209F
:1012E00000227E490A607A490A618A6101217C4AAA
:1012F00011709BB240F28162934218D8B3F5D06F5F
:101300002ED2B3F5817F00F01E8106D8802B00F02D
:10131000C980822B00F0CC8062E140F2023293421D
:1013200000F02681B3F5A06F00F05E8158E142F233
:101330002102934200F0828107D8B3F5086F00F0D4
:10134000AB80B3F5106F11D04AE142F221229342F3
:1013500000F0418142F22132934200F045813FE1A9
:10136000604B5D68002D40F0188130E1594B9A7850
:10137000544B1A70564D05F180062B6A13F0800FFE
:1013800003D0686A083800F02DFB0835B542F4D167
:10139000DFF88C8100263746534AB05828B145689B
:1013A00000F020FB0DB12846F9E700234E497350A9
:1013B0004E4AB3504E4BF05828B1456800F012FB2E
:1013C0000DB12846F9E7002349497350494AB35003
:1013D00028F8023F484BFB5C023B032B0AD8DFE8AE
:1013E00003F0020602060022434BDA5502E0012216
:1013F000414BDA5501370436102ECDD100223F4B38
:101400001A7001253E4EDFF81C81314F05EB0803B1
:1014100013F8013C06F8043B13F0080F2DD000F040
:10142000C1FA48B1A90007EB451200F10803536067
:10143000344A47F8312007E0AB00002247F8332058
:101440002E4B1A7801321A7000F0ACFA58B1AB008A
:1014500043F0010307EBC30100F108024A601E4A92
:1014600047F8332009E0AB0043F00103002247F8BE
:101470003320224B1A7801321A70AA0042F002017E
:10148000002347F8313042F0030247F8323001358B
:101490001D4B9E42BAD116E20A4B1B781B4D2B7096
:1014A0000127A6E0194D00232B706B700227A0E0E6
:1014B000084B9B88042B37D90F22154B1A70BDE0BF
:1014C000802007407089FF1FF988FF1F7289FF1F66
:1014D0000080FF1F5C89FF1FC80040009088FF1F2D
:1014E0007189FF1FE4340000E888FF1F9488FF1F04
:1014F0003C89FF1F4C89FF1FA488FF1F6689FF1FBF
:10150000C420074088004000D42007406889FF1F9E
:10151000C0200740902007409420074098200740B3
:101520003E8BFF1FE03400009E4A00211170517075
:101530009D4A12F8233013F0020F58D0994D012321
:101540002B70022755E0994B9B8803F07F03042BF7
:1015500002DC964A52881AB10F22934B1A706DE042
:10156000914A12F8231021F0020102F82310AAE197
:101570008E4B9B8803F07F03042B02DC8B4A52883E
:101580001AB10F22884B1A7058E0874A12F82310BC
:1015900041F0020102F8231095E1844B5E889F8898
:1015A000834BA3F10C02114633F80C0CB04209D165
:1015B00033F80A0CB84205D1360A032E0CBF2F7837
:1015C000178916E00D690C330C32002DEBD10F2278
:1015D000754B1A7032E0754B9A78764B1A7072E13F
:1015E0000F22714B1A7029E000273D4601E00227C7
:1015F0006C4D6E4BDB889F4228BF1F46402F34BF87
:101600003E46402628463146FFF72CFD3544BF1B99
:1016100003D13F2E00F25C8110E0402F34BF3E46E4
:10162000402628463146FFF71DFD3544BF1B01D13A
:101630003F2E03D9604B1D60604B1F8001238AF849
:10164000003042E0594B198842F22103994212D1ED
:101650005B4BD81D12F8011B03F8011F8342F9D11F
:10166000584B1B68862B02D10F22574B1A70002053
:101670000146FFF7F7FC554B45F8363025E04E4B59
:101680001E68BEB14D4FB7F80080B8F1400F34BFAF
:101690004546402530462946FFF7E4FCC5EB0803E4
:1016A0009BB23B800BB9402D01D1354400E00025B1
:1016B000414B1D603D4B1B88B3F5A06F05D13B4BE3
:1016C00000225A709B788BF8003001238AF8003092
:1016D000B5E03F4E9F0806EBC708D8F80420A2F1FA
:1016E0000800013DEDB213F0080F47D000F07AF981
:1016F000384B53F825304BB35A68364941F825200A
:1017000003F10802C8F80420334A525D032A12D8B4
:10171000DFE802F002060A0E03212F4A51550AE0C3
:1017200002212D4A515506E005212B4A515502E070
:101730000421294A515518F0080F0CBF8822C822ED
:101740001B8842EA034346F8373078E0224B5B5D62
:10175000032B0BD8DFE803F07373020600221E4B45
:101760005A556CE001221C4B5A5568E018F0080FDE
:101770000CBF02220322184B5A5560E056F837304E
:101780001B0C22F8083C002B51D0002322F8063C09
:1017900042F8043C114B53F825300BBB0F4B43F878
:1017A000250021E06889FF1FC02007405C89FF1FDA
:1017B000F03400008089FF1F9088FF1F6489FF1F9D
:1017C000478BFF1F488BFF1FF988FF1FC800400091
:1017D0000080FF1F3C89FF1FA488FF1FE888FF1FB0
:1017E0003F4B53F8253058603D4B43F825003D4BA7
:1017F00033F8151032F8082C0A4423F8152000F0AD
:10180000D1F860B100F10803C8F8043018F0080FEF
:10181000354B364A08BF134646F837300FE00023F1
:1018200046F83730324B1A7801321A7007E018F058
:10183000080F2D4B2D4A08BF134646F837300823B2
:101840002370FCE415F0010F22D02A4902230B700B
:101850000022294B1A70294B24481860284C5C60E0
:1018600098602848D8601A619A610D20264B18703C
:10187000FF23264803700838037018300270244A8A
:1018800013709F22234B1A7001230B70BDE8F88F51
:1018900015F0800F05D00D221B4B1A708022403BA3
:1018A0001A7015F0020F06D0184B1A78D2B21A70BF
:1018B0000222083B1A7015F0100F0ED01022164BA2
:1018C0001A70BDE8F88F00200146FFF7CBFBB5E6A4
:1018D00028460021FFF7C6FBB0E6BDE8F88F00BF41
:1018E0009488FF1F408BFF1FC80040008800400005
:1018F0006689FF1F94200740F888FF1F0080FF1FA4
:10190000A888FF1FFC88FF1FC020074088200740D1
:101910008C200740842007408020074008B501F054
:1019200073FA00231B491A465A50C81842600833FC
:10193000882BF9D1184B1A6842F480221A60154B93
:10194000C3F30721154A1170C3F307411432117014
:101950001B0E04321370FF23343A137008321370D5
:10196000783A137001238432137000216C321170A5
:101970007C3A137070220A4B1A704FF40072A3F273
:1019800041331A60102203F1C04303F5C8231A70D3
:1019900008BD00BF0080FF1F348004409C2007402A
:1019A00049E400E072B60D4B1A68B2FA82F30B2BD1
:1019B00002D962B6002070474FF00041D94022EAB8
:1019C000010206490A6062B6054903EBC303DB0066
:1019D000C8180022CA504260704700BF6087FF1FCE
:1019E0000084FF1F08B50F4BC31A0F4AA2FB031355
:1019F0001B090B2B14D80D4A12783AB10C4A1278F5
:101A000012F0FF0F02D0FFF785FB08BD72B6094A3E
:101A10004FF0004121FA03F311681943116062B6D7
:101A200008BD00BF0084FF1F398EE3386689FF1FA1
:101A30007089FF1F6087FF1F10B5134B1B6853B9D8
:101A4000124B1B7813F0FF0F18D00320FFF72EFB6B
:101A50000D4B1860A8B10C4B186843885A1C0344FE
:101A60001C7A03889A4206D3FFF7BCFF0022064B7C
:101A70001A60204610BD4280204610BD4FF0FF3056
:101A800010BD4FF0FF3010BD7C89FF1F7089FF1F14
:101A900008B50D4B1B6883B90C4B1B7813F0FF0F77
:101AA00008D00320FFF702FB074B186028B94FF05E
:101AB000FF3008BD4FF0FF3008BD034B1B685A884C
:101AC0001344187A08BD00BF7C89FF1F7089FF1F6F
:101AD000044B9888044B1B681BB11A885B88D31A87
:101AE00018447047408BFF1F7C89FF1F2DE9F0478A
:101AF00004460122374B1A700E46002964D0DFF8E5
:101B0000E080DFF8E0909A46334FD8F8003083BB8E
:101B100099F8003013F0FF0F06D100222D4B1A70F8
:101B20004FF0FF30BDE8F0874AF2F9250420FFF7B7
:101B3000DBFA07280AD801238AF80030FFF732FFC2
:101B4000C8F80000A8B900238AF80030013D01D090
:101B50003B7833B10122204B1A704FF0FF30BDE8C3
:101B6000F08700F0ABF899F8003013F0FF0FDDD1EB
:101B7000D3E700233B70D8F800104A88C2F1400533
:101B8000AE4238BF354602F108030B442A444A806E
:101B9000761B3DB1254414F8012B03F8012BAC4210
:101BA000F9D100E025464B883F2B07D940230B8015
:101BB0000420FFF7F3FA0023C8F800300522074B92
:101BC0001A700EB12C46A0E70020024B1870BDE839
:101BD000F08700BF7389FF1F7889FF1F7289FF1F7D
:101BE0007489FF1F7089FF1F00B583B002AB03F833
:101BF000010D18460121FFF779FF03B05DF804FBE2
:101C000010B5144B1B7813F0FF0F21D00122124B9B
:101C10001A70124B196851B10024114B1C704B887B
:101C20000B800420FFF7BAFA0C4B1C600DE0FFF7A5
:101C3000B9FE014630B10022094B1A700420FFF7AB
:101C4000ADFA02E00122064B1A700022024B1A7014
:101C500010BD00BF7089FF1F7389FF1F7489FF1FAC
:101C60007289FF1F08B50E4B1B7813F0FF0F16D1BA
:101C70000C4B196841B14B880B800420FFF78EFA9A
:101C80000022084B1A6008BDFFF78CFE014618B110
:101C90000420FFF783FA08BD0122034B1A7008BD28
:101CA0007389FF1F7489FF1F7289FF1F08B5FEF734
:101CB00061FFFEF7A3FF00F001F8FAE708B50F4B4C
:101CC0001B78CBB901220D4B1A70FFF701FF08B149
:101CD00001F0BCFA00F08CFA08B101F05FF900F0F5
:101CE0007DFD08B101F0F0F900F0DEFF08B101F070
:101CF00081FA0022014B1A7008BD00BF8189FF1FC5
:101D000060223A4B1A70E12201331A70384B1B786B
:101D1000082B10D1012203F1804303F56C331A60C4
:101D2000132334490B6001F5FF2101F2FC710A60B5
:101D3000314A13601FE00A2B0DD139222F4B1A6054
:101D400013232C490B6001F5FF2101F2FC710A609D
:101D5000294A13600FE00C2B0CBF35223D22274B84
:101D60001A60122323490B6001F5FF2101F2FC7177
:101D70000A60214A1360224B1B7833B10123214AA8
:101D8000136002F50022136005E000231D4A136072
:101D900002F5002213601C4B1B78012B06D8802310
:101DA0001A4A136002F5002213601AE0042B06D8C9
:101DB0008423164A136002F50022136011E0082BF9
:101DC00006D88523114A136002F50022136008E04B
:101DD000102B94BF862387230C4A136002F5002240
:101DE000136001220A4B1A70704700BF0040074081
:101DF0006487FF1F0CB003400CB00B4008B00340D9
:101E00008389FF1F20B003406587FF1F24B0034074
:101E10008289FF1F194B1A6842F480621A600023FE
:101E2000174A1370174A1370174A1370174A137022
:101E3000174A137040F21332164B1A604FF4517266
:101E400004331A60C0F34432134B1A70C0F34712C4
:101E50005A7000F01F00987204229A700221D974FF
:101E60005A7588221A743C22DA7040220B4B1A7081
:101E70004FF40052A3F229331A60704734800440B3
:101E80000C8AFF1F8989FF1F148AFF1F0D8AFF1FFD
:101E90008889FF1F40A0044000A006402DE400E018
:101EA000164B9B7803F0EC0300F00302134310F091
:101EB000040F18BF43F01003104A937000F00F0393
:101EC000042B04D11346927942F040029A710B4BD5
:101ED0005A7902F0EF0210F0100F18BF42F0100212
:101EE000064B5A719B7903F0EF0310F0200F18BFD7
:101EF00043F01003014A9371704700BF00A00640F1
:101F000010B5144B1B6813F4806F21D0124B1B7853
:101F100013F0FF0F06D0104CFFF7D0FE237813F01C
:101F2000FF0FF9D14FF400520C4B1A6000230C4AFA
:101F3000D37040F203120B490A6004310A600A4A66
:101F400013700A4A13700A4B1B680BB101221A70F6
:101F500010BD00BF348004408889FF1F84E100E089
:101F600000A0064040A004400C8AFF1F8989FF1F83
:101F70008489FF1F10B50446094A137813F0FF0F38
:101F8000FBD120460121FEF7BBFF20460021FEF7D2
:101F900093FF044B53F83420034B1A6010BD00BF6D
:101FA0008889FF1FD0330000108AFF1F10B50D4B2A
:101FB0001B6813F4806F12D021280CD80A4C0B4BED
:101FC00053F8303023600121FEF79AFF2368002286
:101FD0001A70012010BD0020034B186010BD0020B6
:101FE00010BD00BF348004408489FF1FD03300003F
:101FF000114B1B6813F4806F1BD0122804D140F2E0
:1020000002320E4B1A600DE0142804D140F2023265
:102010000B4B1A6006E00B4B5A7B02F0FE025A7320
:1020200000207047074B5A7B42F001025A7301208F
:1020300070470020704700BF348004400CA004406B
:1020400014C0044000A006402DE9F04107461F4B94
:102050001B6813F4806F37D01D4B1B680BB1012236
:102060001A701C4B1C780134402C28BF00241A4DD8
:102070001A4EDFF86C8017E0FEF7EEFE40280FDC0A
:10208000337913F0800F0FD02B780133402B28BF0A
:10209000002318F80320D2B2F271DBB22B7003E0F8
:1020A000FF2801DDFFF70AFE2B78DBB29C42E3D06C
:1020B000FFB20B4B1F5501220A4B1A70E4B2054BBD
:1020C0001C70BC22054BDA70BDE8F08134800440FE
:1020D000108AFF1F148AFF1F0D8AFF1F00A00640F1
:1020E0008C89FF1F8889FF1F2DE9F84F0746284B71
:1020F0001B6813F4806F49D0264B1B680BB101227B
:102100001A7007EB010B5F453DD2DFF89890224E25
:10211000DFF88C80DFF890A099F800400134402C63
:1021200028BF00243578EDB2A54220D1BC2388F821
:102130000330FEF791FE402811DC98F8043013F0CC
:10214000800F10D033780133402B28BF00231AF8BA
:102150000320D2B288F80720DBB2337003E0FF28F7
:1021600001DDFFF7ABFD3378DBB29D42E1D017F81C
:10217000013B0AF804300122084B1A70E4B289F8D6
:1021800000405F45C8D1BC22054BDA70BDE8F88F2E
:1021900034800440108AFF1F0D8AFF1F8889FF1FAB
:1021A00000A00640148AFF1F8C89FF1F10B5064B44
:1021B0001B7813F0FF0F06D0034CFFF77FFD237849
:1021C00013F0FF0FF9D110BD8889FF1F064B1B7854
:1021D000DBB2064A1278D2B293422CBF3F3202F1F0
:1021E000FF32D01A704700BF148AFF1F0D8AFF1FED
:1021F000054B1878C0B2054B1B78DBB2984238BF4C
:102200004030C01A704700BF0C8AFF1F8989FF1F2A
:1022100010B4184B1A78D2B2174B1B78DBB29A4223
:1022200018D001333F2B18D81449C85CC0B2DCB2B7
:1022300011490C7012490968C9B19A4203D300E0F0
:102240000023D31A01E04032D31A1A2B0FDC0023EB
:102250000B700CE04FF0FF3009E0084B1878C0B26B
:102260000021054B1970064B19680029E8D15DF86B
:10227000044B70470C8AFF1F8989FF1FCC89FF1F01
:102280008489FF1F094B1A78D2B2094B1B78DBB245
:102290009A4207D00133402B28BF0023054AD05C67
:1022A000C0B270474FF0FF30704700BF0C8AFF1F6D
:1022B0008989FF1FCC89FF1F0D4B1B6813F4806FAA
:1022C00014D00C4BDA7802F0CB02DA7040225A7448
:1022D000DA7842F03402DA70074B1A78D2B2074B40
:1022E0001A70074B1B680BB100221A70704700BFB1
:1022F0003480044000A006408989FF1F0C8AFF1F1C
:102300008489FF1F70B43D4B1B7913F0300F33D01D
:1023100072B63A4B9B7D03F0FF022BB9374BDA794B
:1023200040225A7462B627E062B6354B1978C9B2BA
:10233000344B1C78E4B2314D334EEB79D8B24B1CA0
:10234000402B28BF0023A3421CBFF0541946531E44
:1023500013F0FF02F1D1CAB2294B1A702B4B1B6844
:1023600053B1A1422EBFC4EB0101C4F140040919CD
:102370002729C4BF01221A70204BDA78D2B212F09A
:10238000800F27D01B7913F0800F23D0204B1C78AF
:10239000E4B2204B1B78DBB29C4210D017491E4D93
:1023A00001E0A3420BD00133402B28BF0023087962
:1023B000E85CC0B2C871087DC0B20728F1D9DBB2B1
:1023C00014490B700D4B1B7913F0800F02D07C2148
:1023D0000A4BD97012F0400F0ED0084B1B7913F046
:1023E000400F09D000220D4B1A700D4B1B6803B132
:1023F0001A703C22014BDA7070BC704700A0064096
:102400000C8AFF1F8989FF1FCC89FF1F8489FF1F4A
:10241000148AFF1F0D8AFF1F8C89FF1F8889FF1FE9
:10242000108AFF1F194B1A6842F400621A600023D9
:10243000174A1370174A1370174A1370174A13700C
:10244000174A137040F21332164B1A604FF4517250
:1024500004331A60C0F34432134B1A70C0F34712AE
:102460005A7000F01F00987204229A700221D974E9
:102470005A7588221A743C22DA7040220B4B1A706B
:102480004FF40042A3F22B331A60704734800440AB
:10249000808AFF1F168AFF1F888AFF1F818AFF1FFD
:1024A000158AFF1F0CB0044000B006402FE400E086
:1024B000164B9B7803F0EC0300F00302134310F07B
:1024C000040F18BF43F01003104A937000F00F037D
:1024D000042B04D11346927942F040029A710B4BBF
:1024E0005A7902F0EF0210F0100F18BF42F01002FC
:1024F000064B5A719B7903F0EF0310F0200F18BFC1
:1025000043F01003014A9371704700BF00B00640CA
:1025100010B5114B1B6813F4006F1CD00F4B1B78C8
:1025200013F0FF0F06D00D4CFFF7C8FB237813F014
:10253000FF0FF9D14FF40042094B1A600023094AFA
:10254000D37040F2031208490A6004310A60074A56
:102550001370074A137010BD34800440158AFF1FA2
:1025600084E100E000B006400CB00440808AFF1F08
:10257000168AFF1F10B50446094A137813F0FF0F9F
:10258000FBD120460121FEF7BBFC20460021FEF7CF
:1025900093FC044B53F83420034B1A6010BD00BF6A
:1025A000158AFF1FD0330000848AFF1F0D4B1B6864
:1025B00013F4006F13D016280AD14FF440720A4B5F
:1025C0001A600A4B5A7B42F008025A730120704786
:1025D000064B5A7B02F0F7025A7300207047002026
:1025E000704700BF3480044004B0044000B006408F
:1025F0000D4B1B6813F4006F13D017280AD14FF44A
:1026000040720A4B1A600A4B5A7B42F001025A731D
:1026100001207047064B5A7B02F0FE025A730020DD
:1026200070470020704700BF3480044008B0044069
:1026300000B006402DE9F04107461F4B1B6813F41C
:10264000006F37D01D4B1B680BB101221A701C4B59
:102650001C780134282C28BF00241A4D1A4EDFF8AC
:102660006C8017E0FEF7F8FB40280FDC337913F09D
:10267000800F0FD02B780133282B28BF002318F8A8
:102680000320D2B2F271DBB22B7003E0FF2801DD30
:10269000FFF714FB2B78DBB29C42E3D0FFB20B4B6D
:1026A0001F5501220A4B1A70E4B2054B1C70BC2264
:1026B000054BDA70BDE8F08134800440848AFF1F46
:1026C000888AFF1F818AFF1F00B00640188AFF1FFB
:1026D000158AFF1F2DE9F84F0746284B1B6813F496
:1026E000006F49D0264B1B680BB101221A7007EB13
:1026F000010B5F453DD2DFF89890224EDFF88C80C9
:10270000DFF890A099F800400134282C28BF00245D
:102710003578EDB2A54220D1BC2388F80330FEF70E
:102720009BFB402811DC98F8043013F0800F10D088
:1027300033780133282B28BF00231AF80320D2B2A4
:1027400088F80720DBB2337003E0FF2801DDFFF7D4
:10275000B5FA3378DBB29D42E1D017F8013B0AF8B5
:1027600004300122084B1A70E4B289F800405F453A
:10277000C8D1BC22054BDA70BDE8F88F3480044024
:10278000848AFF1F818AFF1F158AFF1F00B0064041
:10279000888AFF1F188AFF1F10B5064B1B7813F09D
:1027A000FF0F06D0034CFFF789FA237813F0FF0FD1
:1027B000F9D110BD158AFF1F064B1B78DBB2064A04
:1027C0001278D2B293422CBF273202F1FF32D01AD4
:1027D000704700BF888AFF1F818AFF1F054B18784A
:1027E000C0B2054B1B78DBB2984238BF4030C01AEC
:1027F000704700BF808AFF1F168AFF1F0A4B1A7896
:10280000D2B20A4B1B78DBB29A4209D00133402B7B
:1028100028BF0023064AD05CDBB2044A137070471D
:102820004FF0FF30704700BF808AFF1F168AFF1FDE
:10283000408AFF1F094B1A78D2B2094B1B78DBB2D2
:102840009A4207D00133402B28BF0023054AD05CB1
:10285000C0B270474FF0FF30704700BF808AFF1F43
:10286000168AFF1F408AFF1F0A4B1B6813F4006F74
:102870000FD0094BDA7802F0CB02DA7040225A749A
:10288000DA7842F03402DA70044B1A78D2B2044B90
:102890001A7070473480044000B00640168AFF1F4B
:1028A000808AFF1F70B4364B1B7913F0300F25D090
:1028B00072B6334B9B7D03F0FF022BB9304BDA79B4
:1028C00040225A7462B619E062B62E4B1978C9B22A
:1028D0002D4B1D78EDB22A4C2C4EE379D8B24B1C0F
:1028E000402B28BF0023AB421CBFF0541946531E97
:1028F00013F0FF02F1D1C9B2224B1970204BDA78E4
:10290000D2B212F0800F27D01B7913F0800F23D0A2
:102910001F4B1C78E4B21F4B1B78DBB29C4210D0DB
:1029200017491D4D01E0A3420BD00133282B28BFCE
:1029300000230879E85CC0B2C871087DC0B20728DE
:10294000F1D9DBB213490B700D4B1B7913F0800FDB
:1029500002D07C210A4BD97012F0400F0ED0084BE8
:102960001B7913F0400F09D000220C4B1A700C4B4E
:102970001B6803B11A703C22014BDA7070BC7047BF
:1029800000B00640808AFF1F168AFF1F408AFF1F83
:10299000888AFF1F818AFF1F188AFF1F158AFF1F61
:1029A000848AFF1F174B1A6842F480521A60002372
:1029B000154A1370154A1370154A1370154A13708F
:1029C000154A137040F21331144A11604FF45171DB
:1029D00004321160C0F34431114A1170C0F3471141
:1029E000517000F01F009072937013742C23D370F9
:1029F00040220C4B1A704FF40032A3F22D331A60B0
:102A0000704700BF34800440F48AFF1F8A8AFF1F8A
:102A1000FC8AFF1FF58AFF1F898AFF1F08C0044038
:102A200000C0064031E400E0164B9B7803F0EC0355
:102A300000F00302134310F0040F18BF43F010031B
:102A4000104A937000F00F03042B04D113469279BF
:102A500042F040029A710B4B5A7902F0EF0210F0EB
:102A6000100F18BF42F01002064B5A719B7903F009
:102A7000EF0310F0200F18BF43F01003014A9371C9
:102A8000704700BF00C0064010B5114B1B6813F41F
:102A9000805F1CD00F4B1B7813F0FF0F06D00D4C3E
:102AA000FFF70CF9237813F0FF0FF9D14FF4003240
:102AB000094B1A600023094AD37040F203120849F7
:102AC0000A6004310A60074A1370074A137010BD88
:102AD00034800440898AFF1F84E100E000C0064082
:102AE00008C00440F48AFF1F8A8AFF1F10B50446FD
:102AF000094A137813F0FF0FFBD120460121FEF79E
:102B0000FFF920460021FEF7D7F9044B53F8342093
:102B1000034B1A6010BD00BF898AFF1FD03300002D
:102B2000F88AFF1F0D4B1B6813F4805F14D0022836
:102B30000BD14FF440720A4B1A6003F500335A7BF5
:102B400042F008025A7301207047064B5A7B02F08C
:102B5000F7025A7300207047002070473480044009
:102B600000C0044000C006400D4B1B6813F4805F9A
:102B700013D00E280AD14FF440720A4B1A600A4B48
:102B80005A7B42F001025A7301207047064B5A7B70
:102B900002F0FE025A73002070470020704700BF09
:102BA0003480044004C0044000C006402DE9F041D8
:102BB00007461F4B1B6813F4805F37D01D4B1B6803
:102BC0000BB101221A701C4B1C780134282C28BF31
:102BD00000241A4D1A4EDFF86C8017E0FEF73CF91E
:102BE00040280FDC337913F0800F0FD02B7801339E
:102BF000282B28BF002318F80320D2B2F271DBB2D1
:102C00002B7003E0FF2801DDFFF758F82B78DBB2CB
:102C10009C42E3D0FFB20B4B1F5501220A4B1A70A6
:102C2000E4B2054B1C70AC22054BDA70BDE8F081B4
:102C300034800440F88AFF1FFC8AFF1FF58AFF1FBB
:102C400000C006408C8AFF1F898AFF1F38B50546E1
:102C50000C4629B115F8010BFFF7A8FF013CF9D18B
:102C600038BD00BF10B5064B1B7813F0FF0F06D020
:102C7000034CFFF723F8237813F0FF0FF9D110BDB1
:102C8000898AFF1F064B1B78DBB2064A1278D2B244
:102C900093422CBF273202F1FF32D01A704700BF97
:102CA000FC8AFF1FF58AFF1F054B1878C0B2054B41
:102CB0001B78DBB2984238BF4030C01A704700BF63
:102CC000F48AFF1F8A8AFF1F0A4B1A78D2B20A4B76
:102CD0001B78DBB29A4209D00133402B28BF002376
:102CE000064AD05CDBB2044A137070474FF0FF30E5
:102CF000704700BFF48AFF1F8A8AFF1FB48AFF1F34
:102D0000094B1A78D2B2094B1B78DBB29A4207D032
:102D10000133402B28BF0023054AD05CC0B2704766
:102D20004FF0FF30704700BFF48AFF1F8A8AFF1FF1
:102D3000B48AFF1F024B1A78D2B2024B1A70704746
:102D40008A8AFF1FF48AFF1F264B1B7913F0200F7E
:102D500012D0244BDB79D9B2234B1B780133402BA3
:102D600028BF0023214A1278D2B29A4204D0204AC6
:102D7000D154DBB21C4A13701A4BDB78DBB213F070
:102D8000800F1CD0174A127912F0800F17D0194A01
:102D90001178C9B2184A1278D2B2914203D16C218B
:102DA000104AD1700BE00132282A28BF00221349B3
:102DB000885CC0B20B49C871D2B20F490A7013F0D7
:102DC000400F0ED0074B1B7913F0400F09D00022A3
:102DD0000B4B1A700B4B1B6803B11A702C22014B62
:102DE000DA70704700C00640F48AFF1F8A8AFF1F0E
:102DF000B48AFF1FFC8AFF1FF58AFF1F8C8AFF1F02
:102E0000898AFF1FF88AFF1F00B585B072B61B4B79
:102E100070221A7041211A4A11700F21013A117063
:102E200080221A701A46137813F0800FFBD0154BCE
:102E3000186862B6144B98429CBF00EB80004000BB
:102E400001A90A2200F012FA9DF804307BB908E0CB
:102E500001A9595C31B19180023201330A2BF7D1BB
:102E600000E0002301335B00084A137003E0074AC7
:102E700053800123ECE705B05DF804FB000002403D
:102E800007000240080002407F969800F487FF1F69
:102E900008B503681B68C9B2984708BD08B5036840
:102EA0001B68C9B2984708BD08B503681B68C9B25A
:102EB000984708BD08B503681B68C9B2984708BDA4
:102EC00008B54B0803F1376000F5D830B0FBF1F0DE
:102ED000FEF7A0FF08BD00BF10B514464B0803F174
:102EE000376000F5D830B0FBF1F0FEF793FF2046D5
:102EF000FEF7D6FF10BD00BF08B5FFF701F808BD0B
:102F000008B50846FFF736F808BD00BF08B5084603
:102F1000FFF74CF8003018BF012008BD08B508467F
:102F2000FFF766F8003018BF012008BD08B5FFF7AD
:102F30005FF908BD08B5FFF7A5F908BD08B5FFF7AB
:102F400067F908BD08B5FFF731F908BD08B5FFF707
:102F5000B3F908BD08B5FFF739F908BD08B508464B
:102F6000FFF772F8012008BD08B50846FFF76CF8B6
:102F7000012008BD10B5144608461146FFF7B4F805
:102F8000204610BD38B50D46084600F0B9F9044694
:102F900028462146FFF7A8F8204638BD704700BFF5
:102FA000044B00221A714FF47A7199601A73024A25
:102FB0001A607047008BFF1F4035000008B503689A
:102FC0001B68C9B2984708BD08B503681B68C9B239
:102FD000984708BD08B503681B68C9B2984708BD83
:102FE00008B503681B68C9B2984708BD08B54B0807
:102FF00003F1376000F5D830B0FBF1F0FFF712FABB
:1030000008BD00BF10B514464B0803F1376000F54A
:10301000D830B0FBF1F0FFF705FA2046FFF748FA89
:1030200010BD00BF08B5FFF773FA08BD08B5084624
:10303000FFF7A0FA08BD00BF08B50846FFF7B6FACB
:10304000003018BF012008BD08B50846FFF7D0FAC8
:10305000003018BF012008BD08B5FFF7BFFB08BD51
:1030600008B5FFF7E7FB08BD08B5FFF7C7FB08BDCC
:1030700008B5FFF791FB08BD08B5FFF7F5FB08BDE4
:1030800008B5FFF799FB08BD08B50846FFF7D2FA67
:10309000012008BD08B50846FFF7CCFA012008BD9D
:1030A00010B5144608461146FFF714FB204610BD24
:1030B00038B50D46084600F023F904462846214657
:1030C000FFF708FB204638BD704700BF044B0022C5
:1030D0001A714FF47A7199601A73024A1A60704734
:1030E000108BFF1F9835000008B503681B68C9B234
:1030F000984708BD08B503681B68C9B2984708BD62
:1031000008B503681B68C9B2984708BD08B50368CD
:103110001B68C9B2984708BD08B54B0803F1B760F2
:1031200000F55840B0FBF1F0FFF73CFC08BD00BFD4
:1031300010B514464B0803F1B76000F55840B0FBDA
:10314000F1F0FFF72FFC2046FFF76EFC10BD00BF2B
:1031500008B5FFF799FC08BD08B50846FFF7C6FC9F
:1031600008BD00BF08B50846FFF7DCFC003018BFFB
:10317000012008BD08B50846FFF7F6FC003018BF6F
:10318000012008BD08B5FFF78FFD08BD08B5FFF7A2
:10319000B7FD08BD08B5FFF797FD08BD08B5FFF7F7
:1031A00061FD08BD08B5FFF7C5FD08BD08B5FFF70F
:1031B00069FD08BD08B50846FFF7F8FC012008BD09
:1031C00008B50846FFF7F2FC012008BD10B514460B
:1031D00008461146FFF73AFD204610BD38B50D46AA
:1031E000084600F08DF8044628462146FFF72EFDDC
:1031F000204638BD704700BF044B00221A714FF4BF
:103200007A7199601A73024A1A607047208BFF1F07
:10321000F035000008B5FEF75BFC08BD08B5FEF709
:103220000BFC08BD08B5FEF733FC08BD08B5FEF77A
:10323000E7FC08BD08B50846FEF7D6FC08BD00BF90
:1032400008B508461146FEF751FC08BD704700BF9F
:10325000044B00221A714FF47A7199601A73024A72
:103260001A607047308BFF1F4836000030B40023CF
:10327000B0FBF2F402FB14041D46092C94BF303459
:103280003734E4B2CC54B0FBF2F008B10133EFE7CD
:103290000D4400226A70934207DD885CCC5C8C543C
:1032A000C8540132013B9A42F7DB084630BC7047F4
:1032B00070B50F4E0F4D761BB61007D0043D00249D
:1032C000013455F8043F9847A642F9D10A4E0B4DF8
:1032D000761B00F0C5F9B61008D0043D0024013477
:1032E00055F8043F9847A642F9D170BD70BD00BFA4
:1032F0006C3600006C360000883600006C3600002A
:1033000020F0030110F00300C0F1000051F8043B6D
:1033100000F1040C4FEACC0C6FF000021CBF22FA43
:103320000CF213434FF0010C4CEA0C2C4CEA0C4C01
:10333000A3EB0C0222EA030212EACC1204BF51F8FA
:10334000043B0430F4D013F0FF0F1FBF013013F41F
:103350007F4F013013F47F0F18BF0130704700BF5B
:10336000024B13B10248FDF731BD70470000000069
:103370007533000038B5094D094C641BA41018BF03
:1033800005EB840505D0013C55F8043D9847002C19
:10339000F9D1BDE8384000F077B900BF0000000067
:1033A00000000000FFFFFFFF000000000000000021
:1033B00089050000BD040000A104000069040000AC
:1033C00065040000990400005106000000000000A0
:1033D0004008FE4340A004404408FE4344A004408B
:1033E0000018FE4300C004403000FE43309004400B
:1033F0003400FE43349004401C18FE431CC00440BB
:103400001018FE4310C004400818FE4308C00440D2
:103410000C18FE430CC004400C10FE430CB00440DA
:103420001010FE4310B004401810FE4318B00440C2
:103430001C10FE431CB004401410FE4314B00440A2
:103440000418FE4304C004400010FE4300B00440D2
:103450000008FE4300A004400408FE4304A004400A
:103460000C08FE430CA004400808FE4308A00440DA
:103470001418FE4314C004401818FE4318C004403A
:103480000410FE4304B004400810FE4308B004409A
:103490001400FE43149004404C08FE434CA004402A
:1034A0000420FE4304D004402410FE4324B0044012
:1034B0002010FE4320B004402810FE4328B00440F2
:1034C0002C10FE432CB004400020FE4300D00440EA
:1034D0004808FE4348A004401000FE4310900440FA
:1034E00000151915000100006887FF1F1200000079
:1034F000000200009487FF1F43000000000300004B
:10350000F087FF1F00000000010309047C87FF1FF4
:103510000000000002030904D887FF1F000000001C
:1035200003030904F487FF1F0000000000000000EF
:10353000000000000000000000000000000000008B
:103540005D2F0000752F00002D2F00003D2F000083
:10355000352F0000452F0000C12E0000D92E00009D
:10356000F92E0000012F00000D2F00001D2F00007C
:103570004D2F0000552F0000912E00009D2E0000C1
:10358000A92E0000B52E0000852F0000692F000035
:10359000000000000000000089300000A1300000A1
:1035A00059300000693000006130000071300000C7
:1035B000ED2F000005300000253000002D30000008
:1035C00039300000493000007930000081300000BF
:1035D000BD2F0000C92F0000D52F0000E12F0000F3
:1035E000B130000095300000000000000000000035
:1035F000B5310000CD31000085310000953100006B
:103600008D3100009D310000193100003131000082
:103610005131000059310000653100007531000062
:10362000A5310000AD310000E9300000F5300000A8
:10363000013100000D310000DD310000C13100001A
:1036400000000000000000003532000041320000A0
:10365000153200001D320000253200002D3200001E
:10366000F8B500BFF8BC08BC9E4670476133000047
:1036700035040000D10D0000A12F0000CD30000066
:08368000F93100005132000095
:04368800F8B500BFD2
:10368C00FFFFFFFF0A0400001201000202000040CD
:10369C00C01683040001010203010000180354004A
:1036AC00650065006E0073007900640075006900A8
:1036BC006E006F0009024300020100C032090400D1
:1036CC000001020201000524001001052401010182
:1036DC00042402060524060001070582031000409D
:1036EC0009040100020A0000000705030240000063
:1036FC0007058402400000001603550053004200E9
:10370C002000530065007200690061006C0000002D
:10371C00040309040C03000000000000000000007A
:0C372C0000000000000000000000000091
:00000001FF
