:1000000000800020BD010000C50E0000890E000028
:10001000890E0000890E0000890E0000890E000084
:10002000890E0000890E0000890E0000C50E000038
:10003000C50E0000890E0000C50E0000790E0000FC
:10004000C50E0000C50E0000C50E0000C50E000064
:10005000C50E0000C50E0000C50E0000C50E000054
:10006000C50E0000C50E0000C50E0000C50E000044
:10007000C50E0000C50E0000C50E0000C50E000034
:10008000C50E0000C50E0000C50E0000C50E000024
:10009000C50E0000C50E0000C50E0000C50E000014
:1000A000C50E0000C50E0000C50E0000C50E000004
:1000B000C50E0000C50E0000C50E0000C50E0000F4
:1000C000C50E0000C50E0000C50E0000C50E0000E4
:1000D000C50E0000C50E0000C50E0000C50E0000D4
:1000E000C50E0000C50E0000C50E0000C50E0000C4
:1000F000C50E000035260000C50E0000D52B0000FF
:10010000C50E000079300000C50E0000C50E0000CD
:10011000C50E0000C50E0000C50E0000C50E000093
:10012000C50E0000C50E0000C50E0000C50E000083
:10013000C50E0000C50E0000C50E0000C50E000073
:10014000C50E0000C50E0000C50E0000C50E000063
:10015000C50E0000C50E0000C50E0000C50E000053
:10016000C50E0000C5120000C50E0000C50E00003F
:10017000C50E0000C50E0000C50E0000C50E000033
:10018000C50E0000C50E0000C50E0000C50E000023
:10019000C50E0000C50E0000C50E0000C50E000013
:1001A000C50E0000C50E0000C50E0000C50E000003
:1001B000C50E0000C50E0000C50E0000574B4CF2E6
:1001C000205210B51A804DF628121A8000BF00BFC9
:1001D00000F07CFE524B4FF010621A60514A9A6058
:1001E000514ADA60A3F53043203B1A6812F480725A
:1001F00004D14E490A604FF4A8521A604C4B1A7849
:10020000110703D51A7842F008021A70494B4A4C7C
:100210004A482A221A704A4A00239918A14203D256
:10022000195899500433F8E7464B474900228B424E
:1002300002D243F8042BFAE74448454900235A58B0
:100240001A500433B3F5DE7FF9D1424B424A802184
:1002500003F8011B9342FBD1404B3C4A1A60404BD0
:100260000A221A70A3F5805324225A70A0221A7011
:100270009A799207FCD59A79D406FCD4394A9379B5
:1002800003F00C03082B374BF9D103221A714022DB
:100290005A719A799006FCD5324A9179314B4906C8
:1002A000FBD5314A314911600221516020221A7078
:1002B0009A7902F00C020C2AFAD12D4B2D4A1A60C1
:1002C0002D4B2E4A1A6000225A60072243F8042C54
:1002D0002B4AC3F80C2D62B600F0B6FE134B1B6818
:1002E000DA0705D5274800F023FE274B274A1A6076
:1002F000274B1B785B0609D5234C244A236893427D
:1003000004D1204800F014FE0023236003F01AF902
:1003100000F0E2FD01F076FDFEE700BF0E20054093
:1003200030800440823F04000100002B14D00340C1
:1003300002D0074000E007405490FF1FF840000043
:100340006087FF1F5490FF1FF8ABFF1F0082FF1F45
:100350000000000000E400E05FE400E008ED00E0E1
:100360000050064000400640448004400000030165
:1003700004800440C010050014E000E0FF76010096
:100380000000202091022E581CE00340A5C3945A7F
:1003900000F00740FFFFFFFFFFFFFFFFFFFFFFFF32
:1003A000FFFFFFFFFFFFFFFFFFFFFFFFFFFFFFFF5D
:1003B000FFFFFFFFFFFFFFFFFFFFFFFFFFFFFFFF4D
:1003C000FFFFFFFFFFFFFFFFFFFFFFFFFFFFFFFF3D
:1003D000FFFFFFFFFFFFFFFFFFFFFFFFFFFFFFFF2D
:1003E000FFFFFFFFFFFFFFFFFFFFFFFFFFFFFFFF1D
:1003F000FFFFFFFFFFFFFFFFFFFFFFFFFFFFFFFF0D
:10040000FFFFFFFFFFFFFFFFFFFFFFFFFEFFFFFFFD
:1004100010B5054C237833B9044B13B10448AFF33E
:1004200000800123237010BD5490FF1F00000000C6
:10043000F840000008B5064B1BB106480649AFF36B
:1004400000800648036813B1054B03B1984708BD07
:1004500000000000F84000005890FF1F5490FF1F5C
:10046000000000004069704710B582B00A460023C2
:100470008DF800308DF801308DF802300468246862
:100480008DF804308DF805308DF80630694601ABE3
:10049000A04702B010BD00BF0020704708B505207E
:1004A000012100F079FD1520012100F075FD1420D7
:1004B000012100F071FD0620012100F06DFD0820F2
:1004C000012100F069FD0720012100F065FD0E20EB
:1004D000012100F061FD0220012100F05DFD08BD59
:1004E0002DE9F04F8DB003900C46054600F076FDE7
:1004F0002B8CC01A83B2312BF8D9B94B1A6842F051
:1005000080721A60B74B1A6842F001021A6000222A
:1005100004331A6094F80CE02668A57C0135029437
:100520000DF10F020DF11700234600279969715C48
:1005300019B181FA5EF1C9B200E0394605FB01F15B
:10054000091202F8011F04338242EFD172B6A64BA2
:100550001A687C32A368002B40F30982A24BDFF8B3
:1005600090B2DFF890A2A14FE07B217B411A21736A
:10057000207C617B411AC9B201916173607CA17BCF
:10058000411AA173049D059981EAD11000F0AA10C7
:10059000414081EAC01080EA90364CF6CC410E40D2
:1005A000704080EA863685EAD51000F0AA104540F2
:1005B00085EAC01080EA90350D40684080EA8530B9
:1005C00006F0F03500F00F3E360106F0F03646EA50
:1005D0000E060896000900F00F3028430990069D8A
:1005E000079E86EAD61000F0AA10464086EAC010A0
:1005F00080EA90360E40704080EA863685EAD51053
:1006000000F0AA10454085EAC01080EA90352940E4
:10061000484080EA813106F0F03001F00F353601B4
:1006200006F0F03635430A95090901F00F31014310
:100630000B91E57C0DF12809DDF808E00021084662
:100640006E1C1D689542FCD31A687932FF25CBF8E1
:100650000050CAF800001D68551B632DFBD819F81F
:10066000015DED43EDB23D60DFF88C81C8F800001C
:100670001D68551B3E2DFBD8FF253D60DFF87881B6
:10068000C8F80000DEF818802568A84498F80150E2
:100690003DB1A846DDF804C088FA5CF85FFA88F539
:1006A00000E0002506FB05F52D1201F1100CE846CF
:1006B0000CF8085001310EF1040E0829C1D1049D37
:1006C000059981EAD11000F0AA10414081EAC010DA
:1006D00080EA90364CF6CC410E40704080EA863677
:1006E00085EAD51000F0AA10454085EAC01080EADE
:1006F00090350D40684080EA853006F0F03500F016
:100700000F3E360106F0F03646EA0E06089600095E
:1007100000F00F3028430990069D079E86EAD61008
:1007200000F0AA10464086EAC01080EA90360E40DB
:10073000704080EA863685EAD51000F0AA10454060
:1007400085EAC01080EA90352940484080EA81312E
:1007500006F0F03001F00F35360106F0F036354383
:100760000A95090901F00F3101430B91A17B019119
:10077000257D0DF12809DDF808E0002108466E1CF2
:100780001D689542FCD31A687932FF25CBF80050DA
:10079000CAF800001D68551B632DFBD819F8015DD0
:1007A000ED43EDB23D60DFF85080C8F800001D68F1
:1007B000551B3E2DFBD8FF253D60DFF83C80C8F877
:1007C0000000DEF818802568A84498F80250ADB102
:1007D000A846DDF804C088FA5CF85FFA88F50EE0F8
:1007E000FCED00E0001000E0041000E0C8F00F4055
:1007F000C4F00F4084F00F4088F00F40002506FB46
:1008000005F52D1201F1100CE8460CF808500131E5
:100810000EF1040E0829B3D194F9150021680144A2
:100820002160A1680139A160049D059981EAD11078
:1008300000F0AA10414081EAC01080EA90364CF6E0
:10084000CC410E40704080EA863685EAD51000F033
:10085000AA10454085EAC01080EA90350D406840F6
:1008600080EA853006F0F03500F00F3E360106F0E4
:10087000F03646EA0E060896000900F00F302843CD
:100880000990069D079E86EAD61000F0AA10464001
:1008900086EAC01080EA90360E40704080EA8636C4
:1008A00085EAD51000F0AA10454085EAC01080EA1C
:1008B00090352940484080EA813106F0F03001F05F
:1008C0000F35360106F0F03635430A95090901F077
:1008D0000F3101430B91217B0191A57C0DF128097A
:1008E000DDF808E0002108466E1C1D689542FCD327
:1008F0001A687932FF25CBF80050CAF800001D684D
:10090000551B632DFBD819F8015DED43EDB23D6039
:10091000DFF8A480C8F800001D68551B3E2DFBD8E9
:10092000FF253D60DFF89080C8F80000D4F800C0D3
:10093000DEF818501CF80580B8F1000F05D0019DB5
:1009400088FA55F85FFA88F500E0002506FB05F502
:100950002D1201F1100CE8460CF8085001310EF18F
:10096000040E0829C1D1A16800293FF7FDAD62B688
:100970000D4B19680D4B186801300D4A82FB01427E
:10098000C917C1EB22120B4981FB0251D217C2EBEE
:10099000A11202441A6000F021FBDDF80C80A8F8D7
:1009A00020000DB0BDE8F08F041000E0F8A8FF1F94
:1009B000ABAAAA2AD34D621088F00F40F0B58FB0D1
:1009C000847C00910192029219788DF81210597866
:1009D0008DF813109B788DF81430012C3AD13149E1
:1009E0000B78013303F007030B7003F00106F601E7
:1009F00013F0020F1CBF46F04006F6B213F0040FCE
:100A000018BF46F020061036F6B20DF1110305AFFF
:100A10004FF0000E4FF4807C01331C46197821B151
:100A20009CFBF1F10131C9B200E0714604F8031CEE
:100A300001FB0665C5F3072515B904F806EC02E0CD
:100A4000013D04F8065C11B1013904F8031CBB42F6
:100A5000E2D10CE000238DF811308DF810308DF8C4
:100A60000F308DF80E308DF80D308DF80C300323DB
:100A70008DF8153002EB420205AC00231946012621
:100A800044F8041F06FA03F515F0FF0F18BF891884
:100A90000133082BF4D103689B69694698470FB06E
:100AA000F0BD00BF7090FF1FF0B58FB0847C009147
:100AB000019202921A788DF812205A788DF813203C
:100AC0009B788DF81430012C39D12B4A13780133DF
:100AD00003F00703137003F00105ED0113F0020F9B
:100AE0001CBF45F04005EDB213F0040F18BF45F0F0
:100AF00020051035EDB20DF1110305AE00274FF4BE
:100B0000807E013319461A7822B19EFBF2F201323F
:100B1000D2B200E03A4601F8032C02FB0554C4F3BC
:100B2000072414B901F8067C02E0013C01F8064CE8
:100B300012B1013A01F8032CB342E2D10CE00023D8
:100B40008DF811308DF810308DF80F308DF80E3093
:100B50008DF80D308DF80C3000238DF8153005AB75
:100B60000DA9002243F8042F8B42FBD103689B6937
:100B7000694698470FB0F0BD7090FF1F08B50D2073
:100B8000012100F009FA0D20012100F0E1F92420F3
:100B900001F040F900234360836043618361C361D6
:100BA0000384134B0360FF23037343738373C37383
:100BB00003744374012383740E4B1B680BB90D4BF4
:100BC00018600D4B1B6803B198600B4B18600B4B02
:100BD0000360002303840A49822200F025F9C82219
:100BE000084B1A700848322101F00AF908BD00BF0D
:100BF000F03D0000E4A8FF1FF4A8FF1F103E000016
:100C00007490FF1FD4A8FF1FF0A9FF1F2DE9F0412A
:100C100000F05EFF2A2852D100F05AFF00F058FF82
:100C2000284BD3F800800024274D1F46274E281953
:100C3000C4F5436100F0A6FF0444B4F5436F39D214
:100C40003A68C8EB0202B3689A42F0D301221F4B04
:100C50001A732FE055789478995D1954C1184D7026
:100C60008C7003320333B3F5436FF3D1184B18463E
:100C7000197800F05DF8174B1B7823B10D20012186
:100C800000F066F903E00D20002100F061F9114B3E
:100C90001A7882F001021A700A2000F0C1F90B4C98
:100CA00023681B68204678219847204601F098F871
:100CB000BDE8F081044A002307481646CAE7BDE8AC
:100CC000F08100BFF8A8FF1FA49CFF1FF0A9FF1F21
:100CD000D4A8FF1F6087FF1F7490FF1FFF220270C0
:100CE00000224280C2604FF0FF328260704700BF36
:100CF00030B40C4A13685C1C14608B4210DB0A4A47
:100D000015684FF47A7101FB04F4084B1968691AED
:100D1000B4FBF1F1418000200249086012681A60BA
:100D200030BC7047E8A8FF1FF8A8FF1FF0A8FF1FFE
:100D30002DE9F04F83B080468A462E4CD8F8043017
:100D40003BB100F04BF92368C01AD8F80420904258
:100D5000F4D300F043F9274B1860D8F80C3023B1D6
:100D60005046D8F8081098478246234B1C68002C40
:100D700039D0002694F81290B8F80230632B98BF4F
:100D8000A6742368D3F804C0616862698DF80460B2
:100D90008DF805608DF80660BAF1000F1BD004F1E4
:100DA0000B05334604F10C0B15F8017FCBEB050E58
:100DB00004F10F001EF8000057B148B1013700FBE5
:100DC00007770AFB07F0000C0DF1040E03F80E0084
:100DD0000133032BE8D1204601ABE04784F81290A1
:100DE000A468002CC6D140461921FFF781FF03B04B
:100DF000BDE8F08FECA8FF1FE4A8FF1F4AB181B146
:100E0000084B93FBF1F143688B422CBF4360416078
:100E1000704721B1034B93FBF1F141607047002310
:100E20004360704740420F00F8B504460F46154630
:100E30001E1EDCBF1646002503689B68984705EB1D
:100E400045052F446760666123685B6920469847C3
:100E5000014603480122FFF7D1FF2046F8BD00BF3D
:100E6000D4A8FF1F0020704708B50248FFF736FFDF
:100E700008BD00BFD4A8FF1F024B1A6801321A60D8
:100E8000704700BFF8A8FF1F08B50D4C236813F486
:100E9000802F01D000F016FA236813F4806F01D080
:100EA00001F0C8FB236813F4006F01D001F092FE3B
:100EB000236813F4805FE9D002F0DEF8E6E700BFB4
:100EC0003480044008B5FFF7DFFF00BF1022014B5C
:100ED0001A80704700200540704700BF024A13681F
:100EE00018441060184670476487FF1FFEE700BF74
:100EF000EFF31383ABB9EFF31083ABB9EFF30583D3
:100F000023B10F2B05D9094A985C03E04FF4807098
:100F100000E00020EFF311833BB1834238BF184655
:100F200070474FF0FF30704700207047F0E300E05B
:100F3000044B00221A6004490A60044A106010221F
:100F40001A60704714D0034004D0034000D003401F
:100F500021281ED80F4B53F8303093F8802212F01E
:100F6000FF0F08D019B1012283F8802070470122B9
:100F700083F800217047074B03EBC000436821B1A1
:100F80001A6842F003021A6070471A6822F00202DF
:100F90001A607047303E000021281CD80E4B03EB2E
:100FA000C0035B68012908D10B4A52F8302082F84F
:100FB00080124FF4A2721A607047074A52F830202C
:100FC000002082F8800219B94FF480721A607047CD
:100FD00040F203121A607047303E000072B60C4BAC
:100FE0001B680C4A12680C49096862B611F0806FE0
:100FF00002D0322B88BF0132C3F5BB33FF33074920
:10100000A1FB03039B094FF47A7000FB0230704789
:1010100018E000E0F8A8FF1F04ED00E0ABAAAAAAC0
:1010200038B50546FFF7DAFF044665B1FFF7D6FF8E
:10103000001BB0F57A7F03D3013D04D004F57A7428
:1010400000F018FFF2E738BD10B5254B4FF4000251
:101050001A604FF080721A604FF000721A604FF001
:1010600080621A604FF000621A6000201D4B186009
:101070004BF6FF710433196028231B4A13600832B2
:1010800013600832136008321360083213600832AC
:10109000136008321360083213600922134C226077
:1010A00004F5805404342060043421600434236047
:1010B00008342360143C226004F5FE2404342060CC
:1010C0000B4801600B490B6008310B600A4B1A603A
:1010D00000F08CFFFA20FFF7A3FF00F06BFC10BDBF
:1010E00008E100E0048003400C80034000800340DE
:1010F00008800B400C800B4000800B4030B40E4B3E
:101100001B7843F002020D4C04EBC20460600C48F3
:10111000007800280CBF8824C82444EA0141074D08
:1011200045F8321080F00100054A107083F0010389
:10113000014A137030BC704764A9FF1F0080FF1F75
:10114000DDA9FF1F10B4431E032B11D872B60A4A43
:1011500052F8230050B14268074941F82320074A5A
:1011600032F813400188611A22F8131062B600E0C9
:1011700000205DF8044B704754A9FF1FE4ABFF1F2C
:10118000013803280DD872B6074B53F820302BB125
:10119000002001305B68002BFBD100E0002062B62C
:1011A00070470020704700BFA8A9FF1F38B572B66E
:1011B00001231B491B4C5A1812F8012C12F0080F7E
:1011C00024D09A0054F832506DB9164B03EBC2018B
:1011D00008304860144943F83210144B1A78013A29
:1011E0001A7062B638BD42F0010254F832506DB93F
:1011F0000C4B03EBC201083048600D4943F8321034
:101200000A4B1A78013A1A7062B638BD0133052BC1
:10121000D1D162B60022054B1A7000F02FFC38BD08
:10122000683F00000080FF1F88004000D2A9FF1F18
:10123000C800400010B4431E032B37D8400140F0D3
:1012400010001C4A104472B61B4AD25C032A09D80B
:10125000DFE802F019021B050830022216E0083010
:10126000042213E0154A52F823201AB9134A42F80F
:10127000231003E0124A52F823205160104A42F82A
:10128000231062B612E0032200E005220A4CE25469
:1012900001F10803436000F00803002B0CBF882312
:1012A000C8230A8843EA0243036062B65DF8044B30
:1012B000704700BF0080FF1F10A9FF1FA8A9FF1FD4
:1012C000B8A9FF1F2DE9F84FA34CDFF8E092DFF833
:1012D000E0A2DFF8E0B22578EDB215F0040F1DD0E2
:1012E0009E4B1B7813F0FF0F16D09D4B1B7803F01D
:1012F000FF022BB1531EDBB2994A137003B900BE33
:10130000984B1B7803F0FF0233B1531EDBB2954AB2
:1013100013700BB900F040FD0423237015F0080F83
:1013200000F0DC8299F80030DBB21D0940F01D822C
:101330008D4D9E0805EBC6035A6855F83630C3F349
:101340008303013B0C2B00F20C82DFE813F0C70192
:10135000C7010A020A020A020A020A020A02E40198
:101360000A020A020A020D00804913680B605268E3
:101370004A607F4A45F8362000227E490A607A4951
:101380000A618A6101217C4A11709BB240F281623C
:10139000934218D8B3F5D06F2ED2B3F5817F00F009
:1013A0001E8106D8802B00F0C980822B00F0CC80F3
:1013B00062E140F20232934200F02681B3F5A06F61
:1013C00000F05E8158E142F22102934200F08281F6
:1013D00007D8B3F5086F00F0AB80B3F5106F11D0EC
:1013E0004AE142F22122934200F0418142F221324D
:1013F000934200F045813FE1604B5D68002D40F075
:10140000188130E1594B9A78544B1A70564D05F1BA
:1014100080062B6A13F0800F03D0686A083800F04A
:101420002DFB0835B542F4D1DFF88C810026374614
:10143000534AB05828B1456800F020FB0DB128464A
:10144000F9E700234E4973504E4AB3504E4BF058C3
:1014500028B1456800F012FB0DB12846F9E70023DA
:1014600049497350494AB35028F8023F484BFB5C46
:10147000023B032B0AD8DFE803F002060206002233
:10148000434BDA5502E00122414BDA55013704366D
:10149000102ECDD100223F4B1A7001253E4EDFF8B1
:1014A0001C81314F05EB080313F8013C06F8043B9F
:1014B00013F0080F2DD000F0C1FA48B1A90007EBD6
:1014C000451200F108035360344A47F8312007E021
:1014D000AB00002247F833202E4B1A7801321A70E5
:1014E00000F0ACFA58B1AB0043F0010307EBC301C5
:1014F00000F108024A601E4A47F8332009E0AB00B9
:1015000043F00103002247F83320224B1A780132BE
:101510001A70AA0042F00201002347F8313042F06D
:10152000030247F8323001351D4B9E42BAD116E214
:101530000A4B1B781B4D2B700127A6E0194D002389
:101540002B706B700227A0E0084B9B88042B37D9C7
:101550000F22154B1A70BDE080200740DCA9FF1F49
:1015600065A9FF1FDEA9FF1F0080FF1FC8A9FF1F7D
:10157000C8004000FCA8FF1FDDA9FF1F6C3F000052
:1015800054A9FF1F00A9FF1FA8A9FF1FB8A9FF1F8B
:1015900010A9FF1FD2A9FF1FC420074088004000E8
:1015A000D4200740D4A9FF1FC02007409020074047
:1015B0009420074098200740E2ABFF1F683F0000DF
:1015C0009E4A0021117051709D4A12F8233013F089
:1015D000020F58D0994D01232B70022755E0994BEB
:1015E0009B8803F07F03042B02DC964A52881AB1D1
:1015F0000F22934B1A706DE0914A12F8231021F0DC
:10160000020102F82310AAE18E4B9B8803F07F03AE
:10161000042B02DC8B4A52881AB10F22884B1A70B5
:1016200058E0874A12F8231041F0020102F8231013
:1016300095E1844B5E889F88834BA3F10C02114691
:1016400033F80C0CB04209D133F80A0CB84205D17A
:10165000360A032E0CBF2F78178916E00D690C335C
:101660000C32002DEBD10F22754B1A7032E0754B06
:101670009A78764B1A7072E10F22714B1A7029E03A
:1016800000273D4601E002276C4D6E4BDB889F42F0
:1016900028BF1F46402F34BF3E46402628463146CD
:1016A000FFF72CFD3544BF1B03D13F2E00F25C81B8
:1016B00010E0402F34BF3E46402628463146FFF713
:1016C0001DFD3544BF1B01D13F2E03D9604B1D606A
:1016D000604B1F8001238AF8003042E0594B198883
:1016E00042F22103994212D15B4BD81D12F8011B23
:1016F00003F8011F8342F9D1584B1B68862B02D196
:101700000F22574B1A7000200146FFF7F7FC554B8C
:1017100045F8363025E04E4B1E68BEB14D4FB7F848
:101720000080B8F1400F34BF454640253046294679
:10173000FFF7E4FCC5EB08039BB23B800BB9402DDF
:1017400001D1354400E00025414B1D603D4B1B8815
:10175000B3F5A06F05D13B4B00225A709B788BF8F4
:10176000003001238AF80030B5E03F4E9F0806EBB9
:10177000C708D8F80420A2F10800013DEDB213F02B
:10178000080F47D000F07AF9384B53F825304BB3A7
:101790005A68364941F8252003F10802C8F80420A8
:1017A000334A525D032A12D8DFE802F002060A0E1D
:1017B00003212F4A51550AE002212D4A515506E0D6
:1017C00005212B4A515502E00421294A515518F0B0
:1017D000080F0CBF8822C8221B8842EA034346F840
:1017E000373078E0224B5B5D032B0BD8DFE803F04A
:1017F0007373020600221E4B5A556CE001221C4BEB
:101800005A5568E018F0080F0CBF02220322184B4B
:101810005A5560E056F837301B0C22F8083C002B74
:1018200051D0002322F8063C42F8043C114B53F8F7
:1018300025300BBB0F4B43F8250021E0D4A9FF1F37
:10184000C0200740C8A9FF1F783F0000ECA9FF1F78
:10185000FCA8FF1FD0A9FF1FEBABFF1FECABFF1FC6
:1018600065A9FF1FC80040000080FF1FA8A9FF1F37
:1018700010A9FF1F54A9FF1F3F4B53F82530586094
:101880003D4B43F825003D4B33F8151032F8082C3A
:101890000A4423F8152000F0D1F860B100F10803E4
:1018A000C8F8043018F0080F354B364A08BF134605
:1018B00046F837300FE0002346F83730324B1A78BD
:1018C00001321A7007E018F0080F2D4B2D4A08BF9F
:1018D000134646F8373008232370FCE415F0010F57
:1018E00022D02A4902230B700022294B1A70294B5F
:1018F00024481860284C5C6098602848D8601A61B9
:101900009A610D20264B1870FF2326480370083873
:10191000037018300270244A13709F22234B1A70F0
:1019200001230B70BDE8F88F15F0800F05D00D2254
:101930001B4B1A708022403B1A7015F0020F06D024
:10194000184B1A78D2B21A700222083B1A7015F09E
:10195000100F0ED01022164B1A70BDE8F88F002021
:101960000146FFF7CBFBB5E628460021FFF7C6FB93
:10197000B0E6BDE8F88F00BF00A9FF1FE4ABFF1F72
:10198000C800400088004000D2A9FF1F94200740F3
:1019900064A9FF1F0080FF1F14A9FF1F68A9FF1F74
:1019A000C0200740882007408C2007408420074043
:1019B0008020074008B501F0BFFB00231B491A46F1
:1019C0005A50C81842600833882BF9D1184B1A684E
:1019D00042F480221A60154BC3F30721154A117097
:1019E000C3F30741143211701B0E04321370FF232E
:1019F000343A137008321370783A1370012384322A
:101A0000137000216C3211707C3A137070220A4BF3
:101A10001A704FF40072A3F241331A60102203F1DE
:101A2000C04303F5C8231A7008BD00BF0080FF1F24
:101A3000348004409C20074049E400E072B60D4B1E
:101A40001A68B2FA82F30B2B02D962B600207047F3
:101A50004FF00041D94022EA010206490A6062B60D
:101A6000054903EBC303DB00C8180022CA504260DB
:101A7000704700BF6887FF1F0084FF1F08B50F4B2A
:101A8000C31A0F4AA2FB03131B090B2B14D80D4AD0
:101A900012783AB10C4A127812F0FF0F02D0FFF719
:101AA00085FB08BD72B6094A4FF0004121FA03F3E5
:101AB00011681943116062B608BD00BF0084FF1FA2
:101AC000398EE338D2A9FF1FDCA9FF1F6887FF1FEB
:101AD00010B5134B1B6853B9124B1B7813F0FF0F53
:101AE00018D00320FFF72EFB0D4B1860A8B10C4B4C
:101AF000186843885A1C03441C7A03889A4206D308
:101B0000FFF7BCFF0022064B1A60204610BD428042
:101B1000204610BD4FF0FF3010BD4FF0FF3010BD1C
:101B2000E8A9FF1FDCA9FF1F08B50D4B1B6883B98F
:101B30000C4B1B7813F0FF0F08D00320FFF702FBBC
:101B4000074B186028B94FF0FF3008BD4FF0FF3049
:101B500008BD034B1B685A881344187A08BD00BFA0
:101B6000E8A9FF1FDCA9FF1F044B9888044B1B68E2
:101B70001BB11A885B88D31A18447047E4ABFF1F67
:101B8000E8A9FF1F2DE9F04780460F4600293BD00A
:101B9000214B1B7813F0FF0F39D04FF000091F4E77
:101BA000DFF874A004E09AF8003013F0FF0F30D093
:101BB000336853B903242046FFF7C4FA306040B3BA
:101BC000038813B9FFF75AFFF5E734686188258861
:101BD0006D1AAF4238BF3D460831404621442A467F
:101BE00000F06AF9A844A9447F1B63881D44ADB284
:101BF00065802388AB4204D82046FFF73FFF0023CF
:101C00003360002FCFD104E04FF0000901E04FF026
:101C100000094846BDE8F087DCA9FF1FE8A9FF1FBF
:101C20002DE9F04704460122374B1A700E46002971
:101C300064D0DFF8E080DFF8E0909A46334FD8F8C0
:101C4000003083BB99F8003013F0FF0F06D100225B
:101C50002D4B1A704FF0FF30BDE8F0874AF2F9259E
:101C60000420FFF78DFA07280AD801238AF80030EC
:101C7000FFF7E4FEC8F80000A8B900238AF8003096
:101C8000013D01D03B7833B10122204B1A704FF057
:101C9000FF30BDE8F08700F0EDF899F8003013F060
:101CA000FF0FDDD1D3E700233B70D8F800104A883E
:101CB000C2F14005AE4238BF354602F108030B447D
:101CC0002A444A80761B3DB1254414F8012B03F8C1
:101CD000012BAC42F9D100E025464B883F2B07D9B8
:101CE00040230B800420FFF7A5FA0023C8F800303A
:101CF0000522074B1A700EB12C46A0E70020024BBC
:101D00001870BDE8F08700BFDFA9FF1FE4A9FF1F1F
:101D1000DEA9FF1FE0A9FF1FDCA9FF1F00B583B0EC
:101D200002AB03F8010D18460121FFF779FF03B05C
:101D30005DF804FB10B5144B1B7813F0FF0F21D096
:101D40000122124B1A70124B196851B10024114B29
:101D50001C704B880B800420FFF76CFA0C4B1C6046
:101D60000DE0FFF76BFE014630B10022094B1A70FF
:101D70000420FFF75FFA02E00122064B1A700022EE
:101D8000024B1A7010BD00BFDCA9FF1FDFA9FF1FA7
:101D9000E0A9FF1FDEA9FF1F08B50E4B1B7813F04B
:101DA000FF0F16D10C4B196841B14B880B800420F2
:101DB000FFF740FA0022084B1A6008BDFFF73EFE0D
:101DC000014618B10420FFF735FA08BD0122034B84
:101DD0001A7008BDDFA9FF1FE0A9FF1FDEA9FF1FC2
:101DE00000B583B0054B1B88ADF8043003685B6811
:101DF00001A90222984703B05DF804FB403F0000B0
:101E00008160704708B5FEF7B9FEFEF7FFFE00F0EF
:101E100031F8FAE708B501F0BDFB08BD08B5FFF7DA
:101E2000A3FE08BD08B5FFF753FE08BD08B5FFF7D0
:101E30007BFE08BD08B5FFF77DFF08BD08B5084665
:101E4000FFF76CFF08BD00BF08B508461146FFF755
:101E5000E7FE08BD704700BF044B00221A714FF423
:101E60007A7199601A73024A1A607047F0A9FF1FCD
:101E7000503F000008B50F4B1B78CBB901220D4B2A
:101E80001A70FFF771FE08B1FFF7E4FF00F048FB9E
:101E900008B101F01BFA00F039FE08B101F0ACFA0C
:101EA00001F09AF808B101F03DFB0022014B1A70D5
:101EB00008BD00BF00AAFF1F844641EA000313F0DB
:101EC00003036DD1403A41D351F8043B40F8043B41
:101ED00051F8043B40F8043B51F8043B40F8043B04
:101EE00051F8043B40F8043B51F8043B40F8043BF4
:101EF00051F8043B40F8043B51F8043B40F8043BE4
:101F000051F8043B40F8043B51F8043B40F8043BD3
:101F100051F8043B40F8043B51F8043B40F8043BC3
:101F200051F8043B40F8043B51F8043B40F8043BB3
:101F300051F8043B40F8043B51F8043B40F8043BA3
:101F400051F8043B40F8043B403ABDD2303211D343
:101F500051F8043B40F8043B51F8043B40F8043B83
:101F600051F8043B40F8043B51F8043B40F8043B73
:101F7000103AEDD20C3205D351F8043B40F8043B43
:101F8000043AF9D2043208D0D2071CBF11F8013B41
:101F900000F8013B01D30B8803806046704700BF07
:101FA000082A13D38B078DD010F003038AD0C3F116
:101FB0000403D21ADB071CBF11F8013B00F8013BF8
:101FC00080D331F8023B20F8023B7BE7043AD9D3B7
:101FD000013A11F8013B00F8013BF9D20B7803708C
:101FE0004B7843708B7883706046704760223A4B21
:101FF0001A70E12201331A70384B1B78082B10D16C
:10200000012203F1804303F56C331A601323344932
:102010000B6001F5FF2101F2FC710A60314A136087
:102020001FE00A2B0DD139222F4B1A6013232C49A4
:102030000B6001F5FF2101F2FC710A60294A13606F
:102040000FE00C2B0CBF35223D22274B1A601223C8
:1020500023490B6001F5FF2101F2FC710A60214A5E
:102060001360224B1B7833B10123214A136002F520
:102070000022136005E000231D4A136002F50022D0
:1020800013601C4B1B78012B06D880231A4A13605F
:1020900002F5002213601AE0042B06D88423164AA6
:1020A000136002F50022136011E0082B06D8852387
:1020B000114A136002F50022136008E0102B94BF50
:1020C000862387230C4A136002F500221360012245
:1020D0000A4B1A70704700BF004007406C87FF1F13
:1020E0000CB003400CB00B4008B0034002AAFF1F25
:1020F00020B003406D87FF1F24B0034001AAFF1FDB
:1021000030B40023B0FBF2F402FB14041D46092C8A
:1021100094BF30343734E4B2CC54B0FBF2F008B1A1
:102120000133EFE70D4400226A70934207DD885CBB
:10213000CC5C8C54C8540132013B9A42F7DB084610
:1021400030BC7047194B1A6842F480621A60002351
:10215000174A1370174A1370174A1370174A1370EF
:10216000174A137040F21332164B1A604FF4517233
:1021700004331A60C0F34432134B1A70C0F3471291
:102180005A7000F01F00987204229A700221D974CC
:102190005A7588221A743C22DA7040220B4B1A704E
:1021A0004FF40052A3F229331A6070473480044080
:1021B0008CAAFF1F09AAFF1F94AAFF1F8DAAFF1F49
:1021C00008AAFF1F40A0044000A006402DE400E044
:1021D000164B9B7803F0EC0300F00302134310F05E
:1021E000040F18BF43F01003104A937000F00F0360
:1021F000042B04D11346927942F040029A710B4BA2
:102200005A7902F0EF0210F0100F18BF42F01002DE
:10221000064B5A719B7903F0EF0310F0200F18BFA3
:1022200043F01003014A9371704700BF00A00640BD
:1022300010B5144B1B6813F4806F21D0124B1B7820
:1022400013F0FF0F06D0104CFFF714FE237813F0A5
:10225000FF0FF9D14FF400520C4B1A6000230C4AC7
:10226000D37040F203120B490A6004310A600A4A33
:1022700013700A4A13700A4B1B680BB101221A70C3
:1022800010BD00BF3480044008AAFF1F84E100E0B5
:1022900000A0064040A004408CAAFF1F09AAFF1F0F
:1022A00004AAFF1F10B50446094A137813F0FF0F64
:1022B000FBD120460121FEF76FFE20460021FEF7EC
:1022C00047FE044B53F83420034B1A6010BD00BF87
:1022D00008AAFF1F303E000090AAFF1F10B50D4B4B
:1022E0001B6813F4806F12D021280CD80A4C0B4BBA
:1022F00053F8303023600121FEF74EFE23680022A0
:102300001A70012010BD0020034B186010BD002082
:1023100010BD00BF3480044004AAFF1F303E0000FF
:10232000114B1B6813F4806F1BD0122804D140F2AC
:1023300002320E4B1A600DE0142804D140F2023232
:102340000B4B1A6006E00B4B5A7B02F0FE025A73ED
:1023500000207047074B5A7B42F001025A7301205C
:1023600070470020704700BF348004400CA0044038
:1023700014C0044000A006402DE9F04107461F4B61
:102380001B6813F4806F37D01D4B1B680BB1012203
:102390001A701C4B1C780134402C28BF00241A4DA5
:1023A0001A4EDFF86C8017E0FEF7A2FD40280FDC24
:1023B000337913F0800F0FD02B780133402B28BFD7
:1023C000002318F80320D2B2F271DBB22B7003E0C5
:1023D000FF2801DDFFF74EFD2B78DBB29C42E3D0F6
:1023E000FFB20B4B1F5501220A4B1A70E4B2054B8A
:1023F0001C70BC22054BDA70BDE8F08134800440CB
:1024000090AAFF1F94AAFF1F8DAAFF1F00A00640DD
:102410000CAAFF1F08AAFF1F2DE9F84F0746284BFB
:102420001B6813F4806F49D0264B1B680BB1012247
:102430001A7007EB010B5F453DD2DFF89890224EF2
:10244000DFF88C80DFF890A099F800400134402C30
:1024500028BF00243578EDB2A54220D1BC2388F8EE
:102460000330FEF745FD402811DC98F8043013F0E6
:10247000800F10D033780133402B28BF00231AF887
:102480000320D2B288F80720DBB2337003E0FF28C4
:1024900001DDFFF7EFFC3378DBB29D42E1D017F8A6
:1024A000013B0AF804300122084B1A70E4B289F8A3
:1024B00000405F45C8D1BC22054BDA70BDE8F88FFB
:1024C0003480044090AAFF1F8DAAFF1F08AAFF1F97
:1024D00000A0064094AAFF1F0CAAFF1F10B5064BD0
:1024E0001B7813F0FF0F06D0034CFFF7C3FC2378D3
:1024F00013F0FF0FF9D110BD08AAFF1F064B1B7880
:10250000DBB2064A1278D2B293422CBF3F3202F1BC
:10251000FF32D01A704700BF94AAFF1F8DAAFF1F79
:10252000054B1878C0B2054B1B78DBB2984238BF18
:102530004030C01A704700BF8CAAFF1F09AAFF1FB6
:1025400010B4184B1A78D2B2174B1B78DBB29A42F0
:1025500018D001333F2B18D81449C85CC0B2DCB284
:1025600011490C7012490968C9B19A4203D300E0BD
:102570000023D31A01E04032D31A1A2B0FDC0023B8
:102580000B700CE04FF0FF3009E0084B1878C0B238
:102590000021054B1970064B19680029E8D15DF838
:1025A000044B70478CAAFF1F09AAFF1F4CAAFF1FEC
:1025B00004AAFF1F094B1A78D2B2094B1B78DBB271
:1025C0009A4207D00133402B28BF0023054AD05C34
:1025D000C0B270474FF0FF30704700BF8CAAFF1F9A
:1025E00009AAFF1F4CAAFF1F0D4B1B6813F4806F35
:1025F00014D00C4BDA7802F0CB02DA7040225A7415
:10260000DA7842F03402DA70074B1A78D2B2074B0C
:102610001A70074B1B680BB100221A70704700BF7D
:102620003480044000A0064009AAFF1F8CAAFF1FA7
:1026300004AAFF1F70B43D4B1B7913F0300F33D049
:1026400072B63A4B9B7D03F0FF022BB9374BDA7918
:1026500040225A7462B627E062B6354B1978C9B287
:10266000344B1C78E4B2314D334EEB79D8B24B1C6D
:10267000402B28BF0023A3421CBFF0541946531E11
:1026800013F0FF02F1D1CAB2294B1A702B4B1B6811
:1026900053B1A1422EBFC4EB0101C4F1400409199A
:1026A0002729C4BF01221A70204BDA78D2B212F067
:1026B000800F27D01B7913F0800F23D0204B1C787C
:1026C000E4B2204B1B78DBB29C4210D017491E4D60
:1026D00001E0A3420BD00133402B28BF002308792F
:1026E000E85CC0B2C871087DC0B20728F1D9DBB27E
:1026F00014490B700D4B1B7913F0800F02D07C2115
:102700000A4BD97012F0400F0ED0084B1B7913F012
:10271000400F09D000220D4B1A700D4B1B6803B1FE
:102720001A703C22014BDA7070BC704700A0064062
:102730008CAAFF1F09AAFF1F4CAAFF1F04AAFF1F94
:1027400094AAFF1F8DAAFF1F0CAAFF1F08AAFF1F34
:1027500090AAFF1F194B1A6842F400621A60002306
:10276000174A1370174A1370174A1370174A1370D9
:10277000174A137040F21332164B1A604FF451721D
:1027800004331A60C0F34432134B1A70C0F347127B
:102790005A7000F01F00987204229A700221D974B6
:1027A0005A7588221A743C22DA7040220B4B1A7038
:1027B0004FF40042A3F22B331A6070473480044078
:1027C00000ABFF1F96AAFF1F08ABFF1F01ABFF1F47
:1027D00095AAFF1F0CB0044000B006402FE400E0B3
:1027E000164B9B7803F0EC0300F00302134310F048
:1027F000040F18BF43F01003104A937000F00F034A
:10280000042B04D11346927942F040029A710B4B8B
:102810005A7902F0EF0210F0100F18BF42F01002C8
:10282000064B5A719B7903F0EF0310F0200F18BF8D
:1028300043F01003014A9371704700BF00B0064097
:1028400010B5114B1B6813F4006F1CD00F4B1B7895
:1028500013F0FF0F06D00D4CFFF70CFB237813F09D
:10286000FF0FF9D14FF40042094B1A600023094AC7
:10287000D37040F2031208490A6004310A60074A23
:102880001370074A137010BD3480044095AAFF1FCF
:1028900084E100E000B006400CB0044000ABFF1F34
:1028A00096AAFF1F10B50446094A137813F0FF0FCC
:1028B000FBD120460121FEF76FFB20460021FEF7E9
:1028C00047FB044B53F83420034B1A6010BD00BF84
:1028D00095AAFF1F303E000004ABFF1F0D4B1B6885
:1028E00013F4006F13D016280AD14FF440720A4B2C
:1028F0001A600A4B5A7B42F008025A730120704753
:10290000064B5A7B02F0F7025A73002070470020F2
:10291000704700BF3480044004B0044000B006405B
:102920000D4B1B6813F4006F13D017280AD14FF416
:1029300040720A4B1A600A4B5A7B42F001025A73EA
:1029400001207047064B5A7B02F0FE025A730020AA
:1029500070470020704700BF3480044008B0044036
:1029600000B006402DE9F04107461F4B1B6813F4E9
:10297000006F37D01D4B1B680BB101221A701C4B26
:102980001C780134282C28BF00241A4D1A4EDFF879
:102990006C8017E0FEF7ACFA40280FDC337913F0B7
:1029A000800F0FD02B780133282B28BF002318F875
:1029B0000320D2B2F271DBB22B7003E0FF2801DDFD
:1029C000FFF758FA2B78DBB29C42E3D0FFB20B4BF7
:1029D0001F5501220A4B1A70E4B2054B1C70BC2231
:1029E000054BDA70BDE8F0813480044004ABFF1F72
:1029F00008ABFF1F01ABFF1F00B0064098AAFF1FE6
:102A000095AAFF1F2DE9F84F0746284B1B6813F4C2
:102A1000006F49D0264B1B680BB101221A7007EBDF
:102A2000010B5F453DD2DFF89890224EDFF88C8095
:102A3000DFF890A099F800400134282C28BF00242A
:102A40003578EDB2A54220D1BC2388F80330FEF7DB
:102A50004FFA402811DC98F8043013F0800F10D0A2
:102A600033780133282B28BF00231AF80320D2B271
:102A700088F80720DBB2337003E0FF2801DDFFF7A1
:102A8000F9F93378DBB29D42E1D017F8013B0AF83F
:102A900004300122084B1A70E4B289F800405F4507
:102AA000C8D1BC22054BDA70BDE8F88F34800440F1
:102AB00004ABFF1F01ABFF1F95AAFF1F00B006402C
:102AC00008ABFF1F98AAFF1F10B5064B1B7813F029
:102AD000FF0F06D0034CFFF7CDF9237813F0FF0F5B
:102AE000F9D110BD95AAFF1F064B1B78DBB2064A31
:102AF0001278D2B293422CBF273202F1FF32D01AA1
:102B0000704700BF08ABFF1F01ABFF1F054B1878D4
:102B1000C0B2054B1B78DBB2984238BF4030C01AB8
:102B2000704700BF00ABFF1F96AAFF1F0A4B1A7821
:102B3000D2B20A4B1B78DBB29A4209D00133402B48
:102B400028BF0023064AD05CDBB2044A13707047EA
:102B50004FF0FF30704700BF00ABFF1F96AAFF1F6A
:102B6000C0AAFF1F094B1A78D2B2094B1B78DBB2FF
:102B70009A4207D00133402B28BF0023054AD05C7E
:102B8000C0B270474FF0FF30704700BF00ABFF1F6F
:102B900096AAFF1FC0AAFF1F0A4B1B6813F4006F01
:102BA0000FD0094BDA7802F0CB02DA7040225A7467
:102BB000DA7842F03402DA70044B1A78D2B2044B5D
:102BC0001A7070473480044000B0064096AAFF1F78
:102BD00000ABFF1F70B4364B1B7913F0300F25D0BC
:102BE00072B6334B9B7D03F0FF022BB9304BDA7981
:102BF00040225A7462B619E062B62E4B1978C9B2F7
:102C00002D4B1D78EDB22A4C2C4EE379D8B24B1CDB
:102C1000402B28BF0023AB421CBFF0541946531E63
:102C200013F0FF02F1D1C9B2224B1970204BDA78B0
:102C3000D2B212F0800F27D01B7913F0800F23D06F
:102C40001F4B1C78E4B21F4B1B78DBB29C4210D0A8
:102C500017491D4D01E0A3420BD00133282B28BF9B
:102C600000230879E85CC0B2C871087DC0B20728AB
:102C7000F1D9DBB213490B700D4B1B7913F0800FA8
:102C800002D07C210A4BD97012F0400F0ED0084BB5
:102C90001B7913F0400F09D000220C4B1A700C4B1B
:102CA0001B6803B11A703C22014BDA7070BC70478C
:102CB00000B0064000ABFF1F96AAFF1FC0AAFF1F6F
:102CC00008ABFF1F01ABFF1F98AAFF1F95AAFF1FAC
:102CD00004ABFF1F174B1A6842F480521A6000239E
:102CE000154A1370154A1370154A1370154A13705C
:102CF000154A137040F21331144A11604FF45171A8
:102D000004321160C0F34431114A1170C0F347110D
:102D1000517000F01F009072937013742C23D370C5
:102D200040220C4B1A704FF40032A3F22D331A607C
:102D3000704700BF3480044074ABFF1F0AABFF1F15
:102D40007CABFF1F75ABFF1F09ABFF1F08C0044022
:102D500000C0064031E400E0164B9B7803F0EC0322
:102D600000F00302134310F0040F18BF43F01003E8
:102D7000104A937000F00F03042B04D1134692798C
:102D800042F040029A710B4B5A7902F0EF0210F0B8
:102D9000100F18BF42F01002064B5A719B7903F0D6
:102DA000EF0310F0200F18BF43F01003014A937196
:102DB000704700BF00C0064010B5114B1B6813F4EC
:102DC000805F1CD00F4B1B7813F0FF0F06D00D4C0B
:102DD000FFF750F8237813F0FF0FF9D14FF40032CA
:102DE000094B1A600023094AD37040F203120849C4
:102DF0000A6004310A60074A1370074A137010BD55
:102E00003480044009ABFF1F84E100E000C00640AD
:102E100008C0044074ABFF1F0AABFF1F10B5044687
:102E2000094A137813F0FF0FFBD120460121FEF76A
:102E3000B3F820460021FEF78BF8044B53F83420FA
:102E4000034B1A6010BD00BF09ABFF1F303E0000EE
:102E500078ABFF1F0D4B1B6813F4805F14D0022862
:102E60000BD14FF440720A4B1A6003F500335A7BC2
:102E700042F008025A7301207047064B5A7B02F059
:102E8000F7025A73002070470020704734800440D6
:102E900000C0044000C006400D4B1B6813F4805F67
:102EA00013D00E280AD14FF440720A4B1A600A4B15
:102EB0005A7B42F001025A7301207047064B5A7B3D
:102EC00002F0FE025A73002070470020704700BFD6
:102ED0003480044004C0044000C006402DE9F041A5
:102EE00007461F4B1B6813F4805F37D01D4B1B68D0
:102EF0000BB101221A701C4B1C780134282C28BFFE
:102F000000241A4D1A4EDFF86C8017E0FDF7F0FF31
:102F100040280FDC337913F0800F0FD02B7801336A
:102F2000282B28BF002318F80320D2B2F271DBB29D
:102F30002B7003E0FF2801DDFEF79CFF2B78DBB24E
:102F40009C42E3D0FFB20B4B1F5501220A4B1A7073
:102F5000E4B2054B1C70AC22054BDA70BDE8F08181
:102F60003480044078ABFF1F7CABFF1F75ABFF1FA5
:102F700000C006400CABFF1F09ABFF1F38B505466C
:102F80000C4629B115F8010BFFF7A8FF013CF9D158
:102F900038BD00BF10B5064B1B7813F0FF0F06D0ED
:102FA000034CFEF767FF237813F0FF0FF9D110BD34
:102FB00009ABFF1F064B1B78DBB2064A1278D2B270
:102FC00093422CBF273202F1FF32D01A704700BF64
:102FD0007CABFF1F75ABFF1F054B1878C0B2054BCC
:102FE0001B78DBB2984238BF4030C01A704700BF30
:102FF00074ABFF1F0AABFF1F0A4B1A78D2B20A4B01
:103000001B78DBB29A4209D00133402B28BF002342
:10301000064AD05CDBB2044A137070474FF0FF30B1
:10302000704700BF74ABFF1F0AABFF1F34ABFF1F1D
:10303000094B1A78D2B2094B1B78DBB29A4207D0FF
:103040000133402B28BF0023054AD05CC0B2704733
:103050004FF0FF30704700BF74ABFF1F0AABFF1F7C
:1030600034ABFF1F024B1A78D2B2024B1A70704772
:103070000AABFF1F74ABFF1F264B1B7913F0200F09
:1030800012D0244BDB79D9B2234B1B780133402B70
:1030900028BF0023214A1278D2B29A4204D0204A93
:1030A000D154DBB21C4A13701A4BDB78DBB213F03D
:1030B000800F1CD0174A127912F0800F17D0194ACE
:1030C0001178C9B2184A1278D2B2914203D16C2158
:1030D000104AD1700BE00132282A28BF0022134980
:1030E000885CC0B20B49C871D2B20F490A7013F0A4
:1030F000400F0ED0074B1B7913F0400F09D0002270
:103100000B4B1A700B4B1B6803B11A702C22014B2E
:10311000DA70704700C0064074ABFF1F0AABFF1F98
:1031200034ABFF1F7CABFF1F75ABFF1F0CABFF1F4A
:1031300009ABFF1F78ABFF1F00B585B072B61B4B04
:1031400070221A7041211A4A11700F21013A117030
:1031500080221A701A46137813F0800FFBD0154B9B
:10316000186862B6144B98429CBF00EB8000400088
:1031700001A90A22FEF7C4FF9DF804307BB908E0DC
:1031800001A9595C31B19180023201330A2BF7D188
:1031900000E0002301335B00084A137003E0074A94
:1031A00053800123ECE705B05DF804FB000002400A
:1031B00007000240080002407F969800FC87FF1F2E
:1031C00008B503681B68C9B2984708BD08B503680D
:1031D0001B68C9B2984708BD08B503681B68C9B227
:1031E000984708BD08B503681B68C9B2984708BD71
:1031F00008B54B0803F1376000F5D830B0FBF1F0AB
:10320000FEF7A0FF08BD00BF10B514464B0803F140
:10321000376000F5D830B0FBF1F0FEF793FF2046A1
:10322000FEF7D6FF10BD00BF08B5FFF701F808BDD7
:1032300008B50846FFF736F808BD00BF08B50846D0
:10324000FFF74CF8003018BF012008BD08B508464C
:10325000FFF766F8003018BF012008BD08B5FFF77A
:103260005FF908BD08B5FFF7A5F908BD08B5FFF778
:1032700067F908BD08B5FFF731F908BD08B5FFF7D4
:10328000B3F908BD08B5FFF739F908BD08B5084618
:10329000FFF772F8012008BD08B50846FFF76CF883
:1032A000012008BD10B5144608461146FFF7B4F8D2
:1032B000204610BD38B50D46084600F025FC0446F2
:1032C00028462146FFF7A8F8204638BD704700BFC2
:1032D000044B00221A714FF47A7199601A73024AF2
:1032E0001A60704780ABFF1FC83F000008B5036835
:1032F0001B68C9B2984708BD08B503681B68C9B206
:10330000984708BD08B503681B68C9B2984708BD4F
:1033100008B503681B68C9B2984708BD08B54B08D3
:1033200003F1376000F5D830B0FBF1F0FFF712FA87
:1033300008BD00BF10B514464B0803F1376000F517
:10334000D830B0FBF1F0FFF705FA2046FFF748FA56
:1033500010BD00BF08B5FFF773FA08BD08B50846F1
:10336000FFF7A0FA08BD00BF08B50846FFF7B6FA98
:10337000003018BF012008BD08B50846FFF7D0FA95
:10338000003018BF012008BD08B5FFF7BFFB08BD1E
:1033900008B5FFF7E7FB08BD08B5FFF7C7FB08BD99
:1033A00008B5FFF791FB08BD08B5FFF7F5FB08BDB1
:1033B00008B5FFF799FB08BD08B50846FFF7D2FA34
:1033C000012008BD08B50846FFF7CCFA012008BD6A
:1033D00010B5144608461146FFF714FB204610BDF1
:1033E00038B50D46084600F08FFB044628462146B6
:1033F000FFF708FB204638BD704700BF044B002292
:103400001A714FF47A7199601A73024A1A60704700
:1034100090ABFF1F2040000008B503681B68C9B2CD
:10342000984708BD08B503681B68C9B2984708BD2E
:1034300008B503681B68C9B2984708BD08B503689A
:103440001B68C9B2984708BD08B54B0803F1B760BF
:1034500000F55840B0FBF1F0FFF73CFC08BD00BFA1
:1034600010B514464B0803F1B76000F55840B0FBA7
:10347000F1F0FFF72FFC2046FFF76EFC10BD00BFF8
:1034800008B5FFF799FC08BD08B50846FFF7C6FC6C
:1034900008BD00BF08B50846FFF7DCFC003018BFC8
:1034A000012008BD08B50846FFF7F6FC003018BF3C
:1034B000012008BD08B5FFF78FFD08BD08B5FFF76F
:1034C000B7FD08BD08B5FFF797FD08BD08B5FFF7C4
:1034D00061FD08BD08B5FFF7C5FD08BD08B5FFF7DC
:1034E00069FD08BD08B50846FFF7F8FC012008BDD6
:1034F00008B50846FFF7F2FC012008BD10B51446D8
:1035000008461146FFF73AFD204610BD38B50D4676
:10351000084600F0F9FA044628462146FFF72EFD3A
:10352000204638BD704700BF044B00221A714FF48B
:103530007A7199601A73024A1A607047A0ABFF1F34
:103540007840000070B50F4E0F4D761BB61007D0B7
:10355000043D0024013455F8043F9847A642F9D1B0
:103560000A4E0B4D761B00F0B1FDB61008D0043D9D
:103570000024013455F8043F9847A642F9D170BDA4
:1035800070BD00BFD8400000D8400000F4400000EB
:10359000D8400000024B0146186800F003B800BF95
:1035A000408CFF1F2DE9F04F01F10B05162D83B064
:1035B000064627D935F0070527D4A94225D8304635
:1035C00000F08CFAB5F5FC7F26D2C14F4FEAD50C3E
:1035D00007EBCC03DC689C4200F0D2816368E268B0
:1035E000A16823F00303234430465D68CA6045F0B8
:1035F000010591605D6000F073FA0834204603B065
:10360000BDE8F08F1025A942D9D900240C2320460B
:10361000336003B0BDE8F08F5FEA552C00F08A807C
:10362000BCF1040F00F260814FEA951C0CF1380CDC
:103630004FEA4C01A64F07EB8101CC68A14205D1AE
:103640000CE0002B7ADAE468A14207D0626822F02D
:103650000302531B0F2BF4DD0CF1FF3C0CF1010CAA
:103660009B4B3C6903F1080E744500F07E81616854
:1036700021F003014A1B0F2A00F36481002AC3F8DA
:1036800014E0C3F810E06ADAB1F5007F80F03A8107
:10369000C90803EBC1004FEAA1085A688168A1601C
:1036A0004FF0010909FA08F848EA0202E0605A609E
:1036B0008460CC604FEAAC030120984090425BD814
:1036C000024206D12CF0030C400002420CF1040C23
:1036D000FAD007EBCC084446E146E3689C4207D1A8
:1036E00045E1002A80F25681DB689C4200F03F8170
:1036F000596821F003014A1B0F2AF2DD1C46D3F85A
:103700000CC054F8088F591945F0010942F0010521
:10371000C3F804903046C8F80CC0CCF80880796132
:103720003961C1F80CE0C1F808E04D608A5000F042
:10373000D7F963E77E214FF03F0C7BE72244E36833
:103740005068A16840F00105CB6030469960556033
:1037500000F0C6F90834204603B0BDE8F08F2144DC
:1037600030464B6843F001034B6000F0B9F9083470
:10377000204603B0BDE8F08FBC68636823F00309FE
:10378000A94504D3C5EB09030F2B00F39180514BDE
:10379000514A19681368013305EB010A04EB090B60
:1037A00000F061810AF5805A0AF10F0A2AF47F6A53
:1037B0002AF00F0A30465146019200F093F9B0F119
:1037C000FF3F8046019A00F00081834500F2FA80B5
:1037D000DFF810C1DCF80030C3455344CCF80030AA
:1037E00000F04A8112683C4901321BBFCBEB080B49
:1037F0005B44C1F80080CCF8003018F0070300F0FB
:103800001381C3F10802C3F5805390440833C244C6
:10381000CAF30B0ACAEB030A51463046CDF804C07E
:1038200000F060F9431CDDF804C000F03581C8EBFE
:103830000002524442F00102DCF80030C7F8088070
:103840005344BC42C8F80420CCF80030DFF894A000
:1038500015D0B9F10F0F40F2EA806168A9F10C02AE
:1038600022F0070201F0010EA118052042EA0E0E17
:103870000F2AC4F804E04860886000F21181174AFA
:10388000BC6811688B4288BF1360154A11688B426F
:1038900088BF1360626822F003029542C5EB020301
:1038A00001D80F2B04DC304600F01AF90024A5E6FD
:1038B000621943F0010345F0010565603046BA60C6
:1038C000536000F00DF90834204603B0BDE8F08FD6
:1038D000448CFF1FB8ABFF1F5090FF1FB4ABFF1FFE
:1038E000B0ABFF1FBCABFF1FBCF1140F61D9BCF123
:1038F000540F00F28F804FEA153C0CF16E0C4FEA2A
:103900004C0197E64B0A042B58D9142B00F2AE80D9
:1039100003F15B02500007EB8000DFF8BC81836895
:10392000834200F08A805A6822F00302914202D258
:103930009B689842F7D1D9687A68E160A3608C608F
:10394000DC60B7E6611942F0010745F001056560EA
:10395000304659611961C1F80CE0C1F808E04F60C8
:103960008A50083400F0BCF848E65A68A2E609F12B
:10397000010919F0030F04F108047FF4AEAE2DE045
:1039800004F108036469A34208BF0CF1020C3FF480
:1039900067AE23E619441C464868DB6854F8082FD4
:1039A00040F001054D603046D3609A6000F098F811
:1039B00024E60CF15B0C4FEA4C013BE68A093832F5
:1039C0005000A8E7BC423FF403AFBC68626822F035
:1039D000030262E7D8F8008098457BD11CF0030F02
:1039E000A8F108030CF1FF3CF4D17B6823EA000343
:1039F0007B60400098423FF6BFAE00283FF4BCAE6B
:103A00000342CC467FF465AE400003420CF1040C47
:103A1000FAD05EE6BCF5AA7F1AD84FEAD53C0CF185
:103A2000770C4FEA4C0105E64FF48053EFE6012393
:103A3000C8F80430444600222FE791100120D8F83E
:103A4000042000FA01F10A43C8F80420194674E77B
:103A500040F254539C451BD84FEA954C0CF17C0C1A
:103A60004FEA4C01E6E50AF1100AA3E6542B1FD8F1
:103A70000A0B6E3250004EE7CBF30B0100297FF4A6
:103A8000B1AE0AEB0901BA6841F001015160F6E6F6
:103A9000FC214FF07E0CCDE501224FF0000ACBE671
:103AA00004F10801304600F0CFF8DAF80030E6E61D
:103AB000B3F5AA7F03D8CA0B773250002BE740F248
:103AC0005452934203D88A0C7C32500023E7FC20E6
:103AD0007E2220E77B688CE7448CFF1F704700BF85
:103AE000704700BF38B5074C0023054608462360E1
:103AF000FDF7F4F9431C00D038BD2368002BFBD040
:103B00002B6038BDF4ABFF1F20F0030110F0030061
:103B1000C0F1000051F8043B00F1040C4FEACC0C5A
:103B20006FF000021CBF22FA0CF213434FF0010C9D
:103B30004CEA0C2C4CEA0C4CA3EB0C0222EA0302DC
:103B400012EACC1204BF51F8043B0430F4D013F055
:103B5000FF0F1FBF013013F47F4F013013F47F0FAD
:103B600018BF0130704700BF024B13B10248FDF788
:103B700079B97047000000007D3B000038B5094D61
:103B8000094C641BA41018BF05EB840505D0013C4B
:103B900055F8043D9847002CF9D1BDE8384000F0B5
:103BA000A9BA00BF0000000000000000F8B5234DD6
:103BB0000F460446FFF792FFAB685E6826F00306E7
:103BC000F11B01F6EF7121F47F6121F00F01A1F5E6
:103BD0008057B7F5805F07DB20460021FFF782FFA3
:103BE000AB683344984204D02046FFF779FF0020A9
:103BF000F8BD20467942FFF775FF01300DD0104B1C
:103C0000AA681968F61B46F001062046C91B5660D3
:103C10001960FFF765FF0120F8BD20460021FFF77E
:103C200061FFAB68C21A0F2ADEDD064D04492D681C
:103C300042F00102401B5A600860D5E7448CFF1F28
:103C4000BCABFF1F5090FF1F2DE9F0410D4606460B
:103C5000002955D0FFF742FF55F8041CDFF874C166
:103C600021F00103A5F10804E218DCF80800576808
:103C7000904227F0030769D011F00101576032D05C
:103C80000021D0194068C00706D43B449068002941
:103C90004ED0D268C260906043F001026260E3508F
:103CA000E1B9B3F5007F2DD35A0A042A6AD89809DE
:103CB000383041000CEB810C4649DCF808206245A5
:103CC00066D0516821F003018B4202D2926894457C
:103CD000F7D1D368E360A2609C60D4603046BDE851
:103CE000F041FFF7FDBE55F8085C641B0CF10808B5
:103CF000A06840452B4443D0E568C560A860C0E794
:103D0000BDE8F081DB080CEBC3020125DCF8040000
:103D10009168A1609B1005FA03F31843E260CCF8A8
:103D2000040094603046CC60BDE8F041FFF7D8BE97
:103D3000294DA842ADD143F00102CCF81440CCF893
:103D40001040E060A0606260E350C7E71F44CB070B
:103D500007D455F8083CE41A1F44A268E368D3600E
:103D60009A601E4B1B6847F001029F426260CCF8CC
:103D70000840B3D31A4B30461968FFF717FFADE779
:103D800001217EE7142A0CD802F15B00410091E783
:103D90004B688010012505FA00F003434B60134681
:103DA00098E7542A03D8180B6E30410082E7B2F529
:103DB000AA7F03D8D80B773041007BE740F25451FB
:103DC0008A4203D8980C7C30410073E7FC217E20A6
:103DD00070E700BF448CFF1F4C8CFF1F4C90FF1FEF
:103DE000B8ABFF1FFFFFFFFF000000000000000056
:103DF000ED0E0000ED0E0000ED0E00006904000065
:103E000065040000990400000000000000000000AC
:103E1000A90A0000BD0900009D040000690400001B
:103E20006504000099040000E104000000000000A7
:103E30004008FE4340A004404408FE4344A0044020
:103E40000018FE4300C004403000FE4330900440A0
:103E50003400FE43349004401C18FE431CC0044050
:103E60001018FE4310C004400818FE4308C0044068
:103E70000C18FE430CC004400C10FE430CB0044070
:103E80001010FE4310B004401810FE4318B0044058
:103E90001C10FE431CB004401410FE4314B0044038
:103EA0000418FE4304C004400010FE4300B0044068
:103EB0000008FE4300A004400408FE4304A00440A0
:103EC0000C08FE430CA004400808FE4308A0044070
:103ED0001418FE4314C004401818FE4318C00440D0
:103EE0000410FE4304B004400810FE4308B0044030
:103EF0001400FE43149004404C08FE434CA00440C0
:103F00000420FE4304D004402410FE4324B00440A7
:103F10002010FE4320B004402810FE4328B0044087
:103F20002C10FE432CB004400020FE4300D004407F
:103F30004808FE4348A004401000FE43109004408F
:103F40000D0A0000FFFFFFFF00000000000000005E
:103F50003D1E0000491E00001D1E0000251E000021
:103F60002D1E0000351E000000151915000100006F
:103F70007087FF1F12000000000200009C87FF1FD7
:103F80004300000000030000F887FF1F000000004E
:103F9000010309048487FF1F0000000002030904D5
:103FA000E087FF1F0000000003030904FC87FF1FD8
:103FB0000000000000000000000000000000000001
:103FC00000000000000000008D320000A53200005B
:103FD0005D3200006D320000653200007532000075
:103FE000F1310000093200002932000031320000B6
:103FF0003D3200004D3200007D320000853200006D
:10400000C1310000CD310000D9310000E5310000A0
:10401000B5320000993200000000000000000000EE
:10402000B9330000D1330000893300009933000018
:1040300091330000A13300001D3300003533000030
:10404000553300005D330000693300007933000010
:10405000A9330000B1330000ED320000F932000056
:104060000533000011330000E1330000C5330000C8
:104070000000000000000000E5340000FD340000F6
:10408000B5340000C5340000BD340000CD3400005C
:10409000493400006134000081340000893400009C
:1040A00095340000A5340000D5340000DD34000054
:1040B0001934000025340000313400003D34000084
:1040C0000D350000F134000043000000F8B500BFDA
:1040D000F8BC08BC9E467047693B000035040000F0
:1040E000690E0000591E0000D1320000FD330000AF
:0440F000293500006E
:0440F400F8B500BF5C
:1040F80001000000F8ABFF1FFFFFFFFF0A040000EC
:104108001201000202000040C016830400010102EF
:104118000301000018035400650065006E00730079
:1041280079006400750069006E006F0009024300A1
:10413800020100C032090400000102020100052446
:1041480000100105240101010424020605240600CB
:10415800010705820310004009040100020A00005B
:104168000007050302400000070584024000000024
:1041780016035500530042002000530065007200EA
:10418800690061006C000000040309040C030000CE
:104198000000000000000000000000000000000017
:1041A800000000000000000000000000048BFF1F5A
:1041B8006C8BFF1FD48BFF1F000000000000000065
:1041C80000000000000000000000000000000000E7
:1041D800000000000000000000000000C8400000CF
:1041E80000000000000000000000000000000000C7
:1041F80000000000000000000000000000000000B7
:1042080000000000000000000000000000000000A6
:104218000000000000000000000000000000000096
:104228000000000000000000000000000000000086
:104238000000000000000000000000000000000076
:104248000000000000000000000000000000000066
:1042580001000000000000000E33CDAB34126DE603
:10426800ECDE05000B00000000000000000000006C
:104278000000000000000000000000000000000036
:104288000000000000000000000000000000000026
:104298000000000000000000000000000000000016
:1042A8000000000000000000000000000000000006
:1045D8001888FF1F0000000000000000448CFF1F27
:1045E800448CFF1F4C8CFF1F4C8CFF1F548CFF1FEB
:1045F800548CFF1F5C8CFF1F5C8CFF1F648CFF1F9B
:10460800648CFF1F6C8CFF1F6C8CFF1F748CFF1F4A
:10461800748CFF1F7C8CFF1F7C8CFF1F848CFF1FFA
:10462800848CFF1F8C8CFF1F8C8CFF1F948CFF1FAA
:10463800948CFF1F9C8CFF1F9C8CFF1FA48CFF1F5A
:10464800A48CFF1FAC8CFF1FAC8CFF1FB48CFF1F0A
:10465800B48CFF1FBC8CFF1FBC8CFF1FC48CFF1FBA
:10466800C48CFF1FCC8CFF1FCC8CFF1FD48CFF1F6A
:10467800D48CFF1FDC8CFF1FDC8CFF1FE48CFF1F1A
:10468800E48CFF1FEC8CFF1FEC8CFF1FF48CFF1FCA
:10469800F48CFF1FFC8CFF1FFC8CFF1F048DFF1F79
:1046A800048DFF1F0C8DFF1F0C8DFF1F148DFF1F26
:1046B800148DFF1F1C8DFF1F1C8DFF1F248DFF1FD6
:1046C800248DFF1F2C8DFF1F2C8DFF1F348DFF1F86
:1046D800348DFF1F3C8DFF1F3C8DFF1F448DFF1F36
:1046E800448DFF1F4C8DFF1F4C8DFF1F548DFF1FE6
:1046F800548DFF1F5C8DFF1F5C8DFF1F648DFF1F96
:10470800648DFF1F6C8DFF1F6C8DFF1F748DFF1F45
:10471800748DFF1F7C8DFF1F7C8DFF1F848DFF1FF5
:10472800848DFF1F8C8DFF1F8C8DFF1F948DFF1FA5
:10473800948DFF1F9C8DFF1F9C8DFF1FA48DFF1F55
:10474800A48DFF1FAC8DFF1FAC8DFF1FB48DFF1F05
:10475800B48DFF1FBC8DFF1FBC8DFF1FC48DFF1FB5
:10476800C48DFF1FCC8DFF1FCC8DFF1FD48DFF1F65
:10477800D48DFF1FDC8DFF1FDC8DFF1FE48DFF1F15
:10478800E48DFF1FEC8DFF1FEC8DFF1FF48DFF1FC5
:10479800F48DFF1FFC8DFF1FFC8DFF1F048EFF1F74
:1047A800048EFF1F0C8EFF1F0C8EFF1F148EFF1F21
:1047B800148EFF1F1C8EFF1F1C8EFF1F248EFF1FD1
:1047C800248EFF1F2C8EFF1F2C8EFF1F348EFF1F81
:1047D800348EFF1F3C8EFF1F3C8EFF1F448EFF1F31
:1047E800448EFF1F4C8EFF1F4C8EFF1F548EFF1FE1
:1047F800548EFF1F5C8EFF1F5C8EFF1F648EFF1F91
:10480800648EFF1F6C8EFF1F6C8EFF1F748EFF1F40
:10481800748EFF1F7C8EFF1F7C8EFF1F848EFF1FF0
:10482800848EFF1F8C8EFF1F8C8EFF1F948EFF1FA0
:10483800948EFF1F9C8EFF1F9C8EFF1FA48EFF1F50
:10484800A48EFF1FAC8EFF1FAC8EFF1FB48EFF1F00
:10485800B48EFF1FBC8EFF1FBC8EFF1FC48EFF1FB0
:10486800C48EFF1FCC8EFF1FCC8EFF1FD48EFF1F60
:10487800D48EFF1FDC8EFF1FDC8EFF1FE48EFF1F10
:10488800E48EFF1FEC8EFF1FEC8EFF1FF48EFF1FC0
:10489800F48EFF1FFC8EFF1FFC8EFF1F048FFF1F6F
:1048A800048FFF1F0C8FFF1F0C8FFF1F148FFF1F1C
:1048B800148FFF1F1C8FFF1F1C8FFF1F248FFF1FCC
:1048C800248FFF1F2C8FFF1F2C8FFF1F348FFF1F7C
:1048D800348FFF1F3C8FFF1F3C8FFF1F448FFF1F2C
:1048E800448FFF1F4C8FFF1F4C8FFF1F548FFF1FDC
:1048F800548FFF1F5C8FFF1F5C8FFF1F648FFF1F8C
:10490800648FFF1F6C8FFF1F6C8FFF1F748FFF1F3B
:10491800748FFF1F7C8FFF1F7C8FFF1F848FFF1FEB
:10492800848FFF1F8C8FFF1F8C8FFF1F948FFF1F9B
:10493800948FFF1F9C8FFF1F9C8FFF1FA48FFF1F4B
:10494800A48FFF1FAC8FFF1FAC8FFF1FB48FFF1FFB
:10495800B48FFF1FBC8FFF1FBC8FFF1FC48FFF1FAB
:10496800C48FFF1FCC8FFF1FCC8FFF1FD48FFF1F5B
:10497800D48FFF1FDC8FFF1FDC8FFF1FE48FFF1F0B
:10498800E48FFF1FEC8FFF1FEC8FFF1FF48FFF1FBB
:10499800F48FFF1FFC8FFF1FFC8FFF1F0490FF1F6A
:1049A8000490FF1F0C90FF1F0C90FF1F1490FF1F17
:1049B8001490FF1F1C90FF1F1C90FF1F2490FF1FC7
:1049C8002490FF1F2C90FF1F2C90FF1F3490FF1F77
:1049D8003490FF1F3C90FF1F3C90FF1F0000020017
:0449E800FFFFFFFFCF
:00000001FF
