:1000000000800020BD010000D90E00009D0E000000
:100010009D0E00009D0E00009D0E00009D0E000034
:100020009D0E00009D0E00009D0E0000D90E0000E8
:10003000D90E00009D0E0000D90E00008D0E0000AC
:10004000D90E0000D90E0000D90E0000D90E000014
:10005000D90E0000D90E0000D90E0000D90E000004
:10006000D90E0000D90E0000D90E0000D90E0000F4
:10007000D90E0000D90E0000D90E0000D90E0000E4
:10008000D90E0000D90E0000D90E0000D90E0000D4
:10009000D90E0000D90E0000D90E0000D90E0000C4
:1000A000D90E0000D90E0000D90E0000D90E0000B4
:1000B000D90E0000D90E0000D90E0000D90E0000A4
:1000C000D90E0000D90E0000D90E0000D90E000094
:1000D000D90E0000D90E0000D90E0000D90E000084
:1000E000D90E0000D90E0000D90E0000D90E000074
:1000F000D90E000041260000D90E0000E12B0000BF
:10010000D90E000085300000D90E0000D90E000085
:10011000D90E0000D90E0000D90E0000D90E000043
:10012000D90E0000D90E0000D90E0000D90E000033
:10013000D90E0000D90E0000D90E0000D90E000023
:10014000D90E0000D90E0000D90E0000D90E000013
:10015000D90E0000D90E0000D90E0000D90E000003
:10016000D90E0000D9120000D90E0000D90E0000EF
:10017000D90E0000D90E0000D90E0000D90E0000E3
:10018000D90E0000D90E0000D90E0000D90E0000D3
:10019000D90E0000D90E0000D90E0000D90E0000C3
:1001A000D90E0000D90E0000D90E0000D90E0000B3
:1001B000D90E0000D90E0000D90E0000574B4CF2AA
:1001C000205210B51A804DF628121A8000BF00BFC9
:1001D00000F086FE524B4FF010621A60514A9A604E
:1001E000514ADA60A3F53043203B1A6812F480725A
:1001F00004D14E490A604FF4A8521A604C4B1A7849
:10020000110703D51A7842F008021A70494B4A4C7C
:100210004A482A221A704A4A00239918A14203D256
:10022000195899500433F8E7464B474900228B424E
:1002300002D243F8042BFAE74448454900235A58B0
:100240001A500433B3F5DE7FF9D1424B424A802184
:1002500003F8011B9342FBD1404B3C4A1A60404BD0
:100260000A221A70A3F5805324225A70A0221A7011
:100270009A799207FCD59A79D406FCD4394A9379B5
:1002800003F00C03082B374BF9D103221A714022DB
:100290005A719A799006FCD5324A9179314B4906C8
:1002A000FBD5314A314911600221516020221A7078
:1002B0009A7902F00C020C2AFAD12D4B2D4A1A60C1
:1002C0002D4B2E4A1A6000225A60072243F8042C54
:1002D0002B4AC3F80C2D62B600F0C0FE134B1B680E
:1002E000DA0705D5274800F02DFE274B274A1A606C
:1002F000274B1B785B0609D5234C244A236893427D
:1003000004D1204800F01EFE0023236003F020F9F2
:1003100000F0ECFD01F080FDFEE700BF0E2005407F
:1003200030800440823F04000100002B14D00340C1
:1003300002D0074000E007401088FF1F343900005A
:100340006087FF1F1088FF1F1CC2FF1F0082FF1F56
:100350000000000000E400E05FE400E008ED00E0E1
:100360000050064000400640448004400000030165
:1003700004800440C010050014E000E0FF76010096
:1003800000002020DE771A581CE00340A5C3945AD1
:1003900000F00740FFFFFFFFFFFFFFFFFFFFFFFF32
:1003A000FFFFFFFFFFFFFFFFFFFFFFFFFFFFFFFF5D
:1003B000FFFFFFFFFFFFFFFFFFFFFFFFFFFFFFFF4D
:1003C000FFFFFFFFFFFFFFFFFFFFFFFFFFFFFFFF3D
:1003D000FFFFFFFFFFFFFFFFFFFFFFFFFFFFFFFF2D
:1003E000FFFFFFFFFFFFFFFFFFFFFFFFFFFFFFFF1D
:1003F000FFFFFFFFFFFFFFFFFFFFFFFFFFFFFFFF0D
:10040000FFFFFFFFFFFFFFFFFFFFFFFFFEFFFFFFFD
:1004100010B5054C237833B9044B13B10448AFF33E
:1004200000800123237010BD1088FF1F0000000012
:100430003439000008B5064B1BB106480649AFF336
:1004400000800648036813B1054B03B1984708BD07
:1004500000000000343900001488FF1F1088FF1FBF
:10046000000000004069704710B582B00A460023C2
:100470008DF800308DF801308DF802300468246862
:100480008DF804308DF805308DF80630694601ABE3
:10049000A04702B010BD00BF4FF4C870704700BF46
:1004A00010B504460220012100F080FD0123A36164
:1004B000014BE36110BD00BFC0F00F40F0B589B043
:1004C000847C0191029203921A788DF816205A7852
:1004D0008DF817209B788DF81830012C39D1294AD6
:1004E0001378013303F00703137003F00105ED01E6
:1004F00013F0020F1CBF45F04005EDB213F0040FDE
:1005000018BF45F020051035EDB20DF1150306AF0B
:1005100000264FF4807E013319461A7822B19EFBE3
:10052000F2F20132D2B200E0324601F8032C02FBB3
:100530000554C4F3072414B901F8066C02E0013C29
:1005400001F8064C12B1013A01F8032CBB42E2D18A
:100550000CE000238DF815308DF814308DF8133031
:100560008DF812308DF811308DF8103003238DF88E
:1005700019300023079303689B6901A9984709B0C4
:10058000F0BD00BF2C88FF1FF0B589B0847C0191BD
:10059000029203921A788DF816205A788DF8172057
:1005A0009B788DF81830012C39D1284A1378013303
:1005B00003F00703137003F00105ED0113F0020FC0
:1005C0001CBF45F04005EDB213F0040F18BF45F015
:1005D00020051035EDB20DF1150306AF00264FF4DE
:1005E000807E013319461A7822B19EFBF2F2013265
:1005F000D2B200E0324601F8032C02FB0554C4F3EA
:10060000072414B901F8066C02E0013C01F8064C1D
:1006100012B1013A01F8032CBB42E2D10CE00023F5
:100620008DF815308DF814308DF813308DF81230A8
:100630008DF811308DF8103000238DF819300793A4
:1006400003689B6901A9984709B0F0BD2C88FF1F7A
:100650002DE9F04F8BB009900191044600F0C8FCE1
:10066000238CC01A83B2312BF8D9019C207B94F8DB
:100670000DC094F80EE0E17B0291227C0392637C32
:1006800004932668A17CE57C94F814B0647D0694FC
:10069000019C63688C4A146844F0807414608B4A2F
:1006A000146844F001041460002404321460884A81
:1006B0001468146824F001041460029A101A5FFA96
:1006C00080F832781AB182FA58F2D2B200E00022F1
:1006D0000131059101FB02F2C2F3072A72B67D4A8D
:1006E00012687C32002B40F3F7809946794B7848AA
:1006F0000727013507950BF1010BCDF820B0029CBF
:10070000C8EB04085FFA88F80399CCEB010C5FFA98
:100710008CFC049CCEEB040E5FFA8EFE72B6196858
:10072000914206D91968891AB1F5935F01D962B669
:10073000D8E0046844F00104056825F00105BB46D3
:1007400019689142FCD31A687C3204601AF0800F59
:1007500005D01968511A4629FBD8056004E01968CC
:10076000511A6529FBD805604FEA4A0A5FFA8AFAEE
:10077000BBF1010BE4D119689142FCD31A687C32B9
:1007800004601AF0800F05D01968511A4629FBD869
:10079000056004E01968511A6529FBD80560717875
:1007A00021B181FA5CF15FFA81FA01E04FF0000AB1
:1007B000079901FB0AFACAF3072ABB461968914256
:1007C000FCD31A687C3204601AF0800F05D01968D7
:1007D000511A4629FBD8056004E01968511A6529A9
:1007E000FBD805604FEA4A0A5FFA8AFABBF1010BAF
:1007F000E4D119689142FCD31A687C3204601AF083
:10080000800F05D01968511A4629FBD8056004E00D
:100810001968511A6529FBD80560B17821B181FAB0
:100820005EF15FFA81FA01E04FF0000A089901FBDE
:100830000AFACAF3072ABB4619689142FCD31A6820
:100840007C3204601AF0800F05D01968511A4629CD
:10085000FBD8056004E01968511A6529FBD80560CA
:100860004FEA4A0A5FFA8AFABBF1010BE4D1196830
:100870009142FCD31A687C3204601AF0800F05D0D4
:100880001968511A4629FBD8056004E01968511A05
:100890006529FBD8056006994CB2311909F1FF357D
:1008A000345D24B184FA58F45FFA84FA01E04FF021
:1008B000000A059C0AFB04FACAF3072A62B65DB176
:1008C0000E46A9461BE700BFFCED00E0001000E06B
:1008D000C0F00F40041000E062B6A24B1B68002B72
:1008E00040F0388162B64FF4C863013B7FF4FDAF3E
:1008F00072B60198047B90F80DC090F80EE0C17BB1
:100900000291027C0392437C04930668807C019AE6
:10091000D17C92F814A0537D05935368924A1568D0
:1009200045F080751560914A156845F00105156020
:100930000025043215608E4A1568156825F00105FA
:100940001560029A141B5FFA84F832781AB182FAA1
:1009500058F2D2B200E000220130019000FB02F216
:10096000C2F3072972B67F4A12687C32002B40F32B
:10097000EE809B467B4B7E480727013106910AF1AA
:10098000010ACDF81CA0029CC8EB04085FFA88F8A5
:100990000399CCEB010C5FFA8CFC049CCEEB040EAB
:1009A0005FFA8EFE72B61968914206D91968891AE3
:1009B000B1F5935F01D962B6CCE0046844F001045C
:1009C000056825F00105BA4619689142FCD31A68FA
:1009D0007C32046019F0800F05D01968511A46293D
:1009E000FBD8056004E01968511A6529FBD8056039
:1009F0004FEA49095FFA89F9BAF1010AE4D11968A5
:100A00009142FCD31A687C32046019F0800F05D043
:100A10001968511A4629FBD8056004E01968511A73
:100A20006529FBD80560717821B181FA5CF15FFA24
:100A300081F901E04FF00009069901FB09F9C9F3BA
:100A40000729BA4619689142FCD31A687C320460BF
:100A500019F0800F05D01968511A4629FBD8056096
:100A600004E01968511A6529FBD805604FEA490965
:100A70005FFA89F9BAF1010AE4D119689142FCD30D
:100A80001A687C32046019F0800F05D01968511A79
:100A90004629FBD8056004E01968511A6529FBD87E
:100AA0000560B17821B181FA5EF15FFA81F901E068
:100AB0004FF00009079901FB09F9C9F30729BA4664
:100AC00019689142FCD31A687C32046019F0800FD7
:100AD00005D01968511A4629FBD8056004E0196849
:100AE000511A6529FBD805604FEA49095FFA89F96F
:100AF000BAF1010AE4D119689142FCD31A687C3238
:100B0000046019F0800F05D01968511A4629FBD8E6
:100B1000056004E01968511A6529FBD80560059C39
:100B200061B274180BF1FF35715C21B181FA58F193
:100B30005FFA81F901E04FF00009019909FB01F921
:100B4000C9F3072962B615B12646AB461BE762B664
:100B5000044B1B6800F04CFA099C20840BB0BDE8E4
:100B6000F08F00BF041000E0FCED00E0001000E09A
:100B7000C0F00F4008B50D20012100F017FA0D203C
:100B8000012100F0EFF91D4B1B6813F0010F26D176
:100B90001A4800F0ADF910B3194B00215960FF223B
:100BA0001A735A739A73DA731A745A7401229A7404
:100BB00059619960134B1B6813B9114A114B1A60A4
:100BC000114B1B680BB10E4A9A600D4B0E4A136015
:100BD00000221A840D4A1A60084800F08FF908486C
:100BE0000B494FF44372002300F028F92022094BEF
:100BF0001A700948322101F00DF908BD5488FF1F11
:100C00003088FF1F40BFFF1F50BFFF1F503600003E
:100C10005888FF1F30BFFF1F4CC0FF1F2DE9F04158
:100C200000F060FF2A2855D100F05CFF00F05AFF69
:100C3000294BD3F800800024284D1F46284E281940
:100C4000C4F5DB510C3100F0A7FF044441F66B33CF
:100C50009C4238D83A68C8EB0202B3689A42EED395
:100C600001221F4B1A732EE055789478D95D1954E0
:100C7000C1184D708C7003320333B342F4D1194B59
:100C80001846197800F05EF8174B1B7823B10D2039
:100C9000012100F067F903E00D20002100F062F966
:100CA000114B1A7882F001021A700A2000F0C2F982
:100CB0000B4C23681B68204678219847204601F09A
:100CC00099F8BDE8F081054A00230848174641F627
:100CD0006C36C9E7BDE8F08154BFFF1FC4A3FF1FF6
:100CE0004CC0FF1F30BFFF1F6087FF1F5888FF1FCA
:100CF000FF22027000224280C2604FF0FF32826009
:100D0000704700BF30B40C4A13685C1C14608B42FF
:100D100010DB0A4A15684FF47A7101FB04F4084BA2
:100D20001968691AB4FBF1F141800020024908609A
:100D300012681A6030BC704744BFFF1F54BFFF1FCA
:100D40004CBFFF1F2DE9F04F83B080468A462E4CE2
:100D5000D8F804303BB100F04BF92368C01AD8F83A
:100D600004209042F4D300F043F9274B1860D8F8E0
:100D70000C3023B15046D8F8081098478246234BD0
:100D80001C68002C39D0002694F81290B8F8023074
:100D9000632B98BFA6742368D3F804C061686269A6
:100DA0008DF804608DF805608DF80660BAF1000FCB
:100DB0001BD004F10B05334604F10C0B15F8017F31
:100DC000CBEB050E04F10F001EF8000057B148B13F
:100DD000013700FB07770AFB07F0000C0DF1040E4A
:100DE00003F80E000133032BE8D1204601ABE047A6
:100DF00084F81290A468002CC6D140461921FFF750
:100E000081FF03B0BDE8F08F48BFFF1F40BFFF1F49
:100E10004AB181B1084B93FBF1F143688B422CBF7F
:100E200043604160704721B1034B93FBF1F1416096
:100E3000704700234360704740420F00F8B50446F6
:100E40000F4615461E1EDCBF1646002503689B682C
:100E5000984705EB45052F446760666123685B6929
:100E600020469847014603480122FFF7D1FF20465C
:100E7000F8BD00BF30BFFF1F0020704708B5024813
:100E8000FFF736FF08BD00BF30BFFF1F024B1A68D7
:100E900001321A60704700BF54BFFF1F08B50D4CE8
:100EA000236813F4802F01D000F016FA236813F49E
:100EB000806F01D001F0C4FB236813F4006F01D0F0
:100EC00001F08EFE236813F4805FE9D002F0DAF8B7
:100ED000E6E700BF3480044008B5FFF7DFFF00BF3E
:100EE0001022014B1A80704700200540704700BF58
:100EF0000078D0F1010038BF002070470123037053
:100F0000704700BFEFF31383ABB9EFF31083ABB9B6
:100F1000EFF3058323B10F2B05D9094A985C03E051
:100F20004FF4807000E00020EFF311833BB1834267
:100F300038BF184670474FF0FF30704700207047A9
:100F4000F0E300E0044B00221A6004490A60044AFE
:100F5000106010221A60704714D0034004D0034080
:100F600000D0034021281ED80F4B53F8303093F89F
:100F7000802212F0FF0F08D019B1012283F88020DF
:100F80007047012283F800217047074B03EBC00034
:100F9000436821B11A6842F003021A6070471A6868
:100FA00022F002021A6070477036000021281CD817
:100FB0000E4B03EBC0035B68012908D10B4A52F8C2
:100FC000302082F880124FF4A2721A607047074AEC
:100FD00052F83020002082F8800219B94FF4807254
:100FE0001A60704740F203121A60704770360000B2
:100FF00072B60C4B1B680C4A12680C49096862B641
:1010000011F0806F02D0322B88BF0132C3F5BB33A1
:10101000FF330749A1FB03039B094FF47A7000FBE0
:101020000230704718E000E054BFFF1F04ED00E0FD
:10103000ABAAAAAA38B50546FFF7DAFF044665B1A0
:10104000FFF7D6FF001BB0F57A7F03D3013D04D034
:1010500004F57A7400F014FFF2E738BD10B5254BA3
:101060004FF400021A604FF080721A604FF0007265
:101070001A604FF080621A604FF000621A60002020
:101080001D4B18604BF6FF710433196028231B4A6F
:10109000136008321360083213600832136008329C
:1010A000136008321360083213600832136009229B
:1010B000134C226004F58054043420600434216011
:1010C0000434236008342360143C226004F5FE24B9
:1010D000043420600B4801600B490B6008310B6041
:1010E0000A4B1A6000F088FFFA20FFF7A3FF00F018
:1010F0006BFC10BD08E100E0048003400C8003405D
:101100000080034008800B400C800B4000800B40A7
:1011100030B40E4B1B7843F002020D4C04EBC204BA
:1011200060600C48007800280CBF8824C82444EA7A
:101130000141074D45F8321080F00100054A10705A
:1011400083F00103014A137030BC7047C0BFFF1F1A
:101150000080FF1F39C0FF1F10B4431E032B11D89E
:1011600072B60A4A52F8230050B14268074941F862
:101170002320074A32F813400188611A22F813101D
:1011800062B600E000205DF8044B7047B0BFFF1F5F
:101190000CC2FF1F013803280DD872B6074B53F855
:1011A00020302BB1002001305B68002BFBD100E028
:1011B000002062B670470020704700BF04C0FF1FC8
:1011C00038B572B601231B491B4C5A1812F8012C72
:1011D00012F0080F24D09A0054F832506DB9164B13
:1011E00003EBC20108304860144943F83210144B35
:1011F0001A78013A1A7062B638BD42F0010254F80A
:1012000032506DB90C4B03EBC201083048600D49F8
:1012100043F832100A4B1A78013A1A7062B638BD98
:101220000133052BD1D162B60022054B1A7000F0B4
:101230002FFC38BDA83700000080FF1F8800400049
:101240002EC0FF1FC800400010B4431E032B37D828
:10125000400140F010001C4A104472B61B4AD25C98
:10126000032A09D8DFE802F019021B050830022220
:1012700016E00830042213E0154A52F823201AB968
:10128000134A42F8231003E0124A52F82320516017
:10129000104A42F8231062B612E0032200E0052251
:1012A0000A4CE25401F10803436000F00803002BEC
:1012B0000CBF8823C8230A8843EA0243036062B64E
:1012C0005DF8044B704700BF0080FF1F6CBFFF1F1D
:1012D00004C0FF1F14C0FF1F2DE9F84FA34CDFF817
:1012E000E092DFF8E0A2DFF8E0B22578EDB215F089
:1012F000040F1DD09E4B1B7813F0FF0F16D09D4B93
:101300001B7803F0FF022BB1531EDBB2994A137016
:1013100003B900BE984B1B7803F0FF0233B1531E94
:10132000DBB2954A13700BB900F040FD0423237023
:1013300015F0080F00F0DC8299F80030DBB21D09CF
:1013400040F01D828D4D9E0805EBC6035A6855F886
:101350003630C3F38303013B0C2B00F20C82DFE831
:1013600013F0C701C7010A020A020A020A020A02AE
:101370000A02E4010A020A020A020D008049136807
:101380000B6052684A607F4A45F8362000227E4949
:101390000A607A490A618A6101217C4A11709BB214
:1013A00040F28162934218D8B3F5D06F2ED2B3F5D4
:1013B000817F00F01E8106D8802B00F0C980822B2F
:1013C00000F0CC8062E140F20232934200F02681CC
:1013D000B3F5A06F00F05E8158E142F22102934222
:1013E00000F0828107D8B3F5086F00F0AB80B3F549
:1013F000106F11D04AE142F22122934200F0418164
:1014000042F22132934200F045813FE1604B5D683A
:10141000002D40F0188130E1594B9A78544B1A70E6
:10142000564D05F180062B6A13F0800F03D0686AD1
:10143000083800F02DFB0835B542F4D1DFF88C8177
:1014400000263746534AB05828B1456800F020FBC3
:101450000DB12846F9E700234E4973504E4AB35068
:101460004E4BF05828B1456800F012FB0DB12846EC
:10147000F9E7002349497350494AB35028F8023F1D
:10148000484BFB5C023B032B0AD8DFE803F0020663
:1014900002060022434BDA5502E00122414BDA55A5
:1014A00001370436102ECDD100223F4B1A70012592
:1014B0003E4EDFF81C81314F05EB080313F8013C69
:1014C00006F8043B13F0080F2DD000F0C1FA48B124
:1014D000A90007EB451200F108035360344A47F8AE
:1014E000312007E0AB00002247F833202E4B1A785A
:1014F00001321A7000F0ACFA58B1AB0043F00103AE
:1015000007EBC30100F108024A601E4A47F8332086
:1015100009E0AB0043F00103002247F83320224BDF
:101520001A7801321A70AA0042F00201002347F82B
:10153000313042F0030247F8323001351D4B9E42F4
:10154000BAD116E20A4B1B781B4D2B700127A6E07F
:10155000194D00232B706B700227A0E0084B9B886D
:10156000042B37D90F22154B1A70BDE0802007409D
:1015700038C0FF1FC1BFFF1F3AC0FF1F0080FF1F01
:1015800024C0FF1FC800400058BFFF1F39C0FF1F05
:10159000AC370000B0BFFF1F5CBFFF1F04C0FF1FC0
:1015A00014C0FF1F6CBFFF1F2EC0FF1FC4200740C9
:1015B00088004000D420074030C0FF1FC0200740F3
:1015C0009020074094200740982007400AC2FF1F40
:1015D000A83700009E4A0021117051709D4A12F8F0
:1015E000233013F0020F58D0994D01232B7002279E
:1015F00055E0994B9B8803F07F03042B02DC964A4D
:1016000052881AB10F22934B1A706DE0914A12F86A
:10161000231021F0020102F82310AAE18E4B9B88CF
:1016200003F07F03042B02DC8B4A52881AB10F228D
:10163000884B1A7058E0874A12F8231041F00201D3
:1016400002F8231095E1844B5E889F88834BA3F1B9
:101650000C02114633F80C0CB04209D133F80A0CD5
:10166000B84205D1360A032E0CBF2F78178916E031
:101670000D690C330C32002DEBD10F22754B1A7013
:1016800032E0754B9A78764B1A7072E10F22714BEB
:101690001A7029E000273D4601E002276C4D6E4B91
:1016A000DB889F4228BF1F46402F34BF3E4640265E
:1016B00028463146FFF72CFD3544BF1B03D13F2E92
:1016C00000F25C8110E0402F34BF3E4640262846A1
:1016D0003146FFF71DFD3544BF1B01D13F2E03D915
:1016E000604B1D60604B1F8001238AF8003042E090
:1016F000594B198842F22103994212D15B4BD81DF4
:1017000012F8011B03F8011F8342F9D1584B1B68E3
:10171000862B02D10F22574B1A7000200146FFF78B
:10172000F7FC554B45F8363025E04E4B1E68BEB1F0
:101730004D4FB7F80080B8F1400F34BF4546402503
:1017400030462946FFF7E4FCC5EB08039BB23B801B
:101750000BB9402D01D1354400E00025414B1D60FF
:101760003D4B1B88B3F5A06F05D13B4B00225A704F
:101770009B788BF8003001238AF80030B5E03F4EAB
:101780009F0806EBC708D8F80420A2F10800013D25
:10179000EDB213F0080F47D000F07AF9384B53F848
:1017A00025304BB35A68364941F8252003F1080229
:1017B000C8F80420334A525D032A12D8DFE802F049
:1017C00002060A0E03212F4A51550AE002212D4A32
:1017D000515506E005212B4A515502E00421294AC2
:1017E000515518F0080F0CBF8822C8221B8842EA06
:1017F000034346F8373078E0224B5B5D032B0BD870
:10180000DFE803F07373020600221E4B5A556CE0AA
:1018100001221C4B5A5568E018F0080F0CBF022239
:101820000322184B5A5560E056F837301B0C22F84B
:10183000083C002B51D0002322F8063C42F8043C1F
:10184000114B53F825300BBB0F4B43F8250021E01B
:1018500030C0FF1FC020074024C0FF1FB837000062
:1018600048C0FF1F58BFFF1F2CC0FF1F13C2FF1F20
:1018700014C2FF1FC1BFFF1FC80040000080FF1F30
:1018800004C0FF1F6CBFFF1FB0BFFF1F3F4B53F8CB
:10189000253058603D4B43F825003D4B33F815107B
:1018A00032F8082C0A4423F8152000F0D1F860B172
:1018B00000F10803C8F8043018F0080F354B364A19
:1018C00008BF134646F837300FE0002346F837309C
:1018D000324B1A7801321A7007E018F0080F2D4BBE
:1018E0002D4A08BF134646F8373008232370FCE41E
:1018F00015F0010F22D02A4902230B700022294B38
:101900001A70294B24481860284C5C60986028485D
:10191000D8601A619A610D20264B1870FF23264863
:1019200003700838037018300270244A13709F2225
:10193000234B1A7001230B70BDE8F88F15F0800F50
:1019400005D00D221B4B1A708022403B1A7015F0F7
:10195000020F06D0184B1A78D2B21A700222083B36
:101960001A7015F0100F0ED01022164B1A70BDE829
:10197000F88F00200146FFF7CBFBB5E62846002193
:10198000FFF7C6FBB0E6BDE8F88F00BF5CBFFF1FE6
:101990000CC2FF1FC8004000880040002EC0FF1F7F
:1019A00094200740C0BFFF1F0080FF1F70BFFF1FB4
:1019B000C4BFFF1FC0200740882007408C2007407D
:1019C000842007408020074008B501F0BBFB0023BE
:1019D0001B491A465A50C81842600833882BF9D15F
:1019E000184B1A6842F480221A60154BC3F3072182
:1019F000154A1170C3F30741143211701B0E0432E3
:101A00001370FF23343A137008321370783A13704E
:101A100001238432137000216C3211707C3A1370F0
:101A200070220A4B1A704FF40072A3F241331A600D
:101A3000102203F1C04303F5C8231A7008BD00BF8C
:101A40000080FF1F348004409C20074049E400E0F0
:101A500072B60D4B1A68B2FA82F30B2B02D962B63A
:101A6000002070474FF00041D94022EA01020649A8
:101A70000A6062B6054903EBC303DB00C818002205
:101A8000CA504260704700BF6487FF1F0084FF1F79
:101A900008B50F4BC31A0F4AA2FB03131B090B2BEC
:101AA00014D80D4A12783AB10C4A127812F0FF0F8E
:101AB00002D0FFF785FB08BD72B6094A4FF000411E
:101AC00021FA03F311681943116062B608BD00BF23
:101AD0000084FF1F398EE3382EC0FF1F38C0FF1F60
:101AE0006487FF1F10B5134B1B6853B9124B1B784B
:101AF00013F0FF0F18D00320FFF72EFB0D4B1860DB
:101B0000A8B10C4B186843885A1C03441C7A0388FC
:101B10009A4206D3FFF7BCFF0022064B1A6020460C
:101B200010BD4280204610BD4FF0FF3010BD4FF079
:101B3000FF3010BD44C0FF1F38C0FF1F08B50D4B5C
:101B40001B6883B90C4B1B7813F0FF0F08D00320E0
:101B5000FFF702FB074B186028B94FF0FF3008BDB4
:101B60004FF0FF3008BD034B1B685A881344187AA6
:101B700008BD00BF44C0FF1F38C0FF1F044B98883A
:101B8000044B1B681BB11A885B88D31A1844704732
:101B90000CC2FF1F44C0FF1F2DE9F04780460F46CF
:101BA00000293BD0214B1B7813F0FF0F39D04FF0A9
:101BB00000091F4EDFF874A004E09AF8003013F01B
:101BC000FF0F30D0336853B903242046FFF7C4FA1F
:101BD000306040B3038813B9FFF75AFFF5E7346864
:101BE000618825886D1AAF4238BF3D4608314046AE
:101BF00021442A4600F066F9A844A9447F1B638863
:101C00001D44ADB265802388AB4204D82046FFF75F
:101C10003FFF00233360002FCFD104E04FF00009D5
:101C200001E04FF000094846BDE8F08738C0FF1FCB
:101C300044C0FF1F2DE9F04704460122374B1A70BC
:101C40000E46002964D0DFF8E080DFF8E0909A4685
:101C5000334FD8F8003083BB99F8003013F0FF0FF2
:101C600006D100222D4B1A704FF0FF30BDE8F087EF
:101C70004AF2F9250420FFF78DFA07280AD8012334
:101C80008AF80030FFF7E4FEC8F80000A8B9002386
:101C90008AF80030013D01D03B7833B10122204B5E
:101CA0001A704FF0FF30BDE8F08700F0E9F899F8BE
:101CB000003013F0FF0FDDD1D3E700233B70D8F8DD
:101CC00000104A88C2F14005AE4238BF354602F1E5
:101CD00008030B442A444A80761B3DB1254414F87E
:101CE000012B03F8012BAC42F9D100E025464B88CB
:101CF0003F2B07D940230B800420FFF7A5FA0023D0
:101D0000C8F800300522074B1A700EB12C46A0E728
:101D10000020024B1870BDE8F08700BF3BC0FF1FDA
:101D200040C0FF1F3AC0FF1F3CC0FF1F38C0FF1F4D
:101D300000B583B002AB03F8010D18460121FFF78F
:101D400079FF03B05DF804FB10B5144B1B7813F05A
:101D5000FF0F21D00122124B1A70124B196851B19A
:101D60000024114B1C704B880B800420FFF76CFA89
:101D70000C4B1C600DE0FFF76BFE014630B10022FA
:101D8000094B1A700420FFF75FFA02E00122064BAC
:101D90001A700022024B1A7010BD00BF38C0FF1F1E
:101DA0003BC0FF1F3CC0FF1F3AC0FF1F08B50E4BD2
:101DB0001B7813F0FF0F16D10C4B196841B14B88FB
:101DC0000B800420FFF740FA0022084B1A6008BD80
:101DD000FFF73EFE014618B10420FFF735FA08BDB3
:101DE0000122034B1A7008BD3BC0FF1F3CC0FF1F00
:101DF0003AC0FF1F00B583B0054B1B88ADF8043017
:101E000003685B6801A90222984703B05DF804FBF0
:101E1000803700008160704708B5FEF7ABFEFEF723
:101E2000FDFE00F02DF8FAE708B5FFF7A7FE08BDA4
:101E300008B5FFF757FE08BD08B5FFF77FFE08BDE0
:101E400008B5FFF781FF08BD08B50846FFF770FF2A
:101E500008BD00BF08B508461146FFF7EBFE08BDF8
:101E6000704700BF044B00221A714FF47A719960D9
:101E70001A73024A1A6070474CC0FF1F9037000067
:101E800008B50F4B1B78CBB901220D4B1A70FFF729
:101E900075FE08B1FFF7E4FF00F048FB08B101F060
:101EA0001BFA00F039FE08B101F0ACFA01F09AF823
:101EB00008B101F03DFB0022014B1A7008BD00BFC4
:101EC0005CC0FF1F844641EA000313F003036DD199
:101ED000403A41D351F8043B40F8043B51F8043BED
:101EE00040F8043B51F8043B40F8043B51F8043BF4
:101EF00040F8043B51F8043B40F8043B51F8043BE4
:101F000040F8043B51F8043B40F8043B51F8043BD3
:101F100040F8043B51F8043B40F8043B51F8043BC3
:101F200040F8043B51F8043B40F8043B51F8043BB3
:101F300040F8043B51F8043B40F8043B51F8043BA3
:101F400040F8043B51F8043B40F8043B51F8043B93
:101F500040F8043B403ABDD2303211D351F8043B33
:101F600040F8043B51F8043B40F8043B51F8043B73
:101F700040F8043B51F8043B40F8043B103AEDD2E2
:101F80000C3205D351F8043B40F8043B043AF9D233
:101F9000043208D0D2071CBF11F8013B00F8013B06
:101FA00001D30B8803806046704700BF082A13D313
:101FB0008B078DD010F003038AD0C3F10403D21A2B
:101FC000DB071CBF11F8013B00F8013B80D331F85F
:101FD000023B20F8023B7BE7043AD9D3013A11F8DF
:101FE000013B00F8013BF9D20B7803704B7843704A
:101FF0008B7883706046704760223A4B1A70E122FA
:1020000001331A70384B1B78082B10D1012203F1D1
:10201000804303F56C331A60132334490B6001F5D8
:10202000FF2101F2FC710A60314A13601FE00A2BA4
:102030000DD139222F4B1A6013232C490B6001F567
:10204000FF2101F2FC710A60294A13600FE00C2B9A
:102050000CBF35223D22274B1A60122323490B6007
:1020600001F5FF2101F2FC710A60214A1360224B45
:102070001B7833B10123214A136002F5002213605B
:1020800005E000231D4A136002F5002213601C4B7B
:102090001B78012B06D880231A4A136002F5002210
:1020A00013601AE0042B06D88423164A136002F545
:1020B0000022136011E0082B06D88523114A136013
:1020C00002F50022136008E0102B94BF86238723BB
:1020D0000C4A136002F50022136001220A4B1A70A9
:1020E000704700BF004007406887FF1F0CB00340E7
:1020F0000CB00B4008B003405EC0FF1F20B003408F
:102100006987FF1F24B003405DC0FF1F30B4002368
:10211000B0FBF2F402FB14041D46092C94BF3034CA
:102120003734E4B2CC54B0FBF2F008B10133EFE73E
:102130000D4400226A70934207DD885CCC5C8C54AD
:10214000C8540132013B9A42F7DB084630BC704765
:10215000194B1A6842F480621A600023174A137000
:10216000174A1370174A1370174A1370174A1370DF
:1021700040F21332164B1A604FF4517204331A6056
:10218000C0F34432134B1A70C0F347125A7000F078
:102190001F00987204229A700221D9745A758822FD
:1021A0001A743C22DA7040220B4B1A704FF4005222
:1021B000A3F229331A60704734800440E8C0FF1F3F
:1021C00065C0FF1FF0C0FF1FE9C0FF1F64C0FF1FF5
:1021D00040A0044000A006402DE400E0164B9B7890
:1021E00003F0EC0300F00302134310F0040F18BFD8
:1021F00043F01003104A937000F00F03042B04D136
:102200001346927942F040029A710B4B5A7902F0D0
:10221000EF0210F0100F18BF42F01002064B5A7177
:102220009B7903F0EF0310F0200F18BF43F0100369
:10223000014A9371704700BF00A0064010B5144BCF
:102240001B6813F4806F21D0124B1B7813F0FF0F23
:1022500006D0104CFFF714FE237813F0FF0FF9D1CE
:102260004FF400520C4B1A6000230C4AD37040F21A
:1022700003120B490A6004310A600A4A13700A4AC1
:1022800013700A4B1B680BB101221A7010BD00BFFE
:102290003480044064C0FF1F84E100E000A00640D9
:1022A00040A00440E8C0FF1F65C0FF1F60C0FF1FC3
:1022B00010B50446094A137813F0FF0FFBD12046EE
:1022C0000121FEF773FE20460021FEF74BFE044B72
:1022D00053F83420034B1A6010BD00BF64C0FF1FC9
:1022E00070360000ECC0FF1F10B50D4B1B6813F4D7
:1022F000806F12D021280CD80A4C0B4B53F8303089
:1023000023600121FEF752FE236800221A7001208B
:1023100010BD0020034B186010BD002010BD00BF91
:102320003480044060C0FF1F70360000114B1B68F2
:1023300013F4806F1BD0122804D140F202320E4BEE
:102340001A600DE0142804D140F202320B4B1A60DF
:1023500006E00B4B5A7B02F0FE025A7300207047D6
:10236000074B5A7B42F001025A730120704700204C
:10237000704700BF348004400CA0044014C00440E7
:1023800000A006402DE9F04107461F4B1B6813F4DF
:10239000806F37D01D4B1B680BB101221A701C4B8C
:1023A0001C780134402C28BF00241A4D1A4EDFF847
:1023B0006C8017E0FEF7A6FD40280FDC337913F0A0
:1023C000800F0FD02B780133402B28BF002318F843
:1023D0000320D2B2F271DBB22B7003E0FF2801DDE3
:1023E000FFF74EFD2B78DBB29C42E3D0FFB20B4BE4
:1023F0001F5501220A4B1A70E4B2054B1C70BC2217
:10240000054BDA70BDE8F08134800440ECC0FF1F5A
:10241000F0C0FF1FE9C0FF1F00A0064068C0FF1FFB
:1024200064C0FF1F2DE9F84F0746284B1B6813F4C3
:10243000806F49D0264B1B680BB101221A7007EB45
:10244000010B5F453DD2DFF89890224EDFF88C807B
:10245000DFF890A099F800400134402C28BF0024F8
:102460003578EDB2A54220D1BC2388F80330FEF7C1
:1024700049FD402811DC98F8043013F0800F10D08B
:1024800033780133402B28BF00231AF80320D2B23F
:1024900088F80720DBB2337003E0FF2801DDFFF787
:1024A000EFFC3378DBB29D42E1D017F8013B0AF82C
:1024B00004300122084B1A70E4B289F800405F45ED
:1024C000C8D1BC22054BDA70BDE8F88F34800440D7
:1024D000ECC0FF1FE9C0FF1F64C0FF1F00A0064043
:1024E000F0C0FF1F68C0FF1F10B5064B1B7813F02C
:1024F000FF0F06D0034CFFF7C3FC237813F0FF0F48
:10250000F9D110BD64C0FF1F064B1B78DBB2064A31
:102510001278D2B293422CBF3F3202F1FF32D01A6E
:10252000704700BFF0C0FF1FE9C0FF1F054B1878C0
:10253000C0B2054B1B78DBB2984238BF4030C01A9E
:10254000704700BFE8C0FF1F65C0FF1F10B4184BE5
:102550001A78D2B2174B1B78DBB29A4218D00133EB
:102560003F2B18D81449C85CC0B2DCB211490C70BA
:1025700012490968C9B19A4203D300E00023D31A73
:1025800001E04032D31A1A2B0FDC00230B700CE051
:102590004FF0FF3009E0084B1878C0B20021054B1E
:1025A0001970064B19680029E8D15DF8044B704793
:1025B000E8C0FF1F65C0FF1FA8C0FF1F60C0FF1F4E
:1025C000094B1A78D2B2094B1B78DBB29A4207D07A
:1025D0000133402B28BF0023054AD05CC0B27047AE
:1025E0004FF0FF30704700BFE8C0FF1F65C0FF1FFE
:1025F000A8C0FF1F0D4B1B6813F4806F14D00C4B49
:10260000DA7802F0CB02DA7040225A74DA7842F0BB
:102610003402DA70074B1A78D2B2074B1A70074BA4
:102620001B680BB100221A70704700BF3480044051
:1026300000A0064065C0FF1FE8C0FF1F60C0FF1F6D
:1026400070B43D4B1B7913F0300F33D072B63A4B58
:102650009B7D03F0FF022BB9374BDA7940225A7485
:1026600062B627E062B6354B1978C9B2344B1C7894
:10267000E4B2314D334EEB79D8B24B1C402B28BF1E
:102680000023A3421CBFF0541946531E13F0FF024F
:10269000F1D1CAB2294B1A702B4B1B6853B1A1421E
:1026A0002EBFC4EB0101C4F1400409192729C4BF9E
:1026B00001221A70204BDA78D2B212F0800F27D0A4
:1026C0001B7913F0800F23D0204B1C78E4B2204BF1
:1026D0001B78DBB29C4210D017491E4D01E0A3428B
:1026E0000BD00133402B28BF00230879E85CC0B22F
:1026F000C871087DC0B20728F1D9DBB214490B704C
:102700000D4B1B7913F0800F02D07C210A4BD9703E
:1027100012F0400F0ED0084B1B7913F0400F09D078
:1027200000220D4B1A700D4B1B6803B11A703C222E
:10273000014BDA7070BC704700A00640E8C0FF1F74
:1027400065C0FF1FA8C0FF1F60C0FF1FF0C0FF1FB4
:10275000E9C0FF1F68C0FF1F64C0FF1FECC0FF1F60
:10276000194B1A6842F400621A600023174A13706A
:10277000174A1370174A1370174A1370174A1370C9
:1027800040F21332164B1A604FF4517204331A6040
:10279000C0F34432134B1A70C0F347125A7000F062
:1027A0001F00987204229A700221D9745A758822E7
:1027B0001A743C22DA7040220B4B1A704FF400421C
:1027C000A3F22B331A607047348004405CC1FF1FB2
:1027D000F2C0FF1F64C1FF1F5DC1FF1FF1C0FF1FDB
:1027E0000CB0044000B006402FE400E0164B9B788C
:1027F00003F0EC0300F00302134310F0040F18BFC2
:1028000043F01003104A937000F00F03042B04D11F
:102810001346927942F040029A710B4B5A7902F0BA
:10282000EF0210F0100F18BF42F01002064B5A7161
:102830009B7903F0EF0310F0200F18BF43F0100353
:10284000014A9371704700BF00B0064010B5114BAC
:102850001B6813F4006F1CD00F4B1B7813F0FF0F95
:1028600006D00D4CFFF70CFB237813F0FF0FF9D1C6
:102870004FF40042094B1A600023094AD37040F21A
:10288000031208490A6004310A60074A1370074AB4
:10289000137010BD34800440F1C0FF1F84E100E0DC
:1028A00000B006400CB004405CC1FF1FF2C0FF1F27
:1028B00010B50446094A137813F0FF0FFBD12046E8
:1028C0000121FEF773FB20460021FEF74BFB044B72
:1028D00053F83420034B1A6010BD00BFF1C0FF1F36
:1028E0007036000060C1FF1F0D4B1B6813F4006FB2
:1028F00013D016280AD14FF440720A4B1A600A4BC3
:102900005A7B42F008025A7301207047064B5A7BEB
:1029100002F0F7025A73002070470020704700BF92
:102920003480044004B0044000B006400D4B1B68E6
:1029300013F4006F13D017280AD14FF440720A4BDA
:102940001A600A4B5A7B42F001025A730120704709
:10295000064B5A7B02F0FE025A730020704700209B
:10296000704700BF3480044008B0044000B0064007
:102970002DE9F04107461F4B1B6813F4006F37D059
:102980001D4B1B680BB101221A701C4B1C780134C3
:10299000282C28BF00241A4D1A4EDFF86C8017E04F
:1029A000FEF7B0FA40280FDC337913F0800F0FD018
:1029B0002B780133282B28BF002318F80320D2B22C
:1029C000F271DBB22B7003E0FF2801DDFFF758FA4C
:1029D0002B78DBB29C42E3D0FFB20B4B1F55012298
:1029E0000A4B1A70E4B2054B1C70BC22054BDA701E
:1029F000BDE8F0813480044060C1FF1F64C1FF1F47
:102A00005DC1FF1F00B00640F4C0FF1FF1C0FF1FF3
:102A10002DE9F84F0746284B1B6813F4006F49D087
:102A2000264B1B680BB101221A7007EB010B5F45A7
:102A30003DD2DFF89890224EDFF88C80DFF890A02E
:102A400099F800400134282C28BF00243578EDB2D5
:102A5000A54220D1BC2388F80330FEF753FA402862
:102A600011DC98F8043013F0800F10D03378013364
:102A7000282B28BF00231AF80320D2B288F8072099
:102A8000DBB2337003E0FF2801DDFFF7F9F933789B
:102A9000DBB29D42E1D017F8013B0AF80430012275
:102AA000084B1A70E4B289F800405F45C8D1BC22D7
:102AB000054BDA70BDE8F88F3480044060C1FF1F19
:102AC0005DC1FF1FF1C0FF1F00B0064064C1FF1FC2
:102AD000F4C0FF1F10B5064B1B7813F0FF0F06D094
:102AE000034CFFF7CDF9237813F0FF0FF9D110BD98
:102AF000F1C0FF1F064B1B78DBB2064A1278D2B238
:102B000093422CBF273202F1FF32D01A704700BF28
:102B100064C1FF1F5DC1FF1F054B1878C0B2054B94
:102B20001B78DBB2984238BF4030C01A704700BFF4
:102B30005CC1FF1FF2C0FF1F0A4B1A78D2B20A4BCA
:102B40001B78DBB29A4209D00133402B28BF002307
:102B5000064AD05CDBB2044A137070474FF0FF3076
:102B6000704700BF5CC1FF1FF2C0FF1F1CC1FF1FE9
:102B7000094B1A78D2B2094B1B78DBB29A4207D0C4
:102B80000133402B28BF0023054AD05CC0B27047F8
:102B90004FF0FF30704700BF5CC1FF1FF2C0FF1F46
:102BA0001CC1FF1F0A4B1B6813F4006F0FD0094BA9
:102BB000DA7802F0CB02DA7040225A74DA7842F006
:102BC0003402DA70044B1A78D2B2044B1A70704790
:102BD0003480044000B00640F2C0FF1F5CC1FF1FFC
:102BE00070B4364B1B7913F0300F25D072B6334BCF
:102BF0009B7D03F0FF022BB9304BDA7940225A74E7
:102C000062B619E062B62E4B1978C9B22D4B1D7809
:102C1000EDB22A4C2C4EE379D8B24B1C402B28BF86
:102C20000023AB421CBFF0541946531E13F0FF02A1
:102C3000F1D1C9B2224B1970204BDA78D2B212F01E
:102C4000800F27D01B7913F0800F23D01F4B1C78E7
:102C5000E4B21F4B1B78DBB29C4210D017491D4DCC
:102C600001E0A3420BD00133282B28BF00230879B1
:102C7000E85CC0B2C871087DC0B20728F1D9DBB2E8
:102C800013490B700D4B1B7913F0800F02D07C2180
:102C90000A4BD97012F0400F0ED0084B1B7913F07D
:102CA000400F09D000220C4B1A700C4B1B6803B16B
:102CB0001A703C22014BDA7070BC704700B00640BD
:102CC0005CC1FF1FF2C0FF1F1CC1FF1F64C1FF1FBB
:102CD0005DC1FF1FF4C0FF1FF1C0FF1F60C1FF1FD8
:102CE000174B1A6842F480521A600023154A137079
:102CF000154A1370154A1370154A1370154A13704C
:102D000040F21331144A11604FF4517104321160D2
:102D1000C0F34431114A1170C0F34711517000F0F3
:102D20001F009072937013742C23D37040220C4BAD
:102D30001A704FF40032A3F22D331A60704700BFAF
:102D400034800440D0C1FF1F66C1FF1FD8C1FF1FE0
:102D5000D1C1FF1F65C1FF1F08C0044000C006406D
:102D600031E400E0164B9B7803F0EC0300F0030223
:102D7000134310F0040F18BF43F01003104A937070
:102D800000F00F03042B04D11346927942F0400265
:102D90009A710B4B5A7902F0EF0210F0100F18BF26
:102DA00042F01002064B5A719B7903F0EF0310F0CA
:102DB000200F18BF43F01003014A9371704700BF02
:102DC00000C0064010B5114B1B6813F4805F1CD087
:102DD0000F4B1B7813F0FF0F06D00D4CFFF750F888
:102DE000237813F0FF0FF9D14FF40032094B1A602A
:102DF0000023094AD37040F2031208490A600431E3
:102E00000A60074A1370074A137010BD34800440EB
:102E100065C1FF1F84E100E000C0064008C0044017
:102E2000D0C1FF1F66C1FF1F10B50446094A1378C1
:102E300013F0FF0FFBD120460121FEF7B7F8204623
:102E40000021FEF78FF8044B53F83420034B1A602F
:102E500010BD00BF65C1FF1F70360000D4C1FF1F49
:102E60000D4B1B6813F4805F14D002280BD14FF474
:102E700040720A4B1A6003F500335A7B42F0080295
:102E80005A7301207047064B5A7B02F0F7025A73BF
:102E900000207047002070473480044000C0044088
:102EA00000C006400D4B1B6813F4805F13D00E2842
:102EB0000AD14FF440720A4B1A600A4B5A7B42F017
:102EC00001025A7301207047064B5A7B02F0FE0242
:102ED0005A73002070470020704700BF34800440C0
:102EE00004C0044000C006402DE9F04107461F4BD6
:102EF0001B6813F4805F37D01D4B1B680BB1012298
:102F00001A701C4B1C780134282C28BF00241A4D41
:102F10001A4EDFF86C8017E0FDF7F4FF40280FDC55
:102F2000337913F0800F0FD02B780133282B28BF73
:102F3000002318F80320D2B2F271DBB22B7003E049
:102F4000FF2801DDFEF79CFF2B78DBB29C42E3D02B
:102F5000FFB20B4B1F5501220A4B1A70E4B2054B0E
:102F60001C70AC22054BDA70BDE8F081348004405F
:102F7000D4C1FF1FD8C1FF1FD1C1FF1F00C0064031
:102F800068C1FF1F65C1FF1F38B505460C4629B152
:102F900015F8010BFFF7A8FF013CF9D138BD00BFC0
:102FA00010B5064B1B7813F0FF0F06D0034CFEF74D
:102FB00067FF237813F0FF0FF9D110BD65C1FF1F24
:102FC000064B1B78DBB2064A1278D2B293422CBF72
:102FD000273202F1FF32D01A704700BFD8C1FF1F5D
:102FE000D1C1FF1F054B1878C0B2054B1B78DBB26F
:102FF000984238BF4030C01A704700BFD0C1FF1F91
:1030000066C1FF1F0A4B1A78D2B20A4B1B78DBB29B
:103010009A4209D00133402B28BF0023064AD05CD6
:10302000DBB2044A137070474FF0FF30704700BFA7
:10303000D0C1FF1F66C1FF1F90C1FF1F094B1A7847
:10304000D2B2094B1B78DBB29A4207D00133402B36
:1030500028BF0023054AD05CC0B270474FF0FF3054
:10306000704700BFD0C1FF1F66C1FF1F90C1FF1F87
:10307000024B1A78D2B2024B1A70704766C1FF1F1A
:10308000D0C1FF1F264B1B7913F0200F12D0244B09
:10309000DB79D9B2234B1B780133402B28BF0023A7
:1030A000214A1278D2B29A4204D0204AD154DBB2DB
:1030B0001C4A13701A4BDB78DBB213F0800F1CD064
:1030C000174A127912F0800F17D0194A1178C9B235
:1030D000184A1278D2B2914203D16C21104AD170B1
:1030E0000BE00132282A28BF00221349885CC0B2B5
:1030F0000B49C871D2B20F490A7013F0400F0ED0BD
:10310000074B1B7913F0400F09D000220B4B1A70AC
:103110000B4B1B6803B11A702C22014BDA707047FD
:1031200000C00640D0C1FF1F66C1FF1F90C1FF1F36
:10313000D8C1FF1FD1C1FF1F68C1FF1F65C1FF1F9D
:10314000D4C1FF1F00B585B072B61B4B70221A7038
:1031500041211A4A11700F21013A117080221A7010
:103160001A46137813F0800FFBD0154B186862B61F
:10317000144B98429CBF00EB8000400001A90A223A
:10318000FEF7C4FF9DF804307BB908E001A9595C43
:1031900031B19180023201330A2BF7D100E00023D4
:1031A00001335B00084A137003E0074A5380012390
:1031B000ECE705B05DF804FB0000024007000240A8
:1031C000080002407F969800F887FF1F08B5036843
:1031D0001B68C9B2984708BD08B503681B68C9B227
:1031E000984708BD08B503681B68C9B2984708BD71
:1031F00008B503681B68C9B2984708BD08B54B08F5
:1032000003F1376000F5D830B0FBF1F0FEF7A0FF16
:1032100008BD00BF10B514464B0803F1376000F538
:10322000D830B0FBF1F0FEF793FF2046FEF7D6FF53
:1032300010BD00BF08B5FFF701F808BD08B5084686
:10324000FFF736F808BD00BF08B50846FFF74CF891
:10325000003018BF012008BD08B50846FFF766F822
:10326000003018BF012008BD08B5FFF75FF908BDA1
:1032700008B5FFF7A5F908BD08B5FFF767F908BD60
:1032800008B5FFF731F908BD08B5FFF7B3F908BD78
:1032900008B5FFF739F908BD08B50846FFF772F819
:1032A000012008BD08B50846FFF76CF8012008BDED
:1032B00010B5144608461146FFF7B4F8204610BD75
:1032C00038B50D46084600F06BF9044628462146FD
:1032D000FFF7A8F8204638BD704700BF044B002216
:1032E0001A714FF47A7199601A73024A1A60704722
:1032F000DCC1FF1F0838000008B503681B68C9B2AD
:10330000984708BD08B503681B68C9B2984708BD4F
:1033100008B503681B68C9B2984708BD08B50368BB
:103320001B68C9B2984708BD08B54B0803F1376060
:1033300000F5D830B0FBF1F0FFF712FA08BD00BF7E
:1033400010B514464B0803F1376000F5D830B0FBD8
:10335000F1F0FFF705FA2046FFF748FA10BD00BF6D
:1033600008B5FFF773FA08BD08B50846FFF7A0FADD
:1033700008BD00BF08B50846FFF7B6FA003018BF11
:10338000012008BD08B50846FFF7D0FA003018BF85
:10339000012008BD08B5FFF7BFFB08BD08B5FFF762
:1033A000E7FB08BD08B5FFF7C7FB08BD08B5FFF789
:1033B00091FB08BD08B5FFF7F5FB08BD08B5FFF7A1
:1033C00099FB08BD08B50846FFF7D2FA012008BDF1
:1033D00008B50846FFF7CCFA012008BD10B5144621
:1033E00008461146FFF714FB204610BD38B50D46C0
:1033F000084600F0D5F8044628462146FFF708FBAA
:10340000204638BD704700BF044B00221A714FF4AC
:103410007A7199601A73024A1A607047ECC1FF1FF3
:103420006038000008B503681B68C9B2984708BD3A
:1034300008B503681B68C9B2984708BD08B503689A
:103440001B68C9B2984708BD08B503681B68C9B2B4
:10345000984708BD08B54B0803F1B76000F5584020
:10346000B0FBF1F0FFF73CFC08BD00BF10B51446FF
:103470004B0803F1B76000F55840B0FBF1F0FFF7DF
:103480002FFC2046FFF76EFC10BD00BF08B5FFF70C
:1034900099FC08BD08B50846FFF7C6FC08BD00BF8B
:1034A00008B50846FFF7DCFC003018BF012008BD56
:1034B00008B50846FFF7F6FC003018BF012008BD2C
:1034C00008B5FFF78FFD08BD08B5FFF7B7FD08BDCC
:1034D00008B5FFF797FD08BD08B5FFF761FD08BD0A
:1034E00008B5FFF7C5FD08BD08B5FFF769FD08BDC4
:1034F00008B50846FFF7F8FC012008BD08B50846E6
:10350000FFF7F2FC012008BD10B51446084611462D
:10351000FFF73AFD204610BD38B50D46084600F0CD
:103520003FF8044628462146FFF72EFD204638BDC9
:10353000704700BF044B00221A714FF47A719960F2
:103540001A73024A1A607047FCC1FF1FB8380000A6
:1035500070B50F4E0F4D761BB61007D0043D0024FA
:10356000013455F8043F9847A642F9D10A4E0B4D55
:10357000761B00F0C9F9B61008D0043D00240134D0
:1035800055F8043F9847A642F9D170BD70BD00BF01
:1035900014390000143900003039000014390000DB
:1035A00020F0030110F00300C0F1000051F8043BCB
:1035B00000F1040C4FEACC0C6FF000021CBF22FAA1
:1035C0000CF213434FF0010C4CEA0C2C4CEA0C4C5F
:1035D000A3EB0C0222EA030212EACC1204BF51F858
:1035E000043B0430F4D013F0FF0F1FBF013013F47D
:1035F0007F4F013013F47F0F18BF0130704700BFB9
:10360000024B13B10248FDF737BC704700000000C1
:103610001536000038B5094D094C641BA41018BFBD
:1036200005EB840505D0013C55F8043D9847002C76
:10363000F9D1BDE8384000F07BB900BF00000000C0
:1036400000000000FFFFFFFF00000000000000007E
:1036500089050000BD040000A10400006904000009
:1036600065040000990400005106000000000000FD
:103670004008FE4340A004404408FE4344A00440E8
:103680000018FE4300C004403000FE433090044068
:103690003400FE43349004401C18FE431CC0044018
:1036A0001018FE4310C004400818FE4308C0044030
:1036B0000C18FE430CC004400C10FE430CB0044038
:1036C0001010FE4310B004401810FE4318B0044020
:1036D0001C10FE431CB004401410FE4314B0044000
:1036E0000418FE4304C004400010FE4300B0044030
:1036F0000008FE4300A004400408FE4304A0044068
:103700000C08FE430CA004400808FE4308A0044037
:103710001418FE4314C004401818FE4318C0044097
:103720000410FE4304B004400810FE4308B00440F7
:103730001400FE43149004404C08FE434CA0044087
:103740000420FE4304D004402410FE4324B004406F
:103750002010FE4320B004402810FE4328B004404F
:103760002C10FE432CB004400020FE4300D0044047
:103770004808FE4348A004401000FE431090044057
:103780000D0A0000FFFFFFFF000000000000000026
:10379000491E0000551E0000291E0000311E0000B9
:1037A000391E0000411E000000151915000100001F
:1037B0006C87FF1F12000000000200009887FF1FA7
:1037C0004300000000030000F487FF1F000000001A
:1037D000010309048087FF1F0000000002030904A1
:1037E000DC87FF1F0000000003030904F887FF1FA8
:1037F00000000000000000000000000000000000C9
:10380000000000000000000099320000B13200000A
:10381000693200007932000071320000813200000C
:10382000FD31000015320000353200003D3200004D
:103830004932000059320000893200009132000004
:10384000CD310000D9310000E5310000F131000038
:10385000C1320000A532000000000000000000009E
:10386000C5330000DD33000095330000A5330000B0
:103870009D330000AD3300002933000041330000C8
:1038800061330000693300007533000085330000A8
:10389000B5330000BD330000F932000005330000ED
:1038A000113300001D330000ED330000D133000060
:1038B0000000000000000000F134000009350000A5
:1038C000C1340000D1340000C9340000D9340000F4
:1038D000553400006D3400008D3400009534000034
:1038E000A1340000B1340000E1340000E9340000EC
:1038F00025340000313400003D340000493400001C
:1039000019350000FD340000F8B500BFF8BC08BC54
:103910009E46704701360000350400007D0E000011
:10392000651E0000DD32000009340000353500005E
:04393000F8B500BF27
:1039340001000000FFFFFFFF0A0400001201000263
:1039440002000040C01683040001010203010000CC
:1039540018035400650065006E007300790064006C
:10396400750069006E006F0009024300020100C087
:1039740032090400000102020100052400100105BF
:10398400240101010424020605240600010705821E
:103994000310004009040100020A000000070503A7
:1039A4000240000007058402400000001603550091
:1039B400530042002000530065007200690061005A
:1039C4006C000000040309040C0300000000000064
:1039D40000000000000000000000000000000000E3
:00000001FF
