:1000000000800020BD01000029140000ED13000055
:10001000ED130000ED130000ED130000ED130000E0
:10002000ED130000ED130000ED1300002914000093
:1000300029140000ED13000029140000DD13000056
:1000400029140000291400002914000029140000BC
:1000500029140000291400002914000029140000AC
:10006000291400002914000029140000291400009C
:10007000291400002914000029140000291400008C
:10008000291400002914000029140000291400007C
:10009000291400002914000029140000291400006C
:1000A000291400002914000029140000291400005C
:1000B000291400002914000029140000291400004C
:1000C000291400002914000029140000291400003C
:1000D000291400002914000029140000291400002C
:1000E000291400002914000029140000291400001C
:1000F000291400000929000029140000A92E00007D
:10010000291400004D3300002914000029140000B8
:1001100029140000291400002914000029140000EB
:1001200029140000291400002914000029140000DB
:1001300029140000291400002914000029140000CB
:1001400029140000291400002914000029140000BB
:1001500029140000291400002914000029140000AB
:100160002914000029180000291400002914000097
:10017000291400002914000029140000291400008B
:10018000291400002914000029140000291400007B
:10019000291400002914000029140000291400006B
:1001A000291400002914000029140000291400005B
:1001B000291400002914000029140000574B4CF2A8
:1001C000205210B51A804DF628121A8000BF00BFC9
:1001D00001F02EF9524B4FF010621A60514A9A60AA
:1001E000514ADA60A3F53043203B1A6812F480725A
:1001F00004D14E490A604FF4A8521A604C4B1A7849
:10020000110703D51A7842F008021A70494B4A4C7C
:100210004A482A221A704A4A00239918A14203D256
:10022000195899500433F8E7464B474900228B424E
:1002300002D243F8042BFAE74448454900235A58B0
:100240001A500433B3F5DE7FF9D1424B424A802184
:1002500003F8011B9342FBD1404B3C4A1A60404BD0
:100260000A221A70A3F5805324225A70A0221A7011
:100270009A799207FCD59A79D406FCD4394A9379B5
:1002800003F00C03082B374BF9D103221A714022DB
:100290005A719A799006FCD5324A9179314B4906C8
:1002A000FBD5314A314911600221516020221A7078
:1002B0009A7902F00C020C2AFAD12D4B2D4A1A60C1
:1002C0002D4B2E4A1A6000225A60072243F8042C54
:1002D0002B4AC3F80C2D62B601F068F9134B1B686A
:1002E000DA0705D5274801F0D5F8274B274A1A60C9
:1002F000274B1B785B0609D5234C244A236893427D
:1003000004D1204801F0C6F80023236003F0D2FA9C
:1003100001F094F801F0C8FFFEE700BF0E20054091
:1003200030800440823F04000100002B14D00340C1
:1003300002D0074000E007404C90FF1F0C45000032
:100340006087FF1F4C90FF1F08AAFF1F0082FF1F3E
:100350000000000000E400E05FE400E008ED00E0E1
:100360000050064000400640448004400000030165
:1003700004800440C010050014E000E0FF76010096
:10038000000020200CB00E581CE00340A5C3945A76
:1003900000F00740FFFFFFFFFFFFFFFFFFFFFFFF32
:1003A000FFFFFFFFFFFFFFFFFFFFFFFFFFFFFFFF5D
:1003B000FFFFFFFFFFFFFFFFFFFFFFFFFFFFFFFF4D
:1003C000FFFFFFFFFFFFFFFFFFFFFFFFFFFFFFFF3D
:1003D000FFFFFFFFFFFFFFFFFFFFFFFFFFFFFFFF2D
:1003E000FFFFFFFFFFFFFFFFFFFFFFFFFFFFFFFF1D
:1003F000FFFFFFFFFFFFFFFFFFFFFFFFFFFFFFFF0D
:10040000FFFFFFFFFFFFFFFFFFFFFFFFFEFFFFFFFD
:1004100010B5054C237833B9044B13B10448AFF33E
:1004200000800123237010BD4C90FF1F00000000CE
:100430000C45000008B5064B1BB106480649AFF352
:1004400000800648036813B1054B03B1984708BD07
:10045000000000000C4500005090FF1F4C90FF1F53
:10046000000000000020704710B582B00A46036803
:100470001C6800238DF800308DF801308DF80230B3
:100480008DF804308DF805308DF80630694601ABE3
:10049000A04702B010BD00BF4FF4C870704700BF46
:1004A00010B504460520012101F028F8152001218E
:1004B00001F024F81420012101F020F80620012188
:1004C00001F01CF80820012101F018F80720012193
:1004D00001F014F80E20012101F010F80220012192
:1004E00001F00CF80123A361014BE36110BD00BFD3
:1004F000C0F00F402DE9F04F99B003900D4614461F
:10050000827C19788DF83A1059788DF83B109B78D9
:100510008DF83C30012A35D1894B1A78013202F02E
:1005200007021A7002F00103DB0112F0020F1CBF78
:1005300043F04003DBB212F0040F18BF43F0200376
:1005400010335FFA83FE0DF13A030DF13D070021F0
:100550004FF4807613F8012B002A00F0718296FB8D
:10056000F2F2D0B2421CD2B203F8042C02FB0EFC11
:100570004FEA2C2C03F807CC0AB103F8040CBB4259
:10058000E8D10CE000238DF839308DF838308DF843
:1005900037308DF836308DF835308DF8343017A976
:1005A0000FAB002243F8042F8B42FBD1039E00F0D7
:1005B000C7FF338CC01A83B2272BF8D90396614B3F
:1005C0001A6842F080721A605F4B1A6842F00102AA
:1005D0001A60002204331A609DF835E09DF83B60F4
:1005E0000DF113030DF11B000FA9174651F8042F4D
:1005F0002A4452781AB182FA5EF2D2B200E03A4648
:1006000006FB02F2121203F8012F8342EED172B6FA
:100610004E4B18687C30002C00F0F8810294DFF813
:1006200034A1FF244A4A72B61968814208D9196870
:10063000091AB1F5526F03D962B6444B1B68E7E162
:100640009DF837609DF83410711AC9B201918DF888
:1006500034109DF838609DF83510711A8DF83510FA
:100660009DF839609DF83610711A8DF83610059E88
:10067000069F87EAD71101F0AA114F4087EAC111FE
:1006800081EA91374CF6CC4E07EA0E07794081EAB1
:10069000873786EAD61101F0AA114E4086EAC111C9
:1006A00081EA913606EA0E06714081EA863107F04A
:1006B000F03601F00F3E3F0107F0F03747EA0E0732
:1006C0000897090901F00F31314309919DF83AC0AB
:1006D0000DF1280E0BAE002189461F688742FCD31E
:1006E00018687930CAF800401F68C71B652FFBD80F
:1006F0001EF8017DFF43FFB217601F68C71B3E2F26
:10070000FBD81460B0467769EF5D37B1DDF804B00F
:1007100087FA5BF75FFA87FB00E0CB460CFB0BFB2D
:100720004FEA2B2B05AF01F807B0D8F82470EF5D26
:1007300097B1DDF8048087FA58F7FFB20DE000BFEB
:100740006890FF1FFCED00E0001000E0041000E0E6
:10075000C8F00F40C4F00F404F460DF160088844C8
:1007600007FB0CF73F1208F8487C013104360429D6
:10077000B3D10DF123060DF11F0719688842FCD88B
:1007800018687930CAF800401968411A6529FBD801
:1007900016F80119C943C9B211601968411A3E29F6
:1007A000FBD81460BE42E8D1059E069F87EAD711A8
:1007B00001F0AA114F4087EAC11181EA91374CF646
:1007C000CC4E07EA0E07794081EA873786EAD611D0
:1007D00001F0AA114E4086EAC11181EA913606EA7B
:1007E0000E06714081EA863107F0F03601F00F3EC7
:1007F0003F0107F0F03747EA0E070897090901F0B3
:100800000F31314309919DF836B0CDF804B09DF811
:100810003CC00DF1280E0BAE002189461F68B8427E
:10082000FCD818687930CAF800401F68C71B652FCC
:10083000FBD81EF8017DFF43FFB217601F68C71B7E
:100840003E2FFBD81460B04677692F44BF7837B18C
:10085000DDF804B087FA5BF75FFA87FB00E0CB4670
:100860000CFB0BFB4FEA2B2B05AF01F807B0D8F8B8
:1008700024702F44BF782FB1DDF8048087FA58F731
:10088000FFB200E04F460DF16008884407FB0CF70B
:100890003F1208F8487C013104360429BED10DF11D
:1008A00023060DF11F0719688142FCD318687930BF
:1008B000CAF800401968411A6529FBD816F80119D1
:1008C000C943C9B211601968411A3E29FBD81460A6
:1008D000BE42E8D1059E069F87EAD71101F0AA1112
:1008E0004F4087EAC11181EA91374CF6CC4E07EAB6
:1008F0000E07794081EA873786EAD61101F0AA11FE
:100900004E4086EAC11181EA913606EA0E06714030
:1009100081EA863107F0F03601F00F3E3F0107F023
:10092000F03747EA0E070897090901F00F31314304
:1009300009919DF835B0CDF804B09DF83BC00DF19C
:10094000280E0BAE002189461F68B842FCD81868F3
:100950007930CAF800401F68C71B652FFBD81EF806
:10096000017DFF43FFB217601F68C71B3E2FFBD8F6
:100970001460B04677692F447F7837B1DDF804B052
:1009800087FA5BF75FFA87FB00E0CB460CFB0BFBBB
:100990004FEA2B2B05AF01F807B0D8F824702F448D
:1009A0007F782FB1DDF8048087FA58F7FFB200E0B6
:1009B0004F460DF16008884407FB0CF73F1208F81A
:1009C000487C013104360429BED10DF123060DF116
:1009D0001F0719688842FCD818687930CAF80040A7
:1009E0001968411A6529FBD816F80119C943C9B21B
:1009F00011601968411A3E29FBD81460BE42E8D143
:100A000062B60299013902917FF40DAE104B1B685A
:100A1000104A11680131104880FB0340DB17C3EB1B
:100A200020130E4880FB0380DB17C3EBA0130B449D
:100A3000136000F085FDDDF80CB0ABF8200004E099
:100A400003F8041C03F8071C99E519B0BDE8F08F02
:100A5000041000E00CA7FF1FABAAAA2AD34D621016
:100A60002DE9F04F99B003900C461546827C197819
:100A70008DF83A1059788DF83B109B788DF83C3002
:100A8000012A35D18C4B1A78013202F007021A7014
:100A900002F00103DB0112F0020F1CBF43F0400320
:100AA000DBB212F0040F18BF43F0200310335FFADB
:100AB00083FE0DF13A030DF13D0700214FF48076DE
:100AC00013F8012B002A00F0778296FBF2F2D0B2E5
:100AD000421CD2B203F8042C02FB0EFC4FEA2C2C71
:100AE00003F807CC0AB103F8040CBB42E8D10CE0D0
:100AF00000238DF839308DF838308DF837308DF887
:100B000036308DF835308DF8343005EB45070FA9B8
:100B100000231A46FF2641F8042F46FA03F010F08E
:100B2000010F18BFD2190133082BF4D1039E00F036
:100B300007FD338CC01A83B2272BF8D903965F4B7D
:100B40001A6842F080721A605D4B1A6842F0010226
:100B50001A60002204331A609DF835E09DF83B606E
:100B60000DF113030DF11B000FA9174651F8042FC7
:100B7000224452781AB182FA5EF2D2B200E03A46CA
:100B800006FB02F2121203F8012F8342EED172B675
:100B90004C4B18687C30002D00F0F4810295DFF892
:100BA0002CA1494A72B61968814208D91968091AF4
:100BB000B1F5526F03D962B6424B1B68E4E19DF870
:100BC00037509DF83410691AC9B201918DF834106C
:100BD0009DF838509DF83510691A8DF835109DF83C
:100BE00039509DF83610691A8DF83610059D069E0D
:100BF00086EAD61101F0AA114E4086EAC11181EAB7
:100C000091364CF6CC473E40714081EA863685EA03
:100C1000D51101F0AA114D4085EAC11181EA913543
:100C20003D40694081EA853106F0F03501F00F372B
:100C3000360106F0F0363E430896090901F00F31FF
:100C4000294309919DF83AC00DF1280E0BAD002102
:100C5000FF2689461F688742FCD318687930CAF896
:100C600000601F68C71B652FFBD81EF8017DFF437E
:100C7000FFB217601F68C71B3E2FFBD81660A8463F
:100C80006F69E75D37B1DDF804B087FA5BF75FFAAB
:100C900087FB00E0CB460CFB0BFB4FEA2B2B05AF91
:100CA00001F807B0D8F82470E75D8FB1DDF8048053
:100CB00087FA58F7FFB20CE06890FF1FFCED00E0E8
:100CC000001000E0041000E0C8F00F40C4F00F4036
:100CD0004F460DF16008884407FB0CF73F1208F8F7
:100CE000487C013104350429B4D10DF123050DF1FF
:100CF0001F07FF2619688142FCD318687930CAF8AB
:100D000000601968411A6529FBD815F80119C94313
:100D1000C9B211601968411A3E29FBD81660BD425C
:100D2000E8D1059D069E86EAD61101F0AA114E4033
:100D300086EAC11181EA91364CF6CC473E407140BB
:100D400081EA863685EAD51101F0AA114D4085EA7F
:100D5000C11181EA91353D40694081EA853106F053
:100D6000F03501F00F37360106F0F0363E430896B5
:100D7000090901F00F31294309919DF836B0CDF8EA
:100D800004B09DF83CC00DF1280E0BAD0021FF26EC
:100D900089461F688742FCD318687930CAF800601A
:100DA0001F68C71B652FFBD81EF8017DFF43FFB2EC
:100DB00017601F68C71B3E2FFBD81660A8466F69D7
:100DC0002744BF7837B1DDF804B087FA5BF75FFAE4
:100DD00087FB00E0CB460CFB0BFB4FEA2B2B05AF50
:100DE00001F807B0D8F824702744BF782FB1DDF898
:100DF000048087FA58F7FFB200E04F460DF1600813
:100E0000884407FB0CF73F1208F8487C0131043591
:100E10000429BED10DF123050DF11F07FF26196826
:100E20008842FCD818687930CAF800601968411AFD
:100E30006529FBD815F80119C943C9B211601968B1
:100E4000411A3E29FBD81660BD42E8D10334059D06
:100E5000069E86EAD61101F0AA114E4086EAC1111B
:100E600081EA91364CF6CC473E40714081EA8636A5
:100E700085EAD51101F0AA114D4085EAC11181EA38
:100E800091353D40694081EA853106F0F03501F049
:100E90000F37360106F0F0363E430896090901F097
:100EA0000F31294309919DF835B0CDF804B09DF874
:100EB0003BC00DF1280E0BAD0021FF2689461F68AF
:100EC000B842FCD818687930CAF800601F68C71BA0
:100ED000652FFBD81EF8017DFF43FFB217601F6826
:100EE000C71B3E2FFBD81660A8466F6927447F7842
:100EF00037B1DDF804B087FA5BF75FFA87FB00E0F3
:100F0000CB460CFB0BFB4FEA2B2B05AF01F807B0D0
:100F1000D8F8247027447F782FB1DDF8048087FA51
:100F200058F7FFB200E04F460DF16008884407FB18
:100F30000CF73F1208F8487C013104350429BED172
:100F40000DF123050DF11F07FF2619688842FCD813
:100F500018687930CAF800601968411A6529FBD809
:100F600015F80119C943C9B211601968411A3E291F
:100F7000FBD81660BD42E8D162B6029901390291F0
:100F80007FF410AE104B1B68104A116801311048F5
:100F900080FB0340DB17C3EB20130E4880FB03806C
:100FA000DB17C3EBA0130B44136000F0C9FADDF8A4
:100FB0000CB0ABF8200004E003F8041C03F8071C95
:100FC00093E519B0BDE8F08F041000E00CA7FF1FF7
:100FD000ABAAAA2AD34D621008B5242001F06CF9FF
:100FE00000234360836043618361C3610384144BC6
:100FF0000360FF23037343738373C37303744374E6
:10100000012383740F4B1B680BB90E4B18600E4BFA
:101010001B6803B198600C4B18600C4B03600023F5
:1010200003840B49F02200F007F9FF230373B02378
:101030004373F02383732022064B1A7008BD00BF50
:1010400010420000F8A6FF1F08A7FF1F3042000053
:101050006C90FF1FF0A6FF1F2DE9F04F83B0DFF863
:1010600074A00AF5B45B0026DFF8609017E099F8E9
:101070000030334423448DF804308DF805808DF81A
:10108000067001A8294600F0FDF801340335F02C64
:10109000EDD10AF5347A2036F6B2DA4505D0554658
:1010A00000244FF0C008FF27E1E7084B1A7801320F
:1010B0001A70074C2046217800F034F820460A21A7
:1010C00000F08EF803B0BDE8F08F00BFECA6FF1F64
:1010D000F0A6FF1F6C90FF1FFF22027000224280CB
:1010E000704700BF30B40C4A13685C1C14608B421C
:1010F00010DB0A4A15684FF47A7101FB04F4084BBF
:101100001968691AB4FBF1F14180002002490860B6
:1011100012681A6030BC7047FCA6FF1F0CA7FF1FA7
:1011200004A7FF1F2DE9F04F83B0804689462A4C63
:10113000D8F804303BB100F003FA2368C01AD8F89D
:1011400004209042F4D300F0FBF9234B1860234BAA
:101150001C68002C38D0002694F812A0B8F8023091
:10116000632B98BFA6742368D3F804C061686269D2
:101170008DF804608DF805608DF80660B9F1000FF8
:101180001AD004F10B05334604F10C0B15F8017F5E
:10119000CBEB050E04F10F001EF800004FB140B17B
:1011A00007FB099700FB07773F0C0DF1040E03F8CE
:1011B0000E700133032BE9D1204601ABE04784F8E0
:1011C00012A0A468002CC7D140461921FFF78AFF5E
:1011D00003B0BDE8F08F00BF00A7FF1FF8A6FF1FF8
:1011E000F8B504460E46084B1D681B685B1B994208
:1011F00008D9054F20462178FFF794FF3B685B1B19
:10120000B342F7D3F8BD00BF0CA7FF1F4AB181B1AD
:10121000084B93FBF1F143688B422CBF4360416064
:10122000704721B1034B93FBF1F1416070470023FC
:101230004360704740420F00F8B504460F4615461C
:101240001E1EDCBF1646002503689B68984705EB09
:1012500045052F446760666123681B6920469847EF
:10126000014603480122FFF7D1FF2046F8BD00BF29
:10127000F0A6FF1F08B50248FFF72EFF08BD00BF0C
:10128000F0A6FF1F70B402784578847802F01F0042
:10129000C00000EB800303EB0313C3F3072312F03A
:1012A000800F23D112F0400F0DD112F0200F05D185
:1012B000D843C0B200221A46002342E05533DAB2C6
:1012C0000023AB203DE012F0200F0AD1AA2202FB3E
:1012D00000F00012C0F1AB00C0B2553BDAB20023FF
:1012E0002FE00022DA43D2B200202AE012F0400FB1
:1012F00015D112F0200F0CD10023AA2303FB00F01C
:10130000000AC0F1AB02D2B200F15503DBB20020FB
:1013100017E00022DA431846D3B2002211E012F09F
:10132000200F07D103F15500C0B20022C3F1AB0377
:10133000DBB206E0A3F15500C0B20022C3F15503B1
:10134000DBB2FF2D23D02E1C18BF012628B105FBD0
:1013500000F006EB2020C0B200E000202AB105FB1F
:1013600002F206EB2222D2B200E0002223B105FBFA
:1013700003F306EB1323DBB2ED43EDB205FB05F5FA
:101380002D0A2844C0B22A44D2B22B44DBB2FF2C2F
:101390001ED004FB04F52D12002C0CBF2C466C1C37
:1013A00014F0FF040CBF0025012528B104FB00F058
:1013B00005EB102000F0FF0022B104FB02F205EB68
:1013C0001222D2B223B104FB03F305EB1323DBB2E9
:1013D00008704A708B7070BC704700BF024B1A686F
:1013E00001321A60704700BF0CA7FF1F08B50D4CF3
:1013F000236813F4802F01D000F016FA236813F449
:10140000806F01D001F080FA236813F4006F01D0DF
:1014100001F04AFD236813F4805FE9D001F096FFE4
:10142000E6E700BF3480044008B5FFF7DFFF00BFE8
:101430001022014B1A80704700200540704700BF02
:10144000024A136818441060184670476087FF1FEF
:10145000FEE700BFEFF31383ABB9EFF31083ABB933
:10146000EFF3058323B10F2B05D9094A985C03E0FC
:101470004FF4807000E00020EFF311833BB1834212
:1014800038BF184670474FF0FF3070470020704754
:10149000F0E300E0044B00221A6004490A60044AA9
:1014A000106010221A60704714D0034004D003402B
:1014B00000D0034021281ED80F4B53F8303093F84A
:1014C000802212F0FF0F08D019B1012283F880208A
:1014D0007047012283F800217047074B03EBC000DF
:1014E000436821B11A6842F003021A6070471A6813
:1014F00022F002021A6070474842000021281CD8DE
:101500000E4B03EBC0035B68012908D10B4A52F86C
:10151000302082F880124FF4A2721A607047074A96
:1015200052F83020002082F8800219B94FF48072FE
:101530001A60704740F203121A6070474842000078
:1015400072B60C4B1B680C4A12680C49096862B6EB
:1015500011F0806F02D0322B88BF0132C3F5BB334C
:10156000FF330749A1FB03039B094FF47A7000FB8B
:101570000230704718E000E00CA7FF1F04ED00E008
:10158000ABAAAAAA38B50546FFF7DAFF044665B14B
:10159000FFF7D6FF001BB0F57A7F03D3013D04D0DF
:1015A00004F57A7400F08CFEF2E738BD10B5254BD7
:1015B0004FF400021A604FF080721A604FF0007210
:1015C0001A604FF080621A604FF000621A600020CB
:1015D0001D4B18604BF6FF710433196028231B4A1A
:1015E0001360083213600832136008321360083247
:1015F0001360083213600832136008321360092246
:10160000134C226004F580540434206004342160BB
:101610000434236008342360143C226004F5FE2463
:10162000043420600B4801600B490B6008310B60EB
:101630000A4B1A6000F066FEFA20FFF7A3FF00F0E5
:101640006BFC10BD08E100E0048003400C80034007
:101650000080034008800B400C800B4000800B4052
:1016600030B40E4B1B7843F002020D4C04EBC20465
:1016700060600C48007800280CBF8824C82444EA25
:101680000141074D45F8321080F00100054A107005
:1016900083F00103014A137030BC704778A7FF1F25
:1016A0000080FF1FF1A7FF1F10B4431E032B11D8AA
:1016B00072B60A4A52F8230050B14268074941F80D
:1016C0002320074A32F813400188611A22F81310C8
:1016D00062B600E000205DF8044B704768A7FF1F6A
:1016E000F4A9FF1F013803280DD872B6074B53F831
:1016F00020302BB1002001305B68002BFBD100E0D3
:10170000002062B670470020704700BFBCA7FF1FD3
:1017100038B572B601231B491B4C5A1812F8012C1C
:1017200012F0080F24D09A0054F832506DB9164BBD
:1017300003EBC20108304860144943F83210144BDF
:101740001A78013A1A7062B638BD42F0010254F8B4
:1017500032506DB90C4B03EBC201083048600D49A3
:1017600043F832100A4B1A78013A1A7062B638BD43
:101770000133052BD1D162B60022054B1A7000F05F
:101780002FFC38BD584300000080FF1F8800400038
:10179000E6A7FF1FC800400010B4431E032B37D834
:1017A000400140F010001C4A104472B61B4AD25C43
:1017B000032A09D8DFE802F019021B0508300222CB
:1017C00016E00830042213E0154A52F823201AB913
:1017D000134A42F8231003E0124A52F823205160C2
:1017E000104A42F8231062B612E0032200E00522FC
:1017F0000A4CE25401F10803436000F00803002B97
:101800000CBF8823C8230A8843EA0243036062B6F8
:101810005DF8044B704700BF0080FF1F24A7FF1F27
:10182000BCA7FF1FCCA7FF1F2DE9F84FA34CDFF883
:10183000E092DFF8E0A2DFF8E0B22578EDB215F033
:10184000040F1DD09E4B1B7813F0FF0F16D09D4B3D
:101850001B7803F0FF022BB1531EDBB2994A1370C1
:1018600003B900BE984B1B7803F0FF0233B1531E3F
:10187000DBB2954A13700BB900F0F2FC042323701D
:1018800015F0080F00F0DC8299F80030DBB21D097A
:1018900040F01D828D4D9E0805EBC6035A6855F831
:1018A0003630C3F38303013B0C2B00F20C82DFE8DC
:1018B00013F0C701C7010A020A020A020A020A0259
:1018C0000A02E4010A020A020A020D0080491368B2
:1018D0000B6052684A607F4A45F8362000227E49F4
:1018E0000A607A490A618A6101217C4A11709BB2BF
:1018F00040F28162934218D8B3F5D06F2ED2B3F57F
:10190000817F00F01E8106D8802B00F0C980822BD9
:1019100000F0CC8062E140F20232934200F0268176
:10192000B3F5A06F00F05E8158E142F221029342CC
:1019300000F0828107D8B3F5086F00F0AB80B3F5F3
:10194000106F11D04AE142F22122934200F041810E
:1019500042F22132934200F045813FE1604B5D68E5
:10196000002D40F0188130E1594B9A78544B1A7091
:10197000564D05F180062B6A13F0800F03D0686A7C
:10198000083800F02DFB0835B542F4D1DFF88C8122
:1019900000263746534AB05828B1456800F020FB6E
:1019A0000DB12846F9E700234E4973504E4AB35013
:1019B0004E4BF05828B1456800F012FB0DB1284697
:1019C000F9E7002349497350494AB35028F8023FC8
:1019D000484BFB5C023B032B0AD8DFE803F002060E
:1019E00002060022434BDA5502E00122414BDA5550
:1019F00001370436102ECDD100223F4B1A7001253D
:101A00003E4EDFF81C81314F05EB080313F8013C13
:101A100006F8043B13F0080F2DD000F0C1FA48B1CE
:101A2000A90007EB451200F108035360344A47F858
:101A3000312007E0AB00002247F833202E4B1A7804
:101A400001321A7000F0ACFA58B1AB0043F0010358
:101A500007EBC30100F108024A601E4A47F8332031
:101A600009E0AB0043F00103002247F83320224B8A
:101A70001A7801321A70AA0042F00201002347F8D6
:101A8000313042F0030247F8323001351D4B9E429F
:101A9000BAD116E20A4B1B781B4D2B700127A6E02A
:101AA000194D00232B706B700227A0E0084B9B8818
:101AB000042B37D90F22154B1A70BDE08020074048
:101AC000F0A7FF1F79A7FF1FF2A7FF1F0080FF1FCE
:101AD000DCA7FF1FC800400010A7FF1FF1A7FF1FD2
:101AE0005C43000068A7FF1F14A7FF1FBCA7FF1FD0
:101AF000CCA7FF1F24A7FF1FE6A7FF1FC420074096
:101B000088004000D4200740E8A7FF1FC0200740FE
:101B1000902007409420074098200740F2A9FF1F1B
:101B2000584300009E4A0021117051709D4A12F8DE
:101B3000233013F0020F58D0994D01232B70022748
:101B400055E0994B9B8803F07F03042B02DC964AF7
:101B500052881AB10F22934B1A706DE0914A12F815
:101B6000231021F0020102F82310AAE18E4B9B887A
:101B700003F07F03042B02DC8B4A52881AB10F2238
:101B8000884B1A7058E0874A12F8231041F002017E
:101B900002F8231095E1844B5E889F88834BA3F164
:101BA0000C02114633F80C0CB04209D133F80A0C80
:101BB000B84205D1360A032E0CBF2F78178916E0DC
:101BC0000D690C330C32002DEBD10F22754B1A70BE
:101BD00032E0754B9A78764B1A7072E10F22714B96
:101BE0001A7029E000273D4601E002276C4D6E4B3C
:101BF000DB889F4228BF1F46402F34BF3E46402609
:101C000028463146FFF72CFD3544BF1B03D13F2E3C
:101C100000F25C8110E0402F34BF3E46402628464B
:101C20003146FFF71DFD3544BF1B01D13F2E03D9BF
:101C3000604B1D60604B1F8001238AF8003042E03A
:101C4000594B198842F22103994212D15B4BD81D9E
:101C500012F8011B03F8011F8342F9D1584B1B688E
:101C6000862B02D10F22574B1A7000200146FFF736
:101C7000F7FC554B45F8363025E04E4B1E68BEB19B
:101C80004D4FB7F80080B8F1400F34BF45464025AE
:101C900030462946FFF7E4FCC5EB08039BB23B80C6
:101CA0000BB9402D01D1354400E00025414B1D60AA
:101CB0003D4B1B88B3F5A06F05D13B4B00225A70FA
:101CC0009B788BF8003001238AF80030B5E03F4E56
:101CD0009F0806EBC708D8F80420A2F10800013DD0
:101CE000EDB213F0080F47D000F07AF9384B53F8F3
:101CF00025304BB35A68364941F8252003F10802D4
:101D0000C8F80420334A525D032A12D8DFE802F0F3
:101D100002060A0E03212F4A51550AE002212D4ADC
:101D2000515506E005212B4A515502E00421294A6C
:101D3000515518F0080F0CBF8822C8221B8842EAB0
:101D4000034346F8373078E0224B5B5D032B0BD81A
:101D5000DFE803F07373020600221E4B5A556CE055
:101D600001221C4B5A5568E018F0080F0CBF0222E4
:101D70000322184B5A5560E056F837301B0C22F8F6
:101D8000083C002B51D0002322F8063C42F8043CCA
:101D9000114B53F825300BBB0F4B43F8250021E0C6
:101DA000E8A7FF1FC0200740DCA7FF1F6843000013
:101DB00000A8FF1F10A7FF1FE4A7FF1FFBA9FF1F1D
:101DC000FCA9FF1F79A7FF1FC80040000080FF1F6C
:101DD000BCA7FF1F24A7FF1F68A7FF1F3F4B53F897
:101DE000253058603D4B43F825003D4B33F8151026
:101DF00032F8082C0A4423F8152000F0D1F860B11D
:101E000000F10803C8F8043018F0080F354B364AC3
:101E100008BF134646F837300FE0002346F8373046
:101E2000324B1A7801321A7007E018F0080F2D4B68
:101E30002D4A08BF134646F8373008232370FCE4C8
:101E400015F0010F22D02A4902230B700022294BE2
:101E50001A70294B24481860284C5C609860284808
:101E6000D8601A619A610D20264B1870FF2326480E
:101E700003700838037018300270244A13709F22D0
:101E8000234B1A7001230B70BDE8F88F15F0800FFB
:101E900005D00D221B4B1A708022403B1A7015F0A2
:101EA000020F06D0184B1A78D2B21A700222083BE1
:101EB0001A7015F0100F0ED01022164B1A70BDE8D4
:101EC000F88F00200146FFF7CBFBB5E6284600213E
:101ED000FFF7C6FBB0E6BDE8F88F00BF14A7FF1FF1
:101EE000F4A9FF1FC800400088004000E6A7FF1FBC
:101EF0009420074078A7FF1F0080FF1F28A7FF1F1F
:101F00007CA7FF1FC0200740882007408C20074087
:101F1000842007408020074008B501F077FA0023AD
:101F20001B491A465A50C81842600833882BF9D109
:101F3000184B1A6842F480221A60154BC3F307212C
:101F4000154A1170C3F30741143211701B0E04328D
:101F50001370FF23343A137008321370783A1370F9
:101F600001238432137000216C3211707C3A13709B
:101F700070220A4B1A704FF40072A3F241331A60B8
:101F8000102203F1C04303F5C8231A7008BD00BF37
:101F90000080FF1F348004409C20074049E400E09B
:101FA00072B60D4B1A68B2FA82F30B2B02D962B6E5
:101FB000002070474FF00041D94022EA0102064953
:101FC0000A6062B6054903EBC303DB00C8180022B0
:101FD000CA504260704700BF6487FF1F0084FF1F24
:101FE00008B50F4BC31A0F4AA2FB03131B090B2B97
:101FF00014D80D4A12783AB10C4A127812F0FF0F39
:1020000002D0FFF785FB08BD72B6094A4FF00041C8
:1020100021FA03F311681943116062B608BD00BFCD
:102020000084FF1F398EE338E6A7FF1FF0A7FF1FCC
:102030006487FF1F10B5134B1B6853B9124B1B78F5
:1020400013F0FF0F18D00320FFF72EFB0D4B186085
:10205000A8B10C4B186843885A1C03441C7A0388A7
:102060009A4206D3FFF7BCFF0022064B1A602046B7
:1020700010BD4280204610BD4FF0FF3010BD4FF024
:10208000FF3010BDFCA7FF1FF0A7FF1F08B50D4BC9
:102090001B6883B90C4B1B7813F0FF0F08D003208B
:1020A000FFF702FB074B186028B94FF0FF3008BD5F
:1020B0004FF0FF3008BD034B1B685A881344187A51
:1020C00008BD00BFFCA7FF1FF0A7FF1F044B9888A7
:1020D000044B1B681BB11A885B88D31A18447047DD
:1020E000F4A9FF1FFCA7FF1F2DE9F04704460122BA
:1020F000374B1A700E46002964D0DFF8E080DFF815
:10210000E0909A46334FD8F8003083BB99F80030FE
:1021100013F0FF0F06D100222D4B1A704FF0FF3045
:10212000BDE8F0874AF2F9250420FFF7DBFA07281B
:102130000AD801238AF80030FFF732FFC8F8000000
:10214000A8B900238AF80030013D01D03B7833B1B3
:102150000122204B1A704FF0FF30BDE8F08700F0ED
:10216000AFF899F8003013F0FF0FDDD1D3E700236B
:102170003B70D8F800104A88C2F14005AE4238BF23
:10218000354602F108030B442A444A80761B3DB1D0
:10219000254414F8012B03F8012BAC42F9D100E0DF
:1021A00025464B883F2B07D940230B800420FFF79F
:1021B000F3FA0023C8F800300522074B1A700EB15D
:1021C0002C46A0E70020024B1870BDE8F08700BF46
:1021D000F3A7FF1FF8A7FF1FF2A7FF1FF4A7FF1F1A
:1021E000F0A7FF1F00B583B002AB03F8010D18463E
:1021F0000121FFF779FF03B05DF804FB10B5144B24
:102200001B7813F0FF0F21D00122124B1A70124BD2
:10221000196851B10024114B1C704B880B800420AD
:10222000FFF7BAFA0C4B1C600DE0FFF7B9FE014650
:1022300030B10022094B1A700420FFF7ADFA02E01A
:102240000122064B1A700022024B1A7010BD00BF0B
:10225000F0A7FF1FF3A7FF1FF4A7FF1FF2A7FF1FA1
:1022600008B50E4B1B7813F0FF0F16D10C4B1968F5
:1022700041B14B880B800420FFF78EFA0022084BF7
:102280001A6008BDFFF78CFE014618B10420FFF765
:1022900083FA08BD0122034B1A7008BDF3A7FF1F84
:1022A000F4A7FF1FF2A7FF1F08B5FEF795FEFEF784
:1022B000D3FE00F005F8FAE708B501F023FB08BDEE
:1022C00008B50F4B1B78CBB901220D4B1A70FFF7E5
:1022D000FDFE08B101F0BCFA00F08CFA08B101F083
:1022E0005FF900F07DFD08B101F0F0F900F0DEFFCC
:1022F00008B101F081FA0022014B1A7008BD00BF3D
:1023000001A8FF1F60223A4B1A70E12201331A70B4
:10231000384B1B78082B10D1012203F1804303F5C1
:102320006C331A60132334490B6001F5FF2101F26D
:10233000FC710A60314A13601FE00A2B0DD139226B
:102340002F4B1A6013232C490B6001F5FF2101F27A
:10235000FC710A60294A13600FE00C2B0CBF352278
:102360003D22274B1A60122323490B6001F5FF2100
:1023700001F2FC710A60214A1360224B1B7833B1D1
:102380000123214A136002F50022136005E00023B7
:102390001D4A136002F5002213601C4B1B78012BB1
:1023A00006D880231A4A136002F5002213601AE04F
:1023B000042B06D88423164A136002F5002213600A
:1023C00011E0082B06D88523114A136002F500227C
:1023D000136008E0102B94BF862387230C4A1360F8
:1023E00002F50022136001220A4B1A70704700BFE9
:1023F000004007406887FF1F0CB003400CB00B4043
:1024000008B0034003A8FF1F20B003406987FF1FE7
:1024100024B0034002A8FF1F194B1A6842F48062DF
:102420001A600023174A1370174A1370174A137063
:10243000174A1370174A137040F21332164B1A6082
:102440004FF4517204331A60C0F34432134B1A70C4
:10245000C0F347125A7000F01F00987204229A705D
:102460000221D9745A7588221A743C22DA704022EB
:102470000B4B1A704FF40052A3F229331A607047C5
:10248000348004408CA8FF1F09A8FF1F94A8FF1FD9
:102490008DA8FF1F08A8FF1F40A0044000A0064011
:1024A0002DE400E0164B9B7803F0EC0300F00302F0
:1024B000134310F0040F18BF43F01003104A937039
:1024C00000F00F03042B04D11346927942F040022E
:1024D0009A710B4B5A7902F0EF0210F0100F18BFEF
:1024E00042F01002064B5A719B7903F0EF0310F093
:1024F000200F18BF43F01003014A9371704700BFCB
:1025000000A0064010B5144B1B6813F4806F21D057
:10251000124B1B7813F0FF0F06D0104CFFF7D0FEC4
:10252000237813F0FF0FF9D14FF400520C4B1A60CF
:1025300000230C4AD37040F203120B490A600431A5
:102540000A600A4A13700A4A13700A4B1B680BB1DF
:1025500001221A7010BD00BF3480044008A8FF1F7C
:1025600084E100E000A0064040A004408CA8FF1FCA
:1025700009A8FF1F04A8FF1F10B50446094A1378D5
:1025800013F0FF0FFBD120460121FEF7B7FF2046D5
:102590000021FEF78FFF044B53F83420034B1A60E1
:1025A00010BD00BF08A8FF1F4842000090A8FF1FF1
:1025B00010B50D4B1B6813F4806F12D021280CD876
:1025C0000A4C0B4B53F8303023600121FEF796FF85
:1025D000236800221A70012010BD0020034B1860F0
:1025E00010BD002010BD00BF3480044004A8FF1FB0
:1025F00048420000114B1B6813F4806F1BD0122857
:1026000004D140F202320E4B1A600DE0142804D1BE
:1026100040F202320B4B1A6006E00B4B5A7B02F081
:10262000FE025A7300207047074B5A7B42F00102AA
:102630005A73012070470020704700BF3480044067
:102640000CA0044014C0044000A006402DE9F04155
:1026500007461F4B1B6813F4806F37D01D4B1B6858
:102660000BB101221A701C4B1C780134402C28BF7E
:1026700000241A4D1A4EDFF86C8017E0FEF7EAFED0
:1026800040280FDC337913F0800F0FD02B78013303
:10269000402B28BF002318F80320D2B2F271DBB21E
:1026A0002B7003E0FF2801DDFFF70AFE2B78DBB279
:1026B0009C42E3D0FFB20B4B1F5501220A4B1A700C
:1026C000E4B2054B1C70BC22054BDA70BDE8F0810A
:1026D0003480044090A8FF1F94A8FF1F8DA8FF1FFF
:1026E00000A006400CA8FF1F08A8FF1F2DE9F84F07
:1026F0000746284B1B6813F4806F49D0264B1B6894
:102700000BB101221A7007EB010B5F453DD2DFF8D8
:102710009890224EDFF88C80DFF890A099F8004066
:102720000134402C28BF00243578EDB2A54220D1D9
:10273000BC2388F80330FEF78DFE402811DC98F8A2
:10274000043013F0800F10D033780133402B28BFB2
:1027500000231AF80320D2B288F80720DBB23370C6
:1027600003E0FF2801DDFFF7ABFD3378DBB29D42CC
:10277000E1D017F8013B0AF804300122084B1A7027
:10278000E4B289F800405F45C8D1BC22054BDA703D
:10279000BDE8F88F3480044090A8FF1F8DA8FF1F6C
:1027A00008A8FF1F00A0064094A8FF1F0CA8FF1F49
:1027B00010B5064B1B7813F0FF0F06D0034CFFF744
:1027C0007FFD237813F0FF0FF9D110BD08A8FF1F7C
:1027D000064B1B78DBB2064A1278D2B293422CBF6A
:1027E0003F3202F1FF32D01A704700BF94A8FF1F9A
:1027F0008DA8FF1F054B1878C0B2054B1B78DBB2C4
:10280000984238BF4030C01A704700BF8CA8FF1FE5
:1028100009A8FF1F10B4184B1A78D2B2174B1B78B7
:10282000DBB29A4218D001333F2B18D81449C85C48
:10283000C0B2DCB211490C7012490968C9B19A42A0
:1028400003D300E00023D31A01E04032D31A1A2B3D
:102850000FDC00230B700CE04FF0FF3009E0084B59
:102860001878C0B20021054B1970064B1968002971
:10287000E8D15DF8044B70478CA8FF1F09A8FF1F23
:102880004CA8FF1F04A8FF1F094B1A78D2B2094BAE
:102890001B78DBB29A4207D00133402B28BF0023BC
:1028A000054AD05CC0B270474FF0FF30704700BFA0
:1028B0008CA8FF1F09A8FF1F4CA8FF1F0D4B1B680A
:1028C00013F4806F14D00C4BDA7802F0CB02DA707C
:1028D00040225A74DA7842F03402DA70074B1A78E0
:1028E000D2B2074B1A70074B1B680BB100221A704B
:1028F000704700BF3480044000A0064009A8FF1FB5
:102900008CA8FF1F04A8FF1F70B43D4B1B7913F068
:10291000300F33D072B63A4B9B7D03F0FF022BB9D8
:10292000374BDA7940225A7462B627E062B6354BEB
:102930001978C9B2344B1C78E4B2314D334EEB797F
:10294000D8B24B1C402B28BF0023A3421CBFF0541D
:102950001946531E13F0FF02F1D1CAB2294B1A7067
:102960002B4B1B6853B1A1422EBFC4EB0101C4F134
:10297000400409192729C4BF01221A70204BDA78B4
:10298000D2B212F0800F27D01B7913F0800F23D022
:10299000204B1C78E4B2204B1B78DBB29C4210D059
:1029A00017491E4D01E0A3420BD00133402B28BF35
:1029B00000230879E85CC0B2C871087DC0B207285E
:1029C000F1D9DBB214490B700D4B1B7913F0800F5A
:1029D00002D07C210A4BD97012F0400F0ED0084B68
:1029E0001B7913F0400F09D000220D4B1A700D4BCC
:1029F0001B6803B11A703C22014BDA7070BC70473F
:102A000000A006408CA8FF1F09A8FF1F4CA8FF1FAD
:102A100004A8FF1F94A8FF1F8DA8FF1F0CA8FF1F6D
:102A200008A8FF1F90A8FF1F194B1A6842F4006204
:102A30001A600023174A1370174A1370174A13704D
:102A4000174A1370174A137040F21332164B1A606C
:102A50004FF4517204331A60C0F34432134B1A70AE
:102A6000C0F347125A7000F01F00987204229A7047
:102A70000221D9745A7588221A743C22DA704022D5
:102A80000B4B1A704FF40042A3F22B331A607047BD
:102A90003480044000A9FF1F96A8FF1F08A9FF1F4C
:102AA00001A9FF1F95A8FF1F0CB0044000B006400D
:102AB0002FE400E0164B9B7803F0EC0300F00302D8
:102AC000134310F0040F18BF43F01003104A937023
:102AD00000F00F03042B04D11346927942F0400218
:102AE0009A710B4B5A7902F0EF0210F0100F18BFD9
:102AF00042F01002064B5A719B7903F0EF0310F07D
:102B0000200F18BF43F01003014A9371704700BFB4
:102B100000B0064010B5114B1B6813F4006F1CD0B9
:102B20000F4B1B7813F0FF0F06D00D4CFFF7C8FBBF
:102B3000237813F0FF0FF9D14FF40042094B1A60CC
:102B40000023094AD37040F2031208490A60043195
:102B50000A60074A1370074A137010BD348004409E
:102B600095A8FF1F84E100E000B006400CB00440CF
:102B700000A9FF1F96A8FF1F10B50446094A137845
:102B800013F0FF0FFBD120460121FEF7B7FC2046D2
:102B90000021FEF78FFC044B53F83420034B1A60DE
:102BA00010BD00BF95A8FF1F4842000004A9FF1FE9
:102BB0000D4B1B6813F4006F13D016280AD14FF485
:102BC00040720A4B1A600A4B5A7B42F008025A7351
:102BD00001207047064B5A7B02F0F7025A7300201F
:102BE00070470020704700BF3480044004B00440A8
:102BF00000B006400D4B1B6813F4006F13D017286C
:102C00000AD14FF440720A4B1A600A4B5A7B42F0C9
:102C100001025A7301207047064B5A7B02F0FE02F4
:102C20005A73002070470020704700BF3480044072
:102C300008B0044000B006402DE9F04107461F4BA4
:102C40001B6813F4006F37D01D4B1B680BB10122BA
:102C50001A701C4B1C780134282C28BF00241A4DF4
:102C60001A4EDFF86C8017E0FEF7F4FB40280FDC0B
:102C7000337913F0800F0FD02B780133282B28BF26
:102C8000002318F80320D2B2F271DBB22B7003E0FC
:102C9000FF2801DDFFF714FB2B78DBB29C42E3D069
:102CA000FFB20B4B1F5501220A4B1A70E4B2054BC1
:102CB0001C70BC22054BDA70BDE8F0813480044002
:102CC00004A9FF1F08A9FF1F01A9FF1F00B00640AC
:102CD00098A8FF1F95A8FF1F2DE9F84F0746284B1E
:102CE0001B6813F4006F49D0264B1B680BB10122FF
:102CF0001A7007EB010B5F453DD2DFF89890224E2A
:102D0000DFF88C80DFF890A099F800400134282C7F
:102D100028BF00243578EDB2A54220D1BC2388F825
:102D20000330FEF797FB402811DC98F8043013F0CD
:102D3000800F10D033780133282B28BF00231AF8D6
:102D40000320D2B288F80720DBB2337003E0FF28FB
:102D500001DDFFF7B5FA3378DBB29D42E1D017F819
:102D6000013B0AF804300122084B1A70E4B289F8DA
:102D700000405F45C8D1BC22054BDA70BDE8F88F32
:102D80003480044004A9FF1F01A9FF1F95A8FF1F5D
:102D900000B0064008A9FF1F98A8FF1F10B5064BFA
:102DA0001B7813F0FF0F06D0034CFFF789FA237846
:102DB00013F0FF0FF9D110BD95A8FF1F064B1B782C
:102DC000DBB2064A1278D2B293422CBF273202F10C
:102DD000FF32D01A704700BF08A9FF1F01A9FF1FCB
:102DE000054B1878C0B2054B1B78DBB2984238BF50
:102DF0004030C01A704700BF00A9FF1F96A8FF1FF0
:102E00000A4B1A78D2B20A4B1B78DBB29A4209D02D
:102E10000133402B28BF0023064AD05CDBB2044AB2
:102E2000137070474FF0FF30704700BF00A9FF1FBD
:102E300096A8FF1FC0A8FF1F094B1A78D2B2094BF2
:102E40001B78DBB29A4207D00133402B28BF002306
:102E5000054AD05CC0B270474FF0FF30704700BFEA
:102E600000A9FF1F96A8FF1FC0A8FF1F0A4B1B68E1
:102E700013F4006F0FD0094BDA7802F0CB02DA704E
:102E800040225A74DA7842F03402DA70044B1A782D
:102E9000D2B2044B1A7070473480044000B0064030
:102EA00096A8FF1F00A9FF1F70B4364B1B7913F0C3
:102EB000300F25D072B6334B9B7D03F0FF022BB948
:102EC000304BDA7940225A7462B619E062B62E4B62
:102ED0001978C9B22D4B1D78EDB22A4C2C4EE379EE
:102EE000D8B24B1C402B28BF0023AB421CBFF05470
:102EF0001946531E13F0FF02F1D1C9B2224B1970CB
:102F0000204BDA78D2B212F0800F27D01B7913F061
:102F1000800F23D01F4B1C78E4B21F4B1B78DBB211
:102F20009C4210D017491D4D01E0A3420BD0013344
:102F3000282B28BF00230879E85CC0B2C871087D3F
:102F4000C0B20728F1D9DBB213490B700D4B1B79C6
:102F500013F0800F02D07C210A4BD97012F0400F81
:102F60000ED0084B1B7913F0400F09D000220C4BF8
:102F70001A700C4B1B6803B11A703C22014BDA70BB
:102F800070BC704700B0064000A9FF1F96A8FF1F45
:102F9000C0A8FF1F08A9FF1F01A9FF1F98A8FF1FB6
:102FA00095A8FF1F04A9FF1F174B1A6842F480520F
:102FB0001A600023154A1370154A1370154A1370CE
:102FC000154A1370154A137040F21331144A1160F8
:102FD0004FF4517104321160C0F34431114A117041
:102FE000C0F34711517000F01F009072937013747A
:102FF0002C23D37040220C4B1A704FF40032A3F2F2
:103000002D331A60704700BF3480044074A9FF1F3D
:103010000AA9FF1F7CA9FF1F75A9FF1F09A9FF1F90
:1030200008C0044000C0064031E400E0164B9B7825
:1030300003F0EC0300F00302134310F0040F18BF79
:1030400043F01003104A937000F00F03042B04D1D7
:103050001346927942F040029A710B4B5A7902F072
:10306000EF0210F0100F18BF42F01002064B5A7119
:103070009B7903F0EF0310F0200F18BF43F010030B
:10308000014A9371704700BF00C0064010B5114B54
:103090001B6813F4805F1CD00F4B1B7813F0FF0FDD
:1030A00006D00D4CFFF70CF9237813F0FF0FF9D180
:1030B0004FF40032094B1A600023094AD37040F2E2
:1030C000031208490A6004310A60074A1370074A6C
:1030D000137010BD3480044009A9FF1F84E100E093
:1030E00000C0064008C0044074A9FF1F0AA9FF1FC2
:1030F00010B50446094A137813F0FF0FFBD12046A0
:103100000121FEF7FBF920460021FEF7D3F9044B1D
:1031100053F83420034B1A6010BD00BF09A9FF1FEC
:103120004842000078A9FF1F0D4B1B6813F4805F15
:1031300014D002280BD14FF440720A4B1A6003F5E9
:1031400000335A7B42F008025A7301207047064B45
:103150005A7B02F0F7025A73002070470020704734
:103160003480044000C0044000C006400D4B1B6882
:1031700013F4805F13D00E280AD14FF440720A4B2B
:103180001A600A4B5A7B42F001025A7301207047C1
:10319000064B5A7B02F0FE025A7300207047002053
:1031A000704700BF3480044004C0044000C00640A3
:1031B0002DE9F04107461F4B1B6813F4805F37D0A1
:1031C0001D4B1B680BB101221A701C4B1C7801347B
:1031D000282C28BF00241A4D1A4EDFF86C8017E007
:1031E000FEF738F940280FDC337913F0800F0FD049
:1031F0002B780133282B28BF002318F80320D2B2E4
:10320000F271DBB22B7003E0FF2801DDFFF758F805
:103210002B78DBB29C42E3D0FFB20B4B1F5501224F
:103220000A4B1A70E4B2054B1C70AC22054BDA70E5
:10323000BDE8F0813480044078A9FF1F7CA9FF1FFE
:1032400075A9FF1F00C006400CA9FF1F09A9FF1F99
:1032500038B505460C4629B115F8010BFFF7A8FF54
:10326000013CF9D138BD00BF10B5064B1B7813F0F7
:10327000FF0F06D0034CFFF723F8237813F0FF0F5E
:10328000F9D110BD09A9FF1F064B1B78DBB2064A16
:103290001278D2B293422CBF273202F1FF32D01AF9
:1032A000704700BF7CA9FF1F75A9FF1F054B187849
:1032B000C0B2054B1B78DBB2984238BF4030C01A11
:1032C000704700BF74A9FF1F0AA9FF1F0A4B1A7895
:1032D000D2B20A4B1B78DBB29A4209D00133402BA1
:1032E00028BF0023064AD05CDBB2044A1370704743
:1032F0004FF0FF30704700BF74A9FF1F0AA9FF1FDE
:1033000034A9FF1F094B1A78D2B2094B1B78DBB2E4
:103310009A4207D00133402B28BF0023054AD05CD6
:10332000C0B270474FF0FF30704700BF74A9FF1F55
:103330000AA9FF1F34A9FF1F024B1A78D2B2024B11
:103340001A7070470AA9FF1F74A9FF1F264B1B792B
:1033500013F0200F12D0244BDB79D9B2234B1B780A
:103360000133402B28BF0023214A1278D2B29A425F
:1033700004D0204AD154DBB21C4A13701A4BDB78BC
:10338000DBB213F0800F1CD0174A127912F0800FB5
:1033900017D0194A1178C9B2184A1278D2B291429C
:1033A00003D16C21104AD1700BE00132282A28BFCA
:1033B00000221349885CC0B20B49C871D2B20F49D0
:1033C0000A7013F0400F0ED0074B1B7913F0400F1B
:1033D00009D000220B4B1A700B4B1B6803B11A70FB
:1033E0002C22014BDA70704700C0064074A9FF1F01
:1033F0000AA9FF1F34A9FF1F7CA9FF1F75A9FF1F82
:103400000CA9FF1F09A9FF1F78A9FF1F00B585B0F0
:1034100072B61B4B70221A7041211A4A11700F218B
:10342000013A117080221A701A46137813F0800F37
:10343000FBD0154B186862B6144B98429CBF00EB4A
:103440008000400001A90A2200F012FA9DF8043021
:103450007BB908E001A9595C31B191800232013396
:103460000A2BF7D100E0002301335B00084A1370F8
:1034700003E0074A53800123ECE705B05DF804FB45
:103480000000024007000240080002407F969800BA
:10349000F887FF1F08B503681B68C9B2984708BDC5
:1034A00008B503681B68C9B2984708BD08B503682A
:1034B0001B68C9B2984708BD08B503681B68C9B244
:1034C000984708BD08B54B0803F1376000F5D830C0
:1034D000B0FBF1F0FEF7A0FF08BD00BF10B5144629
:1034E0004B0803F1376000F5D830B0FBF1F0FEF780
:1034F00093FF2046FEF7D6FF10BD00BF08B5FFF7CB
:1035000001F808BD08B50846FFF736F808BD00BF4A
:1035100008B50846FFF74CF8003018BF012008BD79
:1035200008B50846FFF766F8003018BF012008BD4F
:1035300008B5FFF75FF908BD08B5FFF7A5F908BDA5
:1035400008B5FFF767F908BD08B5FFF731F908BD01
:1035500008B5FFF7B3F908BD08B5FFF739F908BD9D
:1035600008B50846FFF772F8012008BD08B50846FF
:10357000FFF76CF8012008BD10B514460846114647
:10358000FFF7B4F8204610BD38B50D46084600F0E8
:1035900073FC044628462146FFF7A8F8204638BDAC
:1035A000704700BF044B00221A714FF47A71996082
:1035B0001A73024A1A60704780A9FF1FB8430000BF
:1035C00008B503681B68C9B2984708BD08B5036809
:1035D0001B68C9B2984708BD08B503681B68C9B223
:1035E000984708BD08B503681B68C9B2984708BD6D
:1035F00008B54B0803F1376000F5D830B0FBF1F0A7
:10360000FFF712FA08BD00BF10B514464B0803F1CE
:10361000376000F5D830B0FBF1F0FFF705FA20462F
:10362000FFF748FA10BD00BF08B5FFF773FA08BDF1
:1036300008B50846FFF7A0FA08BD00BF08B5084660
:10364000FFF7B6FA003018BF012008BD08B50846DC
:10365000FFF7D0FA003018BF012008BD08B5FFF70A
:10366000BFFB08BD08B5FFF7E7FB08BD08B5FFF7CE
:10367000C7FB08BD08B5FFF791FB08BD08B5FFF70C
:10368000F5FB08BD08B5FFF799FB08BD08B508466E
:10369000FFF7D2FA012008BD08B50846FFF7CCFABB
:1036A000012008BD10B5144608461146FFF714FB6B
:1036B000204610BD38B50D46084600F0DDFB044637
:1036C00028462146FFF708FB204638BD704700BF5B
:1036D000044B00221A714FF47A7199601A73024AEE
:1036E0001A60704790A9FF1F1044000008B50368D6
:1036F0001B68C9B2984708BD08B503681B68C9B202
:10370000984708BD08B503681B68C9B2984708BD4B
:1037100008B503681B68C9B2984708BD08B54B08CF
:1037200003F1B76000F55840B0FBF1F0FFF73CFC47
:1037300008BD00BF10B514464B0803F1B76000F593
:103740005840B0FBF1F0FFF72FFC2046FFF76EFC6E
:1037500010BD00BF08B5FFF799FC08BD08B50846C5
:10376000FFF7C6FC08BD00BF08B50846FFF7DCFC44
:10377000003018BF012008BD08B50846FFF7F6FC69
:10378000003018BF012008BD08B5FFF78FFD08BD48
:1037900008B5FFF7B7FD08BD08B5FFF797FD08BDF1
:1037A00008B5FFF761FD08BD08B5FFF7C5FD08BD09
:1037B00008B5FFF769FD08BD08B50846FFF7F8FC36
:1037C000012008BD08B50846FFF7F2FC012008BD3E
:1037D00010B5144608461146FFF73AFD204610BDC5
:1037E00038B50D46084600F047FB044628462146FA
:1037F000FFF72EFD204638BD704700BF044B002266
:103800001A714FF47A7199601A73024A1A607047FC
:10381000A0A9FF1F6844000008B5FEF757FC08BDCB
:1038200008B5FEF707FC08BD08B5FEF72FFC08BD7C
:1038300008B5FEF7E3FC08BD08B50846FEF7D2FC64
:1038400008BD00BF08B508461146FEF74DFC08BD8F
:10385000704700BF044B00221A714FF47A719960CF
:103860001A73024A1A607047B0A9FF1FC0440000D3
:1038700030B40023B0FBF2F402FB14041D46092C03
:1038800094BF30343734E4B2CC54B0FBF2F008B11A
:103890000133EFE70D4400226A70934207DD885C34
:1038A000CC5C8C54C8540132013B9A42F7DB084689
:1038B00030BC704770B50F4E0F4D761BB61007D059
:1038C000043D0024013455F8043F9847A642F9D13D
:1038D0000A4E0B4D761B00F003FEB61008D0043DD7
:1038E0000024013455F8043F9847A642F9D170BD31
:1038F00070BD00BFEC440000EC440000084500002F
:10390000EC440000024B0146186800F003B800BF09
:10391000388CFF1F2DE9F04F01F10B05162D83B0F8
:10392000064627D935F0070527D4A94225D83046C1
:1039300000F08CFAB5F5FC7F26D2C14F4FEAD50CCA
:1039400007EBCC03DC689C4200F0D2816368E2683C
:10395000A16823F00303234430465D68CA6045F044
:10396000010591605D6000F073FA0834204603B0F1
:10397000BDE8F08F1025A942D9D900240C23204698
:10398000336003B0BDE8F08F5FEA552C00F08A8009
:10399000BCF1040F00F260814FEA951C0CF1380C69
:1039A0004FEA4C01A64F07EB8101CC68A14205D13B
:1039B0000CE0002B7ADAE468A14207D0626822F0BA
:1039C0000302531B0F2BF4DD0CF1FF3C0CF1010C37
:1039D0009B4B3C6903F1080E744500F07E816168E1
:1039E00021F003014A1B0F2A00F36481002AC3F867
:1039F00014E0C3F810E06ADAB1F5007F80F03A8194
:103A0000C90803EBC1004FEAA1085A688168A160A8
:103A10004FF0010909FA08F848EA0202E0605A602A
:103A20008460CC604FEAAC030120984090425BD8A0
:103A3000024206D12CF0030C400002420CF1040CAF
:103A4000FAD007EBCC084446E146E3689C4207D134
:103A500045E1002A80F25681DB689C4200F03F81FC
:103A6000596821F003014A1B0F2AF2DD1C46D3F8E6
:103A70000CC054F8088F591945F0010942F00105AE
:103A8000C3F804903046C8F80CC0CCF808807961BF
:103A90003961C1F80CE0C1F808E04D608A5000F0CF
:103AA000D7F963E77E214FF03F0C7BE72244E368C0
:103AB0005068A16840F00105CB60304699605560C0
:103AC00000F0C6F90834204603B0BDE8F08F214469
:103AD00030464B6843F001034B6000F0B9F90834FD
:103AE000204603B0BDE8F08FBC68636823F003098B
:103AF000A94504D3C5EB09030F2B00F39180514B6B
:103B0000514A19681368013305EB010A04EB090BEC
:103B100000F061810AF5805A0AF10F0A2AF47F6ADF
:103B20002AF00F0A30465146019200F093F9B0F1A5
:103B3000FF3F8046019A00F00081834500F2FA8041
:103B4000DFF810C1DCF80030C3455344CCF8003036
:103B500000F04A8112683C4901321BBFCBEB080BD5
:103B60005B44C1F80080CCF8003018F0070300F087
:103B70001381C3F10802C3F5805390440833C24453
:103B8000CAF30B0ACAEB030A51463046CDF804C00B
:103B900000F060F9431CDDF804C000F03581C8EB8B
:103BA0000002524442F00102DCF80030C7F80880FD
:103BB0005344BC42C8F80420CCF80030DFF894A08D
:103BC00015D0B9F10F0F40F2EA806168A9F10C023B
:103BD00022F0070201F0010EA118052042EA0E0EA4
:103BE0000F2AC4F804E04860886000F21181174A87
:103BF000BC6811688B4288BF1360154A11688B42FC
:103C000088BF1360626822F003029542C5EB02038D
:103C100001D80F2B04DC304600F01AF90024A5E689
:103C2000621943F0010345F0010565603046BA6052
:103C3000536000F00DF90834204603B0BDE8F08F62
:103C40003C8CFF1FC8A9FF1F4890FF1FC4A9FF1F7E
:103C5000C0A9FF1FCCA9FF1FBCF1140F61D9BCF193
:103C6000540F00F28F804FEA153C0CF16E0C4FEAB6
:103C70004C0197E64B0A042B58D9142B00F2AE8066
:103C800003F15B02500007EB8000DFF8BC81836822
:103C9000834200F08A805A6822F00302914202D2E5
:103CA0009B689842F7D1D9687A68E160A3608C601C
:103CB000DC60B7E6611942F0010745F00105656077
:103CC000304659611961C1F80CE0C1F808E04F6055
:103CD0008A50083400F0BCF848E65A68A2E609F1B8
:103CE000010919F0030F04F108047FF4AEAE2DE0D2
:103CF00004F108036469A34208BF0CF1020C3FF40D
:103D000067AE23E619441C464868DB6854F8082F60
:103D100040F001054D603046D3609A6000F098F89D
:103D200024E60CF15B0C4FEA4C013BE68A09383281
:103D30005000A8E7BC423FF403AFBC68626822F0C1
:103D4000030262E7D8F8008098457BD11CF0030F8E
:103D5000A8F108030CF1FF3CF4D17B6823EA0003CF
:103D60007B60400098423FF6BFAE00283FF4BCAEF7
:103D70000342CC467FF465AE400003420CF1040CD4
:103D8000FAD05EE6BCF5AA7F1AD84FEAD53C0CF112
:103D9000770C4FEA4C0105E64FF48053EFE6012320
:103DA000C8F80430444600222FE791100120D8F8CB
:103DB000042000FA01F10A43C8F80420194674E708
:103DC00040F254539C451BD84FEA954C0CF17C0CA7
:103DD0004FEA4C01E6E50AF1100AA3E6542B1FD87E
:103DE0000A0B6E3250004EE7CBF30B0100297FF433
:103DF000B1AE0AEB0901BA6841F001015160F6E683
:103E0000FC214FF07E0CCDE501224FF0000ACBE6FD
:103E100004F10801304600F0D5F8DAF80030E6E6A3
:103E2000B3F5AA7F03D8CA0B773250002BE740F2D4
:103E30005452934203D88A0C7C32500023E7FC2072
:103E40007E2220E77B688CE73C8CFF1F704700BF19
:103E5000704700BF38B5074C00230546084623606D
:103E6000FDF7EEFA431C00D038BD2368002BFBD0D1
:103E70002B6038BD04AAFF1F20F0030110F00300DF
:103E8000C0F1000051F8043B00F1040C4FEACC0CE7
:103E90006FF000021CBF22FA0CF213434FF0010C2A
:103EA0004CEA0C2C4CEA0C4CA3EB0C0222EA030269
:103EB00012EACC1204BF51F8043B0430F4D013F0E2
:103EC000FF0F1FBF013013F47F4F013013F47F0F3A
:103ED00018BF0130704700BF024B13B1024800F019
:103EE00005B8704700000000F93E000001460020C0
:103EF0000246034600F034B938B5094D094C641B3D
:103F0000A41018BF05EB840505D0013C55F8043D0D
:103F10009847002CF9D1BDE8384000F0F5BA00BF51
:103F20000000000000000000F8B5234D0F460446D5
:103F3000FFF78CFFAB685E6826F00306F11B01F605
:103F4000EF7121F47F6121F00F01A1F58057B7F5E2
:103F5000805F07DB20460021FFF77CFFAB6833441E
:103F6000984204D02046FFF773FF0020F8BD20469A
:103F70007942FFF76FFF01300DD0104BAA68196826
:103F8000F61B46F001062046C91B56601960FFF774
:103F90005FFF0120F8BD20460021FFF75BFFAB6803
:103FA000C21A0F2ADEDD064D04492D6842F00102D7
:103FB000401B5A600860D5E73C8CFF1FCCA9FF1F4F
:103FC0004890FF1F2DE9F0410D460646002955D0C7
:103FD000FFF73CFF55F8041CDFF874C121F0010322
:103FE000A5F10804E218DCF808005768904227F0B1
:103FF000030769D011F00101576032D00021D019B8
:104000004068C00706D43B44906800294ED0D2686F
:10401000C260906043F001026260E350E1B9B3F521
:10402000007F2DD35A0A042A6AD8980938304100F3
:104030000CEB810C4649DCF80820624566D05168DB
:1040400021F003018B4202D292689445F7D1D368E4
:10405000E360A2609C60D4603046BDE8F041FFF7A9
:10406000F7BE55F8085C641B0CF10808A0684045D1
:104070002B4443D0E568C560A860C0E7BDE8F08187
:10408000DB080CEBC3020125DCF804009168A16099
:104090009B1005FA03F31843E260CCF80400946027
:1040A0003046CC60BDE8F041FFF7D2BE294DA842B2
:1040B000ADD143F00102CCF81440CCF81040E060E0
:1040C000A0606260E350C7E71F44CB0707D455F8F0
:1040D000083CE41A1F44A268E368D3609A601E4B50
:1040E0001B6847F001029F426260CCF80840B3D3DE
:1040F0001A4B30461968FFF717FFADE701217EE73D
:10410000142A0CD802F15B00410091E74B68801043
:10411000012505FA00F003434B60134698E7542A43
:1041200003D8180B6E30410082E7B2F5AA7F03D89E
:10413000D80B773041007BE740F254518A4203D8D4
:10414000980C7C30410073E7FC217E2070E700BFB3
:104150003C8CFF1F448CFF1F4490FF1FC8A9FF1F0A
:10416000F0B5274C2668D6F8484185B00746002CA4
:1041700041D065681F2D1EDD224818B94FF0FF3071
:1041800005B0F0BD4FF4C870039102920193FFF7A0
:10419000B9FB0399029A019B04460028EED0D6F899
:1041A00048512560002060600546C6F84841C4F8C3
:1041B0008801C4F88C013FB9AB1C00200135656053
:1041C00044F8231005B0F0BD04EB85004FF0010C5E
:1041D000C0F88820D4F888610CFA05F21643022F43
:1041E000C4F88861C0F80831E6D1D4F88C311A439C
:1041F000C4F88C21E0E706F5A674C6F84841B8E794
:10420000DC44000005390000000000000000000050
:10421000511400005114000051140000511400000A
:104220006504000000000000000000000000000025
:10423000F5040000610A0000A10400006904000008
:1042400099040000000000004008FE4340A0044024
:104250004408FE4344A004400018FE4300C004404C
:104260003000FE43309004403400FE43349004405C
:104270001C18FE431CC004401018FE4310C004402C
:104280000818FE4308C004400C18FE430CC004404C
:104290000C10FE430CB004401010FE4310B004405C
:1042A0001810FE4318B004401C10FE431CB004401C
:1042B0001410FE4314B004400418FE4304C004402C
:1042C0000010FE4300B004400008FE4300A004407C
:1042D0000408FE4304A004400C08FE430CA0044064
:1042E0000808FE4308A004401418FE4314C004400C
:1042F0001818FE4318C004400410FE4304B00440E4
:104300000810FE4308B004401400FE43149004401B
:104310004C08FE434CA004400420FE4304D004405B
:104320002410FE4324B004402010FE4320B004407B
:104330002810FE4328B004402C10FE432CB004404B
:104340000020FE4300D004404808FE4348A004403B
:104350001000FE43109004400015191500010000E4
:104360006C87FF1F12000000000200009887FF1FEB
:104370004300000000030000F487FF1F000000005E
:10438000010309048087FF1F0000000002030904E5
:10439000DC87FF1F0000000003030904F887FF1FEC
:1043A000000000000000000000000000000000000D
:1043B00000000000000000006135000079350000B9
:1043C0003135000041350000393500004935000025
:1043D000C5340000DD340000FD3400000535000068
:1043E000113500002135000051350000593500001D
:1043F00095340000A1340000AD340000B934000051
:10440000893500006D35000000000000000000004C
:104410008D360000A53600005D3600006D360000C8
:104420006536000075360000F135000009360000E1
:1044300029360000313600003D3600004D360000C0
:104440007D36000085360000C1350000CD35000006
:10445000D9350000E5350000B5360000993600007A
:104460000000000000000000B9370000D137000054
:10447000893700009937000091370000A13700000C
:104480001D37000035370000553700005D3700004C
:104490006937000079370000A9370000B137000004
:1044A000ED360000F9360000053700001137000036
:1044B000E1370000C53700000000000000000000E8
:1044C0003938000045380000193800002138000054
:1044D0002938000031380000430000001088FF1F19
:1044E000F8B500BFF8BC08BC9E467047D93E000036
:1044F0003504000075120000A5350000D13600001B
:08450000FD37000055380000F2
:04450800F8B500BF43
:10450C0008AAFF1FFFFFFFFF0A04000012010002B0
:10451C0002000040C01683040001010203010000E8
:10452C0018035400650065006E0073007900640088
:10453C00750069006E006F0009024300020100C0A3
:10454C0032090400000102020100052400100105DB
:10455C00240101010424020605240600010705823A
:10456C000310004009040100020A000000070503C3
:10457C0002400000070584024000000016035500AD
:10458C005300420020005300650072006900610076
:10459C006C000000040309040C0300000000000080
:1045AC0000000000000000000000000000000000FF
:1045BC0000000000FC8AFF1F648BFF1FCC8BFF1FC9
:1045CC0000000000000000000000000000000000DF
:1045DC0000000000000000000000000000000000CF
:1045EC0000000000D84400000000000000000000A3
:1045FC0000000000000000000000000000000000AF
:10460C00000000000000000000000000000000009E
:10461C00000000000000000000000000000000008E
:10462C00000000000000000000000000000000007E
:10463C00000000000000000000000000000000006E
:10464C00000000000000000000000000000000005E
:10465C00000000000000000001000000000000004D
:10466C000E33CDAB34126DE6ECDE05000B00000012
:10467C00000000000000000000000000000000002E
:10468C00000000000000000000000000000000001E
:10469C00000000000000000000000000000000000E
:1046AC0000000000000000000000000000000000FE
:1049DC0000000000000000001088FF1F0000000015
:1049EC00000000003C8CFF1F3C8CFF1F448CFF1F01
:1049FC00448CFF1F4C8CFF1F4C8CFF1F548CFF1FD3
:104A0C00548CFF1F5C8CFF1F5C8CFF1F648CFF1F82
:104A1C00648CFF1F6C8CFF1F6C8CFF1F748CFF1F32
:104A2C00748CFF1F7C8CFF1F7C8CFF1F848CFF1FE2
:104A3C00848CFF1F8C8CFF1F8C8CFF1F948CFF1F92
:104A4C00948CFF1F9C8CFF1F9C8CFF1FA48CFF1F42
:104A5C00A48CFF1FAC8CFF1FAC8CFF1FB48CFF1FF2
:104A6C00B48CFF1FBC8CFF1FBC8CFF1FC48CFF1FA2
:104A7C00C48CFF1FCC8CFF1FCC8CFF1FD48CFF1F52
:104A8C00D48CFF1FDC8CFF1FDC8CFF1FE48CFF1F02
:104A9C00E48CFF1FEC8CFF1FEC8CFF1FF48CFF1FB2
:104AAC00F48CFF1FFC8CFF1FFC8CFF1F048DFF1F61
:104ABC00048DFF1F0C8DFF1F0C8DFF1F148DFF1F0E
:104ACC00148DFF1F1C8DFF1F1C8DFF1F248DFF1FBE
:104ADC00248DFF1F2C8DFF1F2C8DFF1F348DFF1F6E
:104AEC00348DFF1F3C8DFF1F3C8DFF1F448DFF1F1E
:104AFC00448DFF1F4C8DFF1F4C8DFF1F548DFF1FCE
:104B0C00548DFF1F5C8DFF1F5C8DFF1F648DFF1F7D
:104B1C00648DFF1F6C8DFF1F6C8DFF1F748DFF1F2D
:104B2C00748DFF1F7C8DFF1F7C8DFF1F848DFF1FDD
:104B3C00848DFF1F8C8DFF1F8C8DFF1F948DFF1F8D
:104B4C00948DFF1F9C8DFF1F9C8DFF1FA48DFF1F3D
:104B5C00A48DFF1FAC8DFF1FAC8DFF1FB48DFF1FED
:104B6C00B48DFF1FBC8DFF1FBC8DFF1FC48DFF1F9D
:104B7C00C48DFF1FCC8DFF1FCC8DFF1FD48DFF1F4D
:104B8C00D48DFF1FDC8DFF1FDC8DFF1FE48DFF1FFD
:104B9C00E48DFF1FEC8DFF1FEC8DFF1FF48DFF1FAD
:104BAC00F48DFF1FFC8DFF1FFC8DFF1F048EFF1F5C
:104BBC00048EFF1F0C8EFF1F0C8EFF1F148EFF1F09
:104BCC00148EFF1F1C8EFF1F1C8EFF1F248EFF1FB9
:104BDC00248EFF1F2C8EFF1F2C8EFF1F348EFF1F69
:104BEC00348EFF1F3C8EFF1F3C8EFF1F448EFF1F19
:104BFC00448EFF1F4C8EFF1F4C8EFF1F548EFF1FC9
:104C0C00548EFF1F5C8EFF1F5C8EFF1F648EFF1F78
:104C1C00648EFF1F6C8EFF1F6C8EFF1F748EFF1F28
:104C2C00748EFF1F7C8EFF1F7C8EFF1F848EFF1FD8
:104C3C00848EFF1F8C8EFF1F8C8EFF1F948EFF1F88
:104C4C00948EFF1F9C8EFF1F9C8EFF1FA48EFF1F38
:104C5C00A48EFF1FAC8EFF1FAC8EFF1FB48EFF1FE8
:104C6C00B48EFF1FBC8EFF1FBC8EFF1FC48EFF1F98
:104C7C00C48EFF1FCC8EFF1FCC8EFF1FD48EFF1F48
:104C8C00D48EFF1FDC8EFF1FDC8EFF1FE48EFF1FF8
:104C9C00E48EFF1FEC8EFF1FEC8EFF1FF48EFF1FA8
:104CAC00F48EFF1FFC8EFF1FFC8EFF1F048FFF1F57
:104CBC00048FFF1F0C8FFF1F0C8FFF1F148FFF1F04
:104CCC00148FFF1F1C8FFF1F1C8FFF1F248FFF1FB4
:104CDC00248FFF1F2C8FFF1F2C8FFF1F348FFF1F64
:104CEC00348FFF1F3C8FFF1F3C8FFF1F448FFF1F14
:104CFC00448FFF1F4C8FFF1F4C8FFF1F548FFF1FC4
:104D0C00548FFF1F5C8FFF1F5C8FFF1F648FFF1F73
:104D1C00648FFF1F6C8FFF1F6C8FFF1F748FFF1F23
:104D2C00748FFF1F7C8FFF1F7C8FFF1F848FFF1FD3
:104D3C00848FFF1F8C8FFF1F8C8FFF1F948FFF1F83
:104D4C00948FFF1F9C8FFF1F9C8FFF1FA48FFF1F33
:104D5C00A48FFF1FAC8FFF1FAC8FFF1FB48FFF1FE3
:104D6C00B48FFF1FBC8FFF1FBC8FFF1FC48FFF1F93
:104D7C00C48FFF1FCC8FFF1FCC8FFF1FD48FFF1F43
:104D8C00D48FFF1FDC8FFF1FDC8FFF1FE48FFF1FF3
:104D9C00E48FFF1FEC8FFF1FEC8FFF1FF48FFF1FA3
:104DAC00F48FFF1FFC8FFF1FFC8FFF1F0490FF1F52
:104DBC000490FF1F0C90FF1F0C90FF1F1490FF1FFF
:104DCC001490FF1F1C90FF1F1C90FF1F2490FF1FAF
:104DDC002490FF1F2C90FF1F2C90FF1F3490FF1F5F
:0C4DEC003490FF1F00000200FFFFFFFFDB
:00000001FF
