:1000000000800020BD010000A10B0000650B000076
:10001000650B0000650B0000650B0000650B000020
:10002000650B0000650B0000650B0000A10B0000D4
:10003000A10B0000650B0000A10B0000550B000098
:10004000A10B0000A10B0000A10B0000A10B000000
:10005000A10B0000A10B0000A10B0000A10B0000F0
:10006000A10B0000A10B0000A10B0000A10B0000E0
:10007000A10B0000A10B0000A10B0000A10B0000D0
:10008000A10B0000A10B0000A10B0000A10B0000C0
:10009000A10B0000A10B0000A10B0000A10B0000B0
:1000A000A10B0000A10B0000A10B0000A10B0000A0
:1000B000A10B0000A10B0000A10B0000A10B000090
:1000C000A10B0000A10B0000A10B0000A10B000080
:1000D000A10B0000A10B0000A10B0000A10B000070
:1000E000A10B0000A10B0000A10B0000A10B000060
:1000F000A10B000041260000A10B0000E12B000035
:10010000A10B000085300000A10B0000A10B000036
:10011000A10B0000A10B0000A10B0000A10B00002F
:10012000A10B0000A10B0000A10B0000A10B00001F
:10013000A10B0000A10B0000A10B0000A10B00000F
:10014000A10B0000A10B0000A10B0000A10B0000FF
:10015000A10B0000A10B0000A10B0000A10B0000EF
:10016000A10B0000E5120000A10B0000A10B000094
:10017000A10B0000A10B0000A10B0000A10B0000CF
:10018000A10B0000A10B0000A10B0000A10B0000BF
:10019000A10B0000A10B0000A10B0000A10B0000AF
:1001A000A10B0000A10B0000A10B0000A10B00009F
:1001B000A10B0000A10B0000A10B0000574B4CF25B
:1001C000205210B51A804DF628121A8000BF00BFC9
:1001D00000F0EAFC524B4FF010621A60514A9A60EC
:1001E000514ADA60A3F53043203B1A6812F480725A
:1001F00004D14E490A604FF4A8521A604C4B1A7849
:10020000110703D51A7842F008021A70494B4A4C7C
:100210004A482A221A704A4A00239918A14203D256
:10022000195899500433F8E7464B474900228B424E
:1002300002D243F8042BFAE74448454900235A58B0
:100240001A500433B3F5DE7FF9D1424B424A802184
:1002500003F8011B9342FBD1404B3C4A1A60404BD0
:100260000A221A70A3F5805324225A70A0221A7011
:100270009A799207FCD59A79D406FCD4394A9379B5
:1002800003F00C03082B374BF9D103221A714022DB
:100290005A719A799006FCD5324A9179314B4906C8
:1002A000FBD5314A314911600221516020221A7078
:1002B0009A7902F00C020C2AFAD12D4B2D4A1A60C1
:1002C0002D4B2E4A1A6000225A60072243F8042C54
:1002D0002B4AC3F80C2D62B600F0C6FE134B1B6808
:1002E000DA0705D5274800F08FFC274B274A1A600C
:1002F000274B1B785B0609D5234C244A236893427D
:1003000004D1204800F080FC0023236003F024FC8B
:1003100000F050FC01F0FEFDFEE700BF0E2005409E
:1003200030800440823F04000100002B14D00340C1
:1003300002D0074000E007405C9AFF1F1048000011
:100340006091FF1F5C9AFF1F28A7FF1F008CFF1FF3
:100350000000000000E400E05FE400E008ED00E0E1
:100360000050064000400640448004400000030165
:1003700004800440C010050014E000E0FF76010096
:1003800000002020AF721A581CE00340A5C3945A05
:1003900000F00740FFFFFFFFFFFFFFFFFFFFFFFF32
:1003A000FFFFFFFFFFFFFFFFFFFFFFFFFFFFFFFF5D
:1003B000FFFFFFFFFFFFFFFFFFFFFFFFFFFFFFFF4D
:1003C000FFFFFFFFFFFFFFFFFFFFFFFFFFFFFFFF3D
:1003D000FFFFFFFFFFFFFFFFFFFFFFFFFFFFFFFF2D
:1003E000FFFFFFFFFFFFFFFFFFFFFFFFFFFFFFFF1D
:1003F000FFFFFFFFFFFFFFFFFFFFFFFFFFFFFFFF0D
:10040000FFFFFFFFFFFFFFFFFFFFFFFFFEFFFFFFFD
:1004100010B5054C237833B9044B13B10448AFF33E
:1004200000800123237010BD5C9AFF1F00000000B4
:100430001048000008B5064B1BB106480649AFF34B
:1004400000800648036813B1054B03B1984708BD07
:100450000000000010480000609AFF1F5C9AFF1F18
:100460000000000008B50D20012100F0ADFC0D20BA
:10047000012100F085FC0448322101F049FD0348C8
:1004800000F0B2F808BD00BF20A5FF1F789AFF1F3B
:100490002DE9F04101F02CFB2A2852D101F028FB74
:1004A00001F026FB284BD3F800800024274D1F467F
:1004B000274E2819C4F5877101F074FB0444B4F584
:1004C000877F3AD23A68C8EB0202B3689A42F0D307
:1004D00001221F4B1A7330E02278637843EA02222C
:1004E000A3783046294643EA022200F01FFA01357C
:1004F00003345A2DF0D1174800F0B4F9164B1B788D
:1005000023B10D20012100F03BFC03E00D20002170
:1005100000F036FC104B1A7882F001021A700A20A3
:1005200000F08EFD0A4C23681B682046782198470E
:10053000204601F0DDFCBDE8F081044C0025054EAD
:10054000CAE7BDE8F08100BF28A4FF1FECA2FF1F8F
:1005500020A5FF1F789AFF1F6491FF1F00B583B08D
:100560000023009304485A21044A054B00F026F862
:1005700003B05DF804FB00BF789AFF1F0082FF1FE5
:100580007C9AFF1F08B5064B1A79064B1A7000F0CB
:1005900035FD054B18600022044B1A7008BD00BFE2
:1005A00018A4FF1F1F80004014A4FF1F10A4FF1FEA
:1005B00010B5044601F082FC204610BD10B4064C74
:1005C000218006490A60064A1360064B9DF8042004
:1005D0001A705DF8044B7047FEA3FF1F00A4FF1FB5
:1005E0000CA4FF1FFCA3FF1F2DE9F843894B1D88B6
:1005F00005EB4505ED00884B186800212A4603F0FD
:1006000077FD864B186820B100212A4603F070FD63
:1006100003E0814B1A68814B1A60FF22804B1A60FD
:100620000220012100F0D0FB0E20012100F0CCFBC4
:100630000720012100F0C8FB0820012100F0C4FBC5
:100640000620012100F0C0FB1420012100F0BCFBBA
:100650001520012100F0B8FB0520012100F0B4FBBA
:10066000704B1C7804F01004E4B26F4B6F4A002CFE
:100670000CBF14461C46082000F0D6FA204603F0B2
:100680001DF804460320214600F0DAFA0420214632
:1006900000F0D6FA03203C2100F0B8FB0420B02182
:1006A00000F0B4FB624A634B1A600320022100F0A1
:1006B0008BFB0F20002100F087FB5F4A5F4B1A6025
:1006C00002F50072A3F5FE530C3B1A605C4F3A68CA
:1006D000DFF88CC113680023C2F800C039680B71C1
:1006E0004B718B71CB7101240C724B728B72CB727C
:1006F0000B734B738B73CB730A69524A0A610B7588
:100700004B75A8B2CA8AC8820B764B768B76CB76AD
:100710008A8B08228A83CE8BC8834B4E3168DFF8E0
:10072000F880D8F80080D1F80090C1F800803168D6
:100730000C714B718B71CB710C724B728B72CB72D3
:100740006D42CD600D69414D0D610B754B75CD8AC4
:10075000C8820B764B768B76CB768D8B8A83CA8B51
:10076000C8833B490A681568C2F800C00A6813715B
:1007700053719371D371147253729372D372137352
:1007800053739373D3731469254C146113755375A4
:10079000D48AD082137653769376D376948B0A24B8
:1007A0009483D48BD0834FF080502A4A106041F25A
:1007B00032004FF0402210603A7902F1804202F597
:1007C00004321370B2201070327902F1804202F5C7
:1007D00004321370B32010700A7902F1804202F5DE
:1007E00004321370B12313700A7902F110011A4810
:1007F0001A4B43F8210053119B0003F1604303F5AA
:10080000614302F01F02012101FA02F21A60BDE801
:10081000F88300BFFEA3FF1F00A4FF1F0CA4FF1F4F
:10082000C8F00F40FCA3FF1F801A060000350C0023
:100830000003010000A004400001020000B00440D9
:1008400004A4FF1FC4F00F4020A4FF1FC0F00F40FE
:1008500018A4FF1F0C0008E085050000008CFF1F96
:100860004045000010B5244A137813F0FF0FFBD168
:10087000224B1968224B1868814206D0214B1B88F5
:1008800003EB4302D20000F0CBF81F4C00F0B6FBA4
:100890002368C01A3128F9D91C4B186818331B6813
:1008A00072B60121144A117019490A689342FCD2A8
:1008B00017490A689342FCD315490A689342FCD849
:1008C00000F0E703114A1360012312490B6001F5A0
:1008D00080510B604FF400510F4B19600F4B197989
:1008E0000F4B19700F49097919700F49097919705F
:1008F000106062B610BD00BF10A4FF1F0CA4FF1F44
:1009000000A4FF1FFEA3FF1F14A4FF1F00900340BD
:1009100004900340A0A00440A090044004A4FF1F42
:100920001B80004020A4FF1F18A4FF1F70B4234B9E
:100930001B7803F00703022B0CD0032B14D0012BE0
:100940001AD102F47F03100280B2C2F307220243DD
:100950001A4311E0100200F47F00131203F47F43E6
:100960000343D2B21A4307E0130223F07F4323F07C
:10097000FF03C2F307421A43114B1888B1FBF0F38F
:1009800001259D40EEB200FB131101EB41010D4B1F
:100990001B6803EBC103013318204FF40001ED4342
:1009A000114213F8014C14BF34432C4003F8014C9E
:1009B000490801330138F3D170BC7047FCA3FF1F15
:1009C000FEA3FF1F0CA4FF1F70B5104E3046002180
:1009D00001F016FA0E4D0F4C30462946224603F020
:1009E000ABF80D4E3046002101F00AFA3046294698
:1009F000224603F0A1F8094E3046002101F000FA2A
:100A000030462946224603F097F870BD04A4FF1F24
:100A1000B10500006091FF1F20A4FF1F18A4FF1F55
:100A2000844641EA000313F003036DD1403A41D3F9
:100A300051F8043B40F8043B51F8043B40F8043BB8
:100A400051F8043B40F8043B51F8043B40F8043BA8
:100A500051F8043B40F8043B51F8043B40F8043B98
:100A600051F8043B40F8043B51F8043B40F8043B88
:100A700051F8043B40F8043B51F8043B40F8043B78
:100A800051F8043B40F8043B51F8043B40F8043B68
:100A900051F8043B40F8043B51F8043B40F8043B58
:100AA00051F8043B40F8043B51F8043B40F8043B48
:100AB000403ABDD2303211D351F8043B40F8043BE8
:100AC00051F8043B40F8043B51F8043B40F8043B28
:100AD00051F8043B40F8043B103AEDD20C3205D3F8
:100AE00051F8043B40F8043B043AF9D2043208D0F0
:100AF000D2071CBF11F8013B00F8013B01D30B8862
:100B000003806046704700BF082A13D38B078DD03F
:100B100010F003038AD0C3F10403D21ADB071CBF11
:100B200011F8013B00F8013B80D331F8023B20F87B
:100B3000023B7BE7043AD9D3013A11F8013B00F8B4
:100B4000013BF9D20B7803704B7843708B7883703C
:100B500060467047024B1A6801321A60704700BF46
:100B600028A4FF1F08B50D4C236813F4802F01D073
:100B700000F0B8FB236813F4806F01D001F060FD32
:100B8000236813F4006F01D002F02AF8236813F4ED
:100B9000805FE9D002F076FAE6E700BF34800440D7
:100BA00008B5FFF7DFFF00BF1022014B1A80704726
:100BB00000200540704700BF024A136818441060C7
:100BC000184670476891FF1FEFF31383ABB9EFF33B
:100BD0001083ABB9EFF3058323B10F2B05D9094A75
:100BE000985C03E04FF4807000E00020EFF3118385
:100BF0003BB1834238BF184670474FF0FF30704713
:100C000000207047F0E300E0044B00221A60044922
:100C10000A60044A106010221A60704714D0034022
:100C200004D0034000D0034018B1102828BF102082
:100C300000E00120014B1870704700BF6C91FF1F4E
:100C40002DE9F84380460D460846424902F02CFF44
:100C5000002814BF4FF002094FF001093E4B47F640
:100C60001226002808BF1E46304602F027FD4FF02E
:100C70005E5102F07BFD0146284602F029FF90B943
:100C800001244FF05E5726FA04F002F017FD3946B2
:100C900002F06CFD0146284602F01AFF20B901342B
:100CA000072CF0D100E0002426FA04F002F006FD43
:100CB000294602F00FFE4FF07C5102F04DFC02F08D
:100CC0001BFF4FF6FF73984238BF0346A8F103029B
:100CD000D2B2012A0DD8214A0021116020480160BA
:100CE00020490B6004F0070444EAC9041460BDE81D
:100CF000F883A8F10902D2B2012A09D9A8F1140295
:100D0000D2B2032A04D9A8F10502D2B2012A0DD821
:100D1000154A002111601548016015490B6004F067
:100D2000070444EAC9041460BDE8F883B8F1200F51
:100D300002D0B8F1190F0BD10E4A002111600E48F4
:100D400001600E490B6004F0070343EAC903136016
:100D5000BDE8F883001BB740006CDC020090034044
:100D60000490034008900340008003400480034047
:100D70000880034000800B4004800B4008800B403B
:100D800021281ED80F4B53F8303093F8802212F0F0
:100D9000FF0F08D019B1012283F88020704701228B
:100DA00083F800217047074B03EBC000436821B173
:100DB0001A6842F003021A6070471A6822F00202B1
:100DC0001A6070474445000021281CD80E4B03EBE5
:100DD000C0035B68012908D10B4A52F8302082F821
:100DE00080124FF4A2721A607047074A52F83020FE
:100DF000002082F8800219B94FF480721A6070479F
:100E000040F203121A6070474445000010B50446D2
:100E100028280FD15D4B1B780B2B03D8C3F10C0393
:100E2000994003E00C2B84BF0C3B1941084601F0AC
:100E300051F910BD554B1B78012202FA03F000292D
:100E400008DC20460021FFF79BFF20460121FFF729
:100E5000BBFF10BD0A46884208D820460121FFF793
:100E60008FFF20460121FFF7AFFF10BDE01EC0B28B
:100E7000012806D84648006800FB011222FA03F355
:100E800010E0202C01D0192C06D14248006800FB4C
:100E9000022222FA03F305E03F48006800FB01123A
:100EA00022FA03F3E01E1D2864D8DFE800F0474E65
:100EB000402B63631D246363636363636363633213
:100EC000390F16635C63636363636355334A13606E
:100ED00040F24442324B1A6010BD324A136040F275
:100EE0004442314B1A6010BD304A136040F2444214
:100EF0002F4B1A6010BD2F4A136040F244422E4B14
:100F00001A6010BD2D4A136040F244422C4B1A6007
:100F100010BD2C4A136040F244422B4B1A6010BDA6
:100F20002A4A136040F24442294B1A6010BD294AF4
:100F3000136040F24442284B1A6010BD274A1360E8
:100F40004FF45172264B1A6010BD264A13604FF4BD
:100F50005172254B1A6010BD244A13604FF4517230
:100F6000234B1A6010BD234A13604FF45172224B79
:100F70001A6010BD20467F29D4BF00210121FFF750
:100F8000FFFE20460121FFF71FFF10BD6C91FF1FE0
:100F90000890034008800B40088003401080034005
:100FA00004B004401880034008B00440208003408F
:100FB0000CB004402880034010B00440308003404F
:100FC00010C004403880034014C0044040800340F7
:100FD00018C00440488003401CC0044010900340E7
:100FE00030900440189003403490044010800B402F
:100FF00048A0044018800B404CA0044072B60C4B33
:101000001B680C4A12680C49096862B611F0806FBF
:1010100002D0322B88BF0132C3F5BB33FF330749FF
:10102000A1FB03039B094FF47A7000FB0230704769
:1010300018E000E028A4FF1F04ED00E0ABAAAAAA74
:1010400038B50546FFF7DAFF044665B1FFF7D6FF6E
:10105000001BB0F57A7F03D3013D04D004F57A7408
:1010600000F08CFFF2E738BD10B5254B4FF40002BD
:101070001A604FF080721A604FF000721A604FF0E1
:1010800080621A604FF000621A6000201D4B1860E9
:101090004BF6FF710433196028231B4A1360083292
:1010A000136008321360083213600832136008328C
:1010B000136008321360083213600922134C226057
:1010C00004F5805404342060043421600434236027
:1010D00008342360143C226004F5FE2404342060AC
:1010E0000B4801600B490B6008310B600A4B1A601A
:1010F00000F066FFFA20FFF7A3FF00F06BFC10BDC5
:1011000008E100E0048003400C80034000800340BD
:1011100008800B400C800B4000800B4030B40E4B1D
:101120001B7843F002020D4C04EBC20460600C48D3
:10113000007800280CBF8824C82444EA0141074DE8
:1011400045F8321080F00100054A107083F0010369
:10115000014A137030BC704794A4FF1F0080FF1F2A
:101160000DA5FF1F10B4431E032B11D872B60A4AF7
:1011700052F8230050B14268074941F82320074A3A
:1011800032F813400188611A22F8131062B600E0A9
:1011900000205DF8044B704784A4FF1F14A7FF1FB5
:1011A000013803280DD872B6074B53F820302BB105
:1011B000002001305B68002BFBD100E0002062B60C
:1011C00070470020704700BFD8A4FF1F38B572B623
:1011D00001231B491B4C5A1812F8012C12F0080F5E
:1011E00024D09A0054F832506DB9164B03EBC2016B
:1011F00008304860144943F83210144B1A78013A09
:101200001A7062B638BD42F0010254F832506DB91E
:101210000C4B03EBC201083048600D4943F8321013
:101220000A4B1A78013A1A7062B638BD0133052BA1
:10123000D1D162B60022054B1A7000F02FFC38BDE8
:10124000784600000080FF1F8800400002A5FF1FB5
:10125000C800400010B4431E032B37D8400140F0B3
:1012600010001C4A104472B61B4AD25C032A09D8EB
:10127000DFE802F019021B050830022216E00830F0
:10128000042213E0154A52F823201AB9134A42F8EF
:10129000231003E0124A52F823205160104A42F80A
:1012A000231062B612E0032200E005220A4CE25449
:1012B00001F10803436000F00803002B0CBF8823F2
:1012C000C8230A8843EA0243036062B65DF8044B10
:1012D000704700BF0080FF1F40A4FF1FD8A4FF1F5E
:1012E000E8A4FF1F2DE9F84FA34CDFF8E092DFF8E8
:1012F000E0A2DFF8E0B22578EDB215F0040F1DD0C2
:101300009E4B1B7813F0FF0F16D09D4B1B7803F0FC
:10131000FF022BB1531EDBB2994A137003B900BE12
:10132000984B1B7803F0FF0233B1531EDBB2954A92
:1013300013700BB900F040FD0423237015F0080F63
:1013400000F0DC8299F80030DBB21D0940F01D820C
:101350008D4D9E0805EBC6035A6855F83630C3F329
:101360008303013B0C2B00F20C82DFE813F0C70172
:10137000C7010A020A020A020A020A020A02E40178
:101380000A020A020A020D00804913680B605268C3
:101390004A607F4A45F8362000227E490A607A4931
:1013A0000A618A6101217C4A11709BB240F281621C
:1013B000934218D8B3F5D06F2ED2B3F5817F00F0E9
:1013C0001E8106D8802B00F0C980822B00F0CC80D3
:1013D00062E140F20232934200F02681B3F5A06F41
:1013E00000F05E8158E142F22102934200F08281D6
:1013F00007D8B3F5086F00F0AB80B3F5106F11D0CC
:101400004AE142F22122934200F0418142F221322C
:10141000934200F045813FE1604B5D68002D40F054
:10142000188130E1594B9A78544B1A70564D05F19A
:1014300080062B6A13F0800F03D0686A083800F02A
:101440002DFB0835B542F4D1DFF88C8100263746F4
:10145000534AB05828B1456800F020FB0DB128462A
:10146000F9E700234E4973504E4AB3504E4BF058A3
:1014700028B1456800F012FB0DB12846F9E70023BA
:1014800049497350494AB35028F8023F484BFB5C26
:10149000023B032B0AD8DFE803F002060206002213
:1014A000434BDA5502E00122414BDA55013704364D
:1014B000102ECDD100223F4B1A7001253E4EDFF891
:1014C0001C81314F05EB080313F8013C06F8043B7F
:1014D00013F0080F2DD000F0C1FA48B1A90007EBB6
:1014E000451200F108035360344A47F8312007E001
:1014F000AB00002247F833202E4B1A7801321A70C5
:1015000000F0ACFA58B1AB0043F0010307EBC301A4
:1015100000F108024A601E4A47F8332009E0AB0098
:1015200043F00103002247F83320224B1A7801329E
:101530001A70AA0042F00201002347F8313042F04D
:10154000030247F8323001351D4B9E42BAD116E2F4
:101550000A4B1B781B4D2B700127A6E0194D002369
:101560002B706B700227A0E0084B9B88042B37D9A7
:101570000F22154B1A70BDE0802007400CA5FF1FFD
:1015800095A4FF1F0EA5FF1F0080FF1FF8A4FF1FDB
:10159000C80040002CA4FF1F0DA5FF1F7C460000C3
:1015A00084A4FF1F30A4FF1FD8A4FF1FE8A4FF1FBF
:1015B00040A4FF1F02A5FF1FC42007408800400071
:1015C000D420074004A5FF1FC020074090200740FB
:1015D000942007409820074012A7FF1F784600007C
:1015E0009E4A0021117051709D4A12F8233013F069
:1015F000020F58D0994D01232B70022755E0994BCB
:101600009B8803F07F03042B02DC964A52881AB1B0
:101610000F22934B1A706DE0914A12F8231021F0BB
:10162000020102F82310AAE18E4B9B8803F07F038E
:10163000042B02DC8B4A52881AB10F22884B1A7095
:1016400058E0874A12F8231041F0020102F82310F3
:1016500095E1844B5E889F88834BA3F10C02114671
:1016600033F80C0CB04209D133F80A0CB84205D15A
:10167000360A032E0CBF2F78178916E00D690C333C
:101680000C32002DEBD10F22754B1A7032E0754BE6
:101690009A78764B1A7072E10F22714B1A7029E01A
:1016A00000273D4601E002276C4D6E4BDB889F42D0
:1016B00028BF1F46402F34BF3E46402628463146AD
:1016C000FFF72CFD3544BF1B03D13F2E00F25C8198
:1016D00010E0402F34BF3E46402628463146FFF7F3
:1016E0001DFD3544BF1B01D13F2E03D9604B1D604A
:1016F000604B1F8001238AF8003042E0594B198863
:1017000042F22103994212D15B4BD81D12F8011B02
:1017100003F8011F8342F9D1584B1B68862B02D175
:101720000F22574B1A7000200146FFF7F7FC554B6C
:1017300045F8363025E04E4B1E68BEB14D4FB7F828
:101740000080B8F1400F34BF454640253046294659
:10175000FFF7E4FCC5EB08039BB23B800BB9402DBF
:1017600001D1354400E00025414B1D603D4B1B88F5
:10177000B3F5A06F05D13B4B00225A709B788BF8D4
:10178000003001238AF80030B5E03F4E9F0806EB99
:10179000C708D8F80420A2F10800013DEDB213F00B
:1017A000080F47D000F07AF9384B53F825304BB387
:1017B0005A68364941F8252003F10802C8F8042088
:1017C000334A525D032A12D8DFE802F002060A0EFD
:1017D00003212F4A51550AE002212D4A515506E0B6
:1017E00005212B4A515502E00421294A515518F090
:1017F000080F0CBF8822C8221B8842EA034346F820
:10180000373078E0224B5B5D032B0BD8DFE803F029
:101810007373020600221E4B5A556CE001221C4BCA
:101820005A5568E018F0080F0CBF02220322184B2B
:101830005A5560E056F837301B0C22F8083C002B54
:1018400051D0002322F8063C42F8043C114B53F8D7
:1018500025300BBB0F4B43F8250021E004A5FF1FEB
:10186000C0200740F8A4FF1F884600001CA5FF1FEA
:101870002CA4FF1F00A5FF1F1BA7FF1F1CA7FF1FF6
:1018800095A4FF1FC80040000080FF1FD8A4FF1FC1
:1018900040A4FF1F84A4FF1F3F4B53F8253058601E
:1018A0003D4B43F825003D4B33F8151032F8082C1A
:1018B0000A4423F8152000F0D1F860B100F10803C4
:1018C000C8F8043018F0080F354B364A08BF1346E5
:1018D00046F837300FE0002346F83730324B1A789D
:1018E00001321A7007E018F0080F2D4B2D4A08BF7F
:1018F000134646F8373008232370FCE415F0010F37
:1019000022D02A4902230B700022294B1A70294B3E
:1019100024481860284C5C6098602848D8601A6198
:101920009A610D20264B1870FF2326480370083853
:10193000037018300270244A13709F22234B1A70D0
:1019400001230B70BDE8F88F15F0800F05D00D2234
:101950001B4B1A708022403B1A7015F0020F06D004
:10196000184B1A78D2B21A700222083B1A7015F07E
:10197000100F0ED01022164B1A70BDE8F88F002001
:101980000146FFF7CBFBB5E628460021FFF7C6FB73
:10199000B0E6BDE8F88F00BF30A4FF1F14A7FF1FFB
:1019A000C80040008800400002A5FF1F94200740A7
:1019B00094A4FF1F0080FF1F44A4FF1F98A4FF1FD3
:1019C000C0200740882007408C2007408420074023
:1019D0008020074008B501F0B5FB00231B491A46DB
:1019E0005A50C81842600833882BF9D1184B1A682E
:1019F00042F480221A60154BC3F30721154A117077
:101A0000C3F30741143211701B0E04321370FF230D
:101A1000343A137008321370783A13700123843209
:101A2000137000216C3211707C3A137070220A4BD3
:101A30001A704FF40072A3F241331A60102203F1BE
:101A4000C04303F5C8231A7008BD00BF0080FF1F04
:101A5000348004409C20074049E400E072B60D4BFE
:101A60001A68B2FA82F30B2B02D962B600207047D3
:101A70004FF00041D94022EA010206490A6062B6ED
:101A8000054903EBC303DB00C8180022CA504260BB
:101A9000704700BF7091FF1F008EFF1F08B50F4BEE
:101AA000C31A0F4AA2FB03131B090B2B14D80D4AB0
:101AB00012783AB10C4A127812F0FF0F02D0FFF7F9
:101AC00085FB08BD72B6094A4FF0004121FA03F3C5
:101AD00011681943116062B608BD00BF008EFF1F78
:101AE000398EE33802A5FF1F0CA5FF1F7091FF1F61
:101AF00010B5134B1B6853B9124B1B7813F0FF0F33
:101B000018D00320FFF72EFB0D4B1860A8B10C4B2B
:101B1000186843885A1C03441C7A03889A4206D3E7
:101B2000FFF7BCFF0022064B1A60204610BD428022
:101B3000204610BD4FF0FF3010BD4FF0FF3010BDFC
:101B400018A5FF1F0CA5FF1F08B50D4B1B6883B917
:101B50000C4B1B7813F0FF0F08D00320FFF702FB9C
:101B6000074B186028B94FF0FF3008BD4FF0FF3029
:101B700008BD034B1B685A881344187A08BD00BF80
:101B800018A5FF1F0CA5FF1F044B9888044B1B686A
:101B90001BB11A885B88D31A1844704714A7FF1F1B
:101BA00018A5FF1F2DE9F04780460F4600293BD0BE
:101BB000214B1B7813F0FF0F39D04FF000091F4E57
:101BC000DFF874A004E09AF8003013F0FF0F30D073
:101BD000336853B903242046FFF7C4FA306040B39A
:101BE000038813B9FFF75AFFF5E734686188258841
:101BF0006D1AAF4238BF3D460831404621442A465F
:101C0000FEF70EFFA844A9447F1B63881D44ADB2B4
:101C100065802388AB4204D82046FFF73FFF0023AE
:101C20003360002FCFD104E04FF0000901E04FF006
:101C300000094846BDE8F0870CA5FF1F18A5FF1F47
:101C40002DE9F04704460122374B1A700E46002951
:101C500064D0DFF8E080DFF8E0909A46334FD8F8A0
:101C6000003083BB99F8003013F0FF0F06D100223B
:101C70002D4B1A704FF0FF30BDE8F0874AF2F9257E
:101C80000420FFF78DFA07280AD801238AF80030CC
:101C9000FFF7E4FEC8F80000A8B900238AF8003076
:101CA000013D01D03B7833B10122204B1A704FF037
:101CB000FF30BDE8F08700F061F999F8003013F0CB
:101CC000FF0FDDD1D3E700233B70D8F800104A881E
:101CD000C2F14005AE4238BF354602F108030B445D
:101CE0002A444A80761B3DB1254414F8012B03F8A1
:101CF000012BAC42F9D100E025464B883F2B07D998
:101D000040230B800420FFF7A5FA0023C8F8003019
:101D10000522074B1A700EB12C46A0E70020024B9B
:101D20001870BDE8F08700BF0FA5FF1F14A5FF1FA7
:101D30000EA5FF1F10A5FF1F0CA5FF1F00B583B048
:101D400002AB03F8010D18460121FFF779FF03B03C
:101D50005DF804FB10B5144B1B7813F0FF0F21D076
:101D60000122124B1A70124B196851B10024114B09
:101D70001C704B880B800420FFF76CFA0C4B1C6026
:101D80000DE0FFF76BFE014630B10022094B1A70DF
:101D90000420FFF75FFA02E00122064B1A700022CE
:101DA000024B1A7010BD00BF0CA5FF1F0FA5FF1F2F
:101DB00010A5FF1F0EA5FF1F08B50E4B1B7813F0D3
:101DC000FF0F16D10C4B196841B14B880B800420D2
:101DD000FFF740FA0022084B1A6008BDFFF73EFEED
:101DE000014618B10420FFF735FA08BD0122034B64
:101DF0001A7008BD0FA5FF1F10A5FF1F0EA5FF1F1E
:101E000030B472B699B902688AB103790F2B0ED833
:101E100027490988194111F0010F08D003F1007317
:101E200003F59063B2EB431F01D162B63EE0204B55
:101E30001D882946002341FA03F212F0010F2DD12B
:101E4000012202FA03F42543194A158062B6DAB278
:101E5000027118490C6844F002040C6004390C68E3
:101E600044F002040C60822413490C601A310A7099
:101E700004310A7006390A7007310A7003F10073E1
:101E800003F590635B01036000221A605A609A6058
:101E9000DA601A615A619A61DA6107E00133102B46
:101EA000C9D162B6002303601023037130BC7047B0
:101EB0001EA5FF1F408004400080004003790F2BC7
:101EC00010D8094A137072B6084B0279012101FA41
:101ED00002F2198821EA02021A8062B61023037105
:101EE00000230360704700BF1A8000401EA5FF1F3B
:101EF00000B583B0054B1B88ADF8043003685B6800
:101F000001A90222984703B05DF804FB5446000083
:101F10008160704708B5FEF7A5FAFEF7B9FA00F040
:101F20002DF8FAE708B5FFF72FFE08BD08B5FFF753
:101F3000DFFD08BD08B5FFF707FE08BD08B5FFF7D0
:101F400009FF08BD08B50846FFF7F8FE08BD00BF49
:101F500008B508461146FFF773FE08BD704700BF7D
:101F6000044B00221A714FF47A7199601A73024A75
:101F70001A60704720A5FF1F6046000008B50F4B90
:101F80001B78CBB901220D4B1A70FFF7FDFD08B18C
:101F9000FFF7E4FF00F0CAFA08B101F09DF900F084
:101FA000BBFD08B101F02EFA01F01CF808B101F0F8
:101FB000BFFA0022014B1A7008BD00BF30A5FF1FF9
:101FC00060223A4B1A70E12201331A70384B1B78A9
:101FD000082B10D1012203F1804303F56C331A6002
:101FE000132334490B6001F5FF2101F2FC710A60F3
:101FF000314A13601FE00A2B0DD139222F4B1A6092
:1020000013232C490B6001F5FF2101F2FC710A60DA
:10201000294A13600FE00C2B0CBF35223D22274BC1
:102020001A60122323490B6001F5FF2101F2FC71B4
:102030000A60214A1360224B1B7833B10123214AE5
:10204000136002F50022136005E000231D4A1360AF
:1020500002F5002213601C4B1B78012B06D880234D
:102060001A4A136002F5002213601AE0042B06D806
:102070008423164A136002F50022136011E0082B36
:1020800006D88523114A136002F50022136008E088
:10209000102B94BF862387230C4A136002F500227D
:1020A000136001220A4B1A70704700BF00400740BE
:1020B0007491FF1F0CB003400CB00B4008B00340FC
:1020C00032A5FF1F20B003407591FF1F24B00340CD
:1020D00031A5FF1F094B1A6842F480521A60084B61
:1020E0001B781BB18022074B1A7002E0C022054BFF
:1020F0001A7080F30C00044B188070472C80044049
:1021000032A5FF1F21C00C4000C00C4030B400239A
:10211000B0FBF2F402FB14041D46092C94BF3034CA
:102120003734E4B2CC54B0FBF2F008B10133EFE73E
:102130000D4400226A70934207DD885CCC5C8C54AD
:10214000C8540132013B9A42F7DB084630BC704765
:10215000194B1A6842F480621A600023174A137000
:10216000174A1370174A1370174A1370174A1370DF
:1021700040F21332164B1A604FF4517204331A6056
:10218000C0F34432134B1A70C0F347125A7000F078
:102190001F00987204229A700221D9745A758822FD
:1021A0001A743C22DA7040220B4B1A704FF4005222
:1021B000A3F229331A60704734800440BCA5FF1F86
:1021C00039A5FF1FC4A5FF1FBDA5FF1F38A5FF1F11
:1021D00040A0044000A006402DE400E0164B9B7890
:1021E00003F0EC0300F00302134310F0040F18BFD8
:1021F00043F01003104A937000F00F03042B04D136
:102200001346927942F040029A710B4B5A7902F0D0
:10221000EF0210F0100F18BF42F01002064B5A7177
:102220009B7903F0EF0310F0200F18BF43F0100369
:10223000014A9371704700BF00A0064010B5144BCF
:102240001B6813F4806F21D0124B1B7813F0FF0F23
:1022500006D0104CFFF792FE237813F0FF0FF9D150
:102260004FF400520C4B1A6000230C4AD37040F21A
:1022700003120B490A6004310A600A4A13700A4AC1
:1022800013700A4B1B680BB101221A7010BD00BFFE
:102290003480044038A5FF1F84E100E000A0064020
:1022A00040A00440BCA5FF1F39A5FF1F34A5FF1F98
:1022B00010B50446094A137813F0FF0FFBD12046EE
:1022C0000121FEF781FD20460021FEF759FD044B58
:1022D00053F83420034B1A6010BD00BF38A5FF1F10
:1022E00044450000C0A5FF1F10B50D4B1B6813F43B
:1022F000806F12D021280CD80A4C0B4B53F8303089
:1023000023600121FEF760FD236800221A7001207E
:1023100010BD0020034B186010BD002010BD00BF91
:102320003480044034A5FF1F44450000114B1B6856
:1023300013F4806F1BD0122804D140F202320E4BEE
:102340001A600DE0142804D140F202320B4B1A60DF
:1023500006E00B4B5A7B02F0FE025A7300207047D6
:10236000074B5A7B42F001025A730120704700204C
:10237000704700BF348004400CA0044014C00440E7
:1023800000A006402DE9F04107461F4B1B6813F4DF
:10239000806F37D01D4B1B680BB101221A701C4B8C
:1023A0001C780134402C28BF00241A4D1A4EDFF847
:1023B0006C8017E0FEF708FC40280FDC337913F03F
:1023C000800F0FD02B780133402B28BF002318F843
:1023D0000320D2B2F271DBB22B7003E0FF2801DDE3
:1023E000FFF7CCFD2B78DBB29C42E3D0FFB20B4B66
:1023F0001F5501220A4B1A70E4B2054B1C70BC2217
:10240000054BDA70BDE8F08134800440C0A5FF1FA1
:10241000C4A5FF1FBDA5FF1F00A006403CA5FF1FD0
:1024200038A5FF1F2DE9F84F0746284B1B6813F40A
:10243000806F49D0264B1B680BB101221A7007EB45
:10244000010B5F453DD2DFF89890224EDFF88C807B
:10245000DFF890A099F800400134402C28BF0024F8
:102460003578EDB2A54220D1BC2388F80330FEF7C1
:10247000ABFB402811DC98F8043013F0800F10D02B
:1024800033780133402B28BF00231AF80320D2B23F
:1024900088F80720DBB2337003E0FF2801DDFFF787
:1024A0006DFD3378DBB29D42E1D017F8013B0AF8AD
:1024B00004300122084B1A70E4B289F800405F45ED
:1024C000C8D1BC22054BDA70BDE8F88F34800440D7
:1024D000C0A5FF1FBDA5FF1F38A5FF1F00A0064018
:1024E000C4A5FF1F3CA5FF1F10B5064B1B7813F0BA
:1024F000FF0F06D0034CFFF741FD237813F0FF0FC9
:10250000F9D110BD38A5FF1F064B1B78DBB2064A78
:102510001278D2B293422CBF3F3202F1FF32D01A6E
:10252000704700BFC4A5FF1FBDA5FF1F054B18784E
:10253000C0B2054B1B78DBB2984238BF4030C01A9E
:10254000704700BFBCA5FF1F39A5FF1F10B4184B73
:102550001A78D2B2174B1B78DBB29A4218D00133EB
:102560003F2B18D81449C85CC0B2DCB211490C70BA
:1025700012490968C9B19A4203D300E00023D31A73
:1025800001E04032D31A1A2B0FDC00230B700CE051
:102590004FF0FF3009E0084B1878C0B20021054B1E
:1025A0001970064B19680029E8D15DF8044B704793
:1025B000BCA5FF1F39A5FF1F7CA5FF1F34A5FF1F6A
:1025C000094B1A78D2B2094B1B78DBB29A4207D07A
:1025D0000133402B28BF0023054AD05CC0B27047AE
:1025E0004FF0FF30704700BFBCA5FF1F39A5FF1F8C
:1025F0007CA5FF1F0D4B1B6813F4806F14D00C4B90
:10260000DA7802F0CB02DA7040225A74DA7842F0BB
:102610003402DA70074B1A78D2B2074B1A70074BA4
:102620001B680BB100221A70704700BF3480044051
:1026300000A0064039A5FF1FBCA5FF1F34A5FF1F42
:1026400070B43D4B1B7913F0300F33D072B63A4B58
:102650009B7D03F0FF022BB9374BDA7940225A7485
:1026600062B627E062B6354B1978C9B2344B1C7894
:10267000E4B2314D334EEB79D8B24B1C402B28BF1E
:102680000023A3421CBFF0541946531E13F0FF024F
:10269000F1D1CAB2294B1A702B4B1B6853B1A1421E
:1026A0002EBFC4EB0101C4F1400409192729C4BF9E
:1026B00001221A70204BDA78D2B212F0800F27D0A4
:1026C0001B7913F0800F23D0204B1C78E4B2204BF1
:1026D0001B78DBB29C4210D017491E4D01E0A3428B
:1026E0000BD00133402B28BF00230879E85CC0B22F
:1026F000C871087DC0B20728F1D9DBB214490B704C
:102700000D4B1B7913F0800F02D07C210A4BD9703E
:1027100012F0400F0ED0084B1B7913F0400F09D078
:1027200000220D4B1A700D4B1B6803B11A703C222E
:10273000014BDA7070BC704700A00640BCA5FF1FBB
:1027400039A5FF1F7CA5FF1F34A5FF1FC4A5FF1FD0
:10275000BDA5FF1F3CA5FF1F38A5FF1FC0A5FF1F7C
:10276000194B1A6842F400621A600023174A13706A
:10277000174A1370174A1370174A1370174A1370C9
:1027800040F21332164B1A604FF4517204331A6040
:10279000C0F34432134B1A70C0F347125A7000F062
:1027A0001F00987204229A700221D9745A758822E7
:1027B0001A743C22DA7040220B4B1A704FF400421C
:1027C000A3F22B331A6070473480044030A6FF1FF9
:1027D000C6A5FF1F38A6FF1F31A6FF1FC5A5FF1FF7
:1027E0000CB0044000B006402FE400E0164B9B788C
:1027F00003F0EC0300F00302134310F0040F18BFC2
:1028000043F01003104A937000F00F03042B04D11F
:102810001346927942F040029A710B4B5A7902F0BA
:10282000EF0210F0100F18BF42F01002064B5A7161
:102830009B7903F0EF0310F0200F18BF43F0100353
:10284000014A9371704700BF00B0064010B5114BAC
:102850001B6813F4006F1CD00F4B1B7813F0FF0F95
:1028600006D00D4CFFF78AFB237813F0FF0FF9D148
:102870004FF40042094B1A600023094AD37040F21A
:10288000031208490A6004310A60074A1370074AB4
:10289000137010BD34800440C5A5FF1F84E100E023
:1028A00000B006400CB0044030A6FF1FC6A5FF1FB5
:1028B00010B50446094A137813F0FF0FFBD12046E8
:1028C0000121FEF781FA20460021FEF759FA044B58
:1028D00053F83420034B1A6010BD00BFC5A5FF1F7D
:1028E0004445000034A6FF1F0D4B1B6813F4006F16
:1028F00013D016280AD14FF440720A4B1A600A4BC3
:102900005A7B42F008025A7301207047064B5A7BEB
:1029100002F0F7025A73002070470020704700BF92
:102920003480044004B0044000B006400D4B1B68E6
:1029300013F4006F13D017280AD14FF440720A4BDA
:102940001A600A4B5A7B42F001025A730120704709
:10295000064B5A7B02F0FE025A730020704700209B
:10296000704700BF3480044008B0044000B0064007
:102970002DE9F04107461F4B1B6813F4006F37D059
:102980001D4B1B680BB101221A701C4B1C780134C3
:10299000282C28BF00241A4D1A4EDFF86C8017E04F
:1029A000FEF712F940280FDC337913F0800F0FD0B7
:1029B0002B780133282B28BF002318F80320D2B22C
:1029C000F271DBB22B7003E0FF2801DDFFF7D6FACE
:1029D0002B78DBB29C42E3D0FFB20B4B1F55012298
:1029E0000A4B1A70E4B2054B1C70BC22054BDA701E
:1029F000BDE8F0813480044034A6FF1F38A6FF1FD5
:102A000031A6FF1F00B00640C8A5FF1FC5A5FF1FC8
:102A10002DE9F84F0746284B1B6813F4006F49D087
:102A2000264B1B680BB101221A7007EB010B5F45A7
:102A30003DD2DFF89890224EDFF88C80DFF890A02E
:102A400099F800400134282C28BF00243578EDB2D5
:102A5000A54220D1BC2388F80330FEF7B5F8402802
:102A600011DC98F8043013F0800F10D03378013364
:102A7000282B28BF00231AF80320D2B288F8072099
:102A8000DBB2337003E0FF2801DDFFF777FA33781C
:102A9000DBB29D42E1D017F8013B0AF80430012275
:102AA000084B1A70E4B289F800405F45C8D1BC22D7
:102AB000054BDA70BDE8F88F3480044034A6FF1F60
:102AC00031A6FF1FC5A5FF1F00B0064038A6FF1F97
:102AD000C8A5FF1F10B5064B1B7813F0FF0F06D0DB
:102AE000034CFFF74BFA237813F0FF0FF9D110BD19
:102AF000C5A5FF1F064B1B78DBB2064A1278D2B27F
:102B000093422CBF273202F1FF32D01A704700BF28
:102B100038A6FF1F31A6FF1F054B1878C0B2054B22
:102B20001B78DBB2984238BF4030C01A704700BFF4
:102B300030A6FF1FC6A5FF1F0A4B1A78D2B20A4B58
:102B40001B78DBB29A4209D00133402B28BF002307
:102B5000064AD05CDBB2044A137070474FF0FF3076
:102B6000704700BF30A6FF1FC6A5FF1FF0A5FF1FBF
:102B7000094B1A78D2B2094B1B78DBB29A4207D0C4
:102B80000133402B28BF0023054AD05CC0B27047F8
:102B90004FF0FF30704700BF30A6FF1FC6A5FF1FD4
:102BA000F0A5FF1F0A4B1B6813F4006F0FD0094BF1
:102BB000DA7802F0CB02DA7040225A74DA7842F006
:102BC0003402DA70044B1A78D2B2044B1A70704790
:102BD0003480044000B00640C6A5FF1F30A6FF1F8A
:102BE00070B4364B1B7913F0300F25D072B6334BCF
:102BF0009B7D03F0FF022BB9304BDA7940225A74E7
:102C000062B619E062B62E4B1978C9B22D4B1D7809
:102C1000EDB22A4C2C4EE379D8B24B1C402B28BF86
:102C20000023AB421CBFF0541946531E13F0FF02A1
:102C3000F1D1C9B2224B1970204BDA78D2B212F01E
:102C4000800F27D01B7913F0800F23D01F4B1C78E7
:102C5000E4B21F4B1B78DBB29C4210D017491D4DCC
:102C600001E0A3420BD00133282B28BF00230879B1
:102C7000E85CC0B2C871087DC0B20728F1D9DBB2E8
:102C800013490B700D4B1B7913F0800F02D07C2180
:102C90000A4BD97012F0400F0ED0084B1B7913F07D
:102CA000400F09D000220C4B1A700C4B1B6803B16B
:102CB0001A703C22014BDA7070BC704700B00640BD
:102CC00030A6FF1FC6A5FF1FF0A5FF1F38A6FF1FD8
:102CD00031A6FF1FC8A5FF1FC5A5FF1F34A6FF1FF4
:102CE000174B1A6842F480521A600023154A137079
:102CF000154A1370154A1370154A1370154A13704C
:102D000040F21331144A11604FF4517104321160D2
:102D1000C0F34431114A1170C0F34711517000F0F3
:102D20001F009072937013742C23D37040220C4BAD
:102D30001A704FF40032A3F22D331A60704700BFAF
:102D400034800440A4A6FF1F3AA6FF1FACA6FF1FB5
:102D5000A5A6FF1F39A6FF1F08C0044000C00640FB
:102D600031E400E0164B9B7803F0EC0300F0030223
:102D7000134310F0040F18BF43F01003104A937070
:102D800000F00F03042B04D11346927942F0400265
:102D90009A710B4B5A7902F0EF0210F0100F18BF26
:102DA00042F01002064B5A719B7903F0EF0310F0CA
:102DB000200F18BF43F01003014A9371704700BF02
:102DC00000C0064010B5114B1B6813F4805F1CD087
:102DD0000F4B1B7813F0FF0F06D00D4CFFF7CEF80A
:102DE000237813F0FF0FF9D14FF40032094B1A602A
:102DF0000023094AD37040F2031208490A600431E3
:102E00000A60074A1370074A137010BD34800440EB
:102E100039A6FF1F84E100E000C0064008C004405E
:102E2000A4A6FF1F3AA6FF1F10B50446094A13784F
:102E300013F0FF0FFBD120460121FDF7C5FF20460F
:102E40000021FDF79DFF044B53F83420034B1A601B
:102E500010BD00BF39A6FF1F44450000A8A6FF1FF4
:102E60000D4B1B6813F4805F14D002280BD14FF474
:102E700040720A4B1A6003F500335A7B42F0080295
:102E80005A7301207047064B5A7B02F0F7025A73BF
:102E900000207047002070473480044000C0044088
:102EA00000C006400D4B1B6813F4805F13D00E2842
:102EB0000AD14FF440720A4B1A600A4B5A7B42F017
:102EC00001025A7301207047064B5A7B02F0FE0242
:102ED0005A73002070470020704700BF34800440C0
:102EE00004C0044000C006402DE9F04107461F4BD6
:102EF0001B6813F4805F37D01D4B1B680BB1012298
:102F00001A701C4B1C780134282C28BF00241A4D41
:102F10001A4EDFF86C8017E0FDF756FE40280FDCF4
:102F2000337913F0800F0FD02B780133282B28BF73
:102F3000002318F80320D2B2F271DBB22B7003E049
:102F4000FF2801DDFFF71AF82B78DBB29C42E3D0B3
:102F5000FFB20B4B1F5501220A4B1A70E4B2054B0E
:102F60001C70AC22054BDA70BDE8F081348004405F
:102F7000A8A6FF1FACA6FF1FA5A6FF1F00C0064006
:102F80003CA6FF1F39A6FF1F38B505460C4629B1E0
:102F900015F8010BFFF7A8FF013CF9D138BD00BFC0
:102FA00010B5064B1B7813F0FF0F06D0034CFEF74D
:102FB000E5FF237813F0FF0FF9D110BD39A6FF1FED
:102FC000064B1B78DBB2064A1278D2B293422CBF72
:102FD000273202F1FF32D01A704700BFACA6FF1FA4
:102FE000A5A6FF1F054B1878C0B2054B1B78DBB2B6
:102FF000984238BF4030C01A704700BFA4A6FF1FD8
:103000003AA6FF1F0A4B1A78D2B20A4B1B78DBB2E2
:103010009A4209D00133402B28BF0023064AD05CD6
:10302000DBB2044A137070474FF0FF30704700BFA7
:10303000A4A6FF1F3AA6FF1F64A6FF1F094B1A781C
:10304000D2B2094B1B78DBB29A4207D00133402B36
:1030500028BF0023054AD05CC0B270474FF0FF3054
:10306000704700BFA4A6FF1F3AA6FF1F64A6FF1F5C
:10307000024B1A78D2B2024B1A7070473AA6FF1F61
:10308000A4A6FF1F264B1B7913F0200F12D0244B50
:10309000DB79D9B2234B1B780133402B28BF0023A7
:1030A000214A1278D2B29A4204D0204AD154DBB2DB
:1030B0001C4A13701A4BDB78DBB213F0800F1CD064
:1030C000174A127912F0800F17D0194A1178C9B235
:1030D000184A1278D2B2914203D16C21104AD170B1
:1030E0000BE00132282A28BF00221349885CC0B2B5
:1030F0000B49C871D2B20F490A7013F0400F0ED0BD
:10310000074B1B7913F0400F09D000220B4B1A70AC
:103110000B4B1B6803B11A702C22014BDA707047FD
:1031200000C00640A4A6FF1F3AA6FF1F64A6FF1F0B
:10313000ACA6FF1FA5A6FF1F3CA6FF1F39A6FF1FB9
:10314000A8A6FF1F00B585B072B61B4B70221A707F
:1031500041211A4A11700F21013A117080221A7010
:103160001A46137813F0800FFBD0154B186862B61F
:10317000144B98429CBF00EB8000400001A90A223A
:10318000FEF7C4FF9DF804307BB908E001A9595C43
:1031900031B19180023201330A2BF7D100E00023D4
:1031A00001335B00084A137003E0074A5380012390
:1031B000ECE705B05DF804FB0000024007000240A8
:1031C000080002407F9698000492FF1F08B503682C
:1031D0001B68C9B2984708BD08B503681B68C9B227
:1031E000984708BD08B503681B68C9B2984708BD71
:1031F00008B503681B68C9B2984708BD08B54B08F5
:1032000003F1376000F5D830B0FBF1F0FEF7A0FF16
:1032100008BD00BF10B514464B0803F1376000F538
:10322000D830B0FBF1F0FEF793FF2046FEF7D6FF53
:1032300010BD00BF08B5FFF701F808BD08B5084686
:10324000FFF736F808BD00BF08B50846FFF74CF891
:10325000003018BF012008BD08B50846FFF766F822
:10326000003018BF012008BD08B5FFF75FF908BDA1
:1032700008B5FFF7A5F908BD08B5FFF767F908BD60
:1032800008B5FFF731F908BD08B5FFF7B3F908BD78
:1032900008B5FFF739F908BD08B50846FFF772F819
:1032A000012008BD08B50846FFF76CF8012008BDED
:1032B00010B5144608461146FFF7B4F8204610BD75
:1032C00038B50D46084600F073FF044628462146EF
:1032D000FFF7A8F8204638BD704700BF044B002216
:1032E0001A714FF47A7199601A73024A1A60704722
:1032F000B0A6FF1FD846000008B503681B68C9B216
:10330000984708BD08B503681B68C9B2984708BD4F
:1033100008B503681B68C9B2984708BD08B50368BB
:103320001B68C9B2984708BD08B54B0803F1376060
:1033300000F5D830B0FBF1F0FFF712FA08BD00BF7E
:1033400010B514464B0803F1376000F5D830B0FBD8
:10335000F1F0FFF705FA2046FFF748FA10BD00BF6D
:1033600008B5FFF773FA08BD08B50846FFF7A0FADD
:1033700008BD00BF08B50846FFF7B6FA003018BF11
:10338000012008BD08B50846FFF7D0FA003018BF85
:10339000012008BD08B5FFF7BFFB08BD08B5FFF762
:1033A000E7FB08BD08B5FFF7C7FB08BD08B5FFF789
:1033B00091FB08BD08B5FFF7F5FB08BD08B5FFF7A1
:1033C00099FB08BD08B50846FFF7D2FA012008BDF1
:1033D00008B50846FFF7CCFA012008BD10B5144621
:1033E00008461146FFF714FB204610BD38B50D46C0
:1033F000084600F0DDFE044628462146FFF708FB9C
:10340000204638BD704700BF044B00221A714FF4AC
:103410007A7199601A73024A1A607047C0A6FF1F3A
:103420003047000008B503681B68C9B2984708BD5B
:1034300008B503681B68C9B2984708BD08B503689A
:103440001B68C9B2984708BD08B503681B68C9B2B4
:10345000984708BD08B54B0803F1B76000F5584020
:10346000B0FBF1F0FFF73CFC08BD00BF10B51446FF
:103470004B0803F1B76000F55840B0FBF1F0FFF7DF
:103480002FFC2046FFF76EFC10BD00BF08B5FFF70C
:1034900099FC08BD08B50846FFF7C6FC08BD00BF8B
:1034A00008B50846FFF7DCFC003018BF012008BD56
:1034B00008B50846FFF7F6FC003018BF012008BD2C
:1034C00008B5FFF78FFD08BD08B5FFF7B7FD08BDCC
:1034D00008B5FFF797FD08BD08B5FFF761FD08BD0A
:1034E00008B5FFF7C5FD08BD08B5FFF769FD08BDC4
:1034F00008B50846FFF7F8FC012008BD08B50846E6
:10350000FFF7F2FC012008BD10B51446084611462D
:10351000FFF73AFD204610BD38B50D46084600F0CD
:1035200047FE044628462146FFF72EFD204638BDBB
:10353000704700BF044B00221A714FF47A719960F2
:103540001A73024A1A607047D0A6FF1F884700000E
:1035500080F0004002E000BF81F0004142001FBF48
:103560005FEA410392EA030F7FEA226C7FEA236C51
:103570006AD04FEA1262D2EB1363C1BFD218414046
:1035800048404140B8BF5B42192B88BF704710F0DC
:10359000004F40F4000020F07F4018BF404211F07F
:1035A000004F41F4000121F07F4118BF494292EAE7
:1035B000030F3FD0A2F1010241FA03FC10EB0C0013
:1035C000C3F1200301FA03F100F0004302D54942A0
:1035D00060EB4000B0F5000F13D3B0F1807F06D34D
:1035E00040084FEA310102F10102FE2A51D2B1F145
:1035F000004F40EBC25008BF20F0010040EA03003A
:103600007047490040EB000010F4000FA2F10102E6
:10361000EDD1B0FA80FCACF1080CB2EB0C0200FA70
:103620000CF0AABF00EBC25052421843BCBFD040BE
:103630001843704792F0000F81F4000106BF80F438
:1036400000000132013BB5E74FEA41037FEA226CFB
:1036500018BF7FEA236C21D092EA030F04D092F0C6
:10366000000F08BF0846704790EA010F1CBF0020FA
:10367000704712F07F4F04D1400028BF40F0004057
:10368000704712F100723CBF00F50000704700F077
:10369000004343F0FE4040F4000070477FEA22629E
:1036A00016BF08467FEA23630146420206BF5FEA6F
:1036B000412390EA010F40F4800070474FF000036F
:1036C00004E000BF10F0004348BF40425FEA000C36
:1036D00008BF704743F0964301464FF000001CE0DE
:1036E00050EA010208BF70474FF000030AE000BF34
:1036F00050EA010208BF704711F0004302D5404272
:1037000061EB41015FEA010C02BF844601460020E3
:1037100043F0B64308BFA3F18053A3F50003BCFAFE
:103720008CF2083AA3EBC25310DB01FA02FC6344AB
:1037300000FA02FCC2F12002BCF1004F20FA02F2B2
:1037400043EB020008BF20F00100704702F12002A5
:1037500001FA02FCC2F1200250EA4C0021FA02F206
:1037600043EB020008BF20EADC7070474FF0FF0C0B
:103770001CEAD0521EBF1CEAD15392EA0C0F93EA06
:103780000C0F6FD01A4480EA010C400218BF5FEAA8
:1037900041211ED04FF0006343EA501043EA51111B
:1037A000A0FB01310CF00040B1F5000F3EBF490015
:1037B00041EAD3715B0040EA010062F17F02FD2A19
:1037C0001DD8B3F1004F40EBC25008BF20F00100FC
:1037D000704790F0000F0CF0004C08BF49024CEA13
:1037E000502040EA51207F3AC2BFD2F1FF0340EAA5
:1037F000C250704740F400004FF00003013A5DDC16
:1038000012F1190FDCBF00F000407047C2F1000256
:10381000410021FA02F1C2F1200200FA02FC5FEA43
:10382000310040F1000053EA4C0308BF20EADC708D
:10383000704792F0000F00F0004C02BF400010F4FF
:10384000000F013AF9D040EA0C0093F0000F01F0AC
:10385000004C02BF490011F4000F013BF9D041EACE
:103860000C018FE70CEAD15392EA0C0F18BF93EAD0
:103870000C0F0AD030F0004C18BF31F0004CD8D1FA
:1038800080EA010000F00040704790F0000F17BF81
:1038900090F0004F084691F0000F91F0004F14D0C7
:1038A00092EA0C0F01D142020FD193EA0C0F03D11F
:1038B0004B0218BF084608D180EA010000F0004022
:1038C00040F0FE4040F40000704740F0FE4040F4FD
:1038D000400070474FF0FF0C1CEAD0521EBF1CEA9C
:1038E000D15392EA0C0F93EA0C0F69D0A2EB0302BA
:1038F00080EA010C49024FEA402037D04FF0805354
:1039000043EA111143EA10130CF000408B4238BF18
:103910005B0042F17D024FF4000C8B4224BF5B1A26
:1039200040EA0C00B3EB510F24BFA3EB510340EA74
:103930005C00B3EB910F24BFA3EB910340EA9C0022
:10394000B3EBD10F24BFA3EBD10340EADC001B0192
:1039500018BF5FEA1C1CE0D1FD2A3FF650AF8B4236
:1039600040EBC25008BF20F0010070470CF0004C43
:103970004CEA50207F32C2BFD2F1FF0340EAC2506E
:10398000704740F400004FF00003013A37E792F02F
:10399000000F00F0004C02BF400010F4000F013A8D
:1039A000F9D040EA0C0093F0000F01F0004C02BF88
:1039B000490011F4000F013BF9D041EA0C0195E7F1
:1039C0000CEAD15392EA0C0F08D142027FF47DAF8A
:1039D00093EA0C0F7FF470AF084676E793EA0C0F7A
:1039E00004D14B023FF44CAF08466EE730F0004C78
:1039F00018BF31F0004CCAD130F000427FF45CAF08
:103A000031F000437FF43CAF5FE700BF4FF0FF3C75
:103A100006E000BF4FF0010C02E000BF4FF0010CC8
:103A20004DF804CD4FEA40024FEA41037FEA226C91
:103A300018BF7FEA236C11D001B052EA530C18BFB3
:103A400090EA010F58BFB2EB030088BFC81738BF18
:103A50006FEAE17018BF40F0010070477FEA226C06
:103A600002D15FEA402C05D17FEA236CE4D15FEA02
:103A7000412CE1D05DF8040B704700BF8446084636
:103A80006146FFE70FB5FFF7C9FF002848BF10F1F7
:103A9000000F0FBD4DF808EDFFF7F4FF0CBF01203C
:103AA00000205DF808FB00BF4DF808EDFFF7EAFFC6
:103AB00034BF012000205DF808FB00BF4DF808ED81
:103AC000FFF7E0FF94BF012000205DF808FB00BF76
:103AD0004DF808EDFFF7D2FF94BF012000205DF8FC
:103AE00008FB00BF4DF808EDFFF7C8FF34BF012009
:103AF00000205DF808FB00BF42000ED2B2F1FE4F7D
:103B00000BD34FF09E03B3EB126209D44FEA0023AC
:103B100043F0004323FA02F070474FF00000704773
:103B200012F1610F01D1420202D14FF0FF30704714
:103B30004FF00000704700BF03460846194600F0EA
:103B400001B800BF10B40C461346014622460220BD
:103B50005DF8044B00F05CBB70B50F4E0F4D761B4B
:103B6000B61007D0043D0024013455F8043F9847AF
:103B7000A642F9D10A4E0B4D761B00F031FEB6106D
:103B800008D0043D0024013455F8043F9847A6426C
:103B9000F9D170BD70BD00BFEC470000EC470000DC
:103BA0000C480000EC470000024B0146186800F08A
:103BB00003B800BF4896FF1F2DE9F04F01F10B0538
:103BC000162D83B0064627D935F0070527D4A9421C
:103BD00025D8304600F0D6FAB5F5FC7F26D2C14F85
:103BE0004FEAD50C07EBCC03DC689C4200F0D28195
:103BF0006368E268A16823F00303234430465D68EC
:103C0000CA6045F0010591605D6000F0BDFA0834BE
:103C1000204603B0BDE8F08F1025A942D9D9002471
:103C20000C232046336003B0BDE8F08F5FEA552CCB
:103C300000F08A80BCF1040F00F260814FEA951C0D
:103C40000CF1380C4FEA4C01A64F07EB8101CC6810
:103C5000A14205D10CE0002B7ADAE468A14207D03A
:103C6000626822F00302531B0F2BF4DD0CF1FF3CC2
:103C70000CF1010C9B4B3C6903F1080E744500F0FC
:103C80007E81616821F003014A1B0F2A00F36481E1
:103C9000002AC3F814E0C3F810E06ADAB1F5007F37
:103CA00080F03A81C90803EBC1004FEAA1085A68C5
:103CB0008168A1604FF0010909FA08F848EA020298
:103CC000E0605A608460CC604FEAAC030120984009
:103CD00090425BD8024206D12CF0030C4000024215
:103CE0000CF1040CFAD007EBCC084446E146E3683B
:103CF0009C4207D145E1002A80F25681DB689C4254
:103D000000F03F81596821F003014A1B0F2AF2DDC0
:103D10001C46D3F80CC054F8088F591945F0010916
:103D200042F00105C3F804903046C8F80CC0CCF846
:103D3000088079613961C1F80CE0C1F808E04D6094
:103D40008A5000F021FA63E77E214FF03F0C7BE7B9
:103D50002244E3685068A16840F00105CB6030461A
:103D60009960556000F010FA0834204603B0BDE8B1
:103D7000F08F214430464B6843F001034B6000F064
:103D800003FA0834204603B0BDE8F08FBC686368CE
:103D900023F00309A94504D3C5EB09030F2B00F356
:103DA0009180514B514A19681368013305EB010AA0
:103DB00004EB090B00F061810AF5805A0AF10F0A41
:103DC0002AF47F6A2AF00F0A30465146019200F029
:103DD000DDF9B0F1FF3F8046019A00F00081834594
:103DE00000F2FA80DFF810C1DCF80030C34553441C
:103DF000CCF8003000F04A8112683C4901321BBF08
:103E0000CBEB080B5B44C1F80080CCF8003018F015
:103E1000070300F01381C3F10802C3F580539044F7
:103E20000833C244CAF30B0ACAEB030A51463046B0
:103E3000CDF804C000F0AAF9431CDDF804C000F07E
:103E40003581C8EB0002524442F00102DCF8003038
:103E5000C7F808805344BC42C8F80420CCF80030AE
:103E6000DFF894A015D0B9F10F0F40F2EA80616835
:103E7000A9F10C0222F0070201F0010EA1180520A1
:103E800042EA0E0E0F2AC4F804E04860886000F28F
:103E90001181174ABC6811688B4288BF1360154AAC
:103EA00011688B4288BF1360626822F0030295425A
:103EB000C5EB020301D80F2B04DC304600F064F997
:103EC0000024A5E6621943F0010345F00105656091
:103ED0003046BA60536000F057F90834204603B00A
:103EE000BDE8F08F4C96FF1FE8A6FF1F589AFF1FF2
:103EF000E4A6FF1FE0A6FF1FECA6FF1FBCF1140FF6
:103F000061D9BCF1540F00F28F804FEA153C0CF1DF
:103F10006E0C4FEA4C0197E64B0A042B58D9142B30
:103F200000F2AE8003F15B02500007EB8000DFF887
:103F3000BC818368834200F08A805A6822F00302C1
:103F4000914202D29B689842F7D1D9687A68E160C1
:103F5000A3608C60DC60B7E6611942F0010745F0B0
:103F600001056560304659611961C1F80CE0C1F87E
:103F700008E04F608A50083400F006F948E65A68B5
:103F8000A2E609F1010919F0030F04F108047FF416
:103F9000AEAE2DE004F108036469A34208BF0CF142
:103FA000020C3FF467AE23E619441C464868DB6800
:103FB00054F8082F40F001054D603046D3609A60F8
:103FC00000F0E2F824E60CF15B0C4FEA4C013BE612
:103FD0008A0938325000A8E7BC423FF403AFBC68FE
:103FE000626822F0030262E7D8F8008098457BD12E
:103FF0001CF0030FA8F108030CF1FF3CF4D17B681F
:1040000023EA00037B60400098423FF6BFAE0028E1
:104010003FF4BCAE0342CC467FF465AE40000342A1
:104020000CF1040CFAD05EE6BCF5AA7F1AD84FEA70
:10403000D53C0CF1770C4FEA4C0105E64FF4805368
:10404000EFE60123C8F80430444600222FE7911020
:104050000120D8F8042000FA01F10A43C8F804202E
:10406000194674E740F254539C451BD84FEA954CCF
:104070000CF17C0C4FEA4C01E6E50AF1100AA3E6CC
:10408000542B1FD80A0B6E3250004EE7CBF30B01B6
:1040900000297FF4B1AE0AEB0901BA6841F00101D1
:1040A0005160F6E6FC214FF07E0CCDE501224FF089
:1040B000000ACBE604F10801304600F073F9DAF8A3
:1040C0000030E6E6B3F5AA7F03D8CA0B773250007A
:1040D0002BE740F25452934203D88A0C7C325000B2
:1040E00023E7FC207E2220E77B688CE74C96FF1FAD
:1040F000F0B4840743D0541E002A3ED0CDB203460C
:1041000003E0621E002C38D0144603F8015B9A07C6
:10411000F7D1032C2AD9CDB245EA05250F2C45EA63
:10412000054515D9A4F110073F0903F1100606EB68
:1041300007161A46156055609560D5601032B24278
:10414000F8D104F00F040137032C03EB07130DD94A
:104150001E462246043A032A46F8045BFAD8221F78
:1041600022F003020432134404F003042CB1C9B258
:104170001C4403F8011BA342FBD1F0BC704714465A
:104180000346C6E7704700BF704700BF38B5074C0D
:104190000023054608462360FCF70EFD431C00D0B3
:1041A00038BD2368002BFBD02B6038BD24A7FF1F30
:1041B00020F0030110F00300C0F1000051F8043BAF
:1041C00000F1040C4FEACC0C6FF000021CBF22FA85
:1041D0000CF213434FF0010C4CEA0C2C4CEA0C4C43
:1041E000A3EB0C0222EA030212EACC1204BF51F83C
:1041F000043B0430F4D013F0FF0F1FBF013013F461
:104200007F4F013013F47F0F18BF0130704700BF9C
:10421000F0B5274C2668D6F8484185B00746002CF3
:1042200041D065681F2D1EDD224818B94FF0FF30C0
:1042300005B0F0BD4FF4C870039102920193FFF7EF
:10424000B3FC0399029A019B04460028EED0D6F8ED
:1042500048512560002060600546C6F84841C4F812
:104260008801C4F88C013FB9AB1C002001356560A2
:1042700044F8231005B0F0BD04EB85004FF0010CAD
:10428000C0F88820D4F888610CFA05F21643022F92
:10429000C4F88861C0F80831E6D1D4F88C311A43EB
:1042A000C4F88C21E0E706F5A674C6F84841B8E7E3
:1042B000DC470000A93B0000024B13B1024800F0AC
:1042C00005B8704700000000D942000001460020F8
:1042D00002460346FFF79CBF38B5094D094C641BE5
:1042E000A41018BF05EB840505D0013C55F8043D2A
:1042F0009847002CF9D1BDE8384000F087BA00BFDC
:104300000000000000000000F8B5234D0F460446F1
:10431000FFF738FFAB685E6826F00306F11B01F675
:10432000EF7121F47F6121F00F01A1F58057B7F5FE
:10433000805F07DB20460021FFF728FFAB6833448E
:10434000984204D02046FFF71FFF0020F8BD20460A
:104350007942FFF71BFF01300DD0104BAA68196896
:10436000F61B46F001062046C91B56601960FFF790
:104370000BFF0120F8BD20460021FFF707FFAB68C7
:10438000C21A0F2ADEDD064D04492D6842F00102F3
:10439000401B5A600860D5E74C96FF1FECA6FF1F34
:1043A000589AFF1F2DE9F0410D460646002955D0C9
:1043B000FFF7E8FE55F8041CDFF874C121F0010393
:1043C000A5F10804E218DCF808005768904227F0CD
:1043D000030769D011F00101576032D00021D019D4
:1043E0004068C00706D43B44906800294ED0D2688C
:1043F000C260906043F001026260E350E1B9B3F53E
:10440000007F2DD35A0A042A6AD89809383041000F
:104410000CEB810C4649DCF80820624566D05168F7
:1044200021F003018B4202D292689445F7D1D36800
:10443000E360A2609C60D4603046BDE8F041FFF7C5
:10444000A3BE55F8085C641B0CF10808A068404541
:104450002B4443D0E568C560A860C0E7BDE8F081A3
:10446000DB080CEBC3020125DCF804009168A160B5
:104470009B1005FA03F31843E260CCF80400946043
:104480003046CC60BDE8F041FFF77EBE294DA84222
:10449000ADD143F00102CCF81440CCF81040E060FC
:1044A000A0606260E350C7E71F44CB0707D455F80C
:1044B000083CE41A1F44A268E368D3609A601E4B6C
:1044C0001B6847F001029F426260CCF80840B3D3FA
:1044D0001A4B30461968FFF717FFADE701217EE759
:1044E000142A0CD802F15B00410091E74B68801060
:1044F000012505FA00F003434B60134698E7542A60
:1045000003D8180B6E30410082E7B2F5AA7F03D8BA
:10451000D80B773041007BE740F254518A4203D8F0
:10452000980C7C30410073E7FC217E2070E700BFCF
:104530004C96FF1F5496FF1F549AFF1FE8A6FF1FBB
:10454000FFFFFFFF4008FE4340A004404408FE4335
:1045500044A004400018FE4300C004403000FE4365
:10456000309004403400FE43349004401C18FE4355
:104570001CC004401018FE4310C004400818FE433D
:1045800008C004400C18FE430CC004400C10FE434D
:104590000CB004401010FE4310B004401810FE434D
:1045A00018B004401C10FE431CB004401410FE431D
:1045B00014B004400418FE4304C004400010FE433D
:1045C00000B004400008FE4300A004400408FE437D
:1045D00004A004400C08FE430CA004400808FE435D
:1045E00008A004401418FE4314C004401818FE43E9
:1045F00018C004400410FE4304B004400810FE43F9
:1046000008B004401400FE43149004404C08FE43DC
:104610004CA004400420FE4304D004402410FE4378
:1046200024B004402010FE4320B004402810FE4374
:1046300028B004402C10FE432CB004400020FE4360
:1046400000D004404808FE4348A004401000FE4348
:10465000109004400D0A000000000000000000005F
:10466000451F0000511F0000251F00002D1F0000E6
:10467000351F00003D1F0000001519150001000046
:104680007891FF1F1200000000020000A491FF1F9C
:1046900043000000000300000092FF1F0000000024
:1046A000010309048C91FF1F0000000002030904AC
:1046B000E891FF1F00000000030309040492FF1F9C
:1046C00000000000000000000000000000000000EA
:1046D000000000000000000099320000B13200002C
:1046E000693200007932000071320000813200002E
:1046F000FD31000015320000353200003D3200006F
:104700004932000059320000893200009132000025
:10471000CD310000D9310000E5310000F131000059
:10472000C1320000A53200000000000000000000BF
:10473000C5330000DD33000095330000A5330000D1
:104740009D330000AD3300002933000041330000E9
:1047500061330000693300007533000085330000C9
:10476000B5330000BD330000F9320000053300000E
:10477000113300001D330000ED330000D133000081
:104780000000000000000000F134000009350000C6
:10479000C1340000D1340000C9340000D934000015
:1047A000553400006D3400008D3400009534000055
:1047B000A1340000B1340000E1340000E93400000D
:1047C00025340000313400003D340000493400003D
:1047D00019350000FD340000430000002092FF1F47
:1047E000F8B500BFF8BC08BC9E467047B94200004F
:1047F000350400005D050000C9090000611F0000CC
:0C480000DD3200000934000035350000F6
:04480C00F8B500BF3C
:10481000000000000100000028A7FF1F08000000A2
:10482000FFFFFFFF0A040000120100020200004027
:10483000C0168304000101020301000018035400A4
:10484000650065006E007300790064007500690002
:104850006E006F0009024300020100C0320904002B
:1048600000010202010005240010010524010101DC
:1048700004240206052406000107058203100040F7
:1048800009040100020A00000007050302400000BD
:104890000705840240000000160355005300420043
:1048A0002000530065007200690061006C00000088
:1048B000040309040C0300000000000000000000D5
:1048C00000000000000000000000000000000000E8
:1048D000000000000C95FF1F7495FF1FDC95FF1F63
:1048E00000000000000000000000000000000000C8
:1048F00000000000000000000000000000000000B8
:1049000000000000D8470000000000000000000088
:104910000000000000000000000000000000000097
:104920000000000000000000000000000000000087
:104930000000000000000000000000000000000077
:104940000000000000000000000000000000000067
:104950000000000000000000000000000000000057
:104960000000000000000000000000000000000047
:104970000000000000000000010000000000000036
:104980000E33CDAB34126DE6ECDE05000B000000FB
:104990000000000000000000000000000000000017
:1049A0000000000000000000000000000000000007
:1049B00000000000000000000000000000000000F7
:1049C00000000000000000000000000000000000E7
:104CF00000000000000000002092FF1F00000000E4
:104D0000000000004C96FF1F4C96FF1F5496FF1F9B
:104D10005496FF1F5C96FF1F5C96FF1F6496FF1F53
:104D20006496FF1F6C96FF1F6C96FF1F7496FF1F03
:104D30007496FF1F7C96FF1F7C96FF1F8496FF1FB3
:104D40008496FF1F8C96FF1F8C96FF1F9496FF1F63
:104D50009496FF1F9C96FF1F9C96FF1FA496FF1F13
:104D6000A496FF1FAC96FF1FAC96FF1FB496FF1FC3
:104D7000B496FF1FBC96FF1FBC96FF1FC496FF1F73
:104D8000C496FF1FCC96FF1FCC96FF1FD496FF1F23
:104D9000D496FF1FDC96FF1FDC96FF1FE496FF1FD3
:104DA000E496FF1FEC96FF1FEC96FF1FF496FF1F83
:104DB000F496FF1FFC96FF1FFC96FF1F0497FF1F32
:104DC0000497FF1F0C97FF1F0C97FF1F1497FF1FDF
:104DD0001497FF1F1C97FF1F1C97FF1F2497FF1F8F
:104DE0002497FF1F2C97FF1F2C97FF1F3497FF1F3F
:104DF0003497FF1F3C97FF1F3C97FF1F4497FF1FEF
:104E00004497FF1F4C97FF1F4C97FF1F5497FF1F9E
:104E10005497FF1F5C97FF1F5C97FF1F6497FF1F4E
:104E20006497FF1F6C97FF1F6C97FF1F7497FF1FFE
:104E30007497FF1F7C97FF1F7C97FF1F8497FF1FAE
:104E40008497FF1F8C97FF1F8C97FF1F9497FF1F5E
:104E50009497FF1F9C97FF1F9C97FF1FA497FF1F0E
:104E6000A497FF1FAC97FF1FAC97FF1FB497FF1FBE
:104E7000B497FF1FBC97FF1FBC97FF1FC497FF1F6E
:104E8000C497FF1FCC97FF1FCC97FF1FD497FF1F1E
:104E9000D497FF1FDC97FF1FDC97FF1FE497FF1FCE
:104EA000E497FF1FEC97FF1FEC97FF1FF497FF1F7E
:104EB000F497FF1FFC97FF1FFC97FF1F0498FF1F2D
:104EC0000498FF1F0C98FF1F0C98FF1F1498FF1FDA
:104ED0001498FF1F1C98FF1F1C98FF1F2498FF1F8A
:104EE0002498FF1F2C98FF1F2C98FF1F3498FF1F3A
:104EF0003498FF1F3C98FF1F3C98FF1F4498FF1FEA
:104F00004498FF1F4C98FF1F4C98FF1F5498FF1F99
:104F10005498FF1F5C98FF1F5C98FF1F6498FF1F49
:104F20006498FF1F6C98FF1F6C98FF1F7498FF1FF9
:104F30007498FF1F7C98FF1F7C98FF1F8498FF1FA9
:104F40008498FF1F8C98FF1F8C98FF1F9498FF1F59
:104F50009498FF1F9C98FF1F9C98FF1FA498FF1F09
:104F6000A498FF1FAC98FF1FAC98FF1FB498FF1FB9
:104F7000B498FF1FBC98FF1FBC98FF1FC498FF1F69
:104F8000C498FF1FCC98FF1FCC98FF1FD498FF1F19
:104F9000D498FF1FDC98FF1FDC98FF1FE498FF1FC9
:104FA000E498FF1FEC98FF1FEC98FF1FF498FF1F79
:104FB000F498FF1FFC98FF1FFC98FF1F0499FF1F28
:104FC0000499FF1F0C99FF1F0C99FF1F1499FF1FD5
:104FD0001499FF1F1C99FF1F1C99FF1F2499FF1F85
:104FE0002499FF1F2C99FF1F2C99FF1F3499FF1F35
:104FF0003499FF1F3C99FF1F3C99FF1F4499FF1FE5
:105000004499FF1F4C99FF1F4C99FF1F5499FF1F94
:105010005499FF1F5C99FF1F5C99FF1F6499FF1F44
:105020006499FF1F6C99FF1F6C99FF1F7499FF1FF4
:105030007499FF1F7C99FF1F7C99FF1F8499FF1FA4
:105040008499FF1F8C99FF1F8C99FF1F9499FF1F54
:105050009499FF1F9C99FF1F9C99FF1FA499FF1F04
:10506000A499FF1FAC99FF1FAC99FF1FB499FF1FB4
:10507000B499FF1FBC99FF1FBC99FF1FC499FF1F64
:10508000C499FF1FCC99FF1FCC99FF1FD499FF1F14
:10509000D499FF1FDC99FF1FDC99FF1FE499FF1FC4
:1050A000E499FF1FEC99FF1FEC99FF1FF499FF1F74
:1050B000F499FF1FFC99FF1FFC99FF1F049AFF1F23
:1050C000049AFF1F0C9AFF1F0C9AFF1F149AFF1FD0
:1050D000149AFF1F1C9AFF1F1C9AFF1F249AFF1F80
:1050E000249AFF1F2C9AFF1F2C9AFF1F349AFF1F30
:1050F000349AFF1F3C9AFF1F3C9AFF1F449AFF1FE0
:0C510000449AFF1F00000200FFFFFFFFA9
:00000001FF
