:1000000000800020BD010000911400005514000084
:10001000551400005514000055140000551400003C
:1000200055140000551400005514000091140000F0
:1000300091140000551400009114000045140000B4
:10004000911400009114000091140000911400001C
:10005000911400009114000091140000911400000C
:1000600091140000911400009114000091140000FC
:1000700091140000911400009114000091140000EC
:1000800091140000911400009114000091140000DC
:1000900091140000911400009114000091140000CC
:1000A00091140000911400009114000091140000BC
:1000B00091140000911400009114000091140000AC
:1000C000911400009114000091140000911400009C
:1000D000911400009114000091140000911400008C
:1000E000911400009114000091140000911400007C
:1000F000911400006929000091140000092F0000EC
:1001000091140000AD330000911400009114000020
:10011000911400009114000091140000911400004B
:10012000911400009114000091140000911400003B
:10013000911400009114000091140000911400002B
:10014000911400009114000091140000911400001B
:10015000911400009114000091140000911400000B
:1001600091140000911800009114000091140000F7
:1001700091140000911400009114000091140000EB
:1001800091140000911400009114000091140000DB
:1001900091140000911400009114000091140000CB
:1001A00091140000911400009114000091140000BB
:1001B000911400009114000091140000574B4CF270
:1001C000205210B51A804DF628121A8000BF00BFC9
:1001D00001F062F9524B4FF010621A60514A9A6076
:1001E000514ADA60A3F53043203B1A6812F480725A
:1001F00004D14E490A604FF4A8521A604C4B1A7849
:10020000110703D51A7842F008021A70494B4A4C7C
:100210004A482A221A704A4A00239918A14203D256
:10022000195899500433F8E7464B474900228B424E
:1002300002D243F8042BFAE74448454900235A58B0
:100240001A500433B3F5DE7FF9D1424B424A802184
:1002500003F8011B9342FBD1404B3C4A1A60404BD0
:100260000A221A70A3F5805324225A70A0221A7011
:100270009A799207FCD59A79D406FCD4394A9379B5
:1002800003F00C03082B374BF9D103221A714022DB
:100290005A719A799006FCD5324A9179314B4906C8
:1002A000FBD5314A314911600221516020221A7078
:1002B0009A7902F00C020C2AFAD12D4B2D4A1A60C1
:1002C0002D4B2E4A1A6000225A60072243F8042C54
:1002D0002B4AC3F80C2D62B601F09CF9134B1B6836
:1002E000DA0705D5274801F009F9274B274A1A6094
:1002F000274B1B785B0609D5234C244A236893427D
:1003000004D1204801F0FAF80023236003F002FB37
:1003100001F0C8F801F0FCFFFEE700BF0E20054029
:1003200030800440823F04000100002B14D00340C1
:1003300002D0074000E007401088FF1F2C3E00005D
:100340006087FF1F1088FF1F0C8CFF1F0082FF1F9C
:100350000000000000E400E05FE400E008ED00E0E1
:100360000050064000400640448004400000030165
:1003700004800440C010050014E000E0FF76010096
:1003800000002020BB651A581CE00340A5C3945A06
:1003900000F00740FFFFFFFFFFFFFFFFFFFFFFFF32
:1003A000FFFFFFFFFFFFFFFFFFFFFFFFFFFFFFFF5D
:1003B000FFFFFFFFFFFFFFFFFFFFFFFFFFFFFFFF4D
:1003C000FFFFFFFFFFFFFFFFFFFFFFFFFFFFFFFF3D
:1003D000FFFFFFFFFFFFFFFFFFFFFFFFFFFFFFFF2D
:1003E000FFFFFFFFFFFFFFFFFFFFFFFFFFFFFFFF1D
:1003F000FFFFFFFFFFFFFFFFFFFFFFFFFFFFFFFF0D
:10040000FFFFFFFFFFFFFFFFFFFFFFFFFEFFFFFFFD
:1004100010B5054C237833B9044B13B10448AFF33E
:1004200000800123237010BD1088FF1F0000000012
:100430002C3E000008B5064B1BB106480649AFF339
:1004400000800648036813B1054B03B1984708BD07
:10045000000000002C3E00001488FF1F1088FF1FC2
:10046000000000004069704710B582B00A460023C2
:100470008DF800308DF801308DF802300468246862
:100480008DF804308DF805308DF80630694601ABE3
:10049000A04702B010BD00BF4FF4C870704700BF46
:1004A00010B504460220012101F05CF80123A3618C
:1004B000014BE36110BD00BFC0F00F40F0B589B043
:1004C000847C0191029203921A788DF816205A7852
:1004D0008DF817209B788DF81830012C39D1294AD6
:1004E0001378013303F00703137003F00105ED01E6
:1004F00013F0020F1CBF45F04005EDB213F0040FDE
:1005000018BF45F020051035EDB20DF1150306AF0B
:1005100000264FF4807E013319461A7822B19EFBE3
:10052000F2F20132D2B200E0324601F8032C02FBB3
:100530000554C4F3072414B901F8066C02E0013C29
:1005400001F8064C12B1013A01F8032CBB42E2D18A
:100550000CE000238DF815308DF814308DF8133031
:100560008DF812308DF811308DF8103003238DF88E
:1005700019300023079303689B6901A9984709B0C4
:10058000F0BD00BF2C88FF1FF0B589B0847C0191BD
:10059000029203921A788DF816205A788DF8172057
:1005A0009B788DF81830012C39D1284A1378013303
:1005B00003F00703137003F00105ED0113F0020FC0
:1005C0001CBF45F04005EDB213F0040F18BF45F015
:1005D00020051035EDB20DF1150306AF00264FF4DE
:1005E000807E013319461A7822B19EFBF2F2013265
:1005F000D2B200E0324601F8032C02FB0554C4F3EA
:10060000072414B901F8066C02E0013C01F8064C1D
:1006100012B1013A01F8032CBB42E2D10CE00023F5
:100620008DF815308DF814308DF813308DF81230A8
:100630008DF811308DF8103000238DF819300793A4
:1006400003689B6901A9984709B0F0BD2C88FF1F7A
:100650002DE9F04F8BB009900191044600F0A4FF02
:10066000238CC01A83B2312BF8D9019C94F80C80EA
:10067000607B94F80EE0E17B0391227C0292637C24
:1006800004932668A57CE17C94F814B0647D0694FC
:10069000019C63688B4A146844F0807414608A4A31
:1006A000146844F001041460002404321460874A82
:1006B0001468146824F001041460029A101A5FFA96
:1006C00080FC72781AB182FA5CF2D2B200E00022A9
:1006D0000131059101FB02F2C2F3072A72B67C4A8E
:1006E00012687C32002B40F3F5809946784B7748AE
:1006F0000727013507950BF1010BCDF820B0039CBE
:10070000C8EB04085FFA88F80299CCEB010C5FFA99
:100710008CFC049CCEEB040E5FFA8EFE72B6196858
:10072000914206D91968891AB1F5935F01D962B669
:10073000D6E0046844F00104056825F00105BB46D5
:1007400019689142FCD31A687C3204601AF0800F59
:1007500005D01968511A4629FBD8056004E01968CC
:10076000511A6529FBD805604FEA4A0A5FFA8AFAEE
:10077000BBF1010BE4D119689142FCD31A687C32B9
:1007800004601AF0800F05D01968511A4629FBD869
:10079000056004E01968511A6529FBD805603178B5
:1007A00021B181FA58F15FFA81FA01E04FF0000AB5
:1007B000079901FB0AFACAF3072ABB461968914256
:1007C000FCD31A687C3204601AF0800F05D01968D7
:1007D000511A4629FBD8056004E01968511A6529A9
:1007E000FBD805604FEA4A0A5FFA8AFABBF1010BAF
:1007F000E4D119689142FCD31A687C3204601AF083
:10080000800F05D01968511A4629FBD8056004E00D
:100810001968511A6529FBD80560B17821B181FAB0
:100820005EF15FFA81FA01E04FF0000A089901FBDE
:100830000AFACAF3072ABB4619689142FCD31A6820
:100840007C3204601AF0800F05D01968511A4629CD
:10085000FBD8056004E01968511A6529FBD80560CA
:100860004FEA4A0A5FFA8AFABBF1010BE4D1196830
:100870009142FCD31A687C3204601AF0800F05D0D4
:100880001968511A4629FBD8056004E01968511A05
:100890006529FBD80560069C46FA84F609F1FF3409
:1008A000717821B181FA5CF15FFA81FA01E04FF0D1
:1008B000000A05990AFB01FACAF3072A62B64CB18D
:1008C000A1461CE7FCED00E0001000E0C0F00F4086
:1008D000041000E062B6A24B1B68002B40F0388188
:1008E00062B64FF4C863013B7FF4FDAF72B6019C62
:1008F00094F80C80647B019890F80EE0C17B039122
:10090000027C0292437C04930668817CC07C019A3D
:1009100092F814A0537D05935368924A156845F0E8
:1009200080751560904A156845F001051560002531
:10093000043215608D4A1568156825F001051560AB
:10094000029A141B5FFA84FC72781AB182FA5CF284
:10095000D2B200E000220130019000FB02F2C2F3AB
:10096000072972B67E4A12687C32002B40F3ED8074
:100970009B467B4B7D480727013106910AF1010A0E
:10098000CDF81CA0039CC8EB04085FFA88F8029914
:10099000CCEB010C5FFA8CFC049CCEEB040E5FFAEE
:1009A0008EFE72B61968914206D91968891AB1F596
:1009B000935F01D962B6CBE0046844F00104056896
:1009C00025F00105BA4619689142FCD31A687C32B9
:1009D000046019F0800F05D01968511A4629FBD818
:1009E000056004E01968511A6529FBD805604FEAD3
:1009F00049095FFA89F9BAF1010AE4D1196891420B
:100A0000FCD31A687C32046019F0800F05D0196895
:100A1000511A4629FBD8056004E01968511A652966
:100A2000FBD80560317821B181FA58F15FFA81F97C
:100A300001E04FF00009069901FB09F9C9F3072904
:100A4000BA4619689142FCD31A687C32046019F0E6
:100A5000800F05D01968511A4629FBD8056004E0BB
:100A60001968511A6529FBD805604FEA49095FFAF0
:100A700089F9BAF1010AE4D119689142FCD31A68E4
:100A80007C32046019F0800F05D01968511A46298C
:100A9000FBD8056004E01968511A6529FBD8056088
:100AA000B17821B181FA5EF15FFA81F901E04FF08E
:100AB0000009079901FB09F9C9F30729BA46196822
:100AC0009142FCD31A687C32046019F0800F05D083
:100AD0001968511A4629FBD8056004E01968511AB3
:100AE0006529FBD805604FEA49095FFA89F9BAF12F
:100AF000010AE4D119689142FCD31A687C3204607F
:100B000019F0800F05D01968511A4629FBD80560E5
:100B100004E01968511A6529FBD80560059C46FA5E
:100B200084F60BF1FF31747824B184FA5CF45FFA37
:100B300084F901E04FF00009019C09FB04F9C9F3B5
:100B4000072962B609B18B461CE762B6044B1B68E5
:100B500000F02AFD099C20840BB0BDE8F08F00BF97
:100B6000041000E0FCED00E0001000E0C0F00F40D9
:100B700070B540F6B83000F039FD274B1B6813F014
:100B8000010F26D1244800F08FFC10B3234B002125
:100B90005960FF221A735A739A73DA731A745A746B
:100BA00001229A74596199601D4B1B6813B91B4A45
:100BB0001B4B1A601B4B1B680BB1184A9A60174BF2
:100BC000184A136000221A84174A1A60124800F06B
:100BD00071FC124815493222002300F0F9FAFF2374
:100BE0000373B0234373F02383734022104B1A70B6
:100BF00010498E180023104C51F8042F100C185572
:100C0000E018150A457082700333B142F4D1012215
:100C10000A4B1A7070BD00BF5488FF1F3088FF1F39
:100C20003489FF1F4489FF1F103A00005888FF1FB6
:100C30002489FF1F6C3A0000F088FF1F2189FF1FE5
:100C40002DE9F04184B0804600240E4F0E4E0F4D2A
:100C500008EB04023378009303A83946D2B2FF238D
:100C600000F0F0FA9DF80C3063552B199DF80D201B
:100C70005A709DF80E209A700334962CE8D104B077
:100C8000BDE8F081F088FF1F2189FF1F5888FF1FF2
:100C9000F0B583B00024144E43F21965134F338826
:100CA00003EB432203EB82032B449BB203EB43226F
:100CB00003EB82022A4492B2328003EB23238DF8A5
:100CC0000430FF238DF8053002EB22228DF8062038
:100CD000E1B201EB410101A8394400F011FB0134FC
:100CE000102CDCD103B0F0BD6287FF1FF088FF1F1E
:100CF00010B582B000238DF804308DF805308DF8E2
:100D000006300C4C2046102101AA00F089FAFF237E
:100D100023706370A37023736373A3732376637666
:100D2000A37684F8243084F8253084F8263002B085
:100D300010BD00BFF088FF1F70B590B0C0238DF8C4
:100D40000830FF248DF809408DF80A4002A8694652
:100D500000F0D6FA60238DF80C308DF80D408DF838
:100D60000E4003A801A900F0CBFA9DF804608DF8AD
:100D700010609DF805508DF811509DF806408DF8D3
:100D800012408DF813608DF814508DF81540002333
:100D90008DF816308DF817308DF818308DF8193021
:100DA0008DF81A308DF81B309DF800008DF81C006E
:100DB0009DF801108DF81D109DF802208DF81E2061
:100DC0008DF81F008DF820108DF821208DF822302D
:100DD0008DF823308DF824308DF825308DF82630AD
:100DE0008DF827308DF828608DF829508DF82A402D
:100DF0008DF82B608DF82C508DF82D408DF82E300D
:100E00008DF82F308DF830308DF831308DF832304C
:100E10008DF833308DF834008DF835108DF836208C
:100E20008DF837008DF838108DF839208DF83A306C
:100E30008DF83B308DF83C308DF83D308DF83E30EC
:100E40008DF83F30054C04AD0FCD0FC40FCD0FC44E
:100E500095E80F0084E80F0010B070BDF088FF1F08
:100E6000F8B5674B1A68674BA3FB02139B09664CE6
:100E7000A4FB03246409C4EB0414A3EB8404E4B2CC
:100E8000624B1B78A34200F0BA80604B1C709CB987
:100E90005F4901F1400700235E4D51F8042F100C0B
:100EA0005855E818160A467082700333B942F4D1D7
:100EB0000122594B1A702BE00A2C13D1574901F12A
:100EC00040070023534D51F8042F100C5855E818D3
:100ED000160A467082700333B942F4D100224E4B99
:100EE0001A701DE00F2C13D14C4901F1400700236B
:100EF000484D51F8042F100C5855E818160A467042
:100F000082700333B942F4D10122434B1A700FE0CF
:100F1000142C05D1FFF710FF01223F4B1A700FE090
:100F2000192C05D1FFF7B4FE01223B4B1A700FE0DC
:100F30001E2C05D1FFF7DCFE0022374B1A701DE096
:100F4000232C05D1FFF7D4FE0122334B1A702BE07E
:100F5000282C13D1324901F1400700232D4D51F8BF
:100F6000042F100C5855E818160A46708270033387
:100F7000B942F4D10122284B1A702BE02D2C13D149
:100F8000284901F140060023224C51F8042F100C8F
:100F90001855E018150A457082700333B142F4D138
:100FA00001221D4B1A70F8BD322C13D11E4E311F79
:100FB0003C360023174C51F8042F100C1855E0183C
:100FC000150A457082700333B142F4D10022124BEE
:100FD0001A70F8BD372C12D1134E311F3C36002346
:100FE0000C4C51F8042F100C1855E018150A4570D8
:100FF00082700333B142F4D10122074B1A70F8BD5D
:101000004889FF1FD34D6210898888886087FF1F39
:101010006C3A0000F088FF1F2189FF1FAC3A0000E6
:101020002C3B0000EC3A0000303A000010B5FFF70E
:1010300017FF084B18780130C0B21870FFF700FE98
:10104000054C2046217800F033F820460A2100F0B4
:1010500095F810BD2089FF1F2489FF1FFF22027011
:1010600000224280C2604FF0FF328260704700BFB2
:1010700030B40C4A13685C1C14608B4210DB0A4AC3
:1010800015684FF47A7101FB04F4084B1968691A6A
:10109000B4FBF1F1418000200249086012681A6037
:1010A00030BC70473889FF1F4889FF1F4089FF1FE8
:1010B0002DE9F04F83B080468A462E4CD8F8043094
:1010C0003BB100F071FA2368C01AD8F804209042AE
:1010D000F4D300F069FA274B1860D8F80C3023B12C
:1010E0005046D8F8081098478246234B1C68002CBD
:1010F00039D0002694F81290B8F80230632B98BFCC
:10110000A6742368D3F804C0616862698DF804602E
:101110008DF805608DF80660BAF1000F1BD004F160
:101120000B05334604F10C0B15F8017FCBEB050ED4
:1011300004F10F001EF8000057B148B1013700FB61
:1011400007770AFB07F0000C0DF1040E03F80E0000
:101150000133032BE8D1204601ABE04784F812901D
:10116000A468002CC6D140461921FFF781FF03B0C7
:10117000BDE8F08F3C89FF1F3489FF1FF8B5044696
:101180000F46074B1E681D4620462178FFF790FF4B
:1011900001F0C6F82B689B1BBB42F5D3F8BD00BF1E
:1011A0004889FF1F4AB181B1084B93FBF1F14368B5
:1011B0008B422CBF43604160704721B1034B93FBCE
:1011C000F1F14160704700234360704740420F00D7
:1011D000F8B504460F4615461E1EDCBF1646002510
:1011E00003689B68984705EB45052F446760666177
:1011F00023685B6920469847014603480122FFF7B0
:10120000D1FF2046F8BD00BF2489FF1F0020704792
:1012100008B50248FFF722FF08BD00BF2489FF1F61
:1012200030B400290CDD01EB410500231178C154D5
:101230005478C1184C7094788C700333AB42F5D15C
:1012400030BC70472DE9F00116090F4606EB460445
:10125000214412F00F0244D09DF81440002C44D1D8
:101260003FE0CF1C120182F0FF06013606FB08F8B2
:10127000C8F30728511C3D7801FB05F508EB25252F
:10128000EDB204FB06F2C2F307227C7804FB01F402
:1012900002EB2424E4B20CFB06F6C6F30726BA7868
:1012A00002FB01F206EB2222D2B2FF2B15D08BB14A
:1012B0000133DBB21DB103FB0555C5F307251CB196
:1012C00003FB0444C4F307243AB103FB0222C2F334
:1012D000072202E000221446154605704470827011
:1012E0000BE00D784C788A78DFE791F800804C7835
:1012F00091F802C00F2EB4D1B4E7BDE8F0017047F9
:1013000030B402784578847802F01F00C00056237C
:1013100003FB00F31B0A12F0800F22D112F0400FE2
:101320000DD112F0200F05D183F0FF0000221A46E4
:10133000002340E05533DAB20023AB203BE012F04B
:10134000200F09D1AB2202FB00F00012101AC0B22C
:10135000563BDAB200232EE00022DA43D2B200205C
:1013600029E012F0400F14D112F0200F0BD100230E
:10137000AB2303FB00F0000A1A1AD2B200F15503A6
:10138000DBB2002017E00022DA431846D3B2002275
:1013900011E012F0200F07D103F15500C0B2002276
:1013A000C3F1AB03DBB206E0A3F15600C0B20022EA
:1013B000C3F15503DBB2FF2D1FD0DDB118B105FB22
:1013C0000000C0F307201AB105FB0222C2F3072276
:1013D0001BB105FB0333C3F30723ED43EDB205FB5C
:1013E0000555C5F307252844C0B22A44D2B22B4480
:1013F000DBB202E0FF231A461846FF2C1CD004FB88
:1014000004F52D12002C0CBF2C466C1C14F0FF04AC
:101410000FD018B104FB0000C0F307201AB104FB81
:101420000222C2F307223BB104FB0333C3F30723B9
:1014300002E000231A46184608704A708B7030BCD0
:10144000704700BF024B1A6801321A60704700BF34
:101450004889FF1F08B50D4C236813F4802F01D075
:1014600000F016FA236813F4806F01D001F07CFAC3
:10147000236813F4006F01D001F046FD236813F4D4
:10148000805FE9D001F092FFE6E700BF34800440BE
:1014900008B5FFF7DFFF00BF1022014B1A8070472D
:1014A00000200540704700BF0078D0F1010038BF30
:1014B0000020704701230370704700BFEFF31383D0
:1014C000ABB9EFF31083ABB9EFF3058323B10F2B67
:1014D00005D9094A985C03E04FF4807000E00020D1
:1014E000EFF311833BB1834238BF184670474FF08A
:1014F000FF30704700207047F0E300E0044B00220B
:101500001A6004490A60044A106010221A60704789
:1015100014D0034004D0034000D0034021281ED83B
:101520000F4B53F8303093F8802212F0FF0F08D0A1
:1015300019B1012283F880207047012283F800212D
:101540007047074B03EBC000436821B11A6842F0B3
:1015500003021A6070471A6822F002021A6070478C
:10156000703B000021281CD80E4B03EBC0035B68C6
:10157000012908D10B4A52F8302082F880124FF42A
:10158000A2721A607047074A52F83020002082F891
:10159000800219B94FF480721A60704740F203124A
:1015A0001A607047703B000072B60C4B1B680C4A07
:1015B00012680C49096862B611F0806F02D0322BB4
:1015C00088BF0132C3F5BB33FF330749A1FB0303D7
:1015D0009B094FF47A7000FB0230704718E000E07E
:1015E0004889FF1F04ED00E0ABAAAAAA38B505465A
:1015F000FFF7DAFF044665B1FFF7D6FF001BB0F531
:101600007A7F03D3013D04D004F57A7400F088FE9C
:10161000F2E738BD10B5254B4FF400021A604FF0C9
:1016200080721A604FF000721A604FF080621A6088
:101630004FF000621A6000201D4B18604BF6FF71DE
:101640000433196028231B4A1360083213600832E0
:1016500013600832136008321360083213600832D6
:101660001360083213600922134C226004F5805481
:10167000043420600434216004342360083423607F
:10168000143C226004F5FE24043420600B48016001
:101690000B490B6008310B600A4B1A6000F062FEC8
:1016A000FA20FFF7A3FF00F06BFC10BD08E100E09B
:1016B000048003400C8003400080034008800B40FE
:1016C0000C800B4000800B4030B40E4B1B7843F075
:1016D00002020D4C04EBC20460600C480078002844
:1016E0000CBF8824C82444EA0141074D45F8321054
:1016F00080F00100054A107083F00103014A137065
:1017000030BC7047B489FF1F0080FF1F2D8AFF1F68
:1017100010B4431E032B11D872B60A4A52F82300A4
:1017200050B14268074941F82320074A32F8134074
:101730000188611A22F8131062B600E000205DF8FB
:10174000044B7047A489FF1FFC8BFF1F013803283F
:101750000DD872B6074B53F820302BB10020013062
:101760005B68002BFBD100E0002062B670470020D0
:10177000704700BFF889FF1F38B572B601231B49B7
:101780001B4C5A1812F8012C12F0080F24D09A00A2
:1017900054F832506DB9164B03EBC2010830486063
:1017A000144943F83210144B1A78013A1A7062B691
:1017B00038BD42F0010254F832506DB90C4B03EBC6
:1017C000C201083048600D4943F832100A4B1A78BC
:1017D000013A1A7062B638BD0133052BD1D162B619
:1017E0000022054B1A7000F02FFC38BD803C000031
:1017F0000080FF1F88004000228AFF1FC8004000B1
:1018000010B4431E032B37D8400140F010001C4A8F
:10181000104472B61B4AD25C032A09D8DFE802F0F2
:1018200019021B050830022216E00830042213E0DA
:10183000154A52F823201AB9134A42F8231003E03C
:10184000124A52F823205160104A42F8231062B61F
:1018500012E0032200E005220A4CE25401F10803E1
:10186000436000F00803002B0CBF8823C8230A88BC
:1018700043EA0243036062B65DF8044B704700BF61
:101880000080FF1F6089FF1FF889FF1F088AFF1F64
:101890002DE9F84FA34CDFF8E092DFF8E0A2DFF883
:1018A000E0B22578EDB215F0040F1DD09E4B1B78E9
:1018B00013F0FF0F16D09D4B1B7803F0FF022BB1E6
:1018C000531EDBB2994A137003B900BE984B1B78C4
:1018D00003F0FF0233B1531EDBB2954A13700BB90C
:1018E00000F0F2FC0423237015F0080F00F0DC82F6
:1018F00099F80030DBB21D0940F01D828D4D9E0825
:1019000005EBC6035A6855F83630C3F38303013B31
:101910000C2B00F20C82DFE813F0C701C7010A02AA
:101920000A020A020A020A020A02E4010A020A027E
:101930000A020D00804913680B6052684A607F4AB2
:1019400045F8362000227E490A607A490A618A6198
:1019500001217C4A11709BB240F28162934218D8F7
:10196000B3F5D06F2ED2B3F5817F00F01E8106D87B
:10197000802B00F0C980822B00F0CC8062E140F225
:101980000232934200F02681B3F5A06F00F05E8131
:1019900058E142F22102934200F0828107D8B3F568
:1019A000086F00F0AB80B3F5106F11D04AE142F23E
:1019B0002122934200F0418142F22132934200F011
:1019C00045813FE1604B5D68002D40F0188130E1BA
:1019D000594B9A78544B1A70564D05F180062B6A74
:1019E00013F0800F03D0686A083800F02DFB08352B
:1019F000B542F4D1DFF88C8100263746534AB058FF
:101A000028B1456800F020FB0DB12846F9E7002316
:101A10004E4973504E4AB3504E4BF05828B145686A
:101A200000F012FB0DB12846F9E700234949735035
:101A3000494AB35028F8023F484BFB5C023B032B5A
:101A40000AD8DFE803F0020602060022434BDA550B
:101A500002E00122414BDA5501370436102ECDD178
:101A600000223F4B1A7001253E4EDFF81C81314F9A
:101A700005EB080313F8013C06F8043B13F0080FCC
:101A80002DD000F0C1FA48B1A90007EB451200F1D2
:101A900008035360344A47F8312007E0AB000022C6
:101AA00047F833202E4B1A7801321A7000F0ACFA46
:101AB00058B1AB0043F0010307EBC30100F108028A
:101AC0004A601E4A47F8332009E0AB0043F00103A7
:101AD000002247F83320224B1A7801321A70AA00EC
:101AE00042F00201002347F8313042F0030247F888
:101AF000323001351D4B9E42BAD116E20A4B1B789B
:101B00001B4D2B700127A6E0194D00232B706B7025
:101B10000227A0E0084B9B88042B37D90F22154BD6
:101B20001A70BDE0802007402C8AFF1FB589FF1F77
:101B30002E8AFF1F0080FF1F188AFF1FC800400069
:101B40004C89FF1F2D8AFF1F843C0000A489FF1FC2
:101B50005089FF1FF889FF1F088AFF1F6089FF1F38
:101B6000228AFF1FC420074088004000D42007407D
:101B7000248AFF1FC0200740902007409420074080
:101B800098200740FA8BFF1F803C00009E4A0021EE
:101B9000117051709D4A12F8233013F0020F58D083
:101BA000994D01232B70022755E0994B9B8803F038
:101BB0007F03042B02DC964A52881AB10F22934B02
:101BC0001A706DE0914A12F8231021F0020102F818
:101BD0002310AAE18E4B9B8803F07F03042B02DCC9
:101BE0008B4A52881AB10F22884B1A7058E0874AE4
:101BF00012F8231041F0020102F8231095E1844B02
:101C00005E889F88834BA3F10C02114633F80C0CBD
:101C1000B04209D133F80A0CB84205D1360A032E76
:101C20000CBF2F78178916E00D690C330C32002D8C
:101C3000EBD10F22754B1A7032E0754B9A78764BC8
:101C40001A7072E10F22714B1A7029E000273D468D
:101C500001E002276C4D6E4BDB889F4228BF1F4678
:101C6000402F34BF3E46402628463146FFF72CFD24
:101C70003544BF1B03D13F2E00F25C8110E0402FA2
:101C800034BF3E46402628463146FFF71DFD354409
:101C9000BF1B01D13F2E03D9604B1D60604B1F80DD
:101CA00001238AF8003042E0594B198842F221039F
:101CB000994212D15B4BD81D12F8011B03F8011F8A
:101CC0008342F9D1584B1B68862B02D10F22574B08
:101CD0001A7000200146FFF7F7FC554B45F83630E7
:101CE00025E04E4B1E68BEB14D4FB7F80080B8F1ED
:101CF000400F34BF4546402530462946FFF7E4FCF7
:101D0000C5EB08039BB23B800BB9402D01D1354494
:101D100000E00025414B1D603D4B1B88B3F5A06FD3
:101D200005D13B4B00225A709B788BF80030012381
:101D30008AF80030B5E03F4E9F0806EBC708D8F898
:101D40000420A2F10800013DEDB213F0080F47D0C6
:101D500000F07AF9384B53F825304BB35A683649BE
:101D600041F8252003F10802C8F80420334A525DE7
:101D7000032A12D8DFE802F002060A0E03212F4AD6
:101D800051550AE002212D4A515506E005212B4A02
:101D9000515502E00421294A515518F0080F0CBF93
:101DA0008822C8221B8842EA034346F8373078E08D
:101DB000224B5B5D032B0BD8DFE803F07373020645
:101DC00000221E4B5A556CE001221C4B5A5568E00C
:101DD00018F0080F0CBF02220322184B5A5560E07E
:101DE00056F837301B0C22F8083C002B51D000234A
:101DF00022F8063C42F8043C114B53F825300BBB4B
:101E00000F4B43F8250021E0248AFF1FC020074024
:101E1000188AFF1F903C00003C8AFF1F4C89FF1F5F
:101E2000208AFF1F038CFF1F048CFF1FB589FF1F33
:101E3000C80040000080FF1FF889FF1F6089FF1F56
:101E4000A489FF1F3F4B53F8253058603D4B43F8A2
:101E500025003D4B33F8151032F8082C0A4423F8BE
:101E6000152000F0D1F860B100F10803C8F8043083
:101E700018F0080F354B364A08BF134646F837307E
:101E80000FE0002346F83730324B1A7801321A70CF
:101E900007E018F0080F2D4B2D4A08BF134646F8EF
:101EA000373008232370FCE415F0010F22D02A49B3
:101EB00002230B700022294B1A70294B244818600A
:101EC000284C5C6098602848D8601A619A610D209F
:101ED000264B1870FF23264803700838037018300B
:101EE0000270244A13709F22234B1A7001230B7037
:101EF000BDE8F88F15F0800F05D00D221B4B1A702E
:101F00008022403B1A7015F0020F06D0184B1A7849
:101F1000D2B21A700222083B1A7015F0100F0ED0C0
:101F20001022164B1A70BDE8F88F00200146FFF70B
:101F3000CBFBB5E628460021FFF7C6FBB0E6BDE8BF
:101F4000F88F00BF5089FF1FFC8BFF1FC8004000A7
:101F500088004000228AFF1F94200740B489FF1F99
:101F60000080FF1F6489FF1FB889FF1FC020074042
:101F7000882007408C2007408420074080200740AD
:101F800008B501F073FA00231B491A465A50C818C5
:101F900042600833882BF9D1184B1A6842F480222A
:101FA0001A60154BC3F30721154A1170C3F307419B
:101FB000143211701B0E04321370FF23343A137065
:101FC00008321370783A13700123843213700021A1
:101FD0006C3211707C3A137070220A4B1A704FF4F5
:101FE0000072A3F241331A60102203F1C04303F5DB
:101FF000C8231A7008BD00BF0080FF1F3480044052
:102000009C20074049E400E072B60D4B1A68B2FA12
:1020100082F30B2B02D962B6002070474FF00041CB
:10202000D94022EA010206490A6062B6054903EB7B
:10203000C303DB00C8180022CA504260704700BFCB
:102040006487FF1F0084FF1F08B50F4BC31A0F4A98
:10205000A2FB03131B090B2B14D80D4A12783AB1BB
:102060000C4A127812F0FF0F02D0FFF785FB08BD73
:1020700072B6094A4FF0004121FA03F3116819437F
:10208000116062B608BD00BF0084FF1F398EE338BF
:10209000228AFF1F2C8AFF1F6487FF1F10B5134B76
:1020A0001B6853B9124B1B7813F0FF0F18D0032095
:1020B000FFF72EFB0D4B1860A8B10C4B1868438836
:1020C0005A1C03441C7A03889A4206D3FFF7BCFFCC
:1020D0000022064B1A60204610BD4280204610BDEB
:1020E0004FF0FF3010BD4FF0FF3010BD388AFF1F9A
:1020F0002C8AFF1F08B50D4B1B6883B90C4B1B784E
:1021000013F0FF0F08D00320FFF702FB074B186006
:1021100028B94FF0FF3008BD4FF0FF3008BD034B2A
:102120001B685A881344187A08BD00BF388AFF1FFD
:102130002C8AFF1F044B9888044B1B681BB11A881C
:102140005B88D31A18447047FC8BFF1F388AFF1F27
:102150002DE9F04704460122374B1A700E4600293C
:1021600064D0DFF8E080DFF8E0909A46334FD8F88B
:10217000003083BB99F8003013F0FF0F06D1002226
:102180002D4B1A704FF0FF30BDE8F0874AF2F92569
:102190000420FFF7DBFA07280AD801238AF8003069
:1021A000FFF732FFC8F80000A8B900238AF8003012
:1021B000013D01D03B7833B10122204B1A704FF022
:1021C000FF30BDE8F08700F0ABF899F8003013F06D
:1021D000FF0FDDD1D3E700233B70D8F800104A8809
:1021E000C2F14005AE4238BF354602F108030B4448
:1021F0002A444A80761B3DB1254414F8012B03F88C
:10220000012BAC42F9D100E025464B883F2B07D982
:1022100040230B800420FFF7F3FA0023C8F80030B6
:102220000522074B1A700EB12C46A0E70020024B86
:102230001870BDE8F08700BF2F8AFF1F348AFF1F88
:102240002E8AFF1F308AFF1F2C8AFF1F00B583B024
:1022500002AB03F8010D18460121FFF779FF03B027
:102260005DF804FB10B5144B1B7813F0FF0F21D061
:102270000122124B1A70124B196851B10024114BF4
:102280001C704B880B800420FFF7BAFA0C4B1C60C3
:102290000DE0FFF7B9FE014630B10022094B1A707C
:1022A0000420FFF7ADFA02E00122064B1A7000226B
:1022B000024B1A7010BD00BF2C8AFF1F2F8AFF1F10
:1022C000308AFF1F2E8AFF1F08B50E4B1B7813F0B4
:1022D000FF0F16D10C4B196841B14B880B800420BD
:1022E000FFF78EFA0022084B1A6008BDFFF78CFE3C
:1022F000014618B10420FFF783FA08BD0122034B01
:102300001A7008BD2F8AFF1F308AFF1F2E8AFF1FF9
:1023100008B5FEF72DFCFEF789FE00F001F8FAE79C
:1023200008B50F4B1B78CBB901220D4B1A70FFF784
:1023300001FF08B101F0BCFA00F08CFA08B101F01D
:102340005FF900F07DFD08B101F0F0F900F0DEFF6B
:1023500008B101F081FA0022014B1A7008BD00BFDC
:102360003D8AFF1F60223A4B1A70E12201331A7036
:10237000384B1B78082B10D1012203F1804303F561
:102380006C331A60132334490B6001F5FF2101F20D
:10239000FC710A60314A13601FE00A2B0DD139220B
:1023A0002F4B1A6013232C490B6001F5FF2101F21A
:1023B000FC710A60294A13600FE00C2B0CBF352218
:1023C0003D22274B1A60122323490B6001F5FF21A0
:1023D00001F2FC710A60214A1360224B1B7833B171
:1023E0000123214A136002F50022136005E0002357
:1023F0001D4A136002F5002213601C4B1B78012B51
:1024000006D880231A4A136002F5002213601AE0EE
:10241000042B06D88423164A136002F500221360A9
:1024200011E0082B06D88523114A136002F500221B
:10243000136008E0102B94BF862387230C4A136097
:1024400002F50022136001220A4B1A70704700BF88
:10245000004007406887FF1F0CB003400CB00B40E2
:1024600008B003403F8AFF1F20B003406987FF1F69
:1024700024B003403E8AFF1F194B1A6842F4806261
:102480001A600023174A1370174A1370174A137003
:10249000174A1370174A137040F21332164B1A6022
:1024A0004FF4517204331A60C0F34432134B1A7064
:1024B000C0F347125A7000F01F00987204229A70FD
:1024C0000221D9745A7588221A743C22DA7040228B
:1024D0000B4B1A704FF40052A3F229331A60704765
:1024E00034800440C88AFF1F458AFF1FD08AFF1F1F
:1024F000C98AFF1F448AFF1F40A0044000A0064075
:102500002DE400E0164B9B7803F0EC0300F003028F
:10251000134310F0040F18BF43F01003104A9370D8
:1025200000F00F03042B04D11346927942F04002CD
:102530009A710B4B5A7902F0EF0210F0100F18BF8E
:1025400042F01002064B5A719B7903F0EF0310F032
:10255000200F18BF43F01003014A9371704700BF6A
:1025600000A0064010B5144B1B6813F4806F21D0F7
:10257000124B1B7813F0FF0F06D0104CFFF7D0FE64
:10258000237813F0FF0FF9D14FF400520C4B1A606F
:1025900000230C4AD37040F203120B490A60043145
:1025A0000A600A4A13700A4A13700A4B1B680BB17F
:1025B00001221A7010BD00BF34800440448AFF1FFE
:1025C00084E100E000A0064040A00440C88AFF1F4C
:1025D000458AFF1F408AFF1F10B50446094A137839
:1025E00013F0FF0FFBD120460121FEF7BBFF204671
:1025F0000021FEF793FF044B53F83420034B1A607D
:1026000010BD00BF448AFF1F703B0000CC8AFF1F33
:1026100010B50D4B1B6813F4806F12D021280CD815
:102620000A4C0B4B53F8303023600121FEF79AFF20
:10263000236800221A70012010BD0020034B18608F
:1026400010BD002010BD00BF34800440408AFF1F31
:10265000703B0000114B1B6813F4806F1BD01228D5
:1026600004D140F202320E4B1A600DE0142804D15E
:1026700040F202320B4B1A6006E00B4B5A7B02F021
:10268000FE025A7300207047074B5A7B42F001024A
:102690005A73012070470020704700BF3480044007
:1026A0000CA0044014C0044000A006402DE9F041F5
:1026B00007461F4B1B6813F4806F37D01D4B1B68F8
:1026C0000BB101221A701C4B1C780134402C28BF1E
:1026D00000241A4D1A4EDFF86C8017E0FEF7EEFE6C
:1026E00040280FDC337913F0800F0FD02B780133A3
:1026F000402B28BF002318F80320D2B2F271DBB2BE
:102700002B7003E0FF2801DDFFF70AFE2B78DBB218
:102710009C42E3D0FFB20B4B1F5501220A4B1A70AB
:10272000E4B2054B1C70BC22054BDA70BDE8F081A9
:1027300034800440CC8AFF1FD08AFF1FC98AFF1F44
:1027400000A00640488AFF1F448AFF1F2DE9F84F6A
:102750000746284B1B6813F4806F49D0264B1B6833
:102760000BB101221A7007EB010B5F453DD2DFF878
:102770009890224EDFF88C80DFF890A099F8004006
:102780000134402C28BF00243578EDB2A54220D179
:10279000BC2388F80330FEF791FE402811DC98F83E
:1027A000043013F0800F10D033780133402B28BF52
:1027B00000231AF80320D2B288F80720DBB2337066
:1027C00003E0FF2801DDFFF7ABFD3378DBB29D426C
:1027D000E1D017F8013B0AF804300122084B1A70C7
:1027E000E4B289F800405F45C8D1BC22054BDA70DD
:1027F000BDE8F88F34800440CC8AFF1FC98AFF1FD0
:10280000448AFF1F00A00640D08AFF1F488AFF1F8E
:1028100010B5064B1B7813F0FF0F06D0034CFFF7E3
:102820007FFD237813F0FF0FF9D110BD448AFF1FFD
:10283000064B1B78DBB2064A1278D2B293422CBF09
:102840003F3202F1FF32D01A704700BFD08AFF1F1B
:10285000C98AFF1F054B1878C0B2054B1B78DBB245
:10286000984238BF4030C01A704700BFC88AFF1F67
:10287000458AFF1F10B4184B1A78D2B2174B1B7839
:10288000DBB29A4218D001333F2B18D81449C85CE8
:10289000C0B2DCB211490C7012490968C9B19A4240
:1028A00003D300E00023D31A01E04032D31A1A2BDD
:1028B0000FDC00230B700CE04FF0FF3009E0084BF9
:1028C0001878C0B20021054B1970064B1968002911
:1028D000E8D15DF8044B7047C88AFF1F458AFF1F87
:1028E000888AFF1F408AFF1F094B1A78D2B2094B12
:1028F0001B78DBB29A4207D00133402B28BF00235C
:10290000054AD05CC0B270474FF0FF30704700BF3F
:10291000C88AFF1F458AFF1F888AFF1F0D4B1B684F
:1029200013F4806F14D00C4BDA7802F0CB02DA701B
:1029300040225A74DA7842F03402DA70074B1A787F
:10294000D2B2074B1A70074B1B680BB100221A70EA
:10295000704700BF3480044000A00640458AFF1F36
:10296000C88AFF1F408AFF1F70B43D4B1B7913F0CC
:10297000300F33D072B63A4B9B7D03F0FF022BB978
:10298000374BDA7940225A7462B627E062B6354B8B
:102990001978C9B2344B1C78E4B2314D334EEB791F
:1029A000D8B24B1C402B28BF0023A3421CBFF054BD
:1029B0001946531E13F0FF02F1D1CAB2294B1A7007
:1029C0002B4B1B6853B1A1422EBFC4EB0101C4F1D4
:1029D000400409192729C4BF01221A70204BDA7854
:1029E000D2B212F0800F27D01B7913F0800F23D0C2
:1029F000204B1C78E4B2204B1B78DBB29C4210D0F9
:102A000017491E4D01E0A3420BD00133402B28BFD4
:102A100000230879E85CC0B2C871087DC0B20728FD
:102A2000F1D9DBB214490B700D4B1B7913F0800FF9
:102A300002D07C210A4BD97012F0400F0ED0084B07
:102A40001B7913F0400F09D000220D4B1A700D4B6B
:102A50001B6803B11A703C22014BDA7070BC7047DE
:102A600000A00640C88AFF1F458AFF1F888AFF1FF3
:102A7000408AFF1FD08AFF1FC98AFF1F488AFF1F95
:102A8000448AFF1FCC8AFF1F194B1A6842F4006268
:102A90001A600023174A1370174A1370174A1370ED
:102AA000174A1370174A137040F21332164B1A600C
:102AB0004FF4517204331A60C0F34432134B1A704E
:102AC000C0F347125A7000F01F00987204229A70E7
:102AD0000221D9745A7588221A743C22DA70402275
:102AE0000B4B1A704FF40042A3F22B331A6070475D
:102AF000348004403C8BFF1FD28AFF1F448BFF1F92
:102B00003D8BFF1FD18AFF1F0CB0044000B0064070
:102B10002FE400E0164B9B7803F0EC0300F0030277
:102B2000134310F0040F18BF43F01003104A9370C2
:102B300000F00F03042B04D11346927942F04002B7
:102B40009A710B4B5A7902F0EF0210F0100F18BF78
:102B500042F01002064B5A719B7903F0EF0310F01C
:102B6000200F18BF43F01003014A9371704700BF54
:102B700000B0064010B5114B1B6813F4006F1CD059
:102B80000F4B1B7813F0FF0F06D00D4CFFF7C8FB5F
:102B9000237813F0FF0FF9D14FF40042094B1A606C
:102BA0000023094AD37040F2031208490A60043135
:102BB0000A60074A1370074A137010BD348004403E
:102BC000D18AFF1F84E100E000B006400CB0044051
:102BD0003C8BFF1FD28AFF1F10B50446094A1378A9
:102BE00013F0FF0FFBD120460121FEF7BBFC20466E
:102BF0000021FEF793FC044B53F83420034B1A607A
:102C000010BD00BFD18AFF1F703B0000408BFF1F2B
:102C10000D4B1B6813F4006F13D016280AD14FF424
:102C200040720A4B1A600A4B5A7B42F008025A73F0
:102C300001207047064B5A7B02F0F7025A730020BE
:102C400070470020704700BF3480044004B0044047
:102C500000B006400D4B1B6813F4006F13D017280B
:102C60000AD14FF440720A4B1A600A4B5A7B42F069
:102C700001025A7301207047064B5A7B02F0FE0294
:102C80005A73002070470020704700BF3480044012
:102C900008B0044000B006402DE9F04107461F4B44
:102CA0001B6813F4006F37D01D4B1B680BB101225A
:102CB0001A701C4B1C780134282C28BF00241A4D94
:102CC0001A4EDFF86C8017E0FEF7F8FB40280FDCA7
:102CD000337913F0800F0FD02B780133282B28BFC6
:102CE000002318F80320D2B2F271DBB22B7003E09C
:102CF000FF2801DDFFF714FB2B78DBB29C42E3D009
:102D0000FFB20B4B1F5501220A4B1A70E4B2054B60
:102D10001C70BC22054BDA70BDE8F08134800440A1
:102D2000408BFF1F448BFF1F3D8BFF1F00B00640F1
:102D3000D48AFF1FD18AFF1F2DE9F84F0746284B81
:102D40001B6813F4006F49D0264B1B680BB101229E
:102D50001A7007EB010B5F453DD2DFF89890224EC9
:102D6000DFF88C80DFF890A099F800400134282C1F
:102D700028BF00243578EDB2A54220D1BC2388F8C5
:102D80000330FEF79BFB402811DC98F8043013F069
:102D9000800F10D033780133282B28BF00231AF876
:102DA0000320D2B288F80720DBB2337003E0FF289B
:102DB00001DDFFF7B5FA3378DBB29D42E1D017F8B9
:102DC000013B0AF804300122084B1A70E4B289F87A
:102DD00000405F45C8D1BC22054BDA70BDE8F88FD2
:102DE00034800440408BFF1F3D8BFF1FD18AFF1FA3
:102DF00000B00640448BFF1FD48AFF1F10B5064B5E
:102E00001B7813F0FF0F06D0034CFFF789FA2378E5
:102E100013F0FF0FF9D110BDD18AFF1F064B1B78AD
:102E2000DBB2064A1278D2B293422CBF273202F1AB
:102E3000FF32D01A704700BF448BFF1F3D8BFF1F2E
:102E4000054B1878C0B2054B1B78DBB2984238BFEF
:102E50004030C01A704700BF3C8BFF1FD28AFF1F53
:102E60000A4B1A78D2B20A4B1B78DBB29A4209D0CD
:102E70000133402B28BF0023064AD05CDBB2044A52
:102E8000137070474FF0FF30704700BF3C8BFF1F3F
:102E9000D28AFF1FFC8AFF1F094B1A78D2B2094B56
:102EA0001B78DBB29A4207D00133402B28BF0023A6
:102EB000054AD05CC0B270474FF0FF30704700BF8A
:102EC0003C8BFF1FD28AFF1FFC8AFF1F0A4B1B6827
:102ED00013F4006F0FD0094BDA7802F0CB02DA70EE
:102EE00040225A74DA7842F03402DA70044B1A78CD
:102EF000D2B2044B1A7070473480044000B00640D0
:102F0000D28AFF1F3C8BFF1F70B4364B1B7913F026
:102F1000300F25D072B6334B9B7D03F0FF022BB9E7
:102F2000304BDA7940225A7462B619E062B62E4B01
:102F30001978C9B22D4B1D78EDB22A4C2C4EE3798D
:102F4000D8B24B1C402B28BF0023AB421CBFF0540F
:102F50001946531E13F0FF02F1D1C9B2224B19706A
:102F6000204BDA78D2B212F0800F27D01B7913F001
:102F7000800F23D01F4B1C78E4B21F4B1B78DBB2B1
:102F80009C4210D017491D4D01E0A3420BD00133E4
:102F9000282B28BF00230879E85CC0B2C871087DDF
:102FA000C0B20728F1D9DBB213490B700D4B1B7966
:102FB00013F0800F02D07C210A4BD97012F0400F21
:102FC0000ED0084B1B7913F0400F09D000220C4B98
:102FD0001A700C4B1B6803B11A703C22014BDA705B
:102FE00070BC704700B006403C8BFF1FD28AFF1FA9
:102FF000FC8AFF1F448BFF1F3D8BFF1FD48AFF1FDE
:10300000D18AFF1F408BFF1F174B1A6842F4805272
:103010001A600023154A1370154A1370154A13706D
:10302000154A1370154A137040F21331144A116097
:103030004FF4517104321160C0F34431114A1170E0
:10304000C0F34711517000F01F0090729370137419
:103050002C23D37040220C4B1A704FF40032A3F291
:103060002D331A60704700BF34800440B08BFF1FBF
:10307000468BFF1FB88BFF1FB18BFF1F458BFF1FB8
:1030800008C0044000C0064031E400E0164B9B78C5
:1030900003F0EC0300F00302134310F0040F18BF19
:1030A00043F01003104A937000F00F03042B04D177
:1030B0001346927942F040029A710B4B5A7902F012
:1030C000EF0210F0100F18BF42F01002064B5A71B9
:1030D0009B7903F0EF0310F0200F18BF43F01003AB
:1030E000014A9371704700BF00C0064010B5114BF4
:1030F0001B6813F4805F1CD00F4B1B7813F0FF0F7D
:1031000006D00D4CFFF70CF9237813F0FF0FF9D11F
:103110004FF40032094B1A600023094AD37040F281
:10312000031208490A6004310A60074A1370074A0B
:10313000137010BD34800440458BFF1F84E100E014
:1031400000C0064008C00440B08BFF1F468BFF1F25
:1031500010B50446094A137813F0FF0FFBD120463F
:103160000121FEF7FFF920460021FEF7D7F9044BB5
:1031700053F83420034B1A6010BD00BF458BFF1F6E
:10318000703B0000B48BFF1F0D4B1B6813F4805F76
:1031900014D002280BD14FF440720A4B1A6003F589
:1031A00000335A7B42F008025A7301207047064BE5
:1031B0005A7B02F0F7025A730020704700207047D4
:1031C0003480044000C0044000C006400D4B1B6822
:1031D00013F4805F13D00E280AD14FF440720A4BCB
:1031E0001A600A4B5A7B42F001025A730120704761
:1031F000064B5A7B02F0FE025A73002070470020F3
:10320000704700BF3480044004C0044000C0064042
:103210002DE9F04107461F4B1B6813F4805F37D040
:103220001D4B1B680BB101221A701C4B1C7801341A
:10323000282C28BF00241A4D1A4EDFF86C8017E0A6
:10324000FEF73CF940280FDC337913F0800F0FD0E4
:103250002B780133282B28BF002318F80320D2B283
:10326000F271DBB22B7003E0FF2801DDFFF758F8A5
:103270002B78DBB29C42E3D0FFB20B4B1F550122EF
:103280000A4B1A70E4B2054B1C70AC22054BDA7085
:10329000BDE8F08134800440B48BFF1FB88BFF1F62
:1032A000B18BFF1F00C00640488BFF1F458BFF1FDF
:1032B00038B505460C4629B115F8010BFFF7A8FFF4
:1032C000013CF9D138BD00BF10B5064B1B7813F097
:1032D000FF0F06D0034CFFF723F8237813F0FF0FFE
:1032E000F9D110BD458BFF1F064B1B78DBB2064A98
:1032F0001278D2B293422CBF273202F1FF32D01A99
:10330000704700BFB88BFF1FB18BFF1F054B1878AC
:10331000C0B2054B1B78DBB2984238BF4030C01AB0
:10332000704700BFB08BFF1F468BFF1F0A4B1A78F8
:10333000D2B20A4B1B78DBB29A4209D00133402B40
:1033400028BF0023064AD05CDBB2044A13707047E2
:103350004FF0FF30704700BFB08BFF1F468BFF1F41
:10336000708BFF1F094B1A78D2B2094B1B78DBB266
:103370009A4207D00133402B28BF0023054AD05C76
:10338000C0B270474FF0FF30704700BFB08BFF1FD7
:10339000468BFF1F708BFF1F024B1A78D2B2024B75
:1033A0001A707047468BFF1FB08BFF1F264B1B798F
:1033B00013F0200F12D0244BDB79D9B2234B1B78AA
:1033C0000133402B28BF0023214A1278D2B29A42FF
:1033D00004D0204AD154DBB21C4A13701A4BDB785C
:1033E000DBB213F0800F1CD0174A127912F0800F55
:1033F00017D0194A1178C9B2184A1278D2B291423C
:1034000003D16C21104AD1700BE00132282A28BF69
:1034100000221349885CC0B20B49C871D2B20F496F
:103420000A7013F0400F0ED0074B1B7913F0400FBA
:1034300009D000220B4B1A700B4B1B6803B11A709A
:103440002C22014BDA70704700C00640B08BFF1F82
:10345000468BFF1F708BFF1FB88BFF1FB18BFF1FA9
:10346000488BFF1F458BFF1FB48BFF1F00B585B036
:1034700072B61B4B70221A7041211A4A11700F212B
:10348000013A117080221A701A46137813F0800FD7
:10349000FBD0154B186862B6144B98429CBF00EBEA
:1034A0008000400001A90A2200F012FA9DF80430C1
:1034B0007BB908E001A9595C31B191800232013336
:1034C0000A2BF7D100E0002301335B00084A137098
:1034D00003E0074A53800123ECE705B05DF804FBE5
:1034E0000000024007000240080002407F9698005A
:1034F000F887FF1F08B503681B68C9B2984708BD65
:1035000008B503681B68C9B2984708BD08B50368C9
:103510001B68C9B2984708BD08B503681B68C9B2E3
:10352000984708BD08B54B0803F1376000F5D8305F
:10353000B0FBF1F0FEF7A0FF08BD00BF10B51446C8
:103540004B0803F1376000F5D830B0FBF1F0FEF71F
:1035500093FF2046FEF7D6FF10BD00BF08B5FFF76A
:1035600001F808BD08B50846FFF736F808BD00BFEA
:1035700008B50846FFF74CF8003018BF012008BD19
:1035800008B50846FFF766F8003018BF012008BDEF
:1035900008B5FFF75FF908BD08B5FFF7A5F908BD45
:1035A00008B5FFF767F908BD08B5FFF731F908BDA1
:1035B00008B5FFF7B3F908BD08B5FFF739F908BD3D
:1035C00008B50846FFF772F8012008BD08B508469F
:1035D000FFF76CF8012008BD10B5144608461146E7
:1035E000FFF7B4F8204610BD38B50D46084600F088
:1035F000B9F9044628462146FFF7A8F8204638BD09
:10360000704700BF044B00221A714FF47A71996021
:103610001A73024A1A607047BC8BFF1FE03C00001F
:1036200008B503681B68C9B2984708BD08B50368A8
:103630001B68C9B2984708BD08B503681B68C9B2C2
:10364000984708BD08B503681B68C9B2984708BD0C
:1036500008B54B0803F1376000F5D830B0FBF1F046
:10366000FFF712FA08BD00BF10B514464B0803F16E
:10367000376000F5D830B0FBF1F0FFF705FA2046CF
:10368000FFF748FA10BD00BF08B5FFF773FA08BD91
:1036900008B50846FFF7A0FA08BD00BF08B5084600
:1036A000FFF7B6FA003018BF012008BD08B508467C
:1036B000FFF7D0FA003018BF012008BD08B5FFF7AA
:1036C000BFFB08BD08B5FFF7E7FB08BD08B5FFF76E
:1036D000C7FB08BD08B5FFF791FB08BD08B5FFF7AC
:1036E000F5FB08BD08B5FFF799FB08BD08B508460E
:1036F000FFF7D2FA012008BD08B50846FFF7CCFA5B
:10370000012008BD10B5144608461146FFF714FB0A
:10371000204610BD38B50D46084600F023F9044692
:1037200028462146FFF708FB204638BD704700BFFA
:10373000044B00221A714FF47A7199601A73024A8D
:103740001A607047CC8BFF1F383D000008B5036836
:103750001B68C9B2984708BD08B503681B68C9B2A1
:10376000984708BD08B503681B68C9B2984708BDEB
:1037700008B503681B68C9B2984708BD08B54B086F
:1037800003F1B76000F55840B0FBF1F0FFF73CFCE7
:1037900008BD00BF10B514464B0803F1B76000F533
:1037A0005840B0FBF1F0FFF72FFC2046FFF76EFC0E
:1037B00010BD00BF08B5FFF799FC08BD08B5084665
:1037C000FFF7C6FC08BD00BF08B50846FFF7DCFCE4
:1037D000003018BF012008BD08B50846FFF7F6FC09
:1037E000003018BF012008BD08B5FFF78FFD08BDE8
:1037F00008B5FFF7B7FD08BD08B5FFF797FD08BD91
:1038000008B5FFF761FD08BD08B5FFF7C5FD08BDA8
:1038100008B5FFF769FD08BD08B50846FFF7F8FCD5
:10382000012008BD08B50846FFF7F2FC012008BDDD
:1038300010B5144608461146FFF73AFD204610BD64
:1038400038B50D46084600F08DF804462846214656
:10385000FFF72EFD204638BD704700BF044B002205
:103860001A714FF47A7199601A73024A1A6070479C
:10387000DC8BFF1F903D000008B5FEF75BFC08BD28
:1038800008B5FEF70BFC08BD08B5FEF733FC08BD14
:1038900008B5FEF7E7FC08BD08B50846FEF7D6FCFC
:1038A00008BD00BF08B508461146FEF751FC08BD2B
:1038B000704700BF044B00221A714FF47A7199606F
:1038C0001A73024A1A607047EC8BFF1FE83D000034
:1038D00030B40023B0FBF2F402FB14041D46092CA3
:1038E00094BF30343734E4B2CC54B0FBF2F008B1BA
:1038F0000133EFE70D4400226A70934207DD885CD4
:10390000CC5C8C54C8540132013B9A42F7DB084628
:1039100030BC704770B50F4E0F4D761BB61007D0F8
:10392000043D0024013455F8043F9847A642F9D1DC
:103930000A4E0B4D761B00F063FAB61008D0043D1A
:103940000024013455F8043F9847A642F9D170BDD0
:1039500070BD00BF0C3E00000C3E0000283E000081
:103960000C3E000020F0030110F00300C0F1000045
:1039700051F8043B00F1040C4FEACC0C6FF000024C
:103980001CBF22FA0CF213434FF0010C4CEA0C2C32
:103990004CEA0C4CA3EB0C0222EA030212EACC1212
:1039A00004BF51F8043B0430F4D013F0FF0F1FBFE5
:1039B000013013F47F4F013013F47F0F18BF013033
:1039C000704700BF024B13B10248FDF71FBC7047A0
:1039D00000000000D939000038B5094D094C641BBE
:1039E000A41018BF05EB840505D0013C55F8043D33
:1039F0009847002CF9D1BDE8384000F015BA00BF57
:103A000000000000000000000000000000000000B6
:103A100089050000BD040000A10400006904000045
:103A20006504000099040000510600000000000039
:103A30000000FF0080808000FF0000000000000008
:103A40000000FF0080808000FF00000000000000F8
:103A50000000FF000000FF00808080008080800068
:103A6000FF000000FF000000000000000000000058
:103A70000000FF00002AD5000055AB00007FAB001E
:103A800000ABAB0000D5560000FF00002AD50000B7
:103A900055AB0000AA560000FF000000D5002A0028
:103AA000AB00550081007F005500AB002B00D50016
:103AB0000000FF00000000000055AB000000000007
:103AC00000ABAB000000000000FF000000000000A1
:103AD00055AB000000000000FF00000000000000E7
:103AE000AB005500000000005500AB0000000000D6
:103AF000AB0055007C0084004B00B5001B00E500C6
:103B00000017E8000047B8000077AB0000ABAB003F
:103B10000055AB000022DD000E00F2003E00C200A6
:103B200071008F00A1005F00D0002F00F907000096
:103B3000FF0000008B0000008B0000008B000000E5
:103B40008B0000008B0000008B0000008B00000049
:103B5000FF0000008B000000EBCE8700EBCE87005B
:103B6000E6D8AD00FFFFFF00E6D8AD00EBCE870042
:103B70004008FE4340A004404408FE4344A00440E3
:103B80000018FE4300C004403000FE433090044063
:103B90003400FE43349004401C18FE431CC0044013
:103BA0001018FE4310C004400818FE4308C004402B
:103BB0000C18FE430CC004400C10FE430CB0044033
:103BC0001010FE4310B004401810FE4318B004401B
:103BD0001C10FE431CB004401410FE4314B00440FB
:103BE0000418FE4304C004400010FE4300B004402B
:103BF0000008FE4300A004400408FE4304A0044063
:103C00000C08FE430CA004400808FE4308A0044032
:103C10001418FE4314C004401818FE4318C0044092
:103C20000410FE4304B004400810FE4308B00440F2
:103C30001400FE43149004404C08FE434CA0044082
:103C40000420FE4304D004402410FE4324B004406A
:103C50002010FE4320B004402810FE4328B004404A
:103C60002C10FE432CB004400020FE4300D0044042
:103C70004808FE4348A004401000FE431090044052
:103C800000151915000100006C87FF1F12000000CD
:103C9000000200009887FF1F43000000000300009F
:103CA000F487FF1F00000000010309048087FF1F45
:103CB0000000000002030904DC87FF1F0000000071
:103CC00003030904F887FF1F000000000000000044
:103CD00000000000000000000000000000000000E4
:103CE000C1350000D935000091350000A135000034
:103CF00099350000A9350000253500003D3500004C
:103D00005D3500006535000071350000813500002B
:103D1000B1350000B9350000F53400000135000070
:103D20000D35000019350000E9350000CD350000E3
:103D30000000000000000000ED3600000537000024
:103D4000BD360000CD360000C5360000D536000077
:103D500051360000693600008936000091360000B7
:103D60009D360000AD360000DD360000E53600006F
:103D7000213600002D36000039360000453600009F
:103D800015370000F93600000000000000000000B8
:103D90001938000031380000E9370000F937000019
:103DA000F1370000013800007D3700009537000032
:103DB000B5370000BD370000C9370000D937000013
:103DC00009380000113800004D3700005937000055
:103DD00065370000713700004138000025380000C9
:103DE000000000000000000099380000A538000025
:103DF00079380000813800008938000091380000CF
:103E0000F8B500BFF8BC08BC9E467047C539000035
:103E100035040000111200000536000031370000A3
:083E20005D380000B538000018
:043E2800F8B500BF2A
:103E2C0063003905FFFFFFFF0A04000012010002C6
:103E3C0002000040C01683040001010203010000CF
:103E4C0018035400650065006E007300790064006F
:103E5C00750069006E006F0009024300020100C08A
:103E6C0032090400000102020100052400100105C2
:103E7C002401010104240206052406000107058221
:103E8C000310004009040100020A000000070503AA
:103E9C000240000007058402400000001603550094
:103EAC00530042002000530065007200690061005D
:103EBC006C000000040309040C0300000000000067
:103ECC0000000000000000000000000000000000E6
:00000001FF
